:020000040800F2
:1080000000000220EDA70008C5A10008C9A10008D2
:10801000CDA10008D1A10008D5A1000800000000F2
:10802000000000000000000000000000B146010850
:10803000D9A100080000000041470108B11901085A
:108040003DA800083DA800083DA800083DA800087C
:108050003DA800083DA800083DA800083DA800086C
:10806000DDA100083DA800083DA80008EDA100081A
:1080700009A200083DA800083DA800083DA8000886
:108080003DA800083DA800083DA800083DA800083C
:108090003DA800083DA800083DA800083DA800082C
:1080A0003DA800083DA800083DA800083DA800081C
:1080B0003DA8000825A200083DA8000831A200083C
:1080C0003DA800083DA800083DA800083DA80008FC
:1080D0003DA800083DA200083DA800083DA80008F2
:1080E0003DA800083DA800083DA800083DA80008DC
:1080F0003DA800083DA800083DA800083DA80008CC
:108100003DA800083DA800083DA800083DA80008BB
:108110003DA800083DA8000849A2000855A2000893
:108120003DA800083DA8000869A200083DA8000875
:108130003DA80008000000000000000075A2000833
:1081400081A200088DA200083DA800083DA80008F3
:108150003DA800083DA8000899A200083DA8000815
:10816000A5A200083DA800083DA800083DA80008F9
:108170003DA800083DA800083DA800080000000038
:10818000000000003DA80008000000000000000002
:108190003DA8000800000000000000003DA8000805
:1081A0000000000000000000000000003DA80008E2
:1081B0003DA800083DA800083DA800083DA800080B
:0481C0003DA80008CE
:1081D00010B5054C237833B9044B13B10448AFF301
:1081E00000800123237010BD60010020000000000A
:1081F0006498020808B5034B1BB103490348AFF369
:10820000008008BD0000000064010020649802089E
:1082100001F0FF01102A2BDB10F0070F08D010F837
:10822000013B013A8B422DD010F0070F42B3F6D13B
:10823000F0B441EA012141EA014122F007047FF054
:1082400000070023F0E80256083C85EA010586EAAB
:10825000010685FA47F5A3FA87F586FA47F6A5FAE7
:1082600087F68EB9EED1F0BC01F0FF0102F00702F3
:1082700032B110F8013B013A83EA010313B1F8D19E
:108280000020704701387047002D06BF354603387F
:10829000073815F0010F07D1013015F4807F02BFB8
:1082A000013015F4C03F0130F0BC0138704700BF09
:1082B00070B54FF0FF0C4CF4E06C1CEA11541DBF7C
:1082C0001CEA135594EA0C0F95EA0C0F00F0DEF847
:1082D0002C4481EA030621EA4C5123EA4C5350EA2C
:1082E000013518BF52EA033541F4801143F480137D
:1082F00038D0A0FB02CE4FF00005E1FB02E506F00E
:108300000042E0FB03E54FF00006E1FB03569CF062
:10831000000F18BF4EF0010EA4F1FF04B6F5007F68
:1083200064F5407404D25FEA4E0E6D4146EB0606DA
:1083300042EAC62141EA55514FEAC52040EA5E5063
:108340004FEACE2EB4F1FD0C88BFBCF5E06F1ED80D
:10835000BEF1004F08BF5FEA500E50F1000041EB44
:10836000045170BD06F0004646EA010140EA0200F1
:1083700081EA0301B4EB5C04C2BFD4EB0C0541EA13
:10838000045170BD41F480114FF0000E013C00F328
:10839000AB8014F1360FDEBF002001F0004170BD4C
:1083A000C4F10004203C35DA0C341BDC04F1140465
:1083B000C4F1200500FA05F320FA04F001FA05F2F1
:1083C00040EA020001F0004221F0004110EBD370BE
:1083D00021FA04F642EB06015EEA430E08BF20EAEA
:1083E000D37070BDC4F10C04C4F1200500FA04F38D
:1083F00020FA05F001FA04F240EA020001F000411F
:1084000010EBD37041F100015EEA430E08BF20EA91
:10841000D37070BDC4F1200500FA05F24EEA020ED9
:1084200020FA04F301FA05F243EA020321FA04F008
:1084300001F0004121FA04F220EA020000EBD370BF
:108440005EEA430E08BF20EAD37070BD94F0000FBF
:108450000FD101F00046400041EB010111F4801FF3
:1084600008BF013CF7D041EA060195F0000F18BFA4
:10847000704703F00046520043EB030313F4801FE0
:1084800008BF013DF7D043EA0603704794EA0C0F9A
:108490000CEA135518BF95EA0C0F0CD050EA4106B0
:1084A00018BF52EA4306D1D181EA030101F000412D
:1084B0004FF0000070BD50EA410606BF1046194655
:1084C00052EA430619D094EA0C0F02D150EA013661
:1084D00013D195EA0C0F05D152EA03361CBF1046A2
:1084E00019460AD181EA030101F0004141F0FE4141
:1084F00041F470014FF0000070BD41F0FE4141F4C5
:10850000780170BD81F0004102E000BF83F00043BC
:1085100030B54FEA41044FEA430594EA050F08BF1E
:1085200090EA020F1FBF54EA000C55EA020C7FEAE2
:10853000645C7FEA655C00F0E2804FEA5454D4EB5F
:108540005555B8BF6D420CDD2C4480EA020281EA29
:10855000030382EA000083EA010180EA020281EA61
:108560000303362D88BF30BD11F0004F4FEA0131B3
:108570004FF4801C4CEA113102D0404261EB4101C2
:1085800013F0004F4FEA03334CEA133302D0524248
:1085900063EB430394EA050F00F0A780A4F1010404
:1085A000D5F1200E0DDB02FA0EFC22FA05F280183E
:1085B00041F1000103FA0EF2801843FA05F3594124
:1085C0000EE0A5F120050EF1200E012A03FA0EFCA3
:1085D00028BF4CF0020C43FA05F3C01851EBE371CD
:1085E00001F0004507D54FF0000EDCF1000C7EEBEA
:1085F00000006EEB0101B1F5801F1BD3B1F5001F28
:108600000CD349085FEA30004FEA3C0C04F1010446
:108610004FEA445212F5800F80F09A80BCF1004F6F
:1086200008BF5FEA500C50F1000041EB045141EAF1
:10863000050130BD5FEA4C0C404141EB0101013CBA
:1086400028BFB1F5801FE9D291F0000F04BF0146A9
:108650000020B1FA81F308BF2033A3F10B03B3F17B
:1086600020020CDA0C3208DD02F1140CC2F10C020B
:1086700001FA0CF021FA02F10CE002F11402D8BF69
:10868000C2F1200C01FA02F120FA0CFCDCBF41EA35
:108690000C019040E41AA2BF01EB0451294330BD04
:1086A0006FEA04041F3C1CDA0C340EDC04F11404E1
:1086B000C4F1200220FA04F001FA02F340EA0300B8
:1086C00021FA04F345EA030130BDC4F10C04C4F1FE
:1086D000200220FA02F001FA04F340EA03002946DE
:1086E00030BD21FA04F0294630BD94F0000F83F428
:1086F000801306BF81F480110134013D4EE77FEA0B
:10870000645C18BF7FEA655C29D094EA050F08BF56
:1087100090EA020F05D054EA000C04BF1946104637
:1087200030BD91EA030F1EBF0021002030BD5FEA7B
:10873000545C05D14000494128BF41F0004130BDA3
:1087400014F580043CBF01F5801130BD01F00045F7
:1087500045F0FE4141F470014FF0000030BD7FEA6A
:10876000645C1ABF194610467FEA655C1CBF0B4665
:10877000024650EA013406BF52EA033591EA030F7C
:1087800041F4002130BD00BF90F0000F04BF002174
:10879000704730B54FF4806404F132044FF00005A7
:1087A0004FF0000150E700BF90F0000F04BF002120
:1087B000704730B54FF4806404F1320410F0004586
:1087C00048BF40424FF000013EE700BF42004FEA81
:1087D000E2014FEA31014FEA02701FBF12F07F43FE
:1087E00093F07F4F81F06051704732F07F4208BFB5
:1087F000704793F07F4F04BF41F40021704730B5BC
:108800004FF4607401F0004521F000411CE700BF07
:1088100050EA010208BF704730B54FF000050AE08A
:1088200050EA010208BF704730B511F0004502D58B
:10883000404261EB41014FF4806404F132045FEA8D
:10884000915C3FF4D8AE4FF003025FEADC0C18BF36
:1088500003325FEADC0C18BF033202EBDC02C2F128
:10886000200300FA03FC20FA02F001FA03FE40EABA
:108870000E0021FA02F11444BDE600BF4FEA4102A6
:10888000B2F1E04324BFB3F5001CDCF1FE5C0DD96E
:1088900001F0004C4FEAC0024CEA5070B2F1004FB8
:1088A00040EB830008BF20F00100704711F0804FBB
:1088B00021D113F13872BCBF01F00040704741F480
:1088C00080114FEA5252C2F11802C2F1200C10FA84
:1088D0000CF320FA02F018BF40F001004FEAC12368
:1088E0004FEAD32303FA0CFC40EA0C0023FA02F30C
:1088F0004FEA4303CCE77FEA625307D150EA0133E2
:108900001EBF4FF0FE4040F44000704701F00040B1
:1089100040F0FE4040F40000704700BF80F000408F
:1089200002E000BF81F0004142001FBF5FEA410347
:1089300092EA030F7FEA226C7FEA236C6AD04FEA47
:108940001262D2EB1363C1BFD2184140484041408C
:10895000B8BF5B42192B88BF704710F0004F40F43E
:10896000000020F07F4018BF404211F0004F41F45A
:10897000000121F07F4118BF494292EA030F3FD026
:10898000A2F1010241FA03FC10EB0C00C3F1200339
:1089900001FA03F100F0004302D5494260EB4000C8
:1089A000B0F5000F13D3B0F1807F06D340084FEA33
:1089B000310102F10102FE2A51D2B1F1004F40EB28
:1089C000C25008BF20F0010040EA03007047490090
:1089D00040EB0000013A28BFB0F5000FEDD2B0FA2D
:1089E00080FCACF1080CB2EB0C0200FA0CF0AABF50
:1089F00000EBC25052421843BCBFD04018437047EE
:108A000092F0000F81F4000106BF80F400000132F3
:108A1000013BB5E74FEA41037FEA226C18BF7FEACA
:108A2000236C21D092EA030F04D092F0000F08BF0C
:108A30000846704790EA010F1CBF0020704712F0F3
:108A40007F4F04D1400028BF40F00040704712F132
:108A500000723CBF00F50000704700F0004343F097
:108A6000FE4040F4000070477FEA226216BF0846CD
:108A70007FEA23630146420206BF5FEA412390EA90
:108A8000010F40F4800070474FF0000304E000BF86
:108A900010F0004348BF40425FEA000C08BF704737
:108AA00043F0964301464FF000001CE050EA0102FB
:108AB00008BF70474FF000030AE000BF50EA010210
:108AC00008BF704711F0004302D5404261EB4101FD
:108AD0005FEA010C02BF84460146002043F0B64322
:108AE00008BFA3F18053A3F50003BCFA8CF2083A47
:108AF000A3EBC25310DB01FA02FC634400FA02FC50
:108B0000C2F12002BCF1004F20FA02F243EB020056
:108B100008BF20F00100704702F1200201FA02FCB8
:108B2000C2F1200250EA4C0021FA02F243EB0200AB
:108B300008BF20EADC70704753B94AB9002908BF62
:108B400000281CBF4FF0FF314FF0FF3000F094B908
:108B5000ADF1080C6DE904CE00F026F8DDF804E074
:108B6000DDE9022304B07047D0B5FFF72FFE0C4BB0
:108B7000002206460F46FFF79BFB00F07FF90446F4
:108B8000FFF702FE074B0022FFF792FB02460B465F
:108B900030463946FFF7BAFC00F070F92146D0BDE7
:108BA0000000F03D0000F0412DE9F047089D04462B
:108BB0008E46002B4DD18A42944669D9B2FA82F290
:108BC00052B101FA02F3C2F1200120FA01F10CFACC
:108BD00002FC41EA030E94404FEA1C48210CBEFB04
:108BE000F8F61FFA8CF708FB16E341EA034306FB8D
:108BF00007F199420AD91CEB030306F1FF3080F01C
:108C00001F81994240F21C81023E63445B1AA4B268
:108C1000B3FBF8F008FB103344EA034400FB07F70A
:108C2000A7420AD91CEB040400F1FF3380F00A814B
:108C3000A74240F207816444023840EA0640E41B40
:108C400000261DB1D4400023C5E900433146BDE8EC
:108C5000F0878B4209D9002D00F0EF800026C5E98E
:108C6000000130463146BDE8F087B3FA83F6002EA6
:108C70004AD18B4202D3824200F2F980841A61EB1E
:108C8000030301209E46002DE0D0C5E9004EDDE73C
:108C900002B9FFDEB2FA82F2002A40F09280A1EB24
:108CA0000C014FEA1C471FFA8CFE0126200CB1FB79
:108CB000F7F307FB131140EA01410EFB03F0884272
:108CC00008D91CEB010103F1FF3802D2884200F2FF
:108CD000CB804346091AA4B2B1FBF7F007FB101191
:108CE00044EA01440EFB00FEA64508D91CEB04042F
:108CF00000F1FF3102D2A64500F2BB800846A4EB8A
:108D00000E0440EA03409CE7C6F12007B34022FA74
:108D100007FC4CEA030C20FA07F401FA06F31C43A3
:108D2000F9404FEA1C4900FA06F3B1FBF9F8200CB0
:108D30001FFA8CFE09FB181140EA014108FB0EF0F6
:108D4000884202FA06F20BD91CEB010108F1FF3A46
:108D500080F08880884240F28580A8F10208614452
:108D6000091AA4B2B1FBF9F009FB101144EA014160
:108D700000FB0EFE8E4508D91CEB010100F1FF340B
:108D80006CD28E456AD90238614440EA0840A0FBA3
:108D90000294A1EB0E01A142C846A64656D353D079
:108DA0005DB1B3EB080261EB0E0101FA07F722FA9D
:108DB00006F3F1401F43C5E9007100263146BDE8C6
:108DC000F087C2F12003D8400CFA02FC21FA03F329
:108DD000914001434FEA1C471FFA8CFEB3FBF7F0AA
:108DE00007FB10360B0C43EA064300FB0EF69E42CF
:108DF00004FA02F408D91CEB030300F1FF382FD268
:108E00009E422DD9023863449B1B89B2B3FBF7F60F
:108E100007FB163341EA034106FB0EF38B4208D9E8
:108E20001CEB010106F1FF3816D28B4214D9023E29
:108E30006144C91A46EA004638E72E46284605E747
:108E40000646E3E61846F8E64B45A9D2B9EB020818
:108E500064EB0C0E0138A3E74646EAE7204694E7A8
:108E60004046D1E7D0467BE7023B614432E73046DB
:108E700009E76444023842E7704700BF4A0011D254
:108E800012F5001211D20DD56FF47873B3EB625264
:108E90000ED44FEAC12343F0004343EA505323FA70
:108EA00002F070474FF00000704750EA013002D1E5
:108EB0004FF0FF3070474FF0000070470D480E4AEA
:108EC0000023122110B5C0E901130C4CC3604FF40C
:108ED000807304604FF480114FF480348261838387
:108EE000C0E9044101F0FAFC00B910BDBDE8104032
:108EF00000F0E4BF7C010020000101000068004098
:108F000030B5294B02688BB000249A42CDE9044465
:108F1000CDE90644089401D00BB030BD03F5E83329
:108F200001941A6C214842F080621A641A6C02F0B3
:108F300080620192019A02941A6C42F000721A64E3
:108F40001A6C02F000720292029A03941A6B42F0B9
:108F500002021A631B6B03F00203039360220223D5
:108F6000CDE9042304A909230322CDE90723039DA6
:108F700002F03EFF224605213F2002F06DF83F201F
:108F800002F0A8F822460521402002F065F84020B2
:108F900002F0A0F822460521412002F05DF84120B0
:108FA00002F098F80BB030BD0068004000040240A9
:108FB00008B502680E4B9A4200D008BD03F5E833AD
:108FC00060211A6C0B4822F080621A641A6C22F03D
:108FD00000721A6403F01EF83F2002F089F8402066
:108FE00002F086F8BDE80840412002F081B800BFD9
:108FF0000068004000040240054808B5054B0360C6
:1090000002F08AF800B908BDBDE8084000F056BF7C
:10901000E0010020003002400B4B02689A4200D071
:10902000704782B000220192D3F8302842F4805277
:10903000C3F8302803F500631B6B03F480530193DE
:10904000019B02B0704700BF0030024000B583B002
:109050001B4B00220092186B40F480001863186BC1
:1090600000F48000009000980192186B40F400100A
:1090700018631B6B03F40013052101930B20019B64
:1090800001F0EAFF0B2002F025F8002205210C2058
:1090900001F0E2FF0C2002F01DF8002205213A2029
:1090A00001F0DAFF3A2002F015F8002246200521EF
:1090B00001F0D2FF462003B05DF804EB02F00AB8DD
:1090C0000038024010B51148114C1249002301220A
:1090D000C0E90041C0E90232C0E90433C0E9063307
:1090E000036202F051FC28B90848002102F056FE44
:1090F00040B910BD00F0E2FE0448002102F04EFE2F
:109100000028F6D0BDE8104000F0D8BEE8010020ED
:10911000006000405016400030B504469FB000216A
:109120005C2207A8CDE90211CDE9041106911FF0D8
:10913000B3FA1A4B22689A4201D01FB030BD802387
:1091400007A8079304F0C2FD28BB154C154800255D
:109150000095236B43F004032363236B03F00403A4
:109160000093C0221223CDE9022301220323CDE97B
:10917000042302A904230693009A02F039FE019504
:10918000236C43F080732364236C03F0807301939A
:10919000019B1FB030BD00F091FED6E7006000409B
:1091A000003802400008024008B5044C20684FF027
:1091B000FF3108F0DBFD16F0C1F9F7E7DC05002010
:1091C00008B5044C20684FF0FF3108F0CFFD16F0D1
:1091D000B7F9F7E73006002008B5044C20684FF0D7
:1091E000FF3108F0C3FD16F0E1F9F7E7880500202C
:1091F00030B50A4D83B0002428688DF807404FF041
:10920000FF3300220DF1070108F080FE0028F3D1A2
:109210009DF8070016F014FAEEE700BFE802002000
:1092200070B50A4E82B00024002530684FF0FF333D
:1092300000226946CDE9004508F068FE0028F4D117
:10924000DDE9000116F004FCEFE700BF8C0200200E
:1092500008B5044C20684FF0FF3108F087FD16F088
:109260002FFAF7E78406002008B516F00DFBFCE79F
:109270002DE9F0410026274FDFF8A080264C354627
:1092800013E0D8F80000052108F070FDB8B90FF020
:10929000B1FA23685A0718D1D5B1052E1FD001366F
:1092A000F6B2012523680133236038684FF0FF319F
:1092B00008F05CFD00200FF06BFA0028E1D00020E0
:1092C00010F030FB23685A07E6D0002DEBD0E4E71E
:1092D000284610F043F8B8B901263546E2E70020E9
:1092E0000FF05EFD50B9D8F80000314608F03EFDA1
:1092F000054618B911F0A0FE0626D3E7002010F0AD
:1093000035FE06260025CDE7284610F02FFE2368FF
:10931000C9E700BFD8060020988300203C03002046
:109320002DE9F0410026284FDFF8A480274C354670
:1093300014E0D8F80000052108F018FDC0B901209C
:109340000FF058FA23685A0718D1D5B1052E1FD04F
:109350000136F6B2012523680133236038684FF0E7
:10936000FF3108F003FD01200FF012FA0028E0D0D1
:10937000012010F0D7FA23685A07E6D0002DEBD071
:10938000E4E701200FF0EAFFC0B901263546E2E725
:1093900001200FF005FD58B9D8F80000314608F05B
:1093A000E5FC054620B9012011F046FE0626D2E76D
:1093B000012010F0DBFD06260025CCE7012010F08F
:1093C000D5FD2368C8E700BF2C0700209483002048
:1093D0009003002008B5044C20684FF0FF3108F0DE
:1093E000C5FC16F053FAF7E73405002008B5054C24
:1093F00020684FF0FF3108F0B9FC002016F054FA55
:10940000F6E700BF9403002008B5054C20684FF034
:10941000FF3108F0ABFC012016F046FAF6E700BF7A
:109420009803002008B5044C20684FF0FF3108F085
:109430009DFC16F04FFAF7E78C04002008B5044CA9
:1094400020684FF0FF3108F091FC16F051FAF7E771
:10945000E004002008B5034C16F05CFA206808F020
:109460002DFBF9E70C62002010B5304C304A236820
:1094700003FB02F2B2F1553F1ED92E4A03FB02F262
:10948000B2F1333F23D92B4A2B4903FB02F2B1EB54
:10949000720F44D2274A294903FB02F2B1EBF20FC3
:1094A00037D227482749DA1C00FB02F2B1EBB20F92
:1094B0001FD20133236010BD234B186808F08AFCCB
:1094C00023681C4A03FB02F2B2F1333FDBD81F4B87
:1094D000186808F07FFC1E4B186808F07BFC1D4BD9
:1094E000186808F077FC1C4B186808F073FC2368B8
:1094F000C9E71A4B186808F06DFC194B186808F09A
:1095000069FC184B186808F065FC23680133236078
:1095100010BD154B186808F05DFC2368C1E7134BBC
:10952000186808F057FC2368B4E700BF9083002058
:10953000ABAAAAAACDCCCCCC999999196666660635
:10954000295C8FC2285C8F02840600203006002030
:1095500034050020D80600202C07002094030020AA
:1095600098030020E00400208C04002088050020DF
:1095700010B57D4A0021012008F0A4FB7B4B7C4AFA
:109580000446002101201C6008F09CFB794B7A4ABC
:109590000446002101201C6008F094FB774B784AB8
:1095A0000446002101201C6008F08CFB754B764AB4
:1095B0000446002101201C6008F084FB734B744AB0
:1095C0000446002101201C6008F07CFB714B724AAC
:1095D0000446002101201C6008F074FB6F4B704AA8
:1095E0000446002101201C6008F06CFB6D4B6E4AA4
:1095F0000446002101201C6008F064FB6B4B6C4AA0
:109600000446002101201C6008F05CFB694B6A4A9B
:109610000446002101201C6008F054FB674B684A97
:109620000446002101201C6008F04CFB654B664A93
:109630000446002101201C6008F044FB634C644B8D
:10964000206000220121634808F056FA624B012194
:10965000186008F091FA614A0121082008F0E6FB41
:109660005F4B604A0446082101201C6008F0DEFBC5
:109670005D4B5E4A044600215D481C6008F0D2F94B
:109680005C4B5D4A044600215C481C6008F0CAF946
:109690005B4B5C4A044600215B481C6008F0C2F941
:1096A0005A4B5B4A044600215A481C6008F0BAF93C
:1096B000594B5A4A0446002159481C6008F0B2F937
:1096C000584B594A0446002158481C6008F0AAF932
:1096D000574B584A0446002157481C6008F0A2F92D
:1096E000564B574A0446002156481C6008F09AF928
:1096F000554B564A0446002155481C6008F092F923
:10970000544B554A0446002154481C6008F08AF91D
:10971000534B544A0446002153481C6008F082F918
:10972000524B534A0446002152481C6008F07AF913
:10973000514B524A0446002151481C6008F072F90E
:10974000504B514A0446002150481C6008F06AF909
:109750004F4B504A044600214F481C6008F062F904
:109760004E4B186010BD00BFF89B0208DC050020BE
:10977000089C020830060020E89B020888050020AB
:10978000189C020884060020289C0208D8060020A5
:10979000389C02082C070020789B02083C0300201C
:1097A000889B020890030020D89B02083405002003
:1097B000989B020894030020A89B020898030020AD
:1097C000B89B02088C040020C89B0208E00400201B
:1097D000649E0208699400088C830020609B020844
:1097E000E8020020489B02088C0200206C9C0208C2
:1097F000A9910008CC4A0020909C0208C191000861
:109800009C530020489C0208D9910008FC47002086
:10981000409E0208F19100085C830020F89D020838
:1098200021920008BC750020D89C020851920008C3
:109830003C5D0020B49C0208699200086C5800202E
:109840008C9D020871920008806A0020B09D020879
:1098500021930008846A00201C9E0208D59300080A
:109860008C7E0020209D0208ED930008DC6400201F
:10987000449D020809940008AC670020689D020816
:10988000259400087C6A0020D49D02083D940008BD
:10989000EC720020FC9C0208559400080C62002029
:1098A0002DE9F04F2DED048B00248DB0CDE9064459
:1098B000CDE908446C4B01940A941A6B6B4E6C4DC5
:1098C0006C4F42F004021A631A6B02F00402019218
:1098D000019A02941A6B42F080021A631A6B02F02A
:1098E00080020292029A03941A6B42F001021A63F8
:1098F0001A6B02F001020392039A04941A6B42F06D
:1099000002021A631A6B02F002020492049A05948E
:109910001A6B42F008021A631B6B03F008030593ED
:109920003046012240F23111059B02F025FC22460F
:10993000284641F2020102F01FFC2846012248F2AB
:10994000100102F019FC384641F20101012202F037
:1099500013FC9FED419B22463846922102F00CFCFD
:109960004FF48042002306A93046CDE906234FF08C
:10997000000A4FF0010B089402F03AFA06A93046AB
:109980009FED378B8DED069BCDE908AB02F030FAE9
:1099900006A9284601220023CDE906234FF000083E
:1099A0004FF00009089402F023FA06A9284641F274
:1099B00012020123CDE90623CDE9088902F018FA45
:1099C00006A9304610220123CDE906238DED088B30
:1099D00002F00EFA4FF490720123304606A9CDE949
:1099E0000623CDE9088902F003FA06A938468DED71
:1099F000069B8DED088B02F0FBF9384606A941F273
:109A000092020123CDE90623CDE9088902F0F0F99D
:109A100006A928464FF400420123CDE90623CDE9EB
:109A200008AB02F0E5F94FF4881306A904221248A6
:109A30000894CDE9062302F0DBF92246052108202F
:109A400001F00AFB082001F045FB0DB0BDEC048BD2
:109A5000BDE8F08FAFF300800100000001000000BE
:109A60000000000002000000003802400008024030
:109A70000000024000040240000C024010B50B48F8
:109A80000B4C0C4900234FF48042C0E90041C0E96F
:109A90000233C0E90423C0E90633036202F07EFB0F
:109AA00000B910BDBDE8104000F008BA5C84002089
:109AB00000540040801A060010B50B480B4C0C49AE
:109AC00000234FF48042C0E90041C0E90233C0E9FD
:109AD0000423C0E90633036202F060FB00B910BD45
:109AE000BDE8104000F0EAB9B08400200058004002
:109AF000801A060010B50B480B4C0C4900234FF49C
:109B00008042C0E90041C0E90233C0E90423C0E952
:109B10000633036202F042FB00B910BDBDE81040FD
:109B200000F0CCB904850020005C0040801A0600DB
:109B3000F0B50368794A8FB000249342CDE9084418
:109B4000CDE90A4405460C9408D0754A934249D0A1
:109B5000744A934200F082800FB0F0BD724F0094BF
:109B60003B6B7248724E43F002033B633B6B03F066
:109B700002030093009B4FF440721223CDE90823A7
:109B800008A903220423CDE90B2302F031F9019443
:109B90003B6C684A43F400133B643B6CB46003F4D1
:109BA000001301934FF00073C6E9002330464FF4D1
:109BB0008063C6E90343C6E90544C6E90744019941
:109BC000746201F0D7FA002840F0A280AE63002250
:109BD00005211F20B56301F03FFA1F2001F07AFA3A
:109BE0000FB0F0BD504D02942B6B504843F0020370
:109BF0002B632B6B03F002030293029B03942B6BEA
:109C000043F004032B632B6B03F0040303934FF423
:109C100080621223CDE90823042608A903230B93AD
:109C20000C96039B02F0E4F84FF480521223CDE926
:109C3000082341480C960022032308A9CDE90A23F2
:109C400002F0D6F804942B6C43F480032B642B6C45
:109C500003F480030493049B0FB0F0BD324F0594CE
:109C60003B6B354843F004033B633B6B03F0040359
:109C70000593059B06943B6B43F001033B633B6BF1
:109C800003F0010306934FF40072069B1223CDE903
:109C900008230426032308A90C960B9302F0A8F8C6
:109CA0004FF480721223CDE9082324480C96002239
:109CB000032308A9CDE90A2302F09AF807943B6C24
:109CC0001F4E204AB46043F400033B643B6CF460D5
:109CD00003F4000307934FF00073C6E900233046F6
:109CE0004FF48063C6E90434C6E90644C6E9084473
:109CF000079901F03FFA70B9AE63002205214820B0
:109D0000B56301F0A9F9482001F0E4F90FB0F0BD06
:109D100000F0D4F85AE700F0D1F8EDE70054004025
:109D200000580040005C004000380240000402403F
:109D30009C830020106002400008024000000240A6
:109D4000FC8300202860024010B5002396B0CDE9C6
:109D50000A33CDE90C33CDE90233CDE90433284988
:109D600000930693086C274A40F080500864096C01
:109D700001F08051009100990193116841F4404134
:109D8000116012689FED1A7B022302F440424FF4E7
:109D900080000192CDE90E300821B42208A88DED93
:109DA000087BCDE91123CDE91333019C109104F018
:109DB000E5F908B172B6FEE703F06CFE08B172B6C1
:109DC000FEE79FED0D7B4FF4A0530022CDE9042365
:109DD00002A84FF4805305218DED027B069303F01A
:109DE00095FE08B172B6FEE716B010BDAFF3008065
:109DF00001000000000001000F0000000200000050
:109E0000003802400070004008B500F019FDFFF76F
:109E10009BFFFFF745FDFFF719F900F0B3FA00F0DB
:109E20004FFB00F089FB00F08FF8FFF7E5F800F03A
:109E300069F800F043FCFFF745F900F041F8FFF73F
:109E40003BFEFFF71BFEFFF755FEFFF737F800F06C
:109E5000D3FA094804F088FF084804F085FF084950
:109E600008480DF087FB0DF0ABFB07F0AFFDFFF7E7
:109E70007FFB07F0BDFDFEE7AC8600203C8700209D
:109E8000CC8700208C88002008B572B6054B02688C
:109E90009A4201D062B608BD08460DF041FB62B699
:109EA00008BD00BF00100140034B02689A4200D079
:109EB000704700F0DFBC00BF0010004072B6FEE744
:109EC0000E480F494FF4827210B50023C0E900120A
:109ED0004FF4007410210A22C0E90233C0E90433B0
:109EE000C0E90641C0E90833C0E90A3204F0ACFB1E
:109EF00000B910BDBDE81040FFF7E0BF5885002055
:109F0000003001400E480F494FF4827210B5002313
:109F1000C0E900124FF4007410210A22C0E9023394
:109F2000C0E90433C0E90641C0E90833C0E90A3298
:109F300004F08AFB00B910BDBDE81040FFF7BEBFBA
:109F4000B0850020003800400E480F494FF482725F
:109F500010B50023C0E900124FF4007410210A224A
:109F6000C0E90233C0E90433C0E90641C0E908335F
:109F7000C0E90A3204F068FB00B910BDBDE810402A
:109F8000FFF79CBF08860020003C00400000000056
:109F900010B5026854498EB000238A42CDE90833D7
:109FA000CDE90A330C9307D050498A4227D0504953
:109FB0008A425FD00EB010BD4E4A0193506C40F4FF
:109FC00080505064506C00F48050019001980293CE
:109FD000136B494843F001031363136B9FED3E7B02
:109FE00003F0010302930322052308A98DED087BEA
:109FF000CDE90B23029C01F0FBFE0EB010BD3D4AE3
:10A000000393116C3D4841F480411164116C01F4DB
:10A010008041039103990493116B41F00401116392
:10A02000116B01F00401049104990593136B43F043
:10A0300002031363136B03F0020305930C22022344
:10A04000CDE90823052408A90323CDE90B34059A9B
:10A0500001F0CEFE4FF400520223CDE90823284838
:10A060000C940022032308A9CDE90A2301F0C0FEC5
:10A070000EB010BD1F4A0693116C204841F40041F8
:10A080001164116C01F40041069106990793136B5A
:10A0900043F004031363136B03F0040307930222DA
:10A0A0000223CDE9082308A903220523CDE90B23C8
:10A0B000079C01F09DFE9FED0A7B00220323CDE962
:10A0C0000A230E48062308A98DED087B0C9301F0A6
:10A0D0008FFE0EB010BD00BFE000000002000000C7
:10A0E000000C000002000000003001400038004079
:10A0F000003C0040003802400000024000080240DE
:10A100000004024082B00E4B00220092596C41F4D0
:10A1100080415964586C00F480400090009801928E
:10A12000186C40F0805018641B6C03F0805301934E
:10A13000019B0F216FF0010002B000F08DBF00BF46
:10A140000038024030B5014689B00022362000F0C8
:10A1500083FF362000F0BEFF0025164B02951A6CD7
:10A16000154C42F010021A641B6C03F0100301A995
:10A1700003A80293029B03F087FD03F065FD0F4ADD
:10A180000F4921604300A2FB03239B0C013B40F2DB
:10A19000E7322046C4E903256360A56004F056FD5C
:10A1A00010B1012009B030BD204604F015FE09B001
:10A1B00030BD00BF003802406086002083DE1B43B4
:10A1C00000100040FEE700BFFEE700BFFEE700BF53
:10A1D000FEE700BFFEE700BF704700BF08B515F0FF
:10A1E00047F9BDE80840042001F0CCBF08B5044899
:10A1F00001F0F2F8034B1868BDE8084007F0EABD2B
:10A200009C8300203C03002008B5044801F0E4F8DA
:10A21000034B1868BDE8084007F0DCBDFC83002054
:10A2200090030020014805F0DDB900BFF48600204E
:10A23000014802F079BF00BF5C840020014805F0AE
:10A24000DBBD00BF8C880020014805F0CBB900BF02
:10A250006086002008B514F015FDBDE808400148EF
:10A2600005F0C0B984870020014801F0B5B800BFEF
:10A27000CC870020014800F0B1BD00BF7C01002068
:10A28000014800F0ABBD00BF7C010020014800F098
:10A29000A5BD00BF7C010020014801F09DB800BFB2
:10A2A0002C880020014802F03FBF00BF0485002039
:10A2B0000120704708B51EF081F8162303604FF0A7
:10A2C000FF3008BD08B51EF079F816230360FEE7DD
:10A2D00070B5161E07DD0C468D19AFF3008004F82B
:10A2E000010BA542F9D1304670BD00BF70B5161EF6
:10A2F00007DD0C468D1914F8010BAFF30080AC425A
:10A30000F9D1304670BD00BF4FF0FF30704700BF3D
:10A310004FF400534B600020704700BF012070478E
:10A320000020704710B50C4C0C4B0D492268591A8F
:10A330002AB11044884207D82060104610BD094A4F
:10A34000226010448842F7D91EF038F80C234FF0F1
:10A35000FF320360104610BDA886002000000220D6
:10A3600000040000D0FA0020044B0549D3F88820EF
:10A3700042F47002C3F888209960704700ED00E055
:10A380000080000800B51B484FF08042026059224F
:10A39000002387B042604FF0FF32CDE90233CDE9B0
:10A3A0000433CDE90033C0E902320361836104F074
:10A3B0004DFC98B94FF480530E48029302A904F063
:10A3C000CFFF98B9202200230A486946CDE900232F
:10A3D00005F0B2F928B907B05DF804FBFFF76EFD90
:10A3E000E8E7FFF76BFD07B05DF804FBFFF766FDDC
:10A3F000E8E700BFAC86002000B52F488FB00023EF
:10A40000CDE90233CDE90433CDE90033CDE906339C
:10A41000CDE90833CDE90A33C0E901330C93036178
:10A420008361264B03604FF6FF73C36004F00EFC9C
:10A4300048BB4FF480532048029302A904F090FFD8
:10A4400090BB1D4804F006FD58BB002200231A48AB
:10A450006946CDE9002305F06FF9F8B99FED147B4B
:10A4600000221548089206A98DED067B0A9204F099
:10A470008FFE80B91048042206A904F089FE28B98D
:10A480000FB05DF804FBFFF719FDD2E7FFF716FDEB
:10A490000FB05DF804FBFFF711FDEBE7FFF70EFDD2
:10A4A000DCE7FFF70BFDD0E7FFF708FDC9E700BFCA
:10A4B0000000000000000000F486002000040040BE
:10A4C00000B51B481B4A026089B000234FF0FF32E1
:10A4D000CDE90233CDE90433CDE90033C0E90133DE
:10A4E000C0E903230693836104F0B0FBA0B90722FF
:10A4F00000230F4802A9CDE9022304F0E1FF98B937
:10A50000002200230A486946CDE9002305F014F92A
:10A5100028B909B05DF804FBFFF7D0FCE7E7FFF7C7
:10A52000CDFC09B05DF804FBFFF7C8FCE8E700BF0D
:10A530003C870020000C004000B51248124941F64B
:10A540004B52002383B0C0E900120122CDE9003351
:10A55000C0E90232836104F079FB58B9002200237C
:10A5600008486946CDE9002305F0E6F828B903B0AC
:10A570005DF804FBFFF7A2FCF0E7FFF79FFC03B0D8
:10A580005DF804FB848700200014004000B50368D8
:10A59000B3F1804F85B00BD0294A934227D0294A86
:10A5A000934215D0284A934237D005B05DF804FB9A
:10A5B00003F50E33002200921A6C42F001021A6475
:10A5C0001B6C03F001030093009B05B05DF804FBD6
:10A5D0001E4B002202921A6C42F008021A641B6C95
:10A5E00003F008030293029B05B05DF804FB174BD0
:10A5F00000220192196C41F0020119641B6C03F0F6
:10A6000002031D2001930521019B00F025FD1D2063
:10A6100005B05DF804EB00F05DBD0C4B0022039229
:10A62000196C41F0200119641B6C03F020033720E2
:10A6300003930221039B00F00FFD3720E8E700BFE2
:10A6400000040040000C00400014004000380240AC
:10A650000368B3F1804F09D0144A934213D0144ACF
:10A66000934209D0134A934216D07047124A136C92
:10A6700023F001031364704702F50B32136C23F0CF
:10A6800008031364704702F50D321D20136C23F08C
:10A690000203136400F02CBD02F509323720136C5D
:10A6A00023F02003136400F023BD00BF000400402A
:10A6B000000C0040001400400038024010B50B4868
:10A6C0000B4C00234FF4E1310C22C0E90041C0E9FA
:10A6D0000233C0E90432C0E9063305F071F800B96D
:10A6E00010BDBDE81040FFF7E9BB00BF8C8800201B
:10A6F0000010014070B5374B026888B000249A42C0
:10A70000CDE90244CDE90444069401D008B070BDFF
:10A7100003F5943300945A6C2F4E42F010025A64A1
:10A720005A6C02F010020092009A01941A6B42F0E7
:10A7300001021A631B6B03F0010301934FF4C06223
:10A740000223CDE90223032305930546019B2348F9
:10A75000072302A9069301F04BFB214A74624FF0D4
:10A760000063C6E90023304640224FF48063C6E907
:10A770000224C6E90544C6E90744336100F0FAFC47
:10A7800010BB184C18496E634FF000620023C4E9F7
:10A79000001220464FF48062C4E90233C4E9042366
:10A7A000C4E90633C4E90833B56300F0E3FC70B9CB
:10A7B000AC63002205212520A56300F04DFC252077
:10A7C00000F088FC08B070BDFFF778FBD9E7FFF711
:10A7D00075FBEDE7001001402C88002000000240CE
:10A7E000B8640240CC87002040640240DFF834D0D7
:10A7F0000D480E490E4A002302E0D458C4500433D9
:10A80000C4188C42F9D30B4A0B4C002301E01360AF
:10A810000432A242FBD3FFF7A7FD1DF0DDFEFFF7D8
:10A82000F3FA7047000002200000002058010020C9
:10A83000BCD9020860010020CCFA0020FEE700002D
:10A8400008B50B4B1A6842F400721A601A6842F499
:10A8500080621A601A6842F480721A60032000F065
:10A86000E9FB0F20FFF76EFCFFF74CFC002008BD52
:10A87000003C0240034A044B11681B780B441360F0
:10A88000704700BFD088002004000020014B1868EA
:10A89000704700BFD088002038B50446FFF7F6FFA8
:10A8A000631C054602D0044B1B781C44FFF7EEFFE7
:10A8B000431BA342FAD338BD04000020704700BFF9
:10A8C000704700BF704700BF704700BF704700BFB0
:10A8D000704700BF704700BF704700BF002800F0FE
:10A8E000988038B590F820300446002B72D022684A
:10A8F000136843F001031360FFF7C8FF054604E047
:10A90000FFF7C4FF431B0A2B5BD823685A68D107A3
:10A91000F6D51A6822F002021A60FFF7B7FF054663
:10A9200004E0FFF7B3FF401B0A284AD823685A689F
:10A930009207F6D4227E012A1A680CBF42F08002E8
:10A9400022F080021A60627E012A1A680CBF42F06F
:10A95000400222F040021A60A27E012A1A680CBF4F
:10A9600042F0200222F020021A60E27E012A1A68D8
:10A970000CBF22F0100242F010021A60227F012A5E
:10A980001A680CBF42F0080222F008021A60627FC7
:10A99000012A1A680CBF42F0040222F004021A6075
:10A9A000D4E90220216902430A43606961680243D5
:10A9B00001390A4300200121DA61606284F8201025
:10A9C00038BD636A052243F40033636284F82020B3
:10A9D000012038BD1149124AC36D1248C4E9101252
:10A9E000114A1249C4E91202114A1248C4E90A1272
:10A9F000114A1249C4E90C02114A1248C4E90E1264
:10AA00001149124AA265C4E9140123B120469847AE
:10AA10006DE7012070470E4BE365F7E7D51201089B
:10AA2000CDA8000865140108D1A80008010E01088E
:10AA30009D0F010839110108C1A80008C5A8000828
:10AA4000C9A80008D5A80008D9A80008BDA8000812
:10AA5000018F000890F82020013A012A06D9426AA5
:10AA6000034642F4802201205A627047414BD3F8DA
:10AA7000002230B401242243C3F80022D3F800227C
:10AA800022F47C52C3F80022D3F80022486A42EA3A
:10AA90000022C3F800224A6902F01F0004FA00F005
:10AAA000D3F81C4224EA0004C3F81C42CD69C44315
:10AAB000002D45D1D3F80C522540C3F80C52D200DA
:10AAC000CD688B8802F1804202F5C84243EA054313
:10AAD000C2F840328D680B8843EA0543C2F844321D
:10AAE0008B69244A33BBD2F804322340C2F80432C3
:10AAF0000B69C3B91F4BD3F814221440C3F8144296
:10AB00000B6A012B05D11B4AD2F81C321843C2F83C
:10AB10001C02184AD2F8003223F00103002030BC96
:10AB2000C2F800327047134AD2F814320343C2F815
:10AB30001432E5E7D2F804320343C2F80432D7E70F
:10AB4000012DCDD1D3F80C520543C3F80C52D200DD
:10AB50000D688B8802F1804202F5C84243EA054342
:10AB6000C2F840328D688B8943EA0543C2F844320B
:10AB7000B6E700BF0064004070B590F82030012BAC
:10AB8000044606D0436A012643F40023436230465C
:10AB900070BD0268DEB2022380F82030136823F013
:10ABA00001031360FFF772FE054604E0FFF76EFE37
:10ABB000431B0A2B08D823685B6813F00103F5D107
:10ABC0001E466362304670BD636A052243F400335B
:10ABD000636284F82020304670BD00BF30B48446E4
:10ABE00090F82000DCF8005001380128AC6835D816
:10ABF00014F0E05F3BD0C4F30164032C49D0012082
:10AC0000A04018608B68002B3AD0C868034348689E
:10AC100043EAC00304F1180000012B5005EB041CAB
:10AC20000B69CCF88431097D01294FEA041305D161
:10AC3000DCF8841141F48071CCF884112B44516804
:10AC4000C3F88C111268C3F88821DCF8803143F016
:10AC50000103002030BCCCF880317047DCF8243090
:10AC600043F48023012030BCCCF824307047DCF85A
:10AC7000243043F40013012030BCCCF8243070475A
:10AC8000CB68086843EA405004F118031B01E85000
:10AC9000C4E7DCF8243043F40003012030BCCCF8D6
:10ACA0002430704770B590F820E00EF1FF3EBEF101
:10ACB000010F84466DD8006851B9C468A5070AD150
:10ACC000DCF8243043F400130120CCF8243070BDAC
:10ACD0000469A407F4D000EB011E0C01DEF8B051AA
:10ACE00005F004059560002D5AD0DEF8B051ED084E
:10ACF0005560DEF8B05105F00205D560DEF8B451BC
:10AD0000DEF8B46105F00F0515612044DEF8B4519A
:10AD1000C6F3072696612D0CD0F8B86155611E70F8
:10AD2000DCF800202244D2F8B821120A5A70DCF86C
:10AD300000202244D2F8B821120C9A70DCF80020CE
:10AD40002244D2F8B821120EDA70DCF80020224436
:10AD5000D2F8BC211A71DCF800202244D2F8BC21C0
:10AD6000120A5A71DCF800202244D2F8BC21120CDD
:10AD70009A71DCF800202244D2F8BC21120EDA715C
:10AD8000DCF8002089B9D36843F020030846D3607B
:10AD900070BD436A43F480230120CCF8243070BD99
:10ADA000DEF8B0516D0D1560A3E7136943F0200381
:10ADB0000020136170BD00BF90F82020013A012AE5
:10ADC000034605D9426A42F4802201205A62704744
:10ADD0000268536919430020516170472DE9F04F13
:10ADE00003685D69D3F804809F68D3F80CA0D3F89A
:10ADF0001090D3F818B015F0010681B0044625D0A4
:10AE000017F0010640F0B9804FF400524FF4804132
:10AE1000F8050DD523684FF480709860BB0500F1EC
:10AE2000CB80780500F1EC803B0540F1F2800E46C6
:10AE3000F8030BD523684FF48032B9039A6000F110
:10AE4000AF807A0340F1D78046F400462F0703D540
:10AE50001AF0100F40F08B80680702D51AF0080F27
:10AE60007ED1A90703D52368DB689A0774D16B06E6
:10AE700002D519F0100F69D1AF0602D519F0080FED
:10AE80005DD1E80603D523681B69990753D1AA034E
:10AE900002D518F0100F47D1EB0302D518F0080FB8
:10AEA0003BD12F0405D518F0040F0DD123680422DF
:10AEB0005A60002E71D0636AA26D1E4320466662FE
:10AEC00001B0BDE8F04F1047E80504D51BF0010FB5
:10AED00018BF46F00106A90504D51BF0020F18BFE4
:10AEE00046F002066A0504D51BF0040F18BF46F0B1
:10AEF00004062B05DAD51BF0700BD7D0BBF1400F41
:10AF000000F095805CD8BBF1200F00F08D80BBF184
:10AF1000300F63D146F020065AE0236808225A60B9
:10AF20002046636D9847BCE7236810225A6020468C
:10AF3000236D9847B0E7A36C20469847A7E723689E
:10AF400008221A612046E36C98479AE7236810228A
:10AF500046F480661A618FE7236C2046984786E79F
:10AF600023680822DA602046636C984779E72368F3
:10AF7000102246F40076DA606EE701229A60BB0781
:10AF800012D47E0730D417F008063BD04FF440525D
:10AF90004FF4A0414FF480563AE701B0BDE8F08F7E
:10AFA000236B2046984751E7836A984700264FF461
:10AFB00000524FF480412BE7E36A2046984737E779
:10AFC000BBF1500F2DD0BBF1600F08BF46F4807667
:10AFD00023689A6922F070029A6168E7BBF1100F4A
:10AFE000F6D146F00806F3E74FF420524FF49041B3
:10AFF0004FF400660CE73B030FD546F4803625E797
:10B00000164615E7436B98474FF400524FF48041C2
:10B01000FEE6A36B204698470AE7E36B2046984775
:10B0200014E746F08006D3E746F01006D0E746F076
:10B030004006CDE70749CA6803024FF6FF0003F454
:10B04000E0630240134343F0BF6343F40033CB603B
:10B05000704700BF00ED00E01C4BDB68C3F3022328
:10B0600000B5C3F1070EBEF1040F03F1040C28BFB5
:10B070004FF0040EBCF1060F1BD9033B4FF0FF3C11
:10B080000CFA03FC22EA0C024FF0FF3C0CFA0EFC17
:10B0900021EA0C019940002841EA02010CDB00F191
:10B0A0006040090100F56140C9B280F800135DF805
:10B0B00004FB00221346E7E7054B00F00F000901EF
:10B0C0000344C9B219765DF804FB00BF00ED00E04F
:10B0D000FCEC00E0002808DB4109044A00F01F00F6
:10B0E000012303FA00F042F82100704700E100E07C
:10B0F00000280DDB430907490122203300F01F001F
:10B1000002FA00F041F82300BFF34F8FBFF36F8FB7
:10B11000704700BF00E100E080B110B543790446FC
:10B1200003F0FF021BB101236371002010BD027107
:10B13000FDF772FF01236371002010BD01207047ED
:10B1400010B4022304684371A36843F001038446EA
:10B15000A3603AB1043901EB820251F8043F236045
:10B160009142FAD1012320688CF805305DF8044B38
:10B17000704700BF38B50446FFF788FB002C52D05B
:10B1800023680022022184F8351084F834201A68DC
:10B1900022F0010205461A6005E0FFF777FB431B2A
:10B1A000052B39D823681A68D107F6D4D4E90120D1
:10B1B000E16802430A43D4E90451A0692A430A43DF
:10B1C000E1691D6802430A4333492940256A2A433D
:10B1D0000A43616A042928D01A605A6922F00702DA
:10B1E0001143D8B22D4A59611038A2FB00521209FE
:10B1F0002B4923F47F73895CE16523F003035F2807
:10B2000088BF04333F228A40A36500209A6001234F
:10B21000606584F8353038BD03232022626584F8E8
:10B220003530184638BD012038BDD4E90B512943CB
:10B230000A431A605969A26A21F00701114341F0DB
:10B240000401002DCDD078B1B0F5005F16D0022AF0
:10B2500003D9032AC5D1EA01C3D50123402262657F
:10B2600084F83530184638BD012A03D032F0020286
:10B27000B7D1F0E7B5F1C07FB3D1EEE7032AB0D87C
:10B2800001A050F822F000BF5BB2000857B20008DE
:10B290005BB2000875B200083F8010F0ABAAAAAA02
:10B2A0008C9E020870B490F83440856D012C35D026
:10B2B00090F835404FF0010C644580F834C005D05B
:10B2C000002380F8343070BC02207047022680F8DA
:10B2D0003560046800264665266826F480262660C8
:10B2E00063608368402B0EBFA260A160E260C26D04
:10B2F00008BFE1603F239340AB602368026C43F0DA
:10B30000160323601AB1236843F0080323602368FF
:10B3100043F001030020236070BC7047022070BC22
:10B32000704700BF70B50446866DFFF7AFFA94F81A
:10B330003530022B06D00023802284F83430626539
:10B34000012070BD23681A6822F016021A605A693B
:10B3500022F080025A61226C054632B31A6822F04C
:10B3600008021A601A6822F001021A6005E0FFF76D
:10B370008DFA431B052B0FD823681B6813F00103BC
:10B38000F5D1E16D3F228A400121B26084F8351089
:10B3900084F83430184670BD0320202200236265F3
:10B3A00084F8343084F8350070BDA26C002AD5D101
:10B3B000D8E700BF90F83530022B03D080234365D7
:10B3C000012070470268052380F83530136823F0A8
:10B3D00001030020136070472DE9F04182B0744AE8
:10B3E000866D156800230193C36D346808229A4066
:10B3F0002242804604D001680F68780700F18A80F5
:10B4000001229A40224204D0D8F800104969090666
:10B4100078D404229A40224204D0D8F80010096857
:10B420008F0767D410229A40224204D0D8F8001027
:10B430000F68380749D420229A40224217D0D8F802
:10B4400000100C68E00612D5B26098F83520052A85
:10B4500073D00B6813F4802F0B6800F090801903F1
:10B4600040F19B80D8F83C300BB140469847D8F863
:10B4700054303BB3D8F85430DA071BD5D8F8002045
:10B480004C49052388F835301368A1FB051523F0D6
:10B490000103AD0A136002E01368DB0704D5019BCA
:10B4A0000133AB420193F7D90122002388F83520FC
:10B4B00088F83430D8F84C3023B1404602B0BDE8AB
:10B4C000F041184702B0BDE8F081B2600A6812F49A
:10B4D000802F0A682AD1D70503D40A6822F008020F
:10B4E0000A60D8F84020002AA5D040469047D8F8F6
:10B4F0005C30A0E7B260D8F8542042F00402C8F8EB
:10B5000054208FE7B260D8F8542042F00202C8F805
:10B5100054207EE70F6827F004070F60B260D8F868
:10B52000542042F00102C8F8542069E71203D8D52C
:10B53000D8F84820002AD8D17DE70A6822F0160200
:10B540000A604A6922F080024A61D8F8402052B36A
:10B550000A6822F008020A603F2202FA03F3D8F8D0
:10B560005010B3600122002388F8352088F8343069
:10B570000029A7D0404602B0BDE8F041084713F4C7
:10B5800080737FF46FAF0A6822F010020A60012214
:10B5900088F8352088F8343064E7D8F84430002B38
:10B5A0007FF463AF63E7D8F84820002AD0D1D3E70F
:10B5B00000000020B5814E1B90F83500704700BF99
:10B5C000406D70472DE9F8430546894617464FF010
:10B5D00010082B689E6916F0040640F083809C6971
:10B5E00014F0100469D05A68940103D45A6842F4E4
:10B5F00080425A600024B9F1FF3F9A695FD19006FA
:10B6000073D424B99C69A106FCD52022DA61C3F861
:10B610001C8046F0040401219A69D00530D54FF40E
:10B6200080715605D96144F0010404D54FF480615E
:10B63000D96144F00804910504D54FF4007244F038
:10B640000204DA619A69960744BF00229A629A69F5
:10B65000D00703D49A6942F001029A615A683048CF
:10B6600002405A606B6C002120221C436C6485F8F8
:10B67000401085F8412085F842100120BDE8F8838C
:10B680005005D3D49205D8D40029DBD19A6992060B
:10B690002ED4FFF7FBF8C01B484502D8B9F1000FC4
:10B6A00097D16B6C2022134300216B6485F8401006
:10B6B00085F841200120BDE8F8832146ACE79206D9
:10B6C00013D4002CA3D1FFF7E1F8C01B814506D3AA
:10B6D000B9F1000F04BF202601242B688BE7202638
:10B6E0000124FAE70020BDE8F883002C8DD08EE716
:10B6F0009A69510702D52A8D002AF3D12024DC61F2
:10B700005968074A1140002259606A6485F8402050
:10B7100085F8414085F842200120BDE8F88300BF4C
:10B7200000E800FE2DE9F8430746884616464FF02C
:10B7300010093B689D6915F0020540F085809C6901
:10B7400014F010046BD05A68910103D45A6842F483
:10B7500080425A600024B8F1FF3F9A6961D1920695
:10B7600075D424B99C69A406FCD52022DA61C3F8FB
:10B770001C9045F0040401229D69E90530D54FF481
:10B7800080726805DA6144F0010404D54FF48062E8
:10B79000DA6144F00804AD0504D54FF4007244F0BA
:10B7A0000204DA619A69910744BF00229A629A6999
:10B7B000D20703D49A6942F001029A615A68254877
:10B7C00002405A607B6C002120221C437C6487F875
:10B7D000401087F84120012087F84210BDE8F88327
:10B7E0006905D3D4A805D8D4002ADBD1B8F1FF3F2E
:10B7F000A0D0FFF74BF8801B404502D8B8F1000FEE
:10B8000097D17B6C002243F0200320217B6487F8D2
:10B81000402087F84110012087F84220DEE72246C9
:10B82000AAE7900613D4002CA1D1FFF72FF8801BB4
:10B83000804506D3B8F1000F04BF202501243B68E2
:10B8400089E720250124FAE70020BDE8F883002CD1
:10B850008BD08CE700E800FE2DE9F84305468946C9
:10B8600017464FF010082B689E6916F0200640F02E
:10B8700083809C6914F0100469D05A68940103D441
:10B880005A6842F480425A600024B9F1FF3F9A6935
:10B890005FD1900673D424B99C69A106FCD52022FF
:10B8A000DA61C3F81C8046F0040401219A69D005CE
:10B8B00030D54FF480715605D96144F0010404D5A8
:10B8C0004FF48061D96144F00804960504D54FF423
:10B8D000007244F00204DA619A69910744BF0022C1
:10B8E0009A629A69D20703D49A6942F001029A6176
:10B8F0005A68244802405A606B6C002120221C4385
:10B900006C6485F8401085F8412085F842100120CC
:10B91000BDE8F8835005D3D49005D8D40029DBD1F5
:10B92000FEF7B4FFC01B484502D8B9F1000F9AD109
:10B930006B6C002243F0200320216B6485F84020CB
:10B9400085F8411085F842200120BDE8F8832146A2
:10B95000ACE7920613D4002CA3D1FEF797FFC01BCF
:10B96000814506D3B9F1000F04BF202601242B68BE
:10B970008BE720260124FAE70020BDE8F883002C9D
:10B980008DD08EE700E800FE00284FD010B590F86B
:10B990004130044603F0FF02002B42D023682422EA
:10B9A00084F841201968626821F0010122F0706278
:10B9B00019601A619A68E16822F4004201299A60CC
:10B9C000A2682AD042F4044202299A6004BF4FF4CC
:10B9D00000625A605968226941F0007141F40041E7
:10B9E00059606169D8680A43A16920F4004042EABD
:10B9F0000122E169D860206ADA60014319601968A0
:10BA000041F00101196000222023626484F8413072
:10BA1000226384F84220104610BD42F400429A602E
:10BA2000D8E780F84020FDF777FBB7E701207047A3
:10BA30002DE9F047984690F84130089E202B40F0C1
:10BA40008E8090F84030012B044600F0888001235E
:10BA500080F8403089461746FEF718FF054604E097
:10BA6000FEF714FF401B19287CD82368986910F44E
:10BA70000040F5D1212284F84120102284F8422090
:10BA80006064A4F82A80628D676292B2FF2A6063C4
:10BA9000C9F3090775D8628D4E4892B22285D1B29A
:10BAA0005A6802403A4342EA014242F0007242F4CC
:10BAB00000525A60638D9BB2002B3BD0DFF81C8193
:10BAC000DFF81CA14FF0FF0903E0638D9BB2002B50
:10BAD00030D02A4631462046FFF724FE002876D192
:10BAE000606A216810F8013B8B62628D238D606271
:10BAF000013A92B26285628D013B9BB292B223857C
:10BB0000002AE2D0002BE0D1701C46D18B691A06C6
:10BB1000FCD5638D9BB2FF2B4BD94B68A4F82890C2
:10BB200003EA08033B4343EA0A034B60638D9BB27D
:10BB3000002BCED12A4631462046FFF78DFE002845
:10BB400045D12368244D2021D9615A682A405A6082
:10BB500084F8411084F8400084F8420000E002209C
:10BB6000BDE8F087636C002243F02003202163646A
:10BB700084F8402084F8411084F842200120BDE878
:10BB8000F0875A6813490A403A4342F0FF7242F480
:10BB90009032FF2121855A608CE78B691B06B8D44F
:10BBA000FEF774FE401B8642DCD3002EDAD02168FB
:10BBB000AAE7638D9BB22385DAB24B6803EA0803D8
:10BBC00043EA02433B4343F000734B607DE70120AF
:10BBD000BDE8F087009800FC00E800FE009C00FC37
:10BBE0000000FF012DE9F047984690F84130089E8B
:10BBF000202B40F0928090F84030012B044600F05A
:10BC00008C80012380F8403089461746FEF73EFEBF
:10BC1000054605E0FEF73AFE401B192800F28A802F
:10BC20002368986910F40040F4D1222284F841205E
:10BC3000102284F842206064A4F82A80628D676232
:10BC400092B2FF2A6063C9F3090700F28280628D15
:10BC50004E4892B22285D1B25A6802403A4342EA33
:10BC6000014242F0007242F410525A60638D9BB25E
:10BC7000002B3DD0DFF81C81DFF81CA14FF0FF093D
:10BC800003E0638D9BB2002B32D02A46314620461A
:10BC9000FFF798FC002876D12268636A526A1A700E
:10BCA000628D238D616A013A92B26285628D013B99
:10BCB00001319BB292B261622385002AE1D0002B50
:10BCC000DFD1701C22682BD193691906FCD5638DD6
:10BCD0009BB2FF2B49D95368A4F8289003EA0803C4
:10BCE0003B4343EA0A035360638D9BB2002BCCD1E4
:10BCF0002A4631462046FFF7AFFD002843D123688E
:10BD0000234D2021D9615A682A405A6084F8411095
:10BD100084F8400084F8420000E00220BDE8F0878B
:10BD200093691B06D3D4FEF7B1FD401B864201D3B5
:10BD3000002EC6D1636C002243F0200320216364EF
:10BD400084F8402084F8411084F842200120BDE8A6
:10BD5000F0875A680D490A403A4342F0FF7242F4B4
:10BD60009232FF2121855A6080E7638D9BB2238543
:10BD7000D9B2536803EA080343EA01433B4343F063
:10BD8000007353607DE70120BDE8F087009800FC58
:10BD900000E800FE009C00FC0000FF0190F841203C
:10BDA000202A23D15FFA82FC90F84020012A034622
:10BDB0001CD00268242000B583F84100106820F0F0
:10BDC00001001060106820F480501060106801437A
:10BDD000116011684FF0000E41F00101116083F80D
:10BDE00041C083F840E070465DF804FB02207047D4
:10BDF0002DE9F04F00220C68DFF814A27D4E85B0CB
:10BE00001346894605E00133102B02F1020200F0CF
:10BE100084800121994001EA040BA143F3D1D9F8B0
:10BE200004C00CF003014D1E012D79D9032940F007
:10BE3000B9809140CD4307683D4029431CF4403F01
:10BE40000160E0D000210391DAF8441041F4804110
:10BE5000CAF84410DAF8441001F4804103910399C0
:10BE600023F0030101F1804101F59C3103F0030748
:10BE7000D1F808E0BF000F25BD402EEA05085E4D51
:10BE8000A8421FD005F58065A84200F08F805B4D69
:10BE9000A84200F092805A4DA84200F09580594D7A
:10BEA000A84200F09880584DA84200F09B80574D62
:10BEB000A8420CBF4FF0060E4FF0070E0EFA07F720
:10BEC00048EA0708C1F80880B1686FEA0B071CF45C
:10BED000801F0CBF39404BEA0101B160F5681CF4CA
:10BEE000001F0CBF3D404BEA0505F56075681CF46A
:10BEF000003F0CBF3D404BEA0505756031681CF4FE
:10BF0000803F03F101030CBF39404BEA0101102BC4
:10BF1000316002F102027FF47CAF05B0BDE8F08F22
:10BF2000D9F80C50876805FA02F8032505FA02FED5
:10BF300027EA0E0748EA0707876047686FEA0E0599
:10BF400027EA0B0ECCF300179F4047EA0E07476025
:10BF5000C76807EA050ED9F80870974047EA0E0748
:10BF60000229C76001FA02F17FF465AF4FEAD30EF0
:10BF700000EB8E0E03F00708DEF820700097D9F86A
:10BF800010704FEA880807FA08F701970F2707FA99
:10BF900008F8009F27EA0808019F47EA0807CEF83B
:10BFA000207048E703259540ED43D1E74FF0010E9F
:10BFB0000EFA07F748EA070884E74FF0020E0EFA78
:10BFC00007F748EA07087DE74FF0030E0EFA07F778
:10BFD00048EA070876E74FF0040E0EFA07F748EA3A
:10BFE00007086FE74FF0050E0EFA07F748EA070853
:10BFF00068E700BF003C014000000240000802402A
:10C00000000C0240001002400014024000180240E0
:10C01000003802402DE9F04F0023DFF85091DFF89F
:10C020005081DFF850A183B0012702E00133102BCB
:10C0300075D007FA03F232EA010402EA010CF5D1E5
:10C0400023F0030505F1804505F59C3503F0030455
:10C05000D5F808E0A4000F26A6404845019606EA58
:10C060000E0E5FD050455FD03B4EB0425FD03B4E8E
:10C07000B04261D03A4EB04263D03A4EB04265D041
:10C08000394EB04214BF4FF0070B4FF0060B0BFABE
:10C0900004F4A6451CD1D8F80040019E24EA0C0403
:10C0A000C8F80040D8F8044024EA0C04C8F804405A
:10C0B000D8F80C4024EA0C04C8F80C40D8F8084022
:10C0C00024EA0C04C8F80840AC6824EA0606AE600E
:10C0D000056803265C0006FA04F425EA04050560F9
:10C0E00023FA06F500EB850503F0070C2E6A4FEAEC
:10C0F0008C0E4FF00F0C0CFA0EFC26EA0C062E628A
:10C10000C56825EA0405C560456825EA0202426063
:10C110008268013322EA0404102B846089D103B0C1
:10C12000BDE8F08F0024B4E707FA04F4B1E74FF05C
:10C13000020B0BFA04F4ACE74FF0030B0BFA04F418
:10C14000A7E74FF0040B0BFA04F4A2E74FF0050B3E
:10C150000BFA04F49DE700BF00080240000C024007
:10C16000001002400014024000180240000002408B
:10C17000003C01400004024002B90904816170479B
:10C18000704700BF044A5169014200D1704708B5A9
:10C190005061FFF7F5FF08BD003C0140002800F0AA
:10C1A000B98070B590F83D30044603F0FF02002BD3
:10C1B00000F098802368242284F83D201A6822F039
:10C1C00001021A601A6842F400421A601A6822F4E6
:10C1D00000421A6001F038FD63684F498B424FD826
:10C1E0004E4A90427CD94E4D5A00A5FB0035431E65
:10C1F000B3FBF2F32268506820F03F0040EA95401C
:10C200005060A90C01F1010C116A21F03F0141EAD3
:10C210000C011162D16940F6FC7E013321F44F41DB
:10C2200013EA0E0F21F0FF0161D104230B43D36108
:10C23000D4E907301168034321F0C0010B431360B8
:10C240009168D4E9030321F40341034321F0FF0182
:10C250000B439360D4E90530D168034321F0FF011B
:10C260000B43D3601168002341F0010120201160CD
:10C27000236484F83D00236384F83E30184670BD83
:10C28000284A90422CD9264D274EA5FB002C226827
:10C29000556825F03F0545EA9C4555604FEA9C41AD
:10C2A0004FF4967505FB01F1A6FB0151156A89094A
:10C2B00025F03F05013129431162D169A56821F4B8
:10C2C0004F4121F0FF01ADB9013803EB4303B0FB4F
:10C2D000F3F30133C3F30B03D3B143F40043A5E7F6
:10C2E000012070BD80F83C20FDF722FC62E7C3F31B
:10C2F0000B039BE703EB8303013803EB8303B0FBE2
:10C30000F3F30133C3F30B0313B143F440438DE75D
:10C3100001238BE701207047A08601007F841E0067
:10C3200083DE1B43FF083D00D34D62102DE9F04F23
:10C33000054683B099460C9F88469246FEF7A6FABA
:10C3400095F83D30202B03D0022003B0BDE8F08FDC
:10C35000064605E0FEF79AFA801B192800F2F580E0
:10C360002C68A3696FEA030C1CF0020BF2D095F85D
:10C370003C30012BE8D0012385F83C302368D907F5
:10C380006FD52368974A23F400632360212385F83F
:10C390003D30102385F83E3000232B64A5F82A9009
:10C3A0006B8DEA622B85EB6AC5F824A0082B06D0BA
:10C3B000012B04D0934202D02B6B122B03D12368A4
:10C3C00043F4807323607B1C3DD16369D807FCD59F
:10C3D0002B69B3F5804F49D108F0FE012161781C2B
:10C3E00004D0D8E063695A0500F1BD8063699907FC
:10C3F000F8D50023019363690193A36901932B8D01
:10C40000019A002B74D0791C7FD163691A0641D43C
:10C4100063695B05F9D5002220236FF480616161B7
:10C420002A6385F83D3085F83E202B6C85F83C204A
:10C4300043F004032B642B6C042B00F0E4800120F8
:10C4400003B0BDE8F08F6369D907C1D4FEF71EFAC7
:10C45000801B8742C0F0AF80002F00F0AC802C68BA
:10C46000B1E7236843F0010323608AE74FEAE8134A
:10C4700003F0060343F0F00323617B1C03D0B3E019
:10C48000636959056FD463691807F9D55FFA88F3B2
:10C490002361A4E7686AB5F828C001460CF1FF32B1
:10C4A00011F8013B23616B8D6962013B9BB26B8587
:10C4B000636992B259072A850CD55AB14378236132
:10C4C0006B8D013BACF1020C02309BB2A5F828C089
:10C4D00068626B85781C28D16369590705D4636944
:10C4E0005A0598D463695907F9D52B8D002B8AD149
:10C4F0002368002043F400732022236085F83D2048
:10C5000085F83C0085F83E001FE763691806C1D432
:10C51000636958053FF57FAFFEF7B8F9801B874286
:10C5200078D3002F76D02C686DE763695B07DCD485
:10C5300063695B053FF56FAFFEF7A8F9801B874283
:10C5400068D3002F66D02C68C4E72023C5F830B02C
:10C5500085F83D3085F83EB02B6C85F83CB043F053
:10C5600020032B64F0E6236843F400732360002269
:10C570006FF48061202361612A6385F83D3085F87E
:10C580003E202B6C85F83C2043F0040301202B64F3
:10C5900003B0BDE8F08F63699B073FF52AAF63697D
:10C5A0005B05E0D4FEF772F9801B874240D3002F71
:10C5B0003ED02C6813E7002320222B6385F83D2012
:10C5C00085F83E302A6C296885F83C3042F020021C
:10C5D0002A640B68DA057FF532AF4FF400732B64E1
:10C5E0002DE700BF0000FFFF63691A073FF54EAF5C
:10C5F00063695A05B7D4FEF749F9801B874217D300
:10C60000B7B12C6839E72A68136843F40073012036
:10C6100013609AE6002220232A6385F83D3085F8CE
:10C620003E202B6C85F83C2043F020032B6402E76E
:10C63000002220232A6385F83D3085F83E202B6CAC
:10C6400085F83C2043F020032B6401207DE600BFE9
:10C650002DE9F04F054687B09946109E88469246D0
:10C66000FEF714F995F83D30202B03D0022007B0D7
:10C67000BDE8F08F074605E0FEF708F9C01B192852
:10C6800000F2A7802C68A069C04310F0020BF3D021
:10C6900095F83C30012BE9D0012385F83C30236824
:10C6A000DB0760D523688D4A23F4006323602223CF
:10C6B00085F83D30102385F83E3000232B64A5F823
:10C6C0002A906B8DEA62EA6A2B852368C5F824A05C
:10C6D00043F48063082A236007D0012A05D012F5AD
:10C6E000803F02D02B6B112B03D1236843F480735E
:10C6F0002360701C29D16369D907FCD52B69B3F578
:10C70000804F35D148F00103DBB22361721C03D0A6
:10C7100007E1636958056AD463699B07F9D52B8DD6
:10C72000002B7CD1019363690193A3690193019B61
:10C73000236843F4007323600020202385F83D30F4
:10C7400085F83C0085F83E0091E76369DA07D5D4A7
:10C75000FEF79CF8C01B8642C0F00C81002E00F052
:10C7600009812C68C5E7236843F00103236099E73A
:10C770004FEAE81909F0060949F0F0032361701C3B
:10C7800003D01DE163695A0531D463691907F9D5EE
:10C790005FFA88F32361711C03D0A6E163695B052E
:10C7A00025D463699A07F9D5002305936369059336
:10C7B000A3690593059B236843F480732360721C6F
:10C7C00040F0A6816369DB07FCD549F0F1032361E2
:10C7D0009CE72023C5F830B085F83D3085F83EB0A1
:10C7E0002B6C85F83CB043F020032B643EE72368B4
:10C7F00043F40073236000226FF4806120236161A1
:10C800002A6385F83D3085F83E202B6C85F83C2066
:10C8100043F0040301202B6407B0BDE8F08F012B27
:10C82000226800F05381022B00F00B8142F48062F9
:10C8300022600022049262690492A2690492049A1E
:10C84000032B48D8012B00F02881022B00F0D48064
:10C85000721C40F0058163695B07FCD523686A6A36
:10C8600023F480632360236913706B8D696A2A8DBA
:10C87000013B0131013A9BB269622A856B85711CCB
:10C880002A6840F0FC8053695B07FCD51368696A2D
:10C8900043F40073136013690B706B8D696A2A8D02
:10C8A0002868013B9BB26B850069531E4C1C6C626F
:10C8B0002B8548702B8D6A8D696A013B013A0131E5
:10C8C0009BB292B269622B856A85002B3FF434AF2C
:10C8D000032B2C68B6D966B933E000BF0000FFFF18
:10C8E0006369DB065CD4FDF7D1FFC01B864230D301
:10C8F0002C6863695A06F3D56B6A22691A706A8DCF
:10C9000028682B8D696A013A92B26A854269013BB7
:10C910004C1C9BB252076C622B85D6D503694B70B9
:10C9200083E0636999073FF5FAAE636959053FF5FE
:10C930005EAFFDF7ABFFC01B86420AD34EB12C6839
:10C94000E4E663695906D7D46369D80628D4FDF7AD
:10C950009DFF002220232A6385F83D3085F83E2084
:10C960002B6C85F83C2043F0200301202B6407B09A
:10C97000BDE8F08F002320222B6385F83D2085F849
:10C980003E302A6C296885F83C3042F020022A6447
:10C990000B68D90512D54FF400732B64012066E6AD
:10C9A000002320226FF0100161612B6385F83D2088
:10C9B00085F83E302A6C2A6485F83C30012056E622
:10C9C00063691B073FF5E4AE63695B053FF50FAF95
:10C9D000FDF75CFFC01B8642BBD3002EB9D02C688C
:10C9E000CDE6636959070CD4FDF750FFC01B8642A2
:10C9F000AFD3002EADD02C68731CF2D163695807F9
:10CA0000FCD5236843F4007323606B6A22691A70B3
:10CA10006A6A531C6B622B8D013B2B856B8D013B2E
:10CA20009BB26B852B681B6953702B8D6A8D696A6D
:10CA3000013B013A01319BB292B269626A852B8552
:10CA400043E722F480622260226842F4006222609E
:10CA50000022039262690392A2690392039AEFE6AD
:10CA6000636958073FF5FAAEFDF710FFC01B864219
:10CA7000FFF46FAF002E3FF46CAF2C68E8E653690B
:10CA80005C073FF503AFFDF701FFC01B8642FFF4D3
:10CA900060AF002E7FF4F3AE5BE75EB911E063692F
:10CAA000D9063FF57DAFFDF7F1FEC01B8642FFF4CE
:10CAB00050AF2C6863695806F1D56B6A22691A7009
:10CAC000B3E763695A067FF53FAFF6E722F4806269
:10CAD00022600022029262690292A2690292029A84
:10CAE000226842F400722260AAE6636998073FF563
:10CAF0005BAE636958053FF57AAEFDF7C7FEC01B14
:10CB00008642FFF426AF002E3FF423AF2C6842E6A6
:10CB10006369D8073FF559AEFDF7B8FEC01B8642E2
:10CB2000FFF428AF002E3FF425AF2C6847E600BF86
:10CB300070B582B005460020019095F83D00202890
:10CB400025D14D484D4C0068C008A4FB0040000AA8
:10CB500000EB800000EB8000019003E02C68A069EE
:10CB6000860717D5019C013C019401980028F5D156
:10CB70002023286385F83D3085F83E002B6C85F82E
:10CB80003C0043F020032B64012002B070BD022062
:10CB900002B070BD95F83C000128F8D0012085F85E
:10CBA0003C002068C00703D4206840F001002060EA
:10CBB000206820F400602060222085F83D000026D7
:10CBC000102085F83E002E646B85688D6A6283B202
:10CBD0002B48E8622B8569641BB3A86B00283DD005
:10CBE00004F11001274CC463274C8664C0E9106629
:10CBF0000665C464FEF756FB18BB2B681A6842F43E
:10CC000080621A601A6842F480721A6085F83C00EB
:10CC10005A6842F440725A605A6842F400625A609C
:10CC2000B3E785F83C30626842F4E062626018461F
:10CC3000236843F480632360236843F48073236094
:10CC4000A3E7202385F83D3085F83E602B6C85F8FE
:10CC50003C6043F010032B64012096E7202385F805
:10CC60003D3085F83E002B6C85F83C0043F0800396
:10CC70002B64012089E700BF0000002089B5F8146B
:10CC80000000FFFFB5CD00086DCD0008704700BF64
:10CC9000704700BF704700BF704700BF704700BFBC
:10CCA000704700BF704700BF90F83D20016D0346FC
:10CCB00059B9C26C0168012A826C0DD0C2F30722F7
:10CCC0000A61026D013202657047016D012909D0C8
:10CCD000016D02290ED07047D2B20A61026D023294
:10CCE00002657047826C0168D2B20A61026D01323E
:10CCF00002657047D2B2222A1FD0418D89B2C1B9D4
:10CD0000418D89B20029E6D1212AE4D1026810B50B
:10CD1000546824F4E0645460146844F400741460AB
:10CD20002022016380F83D2080F83E10FFF7BAFF13
:10CD300010BD212A0AD05B8D704701680A6842F451
:10CD400080720A60026D013202657047416A0268B2
:10CD500011F8010B10615A8D5962013A92B25A854D
:10CD6000704700BF704700BF704700BF10B5846BAD
:10CD7000636B0BB10022DA63A36B0BB10022DA63A1
:10CD8000FEF71EFC022800D110BD21680B680022AE
:10CD9000202023F480630B60628584F83D0084F8D2
:10CDA0003E20236C43F0100320462364FFF7DCFF92
:10CDB00010BD00BF70B5846B94F83D20236894F8D3
:10CDC0003E10E56AC8B2596821F440715960616B40
:10CDD000D2B209B10026CE63A16B09B10026CE63A1
:10CDE00002F02101212939D002F02201222933D079
:10CDF00094F83E207AB3628D92B2012A3DD05A68EF
:10CE000015F5803F22F440725A6006D0082D04D0F8
:10CE1000B5F12A4F01D0202D03D11A6842F40072D7
:10CE20001A605A6822F480525A605A68002122F42B
:10CE300000625A606185236C23BB202284F83D2068
:10CE400094F83E20402A35D0122284F83E30204605
:10CE50002263FFF71DFF70BD2028C9D1596800204B
:10CE600021F40061292A596060850FD02A2A17D041
:10CE70005A6842F440725A6070BD1A6822F48062A7
:10CE80001A60BCE72046FFF76FFF70BD2823212200
:10CE90002263204684F83D30FFF7FCFE2368E7E775
:10CEA000282322222263204684F83D30FFF7F4FE37
:10CEB0002368DDE784F83E3020462363FFF752FF06
:10CEC00070BD00BF704700BF70B53A4B3A491B6850
:10CED000806B82B0DB080022A1FB031301921B0AC6
:10CEE00090F83D10026803EB8303C3EBC303C9B2A0
:10CEF000019305E0019B013B019313689B0506D557
:10CF0000019B002BF6D1036C43F020030364446BB8
:10CF10004CB3836B0025E563F3B11668DD6326F43B
:10CF2000806616604585256500241C65136823F01E
:10CF30000103136090F83D30602B2AD001F02801E6
:10CF4000282919D02022002380F83D2080F83E3087
:10CF5000FFF70AFF02B070BD156825F48065156003
:10CF600043852365E2E7836BF3B11568DC6325F441
:10CF7000806515604485D7E7136843F001031360AB
:10CF80001368002443F480631360046380F83D1049
:10CF9000DEE70023202280F83D2080F83E30036445
:10CFA000FFF790FF02B070BD146824F48064146031
:10CFB0004385BBE70000002089B5F81410B590F850
:10CFC0003D2090F83E30102B0446D2B239D0D9B271
:10CFD000402936D002F0280128293DD0236859681D
:10CFE000080507D4602A05D02021002284F83D10CE
:10CFF00084F83E20002222635A6812F4006234D181
:10D0000094F83D10602975D05A69500605D5626ABA
:10D010001B691370636A013363622046FFF7A4FE45
:10D02000236C190704D02268536823F4E06353602B
:10D0300094F83D30226C5207DBB201D5282B2FD05B
:10D0400010BD222AC6D123681A6822F400621A6031
:10D050005A681205C8D5CDE700232363236884F8F6
:10D060003D105A6812F40062CAD05A68606B22F40C
:10D0700000625A6090F83530012B1ED0284B0365B2
:10D08000FEF798F90028CBD02268606B1368202146
:10D0900023F00103136084F83D10036D9847BFE748
:10D0A00000232049E16220222363204684F83D20AA
:10D0B00084F83E30FFF7F4FD10BDA06B184B0365FC
:10D0C000FEF778F90028ABD023685A69510606D5D7
:10D0D000626A1B691370626A2368013262621A68AD
:10D0E000A06B22F0010220211A6084F83D10036D2C
:10D0F000984795E7202184F83D1022645A6952062A
:10D1000006D5626A1B691370626A23680132626223
:10D110001A6822F0010220461A60FFF7D3FE7FE76B
:10D12000C9CE00080000FFFF70B5036804465868C8
:10D13000E56A94F83E1094F83D2010298EB0D2B2E2
:10D140005FFA81FC24D0BCF1400F21D0216C002972
:10D1500000F096805969002511F0020FC1F34006D6
:10D1600059D0860559D5226C02B19D6994F83D20AD
:10D1700002F02802282A00F01F8200220C9259692E
:10D180000C919B690C930C9B84F83C200EB070BDF5
:10D190009E69596911F0010F1AD1B5F52A0FF5D022
:10D1A000B5F12A4FF2D00D076DD5850540F183808A
:10D1B000626C616BD2B21A61002900F0E481CA6B23
:10D1C000002A00F0E0815A6842F400625A60DDE70C
:10D1D00085056ED5E26AB2F52A0F00F0EA81E26AAF
:10D1E000B2F12A4F04BF0822E26294F83E20402A9E
:10D1F00000F0D8812269B2F5804F00F0B381226D32
:10D20000002A40F0EF81626CD21102F0060242F077
:10D21000F0021A61BAE7CD067CD402F0F702212AA7
:10D2200000F0F5804E0640F13281450540F12F8136
:10D23000490700F12F8194F83D10628D92B2C9B276
:10D24000002AA3D0626A1B691370638D626A013B76
:10D250009BB26385638D01329BB26262002B95D1D4
:10D260002A2993D1226853682225282123F4806338
:10D2700053602046256384F83D10FFF70DFD85E7D8
:10D280009D69596968E78D0715D5850513D594F80B
:10D290003E20E06A256B94F83D102229D2B200F0BE
:10D2A000B38100220A925A690A929B690A930A9BE7
:10D2B0006CE70D07E7D5750740F1F5805D682E0531
:10D2C0003FF564AF0D0640F11581460540F112812E
:10D2D0004D0700F1128194F83D20208D94F83E1006
:10D2E000E56AD2B2C9B2002840F03B82212A00F0A0
:10D2F000418340297FF44AAF222A7FF447AF628DF1
:10D3000092B2002A00F0708294F83E20402A40F049
:10D31000B480FCE0850580D594F83D505A6822F42D
:10D32000E0625A600D965A690D921A6842F0010245
:10D330001A600D9A1A6822F480621A605A68110500
:10D34000EDB221D505F0F702222A00F07A81606B58
:10D350000268526892B26285628D92B21AB1226CF2
:10D3600042F0040222645A6822F400625A60FEF716
:10D3700023F9012808D0606B994B0365FEF71AF872
:10D3800010B1606B036D9847638D9BB213B3236834
:10D390005A6952070AD5626A1B691370628D636A03
:10D3A000013A591C92B22368616262855A69560635
:10D3B00009D5626A1B691370638D626A013B013291
:10D3C0009BB262626385638D9BB21BB1236C43F099
:10D3D00004032364236C002B40F0DE802A2D00F030
:10D3E000518194F83D30282B00F05481236B222B7F
:10D3F00002D0222D7FF4CAAE0023202223632046D0
:10D4000084F83D2084F83E30FFF746FCBEE60D066A
:10D4100028D5460526D54D0727D494F83D00618DC3
:10D4200089B2C0B200293FF4B1AE616A11F8015B64
:10D430001D616162618D013989B26185618D89B239
:10D4400000297FF4A3AE29287FF4A0AE59682825CF
:10D4500021F4806159602046226384F83D50FFF733
:10D4600019FC93E649077FF591AE82057FF58EAEF4
:10D47000628D92B2002A3FF489AE626A12F8011BF3
:10D480001961638D6262013B9BB263857EE64A0748
:10D490007FF57CAE86057FF579AE628D92B2002A6B
:10D4A0003FF474AE1BE05A6815053FF56FAE4A06AF
:10D4B00033D449077FF56AAE82057FF567AEE16A2E
:10D4C000628D92B2042A00F01981628D92B2032A11
:10D4D00000F05981628D92B2022A00F08A81626A5C
:10D4E0001B691370638D626A013B01329BB26262F9
:10D4F00063854BE649077FF549AE86057FF546AE65
:10D50000212A00F00381BCF1400F7FF43FAE20469A
:10D510000EB0BDE87040FFF7C7BB4605C9D54D0743
:10D52000C1F38002C8D494F83D1022297FF42EAEB6
:10D53000618D89B2032940F2CC81626A1B69137044
:10D54000638D626A013B9BB26385638D9BB201323E
:10D55000032B62627FF41AAE2268536823F480635F
:10D56000536013E694F83D20212A626C16BF42F006
:10D57000010202F0FE02D2B21A61626B1AB1D26BE2
:10D58000002A7FF420AEA26B002A3FF4FFADD26BDD
:10D59000002A7FF418AEF9E520460EB0BDE87040D1
:10D5A000FFF70CBD226D4ABB626C02F0FE021A61ED
:10D5B000ECE50122E26218E65A6822F480625A60C1
:10D5C0002E066FEA95014FF0000354BFA289228B0B
:10D5D00084F83C3001F001012046FFF75FFBD5E500
:10D5E000C9CE0008226D012A7FF4D0AD626CD21141
:10D5F00002F0060242F0F1021A61C7E5626C42F0E5
:10D600000102D2B21A61C1E5216D11B9402A00F0C0
:10D61000A180226D22B92169B1F5404F00F0A580AB
:10D62000628D92B2002A42D103925A6903929A699A
:10D630000392039A1A6842F400721A600023236569
:10D64000A4E5A06B0268526892B26285628D92B2C4
:10D650001AB1226C42F0040222645A6822F4006279
:10D660005A60FDF7A9FF01283FF48EAEA06BA14BD5
:10D670000365FDF79FFE00283FF486AEA06B036DA7
:10D68000984781E628222363204684F83D20FFF74F
:10D6900003FBA6E600239849E1622022236320468B
:10D6A00084F83D2084F83E30FFF7FAFA6EE5628D8B
:10D6B00092B2012A76D0628D92B2022A00F0EB80FB
:10D6C0001A6842F480621A605A6812050ED510F585
:10D6D000803F07D001381F2808D8884A22FA00F076
:10D6E000C60703D55A6842F480525A600022099254
:10D6F0005A6909929B690993099B9FE75A68616A75
:10D7000022F480625A601B690B70EBE6E16A94F8C0
:10D710003D20212A7FF43AAD628D92B2002A7FF437
:10D72000ACAE082900F09F80202900F09C8011F504
:10D73000803F00F09880596821F4E0615960112021
:10D740002023206384F83E20204684F83D30FFF7F4
:10D750009DFA1BE501915A6901929B690193019B16
:10D7600014E5212A3FF4CBADC3E502925A69029237
:10D770009A690292029A1A6842F480721A60236DC2
:10D780000133236502E55A68042922F480625A6055
:10D790003FF4A5AE02293FF4A2AE1A6822F48062DB
:10D7A0001A609CE610F5803F00F00381082800F025
:10D7B000D180202800F0CE80122D00F03D8110286D
:10D7C00000F23C814E4A22FA00F0C10740F1368156
:10D7D0001A6842F480621A60002206925A69069220
:10D7E0009B690693069B29E75A6822F480625A6077
:10D7F000CCE401291A6800F0D880102900F0D58007
:10D80000042900F00A81022900F0078142F4007225
:10D810001A60626A1B691370638D626A2168013B3A
:10D820009BB263850B69511C61625370638D2168E3
:10D83000626A013B9BB263854B68013223F44073FB
:10D84000202062624B6084F83D0094F83E30402B0B
:10D8500000F0C3800022122384F83E202046236378
:10D86000FFF716FA92E4596821F4E06159601968EB
:10D870000022202041F400711960226384F83D00E9
:10D8800094F83E3084F83E20402B20467FF45FAF72
:10D89000FFF708FA7AE4102840F2A8801A6822F408
:10D8A00080621A601A6842F400621A605A681605AB
:10D8B00007D510F5803F40F0A6805A6842F48052A8
:10D8C0005A60002208925A6908929B690893089B43
:10D8D000B4E6E06A022887D0012985D809490B926D
:10D8E000096846F2A810B1FBF0F101EB81010B9140
:10D8F0000FE000BFC9CE00080000FFFF818000805C
:10D9000014000100000000201A6812F4007200F0F8
:10D910009A800B9A013A0B920B990029F4D1226C50
:10D92000606A42F0200222645A6822F4E0625A607F
:10D930001B690370638D626A013B01329BB2202038
:10D940006385626284F83D00204684F83E10FFF74C
:10D950000BFA1BE41A68002122F480621A60079116
:10D960005A6907929A690792079A1A6842F40072F4
:10D970001A6063E6082D3FF476AF202D3FF473AFB5
:10D9800015F5803F3FF46FAF5A6822F4E0625A60A9
:10D99000112000212023206384F83E10204684F8C3
:10D9A0003D30FFF773F9FFF7F1BB22F480621A6094
:10D9B0002FE71A6822F480621A605A6812F4006233
:10D9C0002FD01A68002122F480621A6004915A69EB
:10D9D00004929B690493049B30E6002384F83E3054
:10D9E00020462363FFF7BEF9FFF7D0BB274AC240AA
:10D9F000D2077FF553AF1A6842F480621A605A6802
:10DA000015057FF55EAF01381F283FF65AAF204A53
:10DA1000C240D1077FF555AF4FE742F480621A60EC
:10DA2000F7E605925A6905929A690592059A1A686D
:10DA300042F400721A6001E601288BD11A6822F4C0
:10DA400080621A60C8E61968606A21F48061196012
:10DA5000596821F4E06159601B690370638D013BD3
:10DA600020219BB2638584F83D10636A94F83E10D0
:10DA70000133402963627FF4EEAE84F83E202046F5
:10DA80002263FFF76FF9FFF781BB00BF14000100AD
:10DA90008180008030B583B0194B1A491A4D00229D
:10DAA00001921A6C42F080521A641B6C03F080538E
:10DAB00001930122019B0A64FCF7E8FE044605E09D
:10DAC000FCF7E4FE001BB0F57A7F16D86B68DA032A
:10DAD000F6D50C4B0C4D01225A64FCF7D7FE0446D8
