:020000040800F2
:1080000000000220F9A100085D9C0008619C0008A6
:10801000659C0008699C00086D9C00080000000039
:1080200000000000000000000000000091160108A0
:10803000719C00080000000021170108F1EA000807
:1080400049A2000849A2000849A2000849A2000864
:1080500049A2000849A2000849A2000849A2000854
:10806000759C000849A2000849A20008859C0008E8
:10807000A19C000849A2000849A2000849A20008E2
:1080800049A2000849A2000849A2000849A2000824
:1080900049A2000849A2000849A2000849A2000814
:1080A00049A2000849A2000849A2000849A2000804
:1080B00049A20008BD9C000849A20008C99C00080C
:1080C00049A2000849A2000849A2000849A20008E4
:1080D00049A20008D59C000849A2000849A200084E
:1080E00049A2000849A2000849A2000849A20008C4
:1080F00049A2000849A2000849A2000849A20008B4
:1081000049A2000849A2000849A2000849A20008A3
:1081100049A2000849A20008E19C0008ED9C000863
:1081200049A2000849A20008019D000849A20008D0
:1081300049A20008000000000000000049A2000859
:1081400049A2000849A2000849A2000849A2000863
:1081500049A2000849A200080D9D000849A2000894
:10816000199D000849A2000849A2000849A2000878
:1081700049A2000849A2000849A200080000000026
:108180000000000049A200080000000000000000FC
:1081900049A20008000000000000000049A20008F9
:1081A00000000000000000000000000049A20008DC
:1081B00049A2000849A2000849A2000849A20008F3
:0481C00049A20008C8
:1081D00010B5054C237833B9044B13B10448AFF301
:1081E00000800123237010BD50010020000000001A
:1081F0001C17020808B5034B1BB103490348AFF332
:10820000008008BD00000000540100201C17020877
:1082100001F0FF01102A2BDB10F0070F08D010F837
:10822000013B013A8B422DD010F0070F42B3F6D13B
:10823000F0B441EA012141EA014122F007047FF054
:1082400000070023F0E80256083C85EA010586EAAB
:10825000010685FA47F5A3FA87F586FA47F6A5FAE7
:1082600087F68EB9EED1F0BC01F0FF0102F00702F3
:1082700032B110F8013B013A83EA010313B1F8D19E
:108280000020704701387047002D06BF354603387F
:10829000073815F0010F07D1013015F4807F02BFB8
:1082A000013015F4C03F0130F0BC0138704700BF09
:1082B00070B54FF0FF0C4CF4E06C1CEA11541DBF7C
:1082C0001CEA135594EA0C0F95EA0C0F00F0DEF847
:1082D0002C4481EA030621EA4C5123EA4C5350EA2C
:1082E000013518BF52EA033541F4801143F480137D
:1082F00038D0A0FB02CE4FF00005E1FB02E506F00E
:108300000042E0FB03E54FF00006E1FB03569CF062
:10831000000F18BF4EF0010EA4F1FF04B6F5007F68
:1083200064F5407404D25FEA4E0E6D4146EB0606DA
:1083300042EAC62141EA55514FEAC52040EA5E5063
:108340004FEACE2EB4F1FD0C88BFBCF5E06F1ED80D
:10835000BEF1004F08BF5FEA500E50F1000041EB44
:10836000045170BD06F0004646EA010140EA0200F1
:1083700081EA0301B4EB5C04C2BFD4EB0C0541EA13
:10838000045170BD41F480114FF0000E013C00F328
:10839000AB8014F1360FDEBF002001F0004170BD4C
:1083A000C4F10004203C35DA0C341BDC04F1140465
:1083B000C4F1200500FA05F320FA04F001FA05F2F1
:1083C00040EA020001F0004221F0004110EBD370BE
:1083D00021FA04F642EB06015EEA430E08BF20EAEA
:1083E000D37070BDC4F10C04C4F1200500FA04F38D
:1083F00020FA05F001FA04F240EA020001F000411F
:1084000010EBD37041F100015EEA430E08BF20EA91
:10841000D37070BDC4F1200500FA05F24EEA020ED9
:1084200020FA04F301FA05F243EA020321FA04F008
:1084300001F0004121FA04F220EA020000EBD370BF
:108440005EEA430E08BF20EAD37070BD94F0000FBF
:108450000FD101F00046400041EB010111F4801FF3
:1084600008BF013CF7D041EA060195F0000F18BFA4
:10847000704703F00046520043EB030313F4801FE0
:1084800008BF013DF7D043EA0603704794EA0C0F9A
:108490000CEA135518BF95EA0C0F0CD050EA4106B0
:1084A00018BF52EA4306D1D181EA030101F000412D
:1084B0004FF0000070BD50EA410606BF1046194655
:1084C00052EA430619D094EA0C0F02D150EA013661
:1084D00013D195EA0C0F05D152EA03361CBF1046A2
:1084E00019460AD181EA030101F0004141F0FE4141
:1084F00041F470014FF0000070BD41F0FE4141F4C5
:10850000780170BD81F0004102E000BF83F00043BC
:1085100030B54FEA41044FEA430594EA050F08BF1E
:1085200090EA020F1FBF54EA000C55EA020C7FEAE2
:10853000645C7FEA655C00F0E2804FEA5454D4EB5F
:108540005555B8BF6D420CDD2C4480EA020281EA29
:10855000030382EA000083EA010180EA020281EA61
:108560000303362D88BF30BD11F0004F4FEA0131B3
:108570004FF4801C4CEA113102D0404261EB4101C2
:1085800013F0004F4FEA03334CEA133302D0524248
:1085900063EB430394EA050F00F0A780A4F1010404
:1085A000D5F1200E0DDB02FA0EFC22FA05F280183E
:1085B00041F1000103FA0EF2801843FA05F3594124
:1085C0000EE0A5F120050EF1200E012A03FA0EFCA3
:1085D00028BF4CF0020C43FA05F3C01851EBE371CD
:1085E00001F0004507D54FF0000EDCF1000C7EEBEA
:1085F00000006EEB0101B1F5801F1BD3B1F5001F28
:108600000CD349085FEA30004FEA3C0C04F1010446
:108610004FEA445212F5800F80F09A80BCF1004F6F
:1086200008BF5FEA500C50F1000041EB045141EAF1
:10863000050130BD5FEA4C0C404141EB0101013CBA
:1086400028BFB1F5801FE9D291F0000F04BF0146A9
:108650000020B1FA81F308BF2033A3F10B03B3F17B
:1086600020020CDA0C3208DD02F1140CC2F10C020B
:1086700001FA0CF021FA02F10CE002F11402D8BF69
:10868000C2F1200C01FA02F120FA0CFCDCBF41EA35
:108690000C019040E41AA2BF01EB0451294330BD04
:1086A0006FEA04041F3C1CDA0C340EDC04F11404E1
:1086B000C4F1200220FA04F001FA02F340EA0300B8
:1086C00021FA04F345EA030130BDC4F10C04C4F1FE
:1086D000200220FA02F001FA04F340EA03002946DE
:1086E00030BD21FA04F0294630BD94F0000F83F428
:1086F000801306BF81F480110134013D4EE77FEA0B
:10870000645C18BF7FEA655C29D094EA050F08BF56
:1087100090EA020F05D054EA000C04BF1946104637
:1087200030BD91EA030F1EBF0021002030BD5FEA7B
:10873000545C05D14000494128BF41F0004130BDA3
:1087400014F580043CBF01F5801130BD01F00045F7
:1087500045F0FE4141F470014FF0000030BD7FEA6A
:10876000645C1ABF194610467FEA655C1CBF0B4665
:10877000024650EA013406BF52EA033591EA030F7C
:1087800041F4002130BD00BF90F0000F04BF002174
:10879000704730B54FF4806404F132044FF00005A7
:1087A0004FF0000150E700BF90F0000F04BF002120
:1087B000704730B54FF4806404F1320410F0004586
:1087C00048BF40424FF000013EE700BF42004FEA81
:1087D000E2014FEA31014FEA02701FBF12F07F43FE
:1087E00093F07F4F81F06051704732F07F4208BFB5
:1087F000704793F07F4F04BF41F40021704730B5BC
:108800004FF4607401F0004521F000411CE700BF07
:1088100050EA010208BF704730B54FF000050AE08A
:1088200050EA010208BF704730B511F0004502D58B
:10883000404261EB41014FF4806404F132045FEA8D
:10884000915C3FF4D8AE4FF003025FEADC0C18BF36
:1088500003325FEADC0C18BF033202EBDC02C2F128
:10886000200300FA03FC20FA02F001FA03FE40EABA
:108870000E0021FA02F11444BDE600BF4FEA4102A6
:10888000B2F1E04324BFB3F5001CDCF1FE5C0DD96E
:1088900001F0004C4FEAC0024CEA5070B2F1004FB8
:1088A00040EB830008BF20F00100704711F0804FBB
:1088B00021D113F13872BCBF01F00040704741F480
:1088C00080114FEA5252C2F11802C2F1200C10FA84
:1088D0000CF320FA02F018BF40F001004FEAC12368
:1088E0004FEAD32303FA0CFC40EA0C0023FA02F30C
:1088F0004FEA4303CCE77FEA625307D150EA0133E2
:108900001EBF4FF0FE4040F44000704701F00040B1
:1089100040F0FE4040F40000704700BF80F000408F
:1089200002E000BF81F0004142001FBF5FEA410347
:1089300092EA030F7FEA226C7FEA236C6AD04FEA47
:108940001262D2EB1363C1BFD2184140484041408C
:10895000B8BF5B42192B88BF704710F0004F40F43E
:10896000000020F07F4018BF404211F0004F41F45A
:10897000000121F07F4118BF494292EA030F3FD026
:10898000A2F1010241FA03FC10EB0C00C3F1200339
:1089900001FA03F100F0004302D5494260EB4000C8
:1089A000B0F5000F13D3B0F1807F06D340084FEA33
:1089B000310102F10102FE2A51D2B1F1004F40EB28
:1089C000C25008BF20F0010040EA03007047490090
:1089D00040EB0000013A28BFB0F5000FEDD2B0FA2D
:1089E00080FCACF1080CB2EB0C0200FA0CF0AABF50
:1089F00000EBC25052421843BCBFD04018437047EE
:108A000092F0000F81F4000106BF80F400000132F3
:108A1000013BB5E74FEA41037FEA226C18BF7FEACA
:108A2000236C21D092EA030F04D092F0000F08BF0C
:108A30000846704790EA010F1CBF0020704712F0F3
:108A40007F4F04D1400028BF40F00040704712F132
:108A500000723CBF00F50000704700F0004343F097
:108A6000FE4040F4000070477FEA226216BF0846CD
:108A70007FEA23630146420206BF5FEA412390EA90
:108A8000010F40F4800070474FF0000304E000BF86
:108A900010F0004348BF40425FEA000C08BF704737
:108AA00043F0964301464FF000001CE050EA0102FB
:108AB00008BF70474FF000030AE000BF50EA010210
:108AC00008BF704711F0004302D5404261EB4101FD
:108AD0005FEA010C02BF84460146002043F0B64322
:108AE00008BFA3F18053A3F50003BCFA8CF2083A47
:108AF000A3EBC25310DB01FA02FC634400FA02FC50
:108B0000C2F12002BCF1004F20FA02F243EB020056
:108B100008BF20F00100704702F1200201FA02FCB8
:108B2000C2F1200250EA4C0021FA02F243EB0200AB
:108B300008BF20EADC70704753B94AB9002908BF62
:108B400000281CBF4FF0FF314FF0FF3000F094B908
:108B5000ADF1080C6DE904CE00F026F8DDF804E074
:108B6000DDE9022304B07047D0B5FFF72FFE0C4BB0
:108B7000002206460F46FFF79BFB00F07FF90446F4
:108B8000FFF702FE074B0022FFF792FB02460B465F
:108B900030463946FFF7BAFC00F070F92146D0BDE7
:108BA0000000F03D0000F0412DE9F047089D04462B
:108BB0008E46002B4DD18A42944669D9B2FA82F290
:108BC00052B101FA02F3C2F1200120FA01F10CFACC
:108BD00002FC41EA030E94404FEA1C48210CBEFB04
:108BE000F8F61FFA8CF708FB16E341EA034306FB8D
:108BF00007F199420AD91CEB030306F1FF3080F01C
:108C00001F81994240F21C81023E63445B1AA4B268
:108C1000B3FBF8F008FB103344EA034400FB07F70A
:108C2000A7420AD91CEB040400F1FF3380F00A814B
:108C3000A74240F207816444023840EA0640E41B40
:108C400000261DB1D4400023C5E900433146BDE8EC
:108C5000F0878B4209D9002D00F0EF800026C5E98E
:108C6000000130463146BDE8F087B3FA83F6002EA6
:108C70004AD18B4202D3824200F2F980841A61EB1E
:108C8000030301209E46002DE0D0C5E9004EDDE73C
:108C900002B9FFDEB2FA82F2002A40F09280A1EB24
:108CA0000C014FEA1C471FFA8CFE0126200CB1FB79
:108CB000F7F307FB131140EA01410EFB03F0884272
:108CC00008D91CEB010103F1FF3802D2884200F2FF
:108CD000CB804346091AA4B2B1FBF7F007FB101191
:108CE00044EA01440EFB00FEA64508D91CEB04042F
:108CF00000F1FF3102D2A64500F2BB800846A4EB8A
:108D00000E0440EA03409CE7C6F12007B34022FA74
:108D100007FC4CEA030C20FA07F401FA06F31C43A3
:108D2000F9404FEA1C4900FA06F3B1FBF9F8200CB0
:108D30001FFA8CFE09FB181140EA014108FB0EF0F6
:108D4000884202FA06F20BD91CEB010108F1FF3A46
:108D500080F08880884240F28580A8F10208614452
:108D6000091AA4B2B1FBF9F009FB101144EA014160
:108D700000FB0EFE8E4508D91CEB010100F1FF340B
:108D80006CD28E456AD90238614440EA0840A0FBA3
:108D90000294A1EB0E01A142C846A64656D353D079
:108DA0005DB1B3EB080261EB0E0101FA07F722FA9D
:108DB00006F3F1401F43C5E9007100263146BDE8C6
:108DC000F087C2F12003D8400CFA02FC21FA03F329
:108DD000914001434FEA1C471FFA8CFEB3FBF7F0AA
:108DE00007FB10360B0C43EA064300FB0EF69E42CF
:108DF00004FA02F408D91CEB030300F1FF382FD268
:108E00009E422DD9023863449B1B89B2B3FBF7F60F
:108E100007FB163341EA034106FB0EF38B4208D9E8
:108E20001CEB010106F1FF3816D28B4214D9023E29
:108E30006144C91A46EA004638E72E46284605E747
:108E40000646E3E61846F8E64B45A9D2B9EB020818
:108E500064EB0C0E0138A3E74646EAE7204694E7A8
:108E60004046D1E7D0467BE7023B614432E73046DB
:108E700009E76444023842E7704700BF4A0011D254
:108E800012F5001211D20DD56FF47873B3EB625264
:108E90000ED44FEAC12343F0004343EA505323FA70
:108EA00002F070474FF00000704750EA013002D1E5
:108EB0004FF0FF3070474FF000007047054808B58D
:108EC000054B036001F05EFA00B908BDBDE808403B
:108ED00000F040BD6C010020003002400B4B0268E6
:108EE0009A4200D0704782B000220192D3F8302815
:108EF00042F48052C3F8302803F500631B6B03F47F
:108F000080530193019B02B0704700BF00300240C4
:108F100000B583B01B4B00220092186B40F4800018
:108F20001863186B00F48000009000980192186B91
:108F300040F4001018631B6B03F400130521019328
:108F40000B20019B01F0D2F90B2001F00DFA002259
:108F500005210C2001F0CAF90C2001F005FA0022CD
:108F600005213A2001F0C2F93A2001F0FDF9002272
:108F70004620052101F0BAF9462003B05DF804EB64
:108F800001F0F2B90038024010B51148114C1249F5
:108F900000230122C0E90041C0E90232C0E90433E4
:108FA000C0E90633036201F025FE28B90848002114
:108FB00002F02AF840B910BD00F0CCFC04480021B2
:108FC00002F022F80028F6D0BDE8104000F0C2BC44
:108FD00074010020006000405016400030B5044687
:108FE0009FB000215C2207A8CDE90211CDE9041150
:108FF000069117F0ADFA1A4B22689A4201D01FB0C1
:1090000030BD802307A8079303F0E4FE28BB154C6E
:10901000154800250095236B43F004032363236B5D
:1090200003F004030093C0221223CDE9022301229E
:109030000323CDE9042302A904230693009A02F036
:109040000DF80195236C43F080732364236C03F0C7
:1090500080730193019B1FB030BD00F07BFCD6E70D
:1090600000600040003802400008024008B5044C8F
:1090700020684FF0FF3105F0FBFE0EF093FCF7E7A0
:10908000C403002008B5044C20684FF0FF3105F000
:10909000EFFE0EF0EFFCF7E77003002030B50A4D4D
:1090A00083B0002428688DF807404FF0FF3300227A
:1090B0000DF1070105F0ACFF0028F3D19DF8070082
:1090C0000EF00CFDEEE700BF7402002070B50A4EF2
:1090D00082B00024002530684FF0FF33002269463B
:1090E000CDE9004505F094FF0028F4D1DDE9000149
:1090F0000EF0B2FDEFE700BF1802002038B50A4CB1
:109100000A4D20684FF0FF3105F0B2FE00200AF052
:10911000A7FD0028F5D12868052105F0A9FE002843
:10912000EFD10AF0CFFDECE718040020C8020020C0
:1091300038B50B4C0B4D20684FF0FF3105F098FE11
:1091400001200AF08DFD0028F5D12868052105F0E1
:109150008FFE0028EFD101200AF0B4FDEBE700BF3D
:109160006C0400201C03002010B5144C144A236822
:1091700003FB02F2B2F1333F09D9114A114903FB53
:1091800002F2B1EB720F10D20133236010BD0E4B0F
:10919000186805F0A1FE0D4B186805F09DFE0C4BFC
:1091A000186805F099FE2368E7E70A4B186805F090
:1091B00093FE23680133236010BD00BF407300207D
:1091C000CDCCCCCC99999919C40300201804002067
:1091D0006C0400207003002010B53F4A00210120DC
:1091E00005F0F2FD3D4B3E4A0446002101201C6083
:1091F00005F0EAFD3B4B3C4A0446002101201C607F
:1092000005F0E2FD394B3A4A0446002101201C607A
:1092100005F0DAFD374B384A0446002101201C6076
:1092200005F0D2FD354B364A0446002101201C6072
:1092300005F0CAFD334C344B206000220121334835
:1092400005F0DCFC324B0121186005F017FD314AB6
:109250000121082005F06CFE2F4B304A04460821FE
:1092600001201C6005F064FE2D4B2E4A04460021AF
:109270002D481C6005F076FC2C4B2D4A044600213D
:109280002C481C6005F06EFC2B4B2C4A0446002138
:109290002B481C6005F066FC2A4B2B4A0446002133
:1092A0002A481C6005F05EFC294B2A4A044600212E
:1092B00029481C6005F056FC284B294A0446002129
:1092C00028481C6005F04EFC274B18600EF062FB2E
:1092D000BDE810400EF042BC44190208C40300204F
:1092E00034190208700300205419020818040020E1
:1092F000641902086C04002014190208C802002036
:10930000241902081C0300204C1A02086991000865
:109310003C730020FC18020874020020E4180208C4
:1093200018020020981902086D9000080C660020B1
:1093300074190208859000082C450020281A02089C
:109340009D9000080C730020041A0208CD900008BC
:109350004C6E0020BC190208FD9000081066002029
:10936000E019020831910008146600200000000096
:109370002DE9F04F2DED068B00248DB0CDE906448C
:10938000CDE908446C4B01940A941A6B6B4E6C4DFA
:109390006C4F42F004021A631A6B02F0040201924D
:1093A000019A02941A6B42F080021A631A6B02F05F
:1093B00080020292029A03941A6B42F001021A632D
:1093C0001A6B02F001020392039A04941A6B42F0A2
:1093D00002021A631A6B02F002020492049A0594C4
:1093E0001A6B42F008021A631B6B03F00803059323
:1093F0003046012240F23111059B01F041FF224627
:10940000284641F2020101F03BFF2846012248F2C2
:10941000100101F035FF384641F20101012201F04F
:109420002FFF9FED3FAB22463846122101F028FF67
:109430004FF48042002306A93046CDE906239FED74
:109440003A8B4FF0000A4FF0010B089401F006FE32
:1094500006A930469FED369B8DED06ABCDE908ABF6
:1094600001F0FCFD0122002306A92846CDE90623D0
:109470004FF000084FF00009089401F0EFFD06A935
:109480002846CDE908898DED068B01F0E7FD06A998
:10949000304610220123CDE906238DED089B01F013
:1094A000DDFD4FF490720123304606A9CDE9062375
:1094B000CDE9088901F0D2FD06A938468DED06AB4D
:1094C0008DED089B01F0CAFD384606A98DED068B8F
:1094D000CDE9088901F0C2FD06A928464FF40042F3
:1094E0000123CDE90623CDE908AB01F0B7FD4FF428
:1094F000881306A9042214480894CDE9062301F034
:10950000ADFD22460521082000F0F0FE082000F005
:109510002BFF0DB0BDEC068BBDE8F08FAFF30080E4
:109520000100000001000000121000000100000016
:109530000000000002000000003802400008024065
:109540000000024000040240000C024010B50B482D
:109550000B4C0C4900234FF48042C0E90041C0E9A4
:109560000233C0E90423C0E90633036201F09AFE26
:1095700000B910BDBDE8104000F0ECB90474002043
:1095800000540040801A060010B50B480B4C0C49E3
:1095900000234FF48042C0E90041C0E90233C0E932
:1095A0000423C0E90633036201F07CFE00B910BD5C
:1095B000BDE8104000F0CEB95874002000580040BB
:1095C000801A060010B50B480B4C0C4900234FF4D1
:1095D0008042C0E90041C0E90233C0E90423C0E988
:1095E0000633036201F05EFE00B910BDBDE8104015
:1095F00000F0B0B9AC740020005C0040801A060096
:10960000F0B50368794A8FB000249342CDE908444D
:10961000CDE90A4405460C9408D0754A934249D0D6
:10962000744A934200F082800FB0F0BD724F0094F4
:109630003B6B7248724E43F002033B633B6B03F09B
:1096400002030093009B4FF440721223CDE90823DC
:1096500008A903220423CDE90B2301F0FFFC0194A8
:109660003B6C684A43F400133B643B6CB46003F406
:10967000001301934FF00073C6E9002330464FF406
:109680008063C6E90343C6E90544C6E90744019976
:10969000746200F0A5FE002840F0A280AE630022B4
:1096A00005211F20B56300F021FE1F2000F05CFEA5
:1096B0000FB0F0BD504D02942B6B504843F00203A5
:1096C0002B632B6B03F002030293029B03942B6B1F
:1096D00043F004032B632B6B03F0040303934FF459
:1096E00080621223CDE90823042608A903230B93E3
:1096F0000C96039B01F0B2FC4FF480521223CDE98B
:10970000082341480C960022032308A9CDE90A2327
:1097100001F0A4FC04942B6C43F480032B642B6CA9
:1097200003F480030493049B0FB0F0BD324F059403
:109730003B6B354843F004033B633B6B03F004038E
:109740000593059B06943B6B43F001033B633B6B26
:1097500003F0010306934FF40072069B1223CDE938
:1097600008230426032308A90C960B9301F076FC2A
:109770004FF480721223CDE9082324480C9600226E
:10978000032308A9CDE90A2301F068FC07943B6C88
:109790001F4E204AB46043F400033B643B6CF4600A
:1097A00003F4000307934FF00073C6E9002330462B
:1097B0004FF48063C6E90434C6E90644C6E90844A8
:1097C000079900F00DFE70B9AE6300220521482014
:1097D000B56300F08BFD482000F0C6FD0FB0F0BD72
:1097E00000F0B8F85AE700F0B5F8EDE70054004093
:1097F00000580040005C0040003802400004024075
:109800004473002010600240000802400000024043
:10981000A47300202860024010B5002396B0CDE963
:109820000A33CDE90C33CDE90233CDE904332849BD
:1098300000930693086C274A40F080500864096C36
:1098400001F08051009100990193116841F4404169
:10985000116012689FED1A7B022302F440424FF41C
:1098600080000192CDE90E300821B42208A88DEDC8
:10987000087BCDE91123CDE91333019C109103F04E
:1098800001FD08B172B6FEE703F088F908B172B6BF
:10989000FEE79FED0D7B4FF4A0530022CDE904239A
:1098A00002A84FF4805305218DED027B069303F04F
:1098B000B1F908B172B6FEE716B010BDAFF3008083
:1098C00001000000000001000F0000000200000085
:1098D000003802400070004008B500F0B7FCFFF708
:1098E0009BFFFFF745FDFFF713FB00F085FA00F043
:1098F00023FB00F05DFB00F073F8FFF7DFFA00F0E8
:109900004DF800F0E1FBFFF73FFB00F025F8FFF713
:109910003BFEFFF71BFEFFF755FE00F0A9FA0648D5
:1099200004F054F9054804F051F905F0EFF8FFF799
:1099300053FC05F0FDF8FEE754760020E4760020A5
:10994000034B02689A4200D0704700F099BC00BFF8
:109950000010004072B6FEE70E480F494FF48272C5
:1099600010B50023C0E900124FF4007410210A2240
:10997000C0E90233C0E90433C0E90641C0E9083355
:10998000C0E90A3203F0E4FE00B910BDBDE81040A2
:10999000FFF7E0BF00750020003001400E480F497E
:1099A0004FF4827210B50023C0E900124FF4007426
:1099B00010210A22C0E90233C0E90433C0E906419C
:1099C000C0E90833C0E90A3203F0C2FE00B910BD95
:1099D000BDE81040FFF7BEBF5875002000380040BA
:1099E0000E480F494FF4827210B50023C0E90012EF
:1099F0004FF4007410210A22C0E90233C0E9043395
:109A0000C0E90641C0E90833C0E90A3203F0A0FE0C
:109A100000B910BDBDE81040FFF79CBFB075002035
:109A2000003C00400000000010B5026854498EB0B0
:109A300000238A42CDE90833CDE90A330C9307D0DD
:109A400050498A4227D050498A425FD00EB010BD9B
:109A50004E4A0193506C40F480505064506C00F4B6
:109A60008050019001980293136B494843F0010321
:109A70001363136B9FED3E7B03F0010302930322FC
:109A8000052308A98DED087BCDE90B23029C01F08D
:109A9000E5FA0EB010BD3D4A0393116C3D4841F408
:109AA00080411164116C01F4804103910399049386
:109AB000116B41F004011163116B01F00401049179
:109AC00004990593136B43F002031363136B03F0C4
:109AD000020305930C220223CDE90823052408A9DB
:109AE0000323CDE90B34059A01F0B8FA4FF4005284
:109AF0000223CDE9082328480C940022032308A957
:109B0000CDE90A2301F0AAFA0EB010BD1F4A069350
:109B1000116C204841F400411164116C01F40041C2
:109B2000069106990793136B43F004031363136BB9
:109B300003F00403079302220223CDE9082308A9B6
:109B400003220523CDE90B23079C01F087FA9FED43
:109B50000A7B00220323CDE90A230E48062308A925
:109B60008DED087B0C9301F079FA0EB010BD00BFAB
:109B7000E000000002000000000C000002000000F5
:109B80000030014000380040003C004000380240F6
:109B900000000240000802400004024082B00E4B68
:109BA00000220092596C41F480415964586C00F4D1
:109BB0008040009000980192186C40F0805018642A
:109BC0001B6C03F080530193019B0F216FF0010088
:109BD00002B000F08BBB00BF0038024030B5014638
:109BE00089B00022362000F081FB362000F0BCFB5B
:109BF0000025164B02951A6C154C42F010021A649F
:109C00001B6C03F0100301A903A80293029B03F04D
:109C1000BFF803F09DF80F4A0F4921604300A2FBF3
:109C200003239B0C013B40F2E7322046C4E90325A5
:109C30006360A56003F03CFF10B1012009B030BDA6
:109C4000204603F0FBFF09B030BD00BF00380240E2
:109C50000876002083DE1B4300100040FEE700BFB3
:109C6000FEE700BFFEE700BFFEE700BFFEE700BF64
:109C7000704700BF08B50DF027FEBDE8084004207E
:109C800001F004BB08B5044800F0DCFC034B186885
:109C9000BDE8084005F020B944730020C802002048
:109CA00008B5044800F0CEFC034B1868BDE8084036
:109CB00005F012B9A47300201C030020014804F031
:109CC000B5BA00BF9C760020014802F0B1BA00BFCF
:109CD00004740020014804F077BD00BF34780020F0
:109CE000014804F0A3BA00BF0876002008B50DF0C3
:109CF000F9F9BDE80840014804F098BA2C77002033
:109D0000014800F09FBC00BF74770020014800F0BC
:109D100099BC00BFD4770020014802F089BA00BF87
:109D2000AC7400200120704708B516F0A3FA162382
:109D300003604FF0FF3008BD08B516F09BFA1623FC
:109D40000360FEE770B5161E07DD0C468D19AFF3F4
:109D5000008004F8010BA542F9D1304670BD00BF68
:109D600070B5161E07DD0C468D1914F8010BAFF304
:109D70000080AC42F9D1304670BD00BF4FF0FF30DB
:109D8000704700BF4FF400534B600020704700BF86
:109D9000012070470020704710B50C4C0C4B0D494A
:109DA0002268591A2AB11044884207D82060104608
:109DB00010BD094A226010448842F7D916F05AFAB9
:109DC0000C234FF0FF320360104610BD5076002088
:109DD0000000022000040000D0DF0020044B0549F1
:109DE000D3F8882042F47002C3F888209960704745
:109DF00000ED00E00080000800B51B484FF08042F5
:109E000002605922002387B042604FF0FF32CDE953
:109E10000233CDE90433CDE90033C0E902320361F6
:109E2000836103F045FE98B94FF480530E480293C6
:109E300002A904F0B7F898B9202200230A4869461D
:109E4000CDE9002304F09CFA28B907B05DF804FBC3
:109E5000FFF780FDE8E7FFF77DFD07B05DF804FB45
:109E6000FFF778FDE8E700BF54760020000000000F
:109E700000B52F488FB00023CDE90233CDE904337C
:109E8000CDE90033CDE90633CDE90833CDE90A3316
:109E9000C0E901330C9303618361264B03604FF6E5
:109EA000FF73C36003F004FE48BB4FF480532048A7
:109EB000029302A904F076F890BB1D4803F0FCFE63
:109EC00058BB002200231A486946CDE9002304F05C
:109ED00057FAF8B99FED147B00221548089206A99D
:109EE0008DED067B0A9203F075FF80B910480422BD
:109EF00006A903F06FFF28B90FB05DF804FBFFF768
:109F000029FDD2E7FFF726FD0FB05DF804FBFFF750
:109F100021FDEBE7FFF71EFDDCE7FFF71BFDD0E7B8
:109F2000FFF718FDC9E700BF0000000000000000B7
:109F30009C7600200004004000B51B481B4A0260CC
:109F400089B000234FF0FF32CDE90233CDE904336D
:109F5000CDE90033C0E90133C0E9032306938361EF
:109F600003F0A6FDA0B9072200230F4802A9CDE9FE
:109F7000022304F0C7F898B9002200230A48694672
:109F8000CDE9002304F0FCF928B909B05DF804FB21
:109F9000FFF7E0FCE7E7FFF7DDFC09B05DF804FB45
:109FA000FFF7D8FCE8E700BFE4760020000C004093
:109FB00000B51248124941F64B52002383B0C0E964
:109FC00000120122CDE90033C0E90232836103F0BF
:109FD0006FFD58B90022002308486946CDE90023E7
:109FE00004F0CEF928B903B05DF804FBFFF7B2FC2A
:109FF000F0E7FFF7AFFC03B05DF804FB2C7700201F
:10A000000014004000B50368B3F1804F85B00BD059
:10A01000294A934227D0294A934215D0284A93428D
:10A0200037D005B05DF804FB03F50E330022009233
:10A030001A6C42F001021A641B6C03F001030093D6
:10A04000009B05B05DF804FB1E4B002202921A6CC7
:10A0500042F008021A641B6C03F008030293029B8F
:10A0600005B05DF804FB174B00220192196C41F01A
:10A07000020119641B6C03F002031D2001930521EA
:10A08000019B00F033F91D2005B05DF804EB00F0F2
:10A090006BB90C4B00220392196C41F0200119643A
:10A0A0001B6C03F02003372003930221039B00F075
:10A0B0001DF93720E8E700BF00040040000C004015
:10A0C000001400400038024010B50B480B4C002330
:10A0D0004FF4E1310C22C0E90041C0E90233C0E98C
:10A0E0000432C0E9063304F08FF900B910BDBDE8B1
:10A0F0001040FFF72FBC00BF347800200010014053
:10A1000070B5374B026888B000249A42CDE902440A
:10A11000CDE90444069401D008B070BD03F5943332
:10A1200000945A6C2F4E42F010025A645A6C02F09E
:10A1300010020092009A01941A6B42F001021A6315
:10A140001B6B03F0010301934FF4C0620223CDE9BE
:10A150000223032305930546019B2348072302A9F5
:10A16000069300F07BFF214A74624FF00063C6E95A
:10A170000023304640224FF48063C6E90224C6E93A
:10A180000544C6E90744336100F02AF910BB184CB6
:10A1900018496E634FF000620023C4E900122046A4
:10A1A0004FF48062C4E90233C4E90423C4E90633EE
:10A1B000C4E90833B56300F013F970B9AC63002249
:10A1C00005212520A56300F091F8252000F0CCF8AA
:10A1D00008B070BDFFF7BEFBD9E7FFF7BBFBEDE7AB
:10A1E00000100140D477002000000240B864024013
:10A1F0007477002040640240DFF834D00D480E49E7
:10A200000E4A002302E0D458C4500433C4188C42D0
:10A21000F9D30B4A0B4C002301E013600432A24235
:10A22000FBD3FFF7DBFD16F033F9FFF755FB704763
:10A230000000022000000020440100209446020893
:10A2400050010020CCDF0020FEE7000008B50B4BDA
:10A250001A6842F400721A601A6842F480621A6046
:10A260001A6842F480721A60032000F02DF80F2063
:10A27000FFF7B4FCFFF792FC002008BD003C024051
:10A28000034A044B11681B780B441360704700BFEE
:10A290007878002004000020014B1868704700BF48
:10A2A0007878002038B50446FFF7F6FF631C0546B2
:10A2B00002D0044B1B781C44FFF7EEFF431BA34264
:10A2C000FAD338BD040000200749CA6803024FF6DC
:10A2D000FF0003F4E0630240134343F0BF6343F421
:10A2E0000033CB60704700BF00ED00E01C4BDB6823
:10A2F000C3F3022300B5C3F1070EBEF1040F03F14F
:10A30000040C28BF4FF0040EBCF1060F1BD9033B11
:10A310004FF0FF3C0CFA03FC22EA0C024FF0FF3C2A
:10A320000CFA0EFC21EA0C019940002841EA0201D6
:10A330000CDB00F16040090100F56140C9B280F812
:10A3400000135DF804FB00221346E7E7054B00F01D
:10A350000F0009010344C9B219765DF804FB00BF80
:10A3600000ED00E0FCEC00E0002808DB4109044AB5
:10A3700000F01F00012303FA00F042F821007047AB
:10A3800000E100E080B110B54379044603F0FF021C
:10A390001BB101236371002010BD0271FEF79EFD09
:10A3A00001236371002010BD0120704710B4022307
:10A3B00004684371A36843F001038446A3603AB183
:10A3C000043901EB820251F8043F23609142FAD133
:10A3D000012320688CF805305DF8044B704700BFFE
:10A3E00038B50446FFF758FF002C52D023680022EE
:10A3F000022184F8351084F834201A6822F0010212
:10A4000005461A6005E0FFF747FF431B052B39D8C7
:10A4100023681A68D107F6D4D4E90120E168024321
:10A420000A43D4E90451A0692A430A43E1691D683B
:10A4300002430A4333492940256A2A430A43616A91
:10A44000042928D01A605A6922F007021143D8B2B1
:10A450002D4A59611038A2FB005212092B4923F4EE
:10A460007F73895CE16523F003035F2888BF0433B1
:10A470003F228A40A36500209A600123606584F82A
:10A48000353038BD03232022626584F83530184604
:10A4900038BD012038BDD4E90B5129430A431A6065
:10A4A0005969A26A21F00701114341F00401002D0E
:10A4B000CDD078B1B0F5005F16D0022A03D9032AB7
:10A4C000C5D1EA01C3D501234022626584F8353045
:10A4D000184638BD012A03D032F00202B7D1F0E7A6
:10A4E000B5F1C07FB3D1EEE7032AB0D801A050F890
:10A4F00022F000BFC7A40008C3A40008C7A4000836
:10A50000E1A400083F8010F0ABAAAAAA741A0208BE
:10A5100070B490F83440856D012C35D090F83540FA
:10A520004FF0010C644580F834C005D0002380F85A
:10A53000343070BC02207047022680F83560046811
:10A5400000264665266826F48026266063608368B8
:10A55000402B0EBFA260A160E260C26D08BFE16047
:10A560003F239340AB602368026C43F016032360E3
:10A570001AB1236843F008032360236843F0010302
:10A580000020236070BC7047022070BC704700BF81
:10A5900070B50446866DFFF77FFE94F83530022BC8
:10A5A00006D00023802284F834306265012070BD1B
:10A5B00023681A6822F016021A605A6922F0800293
:10A5C0005A61226C054632B31A6822F008021A60FA
:10A5D0001A6822F001021A6005E0FFF75DFE431BD6
:10A5E000052B0FD823681B6813F00103F5D1E16D2B
:10A5F0003F228A400121B26084F8351084F834305B
:10A60000184670BD032020220023626584F8343090
:10A6100084F8350070BDA26C002AD5D1D8E700BF00
:10A6200090F83530022B03D080234365012070471A
:10A630000268052380F83530136823F001030020F9
:10A64000136070472DE9F04182B0744A866D156839
:10A6500000230193C36D346808229A402242804649
:10A6600004D001680F68780700F18A8001229A40BF
:10A67000224204D0D8F800104969090678D404228F
:10A680009A40224204D0D8F8001009688F0767D496
:10A6900010229A40224204D0D8F800100F683807E0
:10A6A00049D420229A40224217D0D8F800100C68D2
:10A6B000E00612D5B26098F83520052A73D00B68F1
:10A6C00013F4802F0B6800F09080190340F19B80F9
:10A6D000D8F83C300BB140469847D8F854303BB3DB
:10A6E000D8F85430DA071BD5D8F800204C49052398
:10A6F00088F835301368A1FB051523F00103AD0A76
:10A70000136002E01368DB0704D5019B0133AB4201
:10A710000193F7D90122002388F8352088F83430D6
:10A72000D8F84C3023B1404602B0BDE8F04118479C
:10A7300002B0BDE8F081B2600A6812F4802F0A68A6
:10A740002AD1D70503D40A6822F008020A60D8F893
:10A750004020002AA5D040469047D8F85C30A0E7BA
:10A76000B260D8F8542042F00402C8F854208FE7B1
:10A77000B260D8F8542042F00202C8F854207EE7B4
:10A780000F6827F004070F60B260D8F8542042F039
:10A790000102C8F8542069E71203D8D5D8F8482038
:10A7A000002AD8D17DE70A6822F016020A604A69B9
:10A7B00022F080024A61D8F8402052B30A6822F0A1
:10A7C00008020A603F2202FA03F3D8F85010B3607F
:10A7D0000122002388F8352088F834300029A7D0DA
:10A7E000404602B0BDE8F041084713F480737FF49F
:10A7F0006FAF0A6822F010020A60012288F8352043
:10A8000088F8343064E7D8F84430002B7FF463AF25
:10A8100063E7D8F84820002AD0D1D3E70000002011
:10A82000B5814E1B90F83500704700BF406D7047F2
:10A830002DE9F8430546894617464FF010082B6866
:10A840009E6916F0040640F083809C6914F01004A1
:10A8500069D05A68940103D45A6842F480425A601D
:10A860000024B9F1FF3F9A695FD1900673D424B9EF
:10A870009C69A106FCD52022DA61C3F81C8046F051
:10A88000040401219A69D00530D54FF48071560532
:10A89000D96144F0010404D54FF48061D96144F0DA
:10A8A0000804910504D54FF4007244F00204DA6103
:10A8B0009A69960744BF00229A629A69D00703D426
:10A8C0009A6942F001029A615A68304802405A601F
:10A8D0006B6C002120221C436C6485F8401085F8C5
:10A8E000412085F842100120BDE8F8835005D3D4FB
:10A8F0009205D8D40029DBD19A6992062ED4FFF7AD
:10A90000CBFCC01B484502D8B9F1000F97D16B6C46
:10A910002022134300216B6485F8401085F8412004
:10A920000120BDE8F8832146ACE7920613D4002C41
:10A93000A3D1FFF7B1FCC01B814506D3B9F1000FCD
:10A9400004BF202601242B688BE720260124FAE788
:10A950000020BDE8F883002C8DD08EE79A6951075E
:10A9600002D52A8D002AF3D12024DC615968074AD8
:10A970001140002259606A6485F8402085F8414002
:10A9800085F842200120BDE8F88300BF00E800FE02
:10A990002DE9F8430746884616464FF010093B68F4
:10A9A0009D6915F0020540F085809C6914F0100443
:10A9B0006BD05A68910103D45A6842F480425A60BD
:10A9C0000024B8F1FF3F9A6961D1920675D424B989
:10A9D0009C69A406FCD52022DA61C3F81C9045F0DE
:10A9E000040401229D69E90530D54FF480726805A1
:10A9F000DA6144F0010404D54FF48062DA6144F076
:10AA00000804AD0504D54FF4007244F00204DA6185
:10AA10009A69910744BF00229A629A69D20703D4C7
:10AA20009A6942F001029A615A68254802405A60C8
:10AA30007B6C002120221C437C6487F8401087F83F
:10AA40004120012087F84210BDE8F8836905D3D47E
:10AA5000A805D8D4002ADBD1B8F1FF3FA0D0FFF77A
:10AA60001BFC801B404502D8B8F1000F97D17B6CCE
:10AA7000002243F0200320217B6487F8402087F8E0
:10AA80004110012087F84220DEE72246AAE790061F
:10AA900013D4002CA1D1FFF7FFFB801B804506D308
:10AAA000B8F1000F04BF202501243B6889E7202569
:10AAB0000124FAE70020BDE8F883002C8BD08CE756
:10AAC00000E800FE2DE9F8430546894617464FF099
:10AAD00010082B689E6916F0200640F083809C6960
:10AAE00014F0100469D05A68940103D45A6842F4EF
:10AAF00080425A600024B9F1FF3F9A695FD1900605
:10AB000073D424B99C69A106FCD52022DA61C3F86C
:10AB10001C8046F0040401219A69D00530D54FF419
:10AB200080715605D96144F0010404D54FF4806169
:10AB3000D96144F00804960504D54FF4007244F03E
:10AB40000204DA619A69910744BF00229A629A6905
:10AB5000D20703D49A6942F001029A615A682448E4
:10AB600002405A606B6C002120221C436C6485F803
:10AB7000401085F8412085F842100120BDE8F88397
:10AB80005005D3D49005D8D40029DBD1FFF784FB3E
:10AB9000C01B484502D8B9F1000F9AD16B6C002256
:10ABA00043F0200320216B6485F8402085F8411094
:10ABB00085F842200120BDE8F8832146ACE79206E3
:10ABC00013D4002CA3D1FFF767FBC01B814506D32C
:10ABD000B9F1000F04BF202601242B688BE7202643
:10ABE0000124FAE70020BDE8F883002C8DD08EE721
:10ABF00000E800FE00284FD010B590F84130044620
:10AC000003F0FF02002B42D02368242284F8412065
:10AC10001968626821F0010122F0706219601A61FE
:10AC20009A68E16822F4004201299A60A2682AD059
:10AC300042F4044202299A6004BF4FF400625A6051
:10AC40005968226941F0007141F40041596061691D
:10AC5000D8680A43A16920F4004042EA0122E16970
:10AC6000D860206ADA6001431960196841F0010177
:10AC7000196000222023626484F84130226384F842
:10AC80004220104610BD42F400429A60D8E780F896
:10AC90004020FEF7A3F9B7E7012070472DE9F04700
:10ACA000984690F84130089E202B40F08E8090F816
:10ACB0004030012B044600F08880012380F84030AA
:10ACC00089461746FFF7E8FA054604E0FFF7E4FA7D
:10ACD000401B19287CD82368986910F40040F5D1EE
:10ACE000212284F84120102284F842206064A4F8D4
:10ACF0002A80628D676292B2FF2A6063C9F30907F6
:10AD000075D8628D4E4892B22285D1B25A680240FF
:10AD10003A4342EA014242F0007242F400525A6061
:10AD2000638D9BB2002B3BD0DFF81C81DFF81CA1A8
:10AD30004FF0FF0903E0638D9BB2002B30D02A4611
:10AD400031462046FFF724FE002876D1606A21684C
:10AD500010F8013B8B62628D238D6062013A92B2E2
:10AD60006285628D013B9BB292B22385002AE2D0BC
:10AD7000002BE0D1701C46D18B691A06FCD5638D7F
:10AD80009BB2FF2B4BD94B68A4F8289003EA080329
:10AD90003B4343EA0A034B60638D9BB2002BCED149
:10ADA0002A4631462046FFF78DFE002845D123680C
:10ADB000244D2021D9615A682A405A6084F84110F4
:10ADC00084F8400084F8420000E00220BDE8F087EB
:10ADD000636C002243F020032021636484F8402048
:10ADE00084F8411084F842200120BDE8F0875A68B9
:10ADF00013490A403A4342F0FF7242F49032FF2175
:10AE000021855A608CE78B691B06B8D4FFF744FA9A
:10AE1000401B8642DCD3002EDAD02168AAE7638D7E
:10AE20009BB22385DAB24B6803EA080343EA024384
:10AE30003B4343F000734B607DE70120BDE8F087A2
:10AE4000009800FC00E800FE009C00FC0000FF01F0
:10AE50002DE9F047984690F84130089E202B40F0AD
:10AE6000928090F84030012B044600F08C80012342
:10AE700080F8403089461746FFF70EFA054605E090
:10AE8000FFF70AFA401B192800F28A8023689869A4
:10AE900010F40040F4D1222284F84120102284F8DA
:10AEA00042206064A4F82A80628D676292B2FF2A11
:10AEB0006063C9F3090700F28280628D4E4892B246
:10AEC0002285D1B25A6802403A4342EA014242F036
:10AED000007242F410525A60638D9BB2002B3DD039
:10AEE000DFF81C81DFF81CA14FF0FF0903E0638D40
:10AEF0009BB2002B32D02A4631462046FFF798FC01
:10AF0000002876D12268636A526A1A70628D238D96
:10AF1000616A013A92B26285628D013B01319BB256
:10AF200092B261622385002AE1D0002BDFD1701C30
:10AF300022682BD193691906FCD5638D9BB2FF2B38
:10AF400049D95368A4F8289003EA08033B4343EA2D
:10AF50000A035360638D9BB2002BCCD12A46314645
:10AF60002046FFF7AFFD002843D12368234D202161
:10AF7000D9615A682A405A6084F8411084F8400028
:10AF800084F8420000E00220BDE8F08793691B06C8
:10AF9000D3D4FFF781F9401B864201D3002EC6D1DE
:10AFA000636C002243F020032021636484F8402076
:10AFB00084F8411084F842200120BDE8F0875A68E7
:10AFC0000D490A403A4342F0FF7242F49232FF21A7
:10AFD00021855A6080E7638D9BB22385D9B253687F
:10AFE00003EA080343EA01433B4343F00073536021
:10AFF0007DE70120BDE8F087009800FC00E800FE36
:10B00000009C00FC0000FF0190F84120202A23D181
:10B010005FFA82FC90F84020012A03461CD00268A7
:10B02000242000B583F84100106820F00100106072
:10B03000106820F48050106010680143116011689E
:10B040004FF0000E41F00101116083F841C083F818
:10B0500040E070465DF804FB022070472DE9F04F98
:10B0600000220C68DFF814A27D4E85B01346894695
:10B0700005E00133102B02F1020200F0848001216F
:10B08000994001EA040BA143F3D1D9F804C00CF0B4
:10B0900003014D1E012D79D9032940F0B98091405B
:10B0A000CD4307683D4029431CF4403F0160E0D098
:10B0B00000210391DAF8441041F48041CAF84410A9
:10B0C000DAF8441001F480410391039923F003015D
:10B0D00001F1804101F59C3103F00307D1F808E04C
:10B0E000BF000F25BD402EEA05085E4DA8421FD0C7
:10B0F00005F58065A84200F08F805B4DA84200F006
:10B1000092805A4DA84200F09580594DA84200F017
:10B110009880584DA84200F09B80574DA8420CBF24
:10B120004FF0060E4FF0070E0EFA07F748EA070831
:10B13000C1F80880B1686FEA0B071CF4801F0CBFD0
:10B1400039404BEA0101B160F5681CF4001F0CBFE7
:10B150003D404BEA0505F56075681CF4003F0CBFE7
:10B160003D404BEA0505756031681CF4803F03F1F2
:10B1700001030CBF39404BEA0101102B316002F191
:10B1800002027FF47CAF05B0BDE8F08FD9F80C5017
:10B19000876805FA02F8032505FA02FE27EA0E077A
:10B1A00048EA0707876047686FEA0E0527EA0B0E33
:10B1B000CCF300179F4047EA0E074760C76807EACD
:10B1C000050ED9F80870974047EA0E070229C760B4
:10B1D00001FA02F17FF465AF4FEAD30E00EB8E0E59
:10B1E00003F00708DEF820700097D9F810704FEAD6
:10B1F000880807FA08F701970F2707FA08F8009F51
:10B2000027EA0808019F47EA0807CEF8207048E7B8
:10B2100003259540ED43D1E74FF0010E0EFA07F7F5
:10B2200048EA070884E74FF0020E0EFA07F748EAEB
:10B2300007087DE74FF0030E0EFA07F748EA070804
:10B2400076E74FF0040E0EFA07F748EA07086FE7B3
:10B250004FF0050E0EFA07F748EA070868E700BF47
:10B26000003C01400000024000080240000C024087
:10B270000010024000140240001802400038024052
:10B2800002B9090481617047704700BF044A5169DF
:10B29000014200D1704708B55061FFF7F5FF08BDC6
:10B2A000003C0140002800F0B98070B590F83D30B6
:10B2B000044603F0FF02002B00F09880236824224C
:10B2C00084F83D201A6822F001021A601A6842F4DC
:10B2D00000421A601A6822F400421A6001F038FD38
:10B2E00063684F498B424FD84E4A90427CD94E4DAD
:10B2F0005A00A5FB0035431EB3FBF2F322685068E9
:10B3000020F03F0040EA95405060A90C01F1010C8B
:10B31000116A21F03F0141EA0C011162D16940F646
:10B32000FC7E013321F44F4113EA0E0F21F0FF019F
:10B3300061D104230B43D361D4E90730116803437F
:10B3400021F0C0010B4313609168D4E9030321F499
:10B350000341034321F0FF010B439360D4E905301F
:10B36000D168034321F0FF010B43D3601168002330
:10B3700041F0010120201160236484F83D00236323
:10B3800084F83E30184670BD284A90422CD9264D8C
:10B39000274EA5FB002C2268556825F03F0545EA9D
:10B3A0009C4555604FEA9C414FF4967505FB01F1B1
:10B3B000A6FB0151156A890925F03F050131294392
:10B3C0001162D169A56821F44F4121F0FF01ADB9A7
:10B3D000013803EB4303B0FBF3F30133C3F30B0377
:10B3E000D3B143F40043A5E7012070BD80F83C20B1
:10B3F000FEF706F962E7C3F30B039BE703EB830356
:10B40000013803EB8303B0FBF3F30133C3F30B0306
:10B4100013B143F440438DE701238BE701207047CC
:10B42000A08601007F841E0083DE1B43FF083D00D1
:10B43000D34D62102DE9F04F054683B099460C9F1D
:10B4400088469246FEF728FF95F83D30202B03D022
:10B45000022003B0BDE8F08F064605E0FEF71CFFB2
:10B46000801B192800F2F5802C68A3696FEA030C91
:10B470001CF0020BF2D095F83C30012BE8D00123F0
:10B4800085F83C302368D9076FD52368974A23F4A1
:10B4900000632360212385F83D30102385F83E307A
:10B4A00000232B64A5F82A906B8DEA622B85EB6A4A
:10B4B000C5F824A0082B06D0012B04D0934202D05B
:10B4C0002B6B122B03D1236843F4807323607B1C06
:10B4D0003DD16369D807FCD52B69B3F5804F49D1BD
:10B4E00008F0FE012161781C04D0D8E063695A0598
:10B4F00000F1BD8063699907F8D500230193636962
:10B500000193A36901932B8D019A002B74D0791CB0
:10B510007FD163691A0641D463695B05F9D50022BE
:10B5200020236FF4806161612A6385F83D3085F8DE
:10B530003E202B6C85F83C2043F004032B642B6CDD
:10B54000042B00F0E480012003B0BDE8F08F6369B4
:10B55000D907C1D4FEF7A0FE801B8742C0F0AF80A0
:10B56000002F00F0AC802C68B1E7236843F00103A2
:10B5700023608AE74FEAE81303F0060343F0F00381
:10B5800023617B1C03D0B3E0636959056FD4636901
:10B590001807F9D55FFA88F32361A4E7686AB5F85C
:10B5A00028C001460CF1FF3211F8013B23616B8D7D
:10B5B0006962013B9BB26B85636992B259072A8528
:10B5C0000CD55AB1437823616B8D013BACF1020C71
:10B5D00002309BB2A5F828C068626B85781C28D120
:10B5E0006369590705D463695A0598D46369590793
:10B5F000F9D52B8D002B8AD12368002043F40073EA
:10B600002022236085F83D2085F83C0085F83E0027
:10B610001FE763691806C1D4636958053FF57FAF1A
:10B62000FEF73AFE801B874278D3002F76D02C6835
:10B630006DE763695B07DCD463695B053FF56FAF5A
:10B64000FEF72AFE801B874268D3002F66D02C6845
:10B65000C4E72023C5F830B085F83D3085F83EB00A
:10B660002B6C85F83CB043F020032B64F0E6236894
:10B6700043F40073236000226FF480612023616132
:10B680002A6385F83D3085F83E202B6C85F83C20F8
:10B6900043F0040301202B6403B0BDE8F08F63691D
:10B6A0009B073FF52AAF63695B05E0D4FEF7F4FD25
:10B6B000801B874240D3002F3ED02C6813E7002325
:10B6C00020222B6385F83D2085F83E302A6C2968BE
:10B6D00085F83C3042F020022A640B68DA057FF5D9
:10B6E00032AF4FF400732B642DE700BF0000FFFF63
:10B6F00063691A073FF54EAF63695A05B7D4FEF781
:10B70000CBFD801B874217D3B7B12C6839E72A6875
:10B71000136843F40073012013609AE6002220238B
:10B720002A6385F83D3085F83E202B6C85F83C2057
:10B7300043F020032B6402E7002220232A6385F8CC
:10B740003D3085F83E202B6C85F83C2043F02003EB
:10B750002B6401207DE600BF2DE9F04F054687B040
:10B760009946109E88469246FEF796FD95F83D3024
:10B77000202B03D0022007B0BDE8F08F074605E07C
:10B78000FEF78AFDC01B192800F2A7802C68A0696B
:10B79000C04310F0020BF3D095F83C30012BE9D0F8
:10B7A000012385F83C302368DB0760D523688D4A88
:10B7B00023F400632360222385F83D30102385F8AD
:10B7C0003E3000232B64A5F82A906B8DEA62EA6A6A
:10B7D0002B852368C5F824A043F48063082A2360DE
:10B7E00007D0012A05D012F5803F02D02B6B112B18
:10B7F00003D1236843F480732360701C29D16369EB
:10B80000D907FCD52B69B3F5804F35D148F001033A
:10B81000DBB22361721C03D007E1636958056AD467
:10B8200063699B07F9D52B8D002B7CD1019363694C
:10B830000193A3690193019B236843F40073236080
:10B840000020202385F83D3085F83C0085F83E0037
:10B8500091E76369DA07D5D4FEF71EFDC01B864267
:10B86000C0F00C81002E00F009812C68C5E7236828
:10B8700043F00103236099E74FEAE81909F006094C
:10B8800049F0F0032361701C03D01DE163695A0580
:10B8900031D463691907F9D55FFA88F32361711C04
:10B8A00003D0A6E163695B0525D463699A07F9D5DE
:10B8B0000023059363690593A3690593059B23689A
:10B8C00043F480732360721C40F0A6816369DB0738
:10B8D000FCD549F0F10323619CE72023C5F830B083
:10B8E00085F83D3085F83EB02B6C85F83CB043F0D0
:10B8F00020032B643EE7236843F400732360002297
:10B900006FF48061202361612A6385F83D3085F8FA
:10B910003E202B6C85F83C2043F0040301202B646F
:10B9200007B0BDE8F08F012B226800F05381022B95
:10B9300000F00B8142F4806222600022049262696E
:10B940000492A2690492049A032B48D8012B00F0B8
:10B950002881022B00F0D480721C40F005816369BD
:10B960005B07FCD523686A6A23F48063236023693C
:10B9700013706B8D696A2A8D013B0131013A9BB2CC
:10B9800069622A856B85711C2A6840F0FC805369C6
:10B990005B07FCD51368696A43F40073136013698D
:10B9A0000B706B8D696A2A8D2868013B9BB26B8591
:10B9B0000069531E4C1C6C622B8548702B8D6A8D60
:10B9C000696A013B013A01319BB292B269622B85EF
:10B9D0006A85002B3FF434AF032B2C68B6D966B9C7
:10B9E00033E000BF0000FFFF6369DB065CD4FEF7B5
:10B9F00053FCC01B864230D32C6863695A06F3D5CA
:10BA00006B6A22691A706A8D28682B8D696A013AFF
:10BA100092B26A854269013B4C1C9BB252076C6230
:10BA20002B85D6D503694B7083E0636999073FF591
:10BA3000FAAE636959053FF55EAFFEF72DFCC01BFA
:10BA400086420AD34EB12C68E4E663695906D7D41E
:10BA50006369D80628D4FEF71FFC002220232A633E
:10BA600085F83D3085F83E202B6C85F83C2043F06E
:10BA7000200301202B6407B0BDE8F08F00232022B3
:10BA80002B6385F83D2085F83E302A6C296885F8BF
:10BA90003C3042F020022A640B68D90512D54FF4DD
:10BAA00000732B64012066E6002320226FF0100152
:10BAB00061612B6385F83D2085F83E302A6C2A644D
:10BAC00085F83C30012056E663691B073FF5E4AE7C
:10BAD00063695B053FF50FAFFEF7DEFBC01B8642D7
:10BAE000BBD3002EB9D02C68CDE6636959070CD4BE
:10BAF000FEF7D2FBC01B8642AFD3002EADD02C6820
:10BB0000731CF2D163695807FCD5236843F40073B2
:10BB100023606B6A22691A706A6A531C6B622B8DF0
:10BB2000013B2B856B8D013B9BB26B852B681B69A1
:10BB300053702B8D6A8D696A013B013A01319BB2CA
:10BB400092B269626A852B8543E722F480622260A3
:10BB5000226842F40062226000220392626903922A
:10BB6000A2690392039AEFE6636958073FF5FAAEBC
:10BB7000FEF792FBC01B8642FFF46FAF002E3FF42E
:10BB80006CAF2C68E8E653695C073FF503AFFEF73E
:10BB900083FBC01B8642FFF460AF002E7FF4F3AE40
:10BBA0005BE75EB911E06369D9063FF57DAFFEF74B
:10BBB00073FBC01B8642FFF450AF2C6863695806C4
:10BBC000F1D56B6A22691A70B3E763695A067FF58B
:10BBD0003FAFF6E722F4806222600022029262699F
:10BBE0000292A2690292029A226842F400722260D2
:10BBF000AAE6636998073FF55BAE636958053FF5B0
:10BC00007AAEFEF749FBC01B8642FFF426AF002E3A
:10BC10003FF423AF2C6842E66369D8073FF559AE7D
:10BC2000FEF73AFBC01B8642FFF428AF002E3FF41C
:10BC300025AF2C6847E600BF70B582B005460020EE
:10BC4000019095F83D00202825D14D484D4C0068C5
:10BC5000C008A4FB0040000A00EB800000EB80005D
:10BC6000019003E02C68A069860717D5019C013C70
:10BC7000019401980028F5D12023286385F83D30F0
:10BC800085F83E002B6C85F83C0043F020032B64C4
:10BC9000012002B070BD022002B070BD95F83C00DA
:10BCA0000128F8D0012085F83C002068C00703D4A3
:10BCB000206840F001002060206820F400602060CF
:10BCC000222085F83D000026102085F83E002E64D5
:10BCD0006B85688D6A6283B22B48E8622B85696444
:10BCE0001BB3A86B00283DD004F11001274CC4639E
:10BCF000274C8664C0E910660665C464FEF708FC3C
:10BD000018BB2B681A6842F480621A601A6842F401
:10BD100080721A6085F83C005A6842F440725A609A
:10BD20005A6842F400625A60B3E785F83C306268B2
:10BD300042F4E06262601846236843F48063236043
:10BD4000236843F480732360A3E7202385F83D3004
:10BD500085F83E602B6C85F83C6043F010032B6443
:10BD6000012096E7202385F83D3085F83E002B6CB6
:10BD700085F83C0043F080032B64012089E700BF75
:10BD80000000002089B5F8140000FFFFBDBE0008C8
:10BD900075BE0008704700BF704700BF704700BF06
:10BDA000704700BF704700BF704700BF704700BFBB
:10BDB00090F83D20016D034659B9C26C0168012A13
:10BDC000826C0DD0C2F307220A61026D0132026556
:10BDD0007047016D012909D0016D02290ED070470D
:10BDE000D2B20A61026D023202657047826C01684C
:10BDF000D2B20A61026D013202657047D2B2222AC4
:10BE00001FD0418D89B2C1B9418D89B20029E6D1D7
:10BE1000212AE4D1026810B5546824F4E064546027
:10BE2000146844F4007414602022016380F83D20FB
:10BE300080F83E10FFF7BAFF10BD212A0AD05B8DB3
:10BE4000704701680A6842F480720A60026D01322C
:10BE500002657047416A026811F8010B10615A8D42
:10BE60005962013A92B25A85704700BF704700BFCD
:10BE7000704700BF10B5846B636B0BB10022DA63AF
:10BE8000A36B0BB10022DA63FEF7D0FC022800D1CD
:10BE900010BD21680B680022202023F480630B6012
:10BEA000628584F83D0084F83E20236C43F0100343
:10BEB00020462364FFF7DCFF10BD00BF70B5846B24
:10BEC00094F83D20236894F83E10E56AC8B259689A
:10BED00021F440715960616BD2B209B10026CE6382
:10BEE000A16B09B10026CE6302F02101212939D0CE
:10BEF00002F02201222933D094F83E207AB3628DD9
:10BF000092B2012A3DD05A6815F5803F22F4407262
:10BF10005A6006D0082D04D0B5F12A4F01D0202D4B
:10BF200003D11A6842F400721A605A6822F48052EF
:10BF30005A605A68002122F400625A606185236CBD
:10BF400023BB202284F83D2094F83E20402A35D09F
:10BF5000122284F83E3020462263FFF71DFF70BD99
:10BF60002028C9D15968002021F40061292A59608C
:10BF700060850FD02A2A17D05A6842F440725A605E
:10BF800070BD1A6822F480621A60BCE72046FFF791
:10BF90006FFF70BD282321222263204684F83D30A4
:10BFA000FFF7FCFE2368E7E72823222222632046CE
:10BFB00084F83D30FFF7F4FE2368DDE784F83E3077
:10BFC00020462363FFF752FF70BD00BF704700BFDC
:10BFD00070B53A4B3A491B68806B82B0DB0800228F
:10BFE000A1FB031301921B0A90F83D10026803EBBA
:10BFF0008303C3EBC303C9B2019305E0019B013B7B
:10C00000019313689B0506D5019B002BF6D1036CA9
:10C0100043F020030364446B4CB3836B0025E5635A
:10C02000F3B11668DD6326F48066166045852565E4
:10C0300000241C65136823F00103136090F83D3061
:10C04000602B2AD001F02801282919D020220023B2
:10C0500080F83D2080F83E30FFF70AFF02B070BD47
:10C06000156825F48065156043852365E2E7836BD9
:10C07000F3B11568DC6325F4806515604485D7E766
:10C08000136843F0010313601368002443F48063D2
:10C090001360046380F83D10DEE70023202280F85F
:10C0A0003D2080F83E300364FFF790FF02B070BD82
:10C0B000146824F4806414604385BBE7000000200A
:10C0C00089B5F81410B590F83D2090F83E30102B4B
:10C0D0000446D2B239D0D9B2402936D002F0280174
:10C0E00028293DD023685968080507D4602A05D05F
:10C0F0002021002284F83D1084F83E200022226393
:10C100005A6812F4006234D194F83D10602975D059
:10C110005A69500605D5626A1B691370636A013358
:10C1200063622046FFF7A4FE236C190704D022683F
:10C13000536823F4E063536094F83D30226C520757
:10C14000DBB201D5282B2FD010BD222AC6D12368FF
:10C150001A6822F400621A605A681205C8D5CDE741
:10C1600000232363236884F83D105A6812F40062A8
:10C17000CAD05A68606B22F400625A6090F8353079
:10C18000012B1ED0284B0365FEF74AFA0028CBD0BE
:10C190002268606B1368202123F00103136084F888
:10C1A0003D10036D9847BFE700232049E16220223C
:10C1B0002363204684F83D2084F83E30FFF7F4FDE9
:10C1C00010BDA06B184B0365FEF72AFA0028ABD010
:10C1D00023685A69510606D5626A1B691370626A40
:10C1E0002368013262621A68A06B22F001022021EA
:10C1F0001A6084F83D10036D984795E7202184F874
:10C200003D1022645A69520606D5626A1B69137092
:10C21000626A2368013262621A6822F001022046D3
:10C220001A60FFF7D3FE7FE7D1BF00080000FFFFD1
:10C2300070B5036804465868E56A94F83E1094F8AF
:10C240003D2010298EB0D2B25FFA81FC24D0BCF11F
:10C25000400F21D0216C002900F0968059690025FB
:10C2600011F0020FC1F3400659D0860559D5226C52
:10C2700002B19D6994F83D2002F02802282A00F0BE
:10C280001F8200220C9259690C919B690C930C9BA4
:10C2900084F83C200EB070BD9E69596911F0010F01
:10C2A0001AD1B5F52A0FF5D0B5F12A4FF2D00D0706
:10C2B0006DD5850540F18380626C616BD2B21A61E5
:10C2C000002900F0E481CA6B002A00F0E0815A687E
:10C2D00042F400625A60DDE785056ED5E26AB2F588
:10C2E0002A0F00F0EA81E26AB2F12A4F04BF082265
:10C2F000E26294F83E20402A00F0D8812269B2F52B
:10C30000804F00F0B381226D002A40F0EF81626C13
:10C31000D21102F0060242F0F0021A61BAE7CD062D
:10C320007CD402F0F702212A00F0F5804E0640F19D
:10C330003281450540F12F81490700F12F8194F8A2
:10C340003D10628D92B2C9B2002AA3D0626A1B6905
:10C350001370638D626A013B9BB26385638D01320A
:10C360009BB26262002B95D12A2993D1226853682F
:10C370002225282123F4806353602046256384F816
:10C380003D10FFF70DFD85E79D69596968E78D0749
:10C3900015D5850513D594F83E20E06A256B94F8F1
:10C3A0003D102229D2B200F0B38100220A925A69CC
:10C3B0000A929B690A930A9B6CE70D07E7D57507FC
:10C3C00040F1F5805D682E053FF564AF0D0640F144
:10C3D0001581460540F112814D0700F1128194F854
:10C3E0003D20208D94F83E10E56AD2B2C9B20028F3
:10C3F00040F03B82212A00F0418340297FF44AAF7C
:10C40000222A7FF447AF628D92B2002A00F0708238
:10C4100094F83E20402A40F0B480FCE0850580D5A9
:10C4200094F83D505A6822F4E0625A600D965A69B9
:10C430000D921A6842F001021A600D9A1A6822F4ED
:10C4400080621A605A681105EDB221D505F0F70235
:10C45000222A00F07A81606B0268526892B262858B
:10C46000628D92B21AB1226C42F0040222645A68C0
:10C4700022F400625A60FEF7D5F9012808D0606BFB
:10C48000994B0365FEF7CCF810B1606B036D9847CC
:10C49000638D9BB213B323685A6952070AD5626A47
:10C4A0001B691370628D636A013A591C92B223684A
:10C4B000616262855A69560609D5626A1B69137002
:10C4C000638D626A013B01329BB262626385638D58
:10C4D0009BB21BB1236C43F004032364236C002B39
:10C4E00040F0DE802A2D00F0518194F83D30282B59
:10C4F00000F05481236B222B02D0222D7FF4CAAE90
:10C50000002320222363204684F83D2084F83E3017
:10C51000FFF746FCBEE60D0628D5460526D54D0795
:10C5200027D494F83D00618D89B2C0B200293FF450
:10C53000B1AE616A11F8015B1D616162618D013903
:10C5400089B26185618D89B200297FF4A3AE292863
:10C550007FF4A0AE5968282521F4806159602046F7
:10C56000226384F83D50FFF719FC93E649077FF5F5
:10C5700091AE82057FF58EAE628D92B2002A3FF4B5
:10C5800089AE626A12F8011B1961638D6262013B18
:10C590009BB263857EE64A077FF57CAE86057FF514
:10C5A00079AE628D92B2002A3FF474AE1BE05A68F5
:10C5B00015053FF56FAE4A0633D449077FF56AAEDD
:10C5C00082057FF567AEE16A628D92B2042A00F0BF
:10C5D0001981628D92B2032A00F05981628D92B264
:10C5E000022A00F08A81626A1B691370638D626A95
:10C5F000013B01329BB2626263854BE649077FF5DE
:10C6000049AE86057FF546AE212A00F00381BCF1D4
:10C61000400F7FF43FAE20460EB0BDE87040FFF7FC
:10C62000C7BB4605C9D54D07C1F38002C8D494F8ED
:10C630003D1022297FF42EAE618D89B2032940F28C
:10C64000CC81626A1B691370638D626A013B9BB285
:10C650006385638D9BB20132032B62627FF41AAE55
:10C660002268536823F48063536013E694F83D20F6
:10C67000212A626C16BF42F0010202F0FE02D2B221
:10C680001A61626B1AB1D26B002A7FF420AEA26BE2
:10C69000002A3FF4FFADD26B002A7FF418AEF9E513
:10C6A00020460EB0BDE87040FFF70CBD226D4ABBBE
:10C6B000626C02F0FE021A61ECE50122E26218E609
:10C6C0005A6822F480625A602E066FEA95014FF094
:10C6D000000354BFA289228B84F83C3001F0010191
:10C6E0002046FFF75FFBD5E5D1BF0008226D012A88
:10C6F0007FF4D0AD626CD21102F0060242F0F1027A
:10C700001A61C7E5626C42F00102D2B21A61C1E55A
:10C71000216D11B9402A00F0A180226D22B9216952
:10C72000B1F5404F00F0A580628D92B2002A42D14F
:10C7300003925A6903929A690392039A1A6842F41F
:10C7400000721A6000232365A4E5A06B026852689A
:10C7500092B26285628D92B21AB1226C42F00402EA
:10C7600022645A6822F400625A60FEF75BF80128DE
:10C770003FF48EAEA06BA14B0365FDF751FF00287F
:10C780003FF486AEA06B036D984781E628222363B1
:10C79000204684F83D20FFF703FBA6E600239849D6
:10C7A000E16220222363204684F83D2084F83E3055
:10C7B000FFF7FAFA6EE5628D92B2012A76D0628DA9
:10C7C00092B2022A00F0EB801A6842F480621A608A
:10C7D0005A6812050ED510F5803F07D001381F2882
:10C7E00008D8884A22FA00F0C60703D55A6842F4EE
:10C7F00080525A60002209925A6909929B690993F2
:10C80000099B9FE75A68616A22F480625A601B693B
:10C810000B70EBE6E16A94F83D20212A7FF43AADF3
:10C82000628D92B2002A7FF4ACAE082900F09F809E
:10C83000202900F09C8011F5803F00F09880596815
:10C8400021F4E061596011202023206384F83E2008
:10C85000204684F83D30FFF79DFA1BE501915A69A7
:10C8600001929B690193019B14E5212A3FF4CBAD12
:10C87000C3E502925A6902929A690292029A1A6870
:10C8800042F480721A60236D0133236502E55A6811
:10C89000042922F480625A603FF4A5AE02293FF4D5
:10C8A000A2AE1A6822F480621A609CE610F5803FFE
:10C8B00000F00381082800F0D180202800F0CE800D
:10C8C000122D00F03D81102800F23C814E4A22FAE0
:10C8D00000F0C10740F136811A6842F480621A60A4
:10C8E000002206925A6906929B690693069B29E7E5
:10C8F0005A6822F480625A60CCE401291A6800F078
:10C90000D880102900F0D580042900F00A8102297E
:10C9100000F0078142F400721A60626A1B691370AA
:10C92000638D626A2168013B9BB263850B69511C70
:10C9300061625370638D2168626A013B9BB26385BB
:10C940004B68013223F44073202062624B6084F80C
:10C950003D0094F83E30402B00F0C38000221223AB
:10C9600084F83E2020462363FFF716FA92E45968C4
:10C9700021F4E061596019680022202041F400711F
:10C980001960226384F83D0094F83E3084F83E201C
:10C99000402B20467FF45FAFFFF708FA7AE41028B7
:10C9A00040F2A8801A6822F480621A601A6842F481
:10C9B00000621A605A68160507D510F5803F40F0EE
:10C9C000A6805A6842F480525A60002208925A693E
:10C9D00008929B690893089BB4E6E06A022887D016
:10C9E000012985D809490B92096846F2A810B1FBC4
:10C9F000F0F101EB81010B910FE000BFD1BF000806
:10CA00000000FFFF81800080140001000000002072
:10CA10001A6812F4007200F09A800B9A013A0B9295
:10CA20000B990029F4D1226C606A42F02002226442
:10CA30005A6822F4E0625A601B690370638D626A6F
:10CA4000013B01329BB220206385626284F83D0085
:10CA5000204684F83E10FFF70BFA1BE41A68002109
:10CA600022F480621A6007915A6907929A690792C4
:10CA7000079A1A6842F400721A6063E6082D3FF4C0
:10CA800076AF202D3FF473AF15F5803F3FF46FAFC5
:10CA90005A6822F4E0625A601120002120232063AA
:10CAA00084F83E10204684F83D30FFF773F9FFF715
:10CAB000F1BB22F480621A602FE71A6822F48062C8
:10CAC0001A605A6812F400622FD01A68002122F40A
:10CAD00080621A6004915A6904929B690493049BD2
:10CAE00030E6002384F83E3020462363FFF7BEF98A
:10CAF000FFF7D0BB274AC240D2077FF553AF1A6871
:10CB000042F480621A605A6815057FF55EAF0138FD
:10CB10001F283FF65AAF204AC240D1077FF555AFD4
:10CB20004FE742F480621A60F7E605925A6905926F
:10CB30009A690592059A1A6842F400721A6001E631
:10CB400001288BD11A6822F480621A60C8E619683D
:10CB5000606A21F480611960596821F4E0615960CC
:10CB60001B690370638D013B20219BB2638584F8B0
:10CB70003D10636A94F83E100133402963627FF4EC
:10CB8000EEAE84F83E2020462263FFF76FF9FFF7F0
:10CB900081BB00BF140001008180008030B583B0EC
:10CBA000194B1A491A4D002201921A6C42F0805218
:10CBB0001A641B6C03F0805301930122019B0A64E9
:10CBC000FDF76AFB044605E0FDF766FB001BB0F5C8
:10CBD0007A7F16D86B68DA03F6D50C4B0C4D012220
:10CBE0005A64FDF759FB044605E0FDF755FB001BB1
:10CBF000B0F57A7F05D86B689B03F6D5002003B0AB
:10CC000030BD032003B030BD0038024000000E42AA
:10CC100000700040002800F08780484A136803F045
:10CC20000F038B422DE9F0410D46044609D2CBB2E9
:10CC30001370136803F00F038B4202D00120BDE88C
:10CC4000F0812368980714D5590704D53C498A68B0
:10CC500042F4E0528A601A0704D539498A6842F4DE
:10CC600060428A603649A0688A6822F0F002024376
:10CC70008A60DF0721D56268012A57D0931E012BF5
:10CC80002F4B1B684DD99907D8D52D4EB36823F08B
:10CC900003031343B360FDF7FFFA41F288380746F8
:10CCA00004E0FDF7F9FAC01B404544D8B368626858
:10CCB00003F00C03B3EB820FF3D1204A136803F0A7
:10CCC0000F03AB4206D9EBB21370136803F00F03E6
:10CCD000AB42B3D123685A0706D51949E0688A6880
:10CCE00022F4E05202438A601B0707D5144A2169E7
:10CCF000936823F4604343EAC103936000F082FA2F
:10CD00000F4A104C92681049C2F303120346A25C0A
:10CD10000E48D34000680B60FCF760FF0020BDE8C0
:10CD2000F0819801B1D489E701207047044B1B685A
:10CD30009E03AAD482E7032081E700BF003C0240A3
:10CD4000003802405C1A02080000002008000020A1
:10CD5000044B05499B68054A0868C3F38223D35CEA
:10CD6000D840704700380240000000206C1A0208CA
:10CD7000044B05499B68054A0868C3F34233D35CFA
:10CD8000D840704700380240000000206C1A0208AA
:10CD90000E4B0F2202609A6802F0030242609A680A
:10CDA00002F0F00282609A6802F4E052C2609B686E
:10CDB000DB0810B403F4E053054C036123685DF80D
:10CDC000044B03F00F030B60704700BF00380240B4
:10CDD000003C02402DE9F043036813F0010683B0E4
:10CDE00004460BD0A849866BD1F88C2022F0C06293
:10CDF0003243B6FA86F6C1F88C2076099A070BD52D
:10CE0000A149E06BD1F88C2022F0C05202430028E7
:10CE1000C1F88C2008BF012613F0040512D09A49EE
:10CE2000256BD1F88C20B5F5801F22F4401242EA20
:10CE3000050218BFB5FA85F5C1F88C2012BF6D093F
:10CE4000002501261F070FD58F48616BD0F88C2075
:10CE500022F440020A43B1F5800FC0F88C2000F0A4
:10CE6000FE80002908BF0125980600F1AD80DF068D
:10CE700005D5864B94F85820C3F8E021236818069E
:10CE800008D58149E06CD1F8942022F44002024395
:10CE9000C1F89420590608D57B49A06CD1F894209C
:10CEA00022F080620243C1F89420DA050DD576495C
:10CEB000606DD1F8942022F00062B0F1006F42EA78
:10CEC000000208BF0125C1F894209F0508D56E49CE
:10CED000606CD1F8942022F080520243C1F8942073
:10CEE00058050BD56848216DD0F8942022F00052E7
:10CEF0000A43B1F1005FC0F894200BD0012E09D095
:10CF0000B3F5006F06D0012D00F0E480002003B0DF
:10CF1000BDE8F0835E4B5C4F00229A66FDF7BCF9DA
:10CF2000064604E0FDF7B8F9831B022B42D83B68A4
:10CF30001901F7D42368DA0740D5A26B002A3DD146
:10CF40005149D1F88420D1F8840002F4403200F035
:10CF50007060024360680243A06842EA8012606920
:10CF600042EA0072C1F884205E0704D5226BB2F554
:10CF7000801F00F09180180704D5626BB2F5800F16
:10CF800000F08A80590504D5226DB2F1005F00F0EF
:10CF900004811A0565D43E4B3B4F01229A66FDF78A
:10CFA0007BF906463B681B01ADD4FDF775F9801B84
:10CFB0000228F7D9032003B0BDE8F0839F07D3D53B
:10CFC000E26B002AD0D1BBE72F4B324F00220192F7
:10CFD0001A6C42F080521A641B6C03F08053019368
:10CFE000019B3B6843F480733B60FDF755F9804635
:10CFF00005E0FDF751F9A0EB08000228DAD83B68FC
:10D00000D905F6D5204F236C3A6F12F4407213D035
:10D0100003F44071914211D03B6F1D4A0121C2F8C7
:10D02000401E23F440730021C2F8401E3B673B6F53
:10D03000DA0700F1CB80236C03F44072B2F5407F35
:10D0400000F0A08010498A6822F4F8128A600E4A23
:10D05000116FC3F30B030B431367236807E7012624
:10D0600002E7D4E9012123691B0643EA8113134334
:10D07000E26861695208013A43EA017343EA0243F4
:10D08000014AC2F8843086E7003802400010474267
:10D0900000004742007000405849D1F88420D1F880
:10D0A000840002F4403200F0E04002436068024332
:10D0B000A06842EA8012206942EA0062C1F8842036
:10D0C000D1F88C00A26A20F01F00013A0243C1F897
:10D0D0008C2057E74A4B494E00221A67FDF7DCF8CF
:10D0E000054605E0FDF7D8F8401B02283FF662AF81
:10D0F00033689F00F6D42268500778D5236B002B45
:10D1000075D13E49A069D1F8883003F44033034318
:10D11000E06943EA8013606A43EA0063C1F888303B
:10D12000D1F88C30E06A23F4F853013843EA002345
:10D13000C1F88C30D20514D5636DB3F1006F10D1F6
:10D140002E49A569D1F88830D4E9070203F070634D
:10D150002B43520843EA8013013A43EA0243C1F8E1
:10D160008830274B254D01221A67FDF795F80446B4
:10D170002B689B003FF5CAAEFDF78EF8001B022816
:10D18000F6D917E71D48826823F0704121F44071F9
:10D1900022F4F8120A43826059E718486668D0F80A
:10D1A0008420C2F30142511CD0F8842002F0E042F6
:10D1B0003243A66842EA861242EA4162E1684908BF
:10D1C000013942EA0142C0F88420E2E6FDF764F842
:10D1D00041F28839804606E0FDF75EF8A0EB0800D2
:10D1E00048453FF6E7AE3B6F9B07F5D523E71107B0
:10D1F000A0D5636B002B9DD183E700BF00380240B0
:10D20000000047421D4908B58B6803F00C03082B4A
:10D210001AD00C2B16D14A684B684968184813F489
:10D220008003C1F3881118BF002302F03F02A1FB65
:10D230000001FBF781FC114B5B68C3F30273B0FB89
:10D24000F3F008BD0E4808BD4A684B6849680C48B1
:10D2500013F48003C1F3881118BF002302F03F02CA
:10D26000A1FB0001FBF768FC044B5B68C3F30143BF
:10D2700001335B00B0FBF3F008BD00BF0038024093
:10D280000024F400002800F0B3812DE9F041036888
:10D29000DA0782B0044636D5A2498A6802F00C0249
:10D2A000042A00F0DF808A6802F00C02082A00F0ED
:10D2B000D5809C498A6802F00C020C2A00F0058196
:10D2C0006368B3F5803F00F01981B3F5A02F00F03B
:10D2D0009681944D2A6822F480322A602A6822F4CA
:10D2E00080222A60002B40F00E81FCF7D5FF064615
:10D2F00005E0FCF7D1FF801B642800F2FB802B685F
:10D300009903F6D423689A072FD5864A916811F0BD
:10D310000C0F00F09880916801F00C01082900F0D2
:10D320008E8080498A6802F00C020C2A00F062812B
:10D33000E368002B00F014817B4B7A4E01221A60C7
:10D34000FCF7AAFF054605E0FCF7A6FF401B0228F4
:10D3500000F2D08033689807F6D53368226923F04D
:10D36000F80343EAC203336023681A0751D458070D
:10D3700030D56C4A136C13F0805300F09A8000256E
:10D380006A4E3368D90540F1A580A368012B00F0EF
:10D39000CF80052B00F03D81624E326F22F00102FA
:10D3A0003267326F22F004023267002B40F0C580F2
:10D3B000FCF772FF41F28838074605E0FCF76CFF86
:10D3C000C01B404500F29680336F9807F6D4002DBD
:10D3D00040F00881A069C0B1524DAB6803F00C0366
:10D3E000082B00F0CE80504B002202281A6600F075
:10D3F0001A81FCF751FF044604E0FCF74DFF001BC7
:10D40000022877D82B689B01F7D4002002B0BDE832
:10D41000F0816369002B2FD0434B424E0122C3F8A9
:10D42000802EFCF739FF054604E0FCF735FF401B72
:10D4300002285FD8736F9B07F7D5236897E7526878
:10D4400057023FF56EAF374A1268950725D5E26857
:10D45000012A22D0012002B0BDE8F0814A685702BB
:10D460007FF527AF2F4A126895037FF54CAF6268AE
:10D47000002A7FF448AFEDE72B4A2A4EC2F8803EDF
:10D48000FCF70AFF054604E0FCF706FF401B0228F4
:10D4900030D8736F9F07F7D4CFE7224920690A6815
:10D4A00022F0F80242EAC0020A601A077FF55FAF75
:10D4B000AFE70193136C43F080531364136C03F0D4
:10D4C00080530193019B01255AE74A6856027FF574
:10D4D000F7AEC7E7336843F480733360FCF7DCFED4
:10D4E00007463368DA053FF550AFFCF7D5FEC01BA1
:10D4F0000228F6D9032002B0BDE8F081094A13687A
:10D5000043F480331360FCF7C7FE064E054604E083
:10D51000FCF7C2FE401B6428ECD833689803F7D5AB
:10D52000F0E600BF003802400000474200700040B3
:10D53000554A136F43F001031367FCF7ADFE524FDA
:10D54000064641F2883804E0FCF7A6FE801B404501
:10D55000D0D83B6F9B07F7D5002D3FF43BAF41E0A0
:10D560004A4A494E1360FCF797FE054604E0FCF773
:10D5700093FE401B0228BDD833689907F7D423686F
:10D58000F3E601283FF442AF6B68E26903F48001DF
:10D5900091427FF45FAF226A03F03F0191427FF432
:10D5A00059AF616A47F6C0721A40B2EB811F7FF42F
:10D5B00051AFA26A520803F44031013AB1EB024F75
:10D5C0007FF448AFE16A03F07062B2EB016F7FF461
:10D5D00041AF226B03F0E043B3EB027F14BF0120A5
:10D5E000002013E7284A136C23F080531364F1E6FC
:10D5F000012070474A6856023FF59AAE23E7224B56
:10D600001A6842F480221A601A6842F480321A6062
:10D6100079E71D4B1A6F42F004021A671A6F42F045
:10D6200001021A6789E7FCF737FE064605E0FCF7BA
:10D6300033FE801B02283FF65DAF2B689901F6D4BC
:10D64000D4E90731626A0B4343EA8213D4E90A2022
:10D65000216B43EA0063520843EA0173013A0B4924
:10D6600043EA024301226B600A66FCF715FE064D91
:10D67000044605E0FCF710FE001B02283FF63AAF17
:10D680002B689A01F6D5C0E60038024000004742F8
:10D690002DE9F04182B01D4616460C460746FCF7C0
:10D6A000FBFD35442D1AFCF7F7FD284B1B68C3F32F
:10D6B000CB3305FB03F380460193731C396807D114
:10D6C0008B6834EA0303FBD0002002B0BDE8F08190
:10D6D0008B6834EA0303F7D1FCF7DEFDA0EB08000A
:10D6E000A84208D2019B002B019B03F1FF3308BF26
:10D6F00000250193E1E7D7E900315A68B1F5827F4F
:10D7000022F0E0025A6014D0BA6AB2F5005F07D086
:10D710000122002387F8512087F850300320D4E7F6
:10D720001A6822F400521A601A6842F400521A6011
:10D73000EEE7BA68B2F5004F02D0B2F5806FE3D1E0
:10D740001A6822F040021A60DEE700BF00000020E5
:10D7500000285CD0416A70B50446002947D00023F8
:10D76000C0E9043394F851200023A36202F0FF00C3
:10D77000002A42D09C462568A268022384F85130D2
:10D780002B6823F040032B60636802F4044203F427
:10D7900082731343E26802F400621343226902F0C9
:10D7A00002021343626902F001021A43E36901F0C5
:10D7B000100003F03806A169236A03F0800E01F41B
:10D7C000007313433343090C43EA0E0301F00401D1
:10D7D00043EA0C0301432B606960EB69002023F4EA
:10D7E00000630122EB61606584F8512070BD4368DD
:10D7F000B3F5827FB6D0C161B4E784F8500020460B
:10D80000FCF712F9D4E9091303F4005CB3E7012033
:10D81000704700BF2DE9F043044690F8500083B0F4
:10D8200001280A9D00F083801F46012384F85030B0
:10D8300089469046FCF730FD064694F8510063682F
:10D840000128C1B211D0B3F5827F09D00220012294
:10D85000002384F8512084F8503003B0BDE8F083F1
:10D86000A268002AF2D10429F0D1B9F1000F62D0E8
:10D87000B8F1000F5FD0002F5DD094F85120C4F8AC
:10D880003880042A1CBF052284F8512000226265DA
:10D89000C4E910222268E787E7861168A78749064E
:10D8A000C4F83090A78603D4116841F0400111609C
:10D8B000E168B1F5006F4ED0002B3ED0012F3CD077
:10D8C0000127E38E9BB21BB9E38F9BB2002B7FD065
:10D8D0002268936899070FD5E38E9BB263B15FB15D
:10D8E000236B1B781373E38E226B013B01329BB2D7
:10D8F00022632268E3860027936813F001030DD0AA
:10D90000E18F89B251B11F46A36BD2681A70A36B25
:10D910000133A363E38F013B9BB2E387FCF7BCFCBD
:10D92000801BA84214D36A1CCBD003208FE70220AF
:10D9300003B0BDE8F083012089E799F80030137344
:10D94000E38E226B013B01329BB22263E386B7E791
:10D95000002DB6D1E9E7002B6CD1494631F8023BE6
:10D96000D360E38E2163013B9BB2E3866A1C4FF0D8
:10D97000010725D061E0226893689B070DD5E38EEF
:10D980009BB253B14FB1216B31F8023BD360E38EB0
:10D990002163013B9BB20027E386936813F00103E8
:10D9A0000CD0E18F89B249B1D168A26B22F8021B79
:10D9B0001F46E38FA263013B9BB2E387FCF76CFC3D
:10D9C000E38E9BB2002BD6D1E38F9BB2002BD2D13A
:10D9D000334B344A1B68A2FB03235B0D4FF47A726E
:10D9E00002FB03F362680193B2F5827F14D13346E0
:10D9F0002A4680212046FFF74BFE80B1636D20222E
:10DA0000134363650120626521E7019B2268013BA6
:10DA1000019393681B0602D5019B002BF5D1A068EA
:10DA200000283AD123680090DA6800929B6800933E
:10DA3000009B0CE7012F99D18FE7E38E9BB21BB9B6
:10DA4000E38F9BB2002BC3D02268936898070DD553
:10DA5000E38E9BB253B14FB1236B33F8021BD160FD
:10DA60002363E38E013B9BB20027E386936813F0A8
:10DA700001030CD0E18F89B249B1D168A26B22F8C1
:10DA8000021B1F46E38FA263013B9BB2E387FCF7B7
:10DA900003FC801BA842D0D347E70020D7E600BF95
:10DAA00000000020819F5E1690F85100704700BF73
:10DAB000002800F0878010B590F83D30044603F050
:10DAC000FF02002B79D022683F49022384F83D30C1
:10DAD0008A4213685DD0B2F1804F31D0A1F57C410C
