:020000040800F2
:1080000000000220419F0008F5990008F999000836
:10801000FD990008019A0008059A00080000000078
:1080200000000000000000000000000071040108D2
:10803000099A00080000000001050108C9D80008DD
:10804000919F0008919F0008919F0008919F000850
:10805000919F0008919F0008919F0008919F000840
:108060000D9A0008919F0008919F0008919F0008B9
:10807000919F0008919F0008919F0008919F000820
:10808000919F0008919F0008919F0008919F000810
:10809000919F0008919F0008919F0008919F000800
:1080A000919F0008919F0008919F0008919F0008F0
:1080B000919F00081D9A0008919F0008919F000859
:1080C000919F0008919F0008919F0008919F0008D0
:1080D000919F0008299A0008919F0008919F00082D
:1080E000919F0008919F0008919F0008919F0008B0
:1080F000919F0008919F0008919F0008919F0008A0
:10810000919F0008919F0008919F0008919F00088F
:10811000919F0008919F0008359A0008419A000835
:10812000919F0008919F0008559A0008919F0008B0
:10813000919F00080000000000000000919F0008CF
:10814000919F0008919F0008919F0008919F00084F
:10815000919F0008919F0008619A0008919F000874
:10816000919F0008919F0008919F0008919F00082F
:10817000919F0008919F0008919F00080000000057
:1081800000000000919F00080000000000000000B7
:10819000919F00080000000000000000919F00086F
:1081A000000000000000000000000000919F000897
:1081B000919F0008919F0008919F0008919F0008DF
:0481C000919F000883
:1081D00010B5054C237833B9044B13B10448AFF301
:1081E00000800123237010BD40010020000000002A
:1081F000D0DC010808B5034B1BB103490348AFF3BA
:10820000008008BD0000000044010020D0DC01080F
:1082100001F0FF01102A2BDB10F0070F08D010F837
:10822000013B013A8B422DD010F0070F42B3F6D13B
:10823000F0B441EA012141EA014122F007047FF054
:1082400000070023F0E80256083C85EA010586EAAB
:10825000010685FA47F5A3FA87F586FA47F6A5FAE7
:1082600087F68EB9EED1F0BC01F0FF0102F00702F3
:1082700032B110F8013B013A83EA010313B1F8D19E
:108280000020704701387047002D06BF354603387F
:10829000073815F0010F07D1013015F4807F02BFB8
:1082A000013015F4C03F0130F0BC0138704700BF09
:1082B00070B54FF0FF0C4CF4E06C1CEA11541DBF7C
:1082C0001CEA135594EA0C0F95EA0C0F00F0DEF847
:1082D0002C4481EA030621EA4C5123EA4C5350EA2C
:1082E000013518BF52EA033541F4801143F480137D
:1082F00038D0A0FB02CE4FF00005E1FB02E506F00E
:108300000042E0FB03E54FF00006E1FB03569CF062
:10831000000F18BF4EF0010EA4F1FF04B6F5007F68
:1083200064F5407404D25FEA4E0E6D4146EB0606DA
:1083300042EAC62141EA55514FEAC52040EA5E5063
:108340004FEACE2EB4F1FD0C88BFBCF5E06F1ED80D
:10835000BEF1004F08BF5FEA500E50F1000041EB44
:10836000045170BD06F0004646EA010140EA0200F1
:1083700081EA0301B4EB5C04C2BFD4EB0C0541EA13
:10838000045170BD41F480114FF0000E013C00F328
:10839000AB8014F1360FDEBF002001F0004170BD4C
:1083A000C4F10004203C35DA0C341BDC04F1140465
:1083B000C4F1200500FA05F320FA04F001FA05F2F1
:1083C00040EA020001F0004221F0004110EBD370BE
:1083D00021FA04F642EB06015EEA430E08BF20EAEA
:1083E000D37070BDC4F10C04C4F1200500FA04F38D
:1083F00020FA05F001FA04F240EA020001F000411F
:1084000010EBD37041F100015EEA430E08BF20EA91
:10841000D37070BDC4F1200500FA05F24EEA020ED9
:1084200020FA04F301FA05F243EA020321FA04F008
:1084300001F0004121FA04F220EA020000EBD370BF
:108440005EEA430E08BF20EAD37070BD94F0000FBF
:108450000FD101F00046400041EB010111F4801FF3
:1084600008BF013CF7D041EA060195F0000F18BFA4
:10847000704703F00046520043EB030313F4801FE0
:1084800008BF013DF7D043EA0603704794EA0C0F9A
:108490000CEA135518BF95EA0C0F0CD050EA4106B0
:1084A00018BF52EA4306D1D181EA030101F000412D
:1084B0004FF0000070BD50EA410606BF1046194655
:1084C00052EA430619D094EA0C0F02D150EA013661
:1084D00013D195EA0C0F05D152EA03361CBF1046A2
:1084E00019460AD181EA030101F0004141F0FE4141
:1084F00041F470014FF0000070BD41F0FE4141F4C5
:10850000780170BD81F0004102E000BF83F00043BC
:1085100030B54FEA41044FEA430594EA050F08BF1E
:1085200090EA020F1FBF54EA000C55EA020C7FEAE2
:10853000645C7FEA655C00F0E2804FEA5454D4EB5F
:108540005555B8BF6D420CDD2C4480EA020281EA29
:10855000030382EA000083EA010180EA020281EA61
:108560000303362D88BF30BD11F0004F4FEA0131B3
:108570004FF4801C4CEA113102D0404261EB4101C2
:1085800013F0004F4FEA03334CEA133302D0524248
:1085900063EB430394EA050F00F0A780A4F1010404
:1085A000D5F1200E0DDB02FA0EFC22FA05F280183E
:1085B00041F1000103FA0EF2801843FA05F3594124
:1085C0000EE0A5F120050EF1200E012A03FA0EFCA3
:1085D00028BF4CF0020C43FA05F3C01851EBE371CD
:1085E00001F0004507D54FF0000EDCF1000C7EEBEA
:1085F00000006EEB0101B1F5801F1BD3B1F5001F28
:108600000CD349085FEA30004FEA3C0C04F1010446
:108610004FEA445212F5800F80F09A80BCF1004F6F
:1086200008BF5FEA500C50F1000041EB045141EAF1
:10863000050130BD5FEA4C0C404141EB0101013CBA
:1086400028BFB1F5801FE9D291F0000F04BF0146A9
:108650000020B1FA81F308BF2033A3F10B03B3F17B
:1086600020020CDA0C3208DD02F1140CC2F10C020B
:1086700001FA0CF021FA02F10CE002F11402D8BF69
:10868000C2F1200C01FA02F120FA0CFCDCBF41EA35
:108690000C019040E41AA2BF01EB0451294330BD04
:1086A0006FEA04041F3C1CDA0C340EDC04F11404E1
:1086B000C4F1200220FA04F001FA02F340EA0300B8
:1086C00021FA04F345EA030130BDC4F10C04C4F1FE
:1086D000200220FA02F001FA04F340EA03002946DE
:1086E00030BD21FA04F0294630BD94F0000F83F428
:1086F000801306BF81F480110134013D4EE77FEA0B
:10870000645C18BF7FEA655C29D094EA050F08BF56
:1087100090EA020F05D054EA000C04BF1946104637
:1087200030BD91EA030F1EBF0021002030BD5FEA7B
:10873000545C05D14000494128BF41F0004130BDA3
:1087400014F580043CBF01F5801130BD01F00045F7
:1087500045F0FE4141F470014FF0000030BD7FEA6A
:10876000645C1ABF194610467FEA655C1CBF0B4665
:10877000024650EA013406BF52EA033591EA030F7C
:1087800041F4002130BD00BF90F0000F04BF002174
:10879000704730B54FF4806404F132044FF00005A7
:1087A0004FF0000150E700BF90F0000F04BF002120
:1087B000704730B54FF4806404F1320410F0004586
:1087C00048BF40424FF000013EE700BF42004FEA81
:1087D000E2014FEA31014FEA02701FBF12F07F43FE
:1087E00093F07F4F81F06051704732F07F4208BFB5
:1087F000704793F07F4F04BF41F40021704730B5BC
:108800004FF4607401F0004521F000411CE700BF07
:1088100050EA010208BF704730B54FF000050AE08A
:1088200050EA010208BF704730B511F0004502D58B
:10883000404261EB41014FF4806404F132045FEA8D
:10884000915C3FF4D8AE4FF003025FEADC0C18BF36
:1088500003325FEADC0C18BF033202EBDC02C2F128
:10886000200300FA03FC20FA02F001FA03FE40EABA
:108870000E0021FA02F11444BDE600BF4FEA4102A6
:10888000B2F1E04324BFB3F5001CDCF1FE5C0DD96E
:1088900001F0004C4FEAC0024CEA5070B2F1004FB8
:1088A00040EB830008BF20F00100704711F0804FBB
:1088B00021D113F13872BCBF01F00040704741F480
:1088C00080114FEA5252C2F11802C2F1200C10FA84
:1088D0000CF320FA02F018BF40F001004FEAC12368
:1088E0004FEAD32303FA0CFC40EA0C0023FA02F30C
:1088F0004FEA4303CCE77FEA625307D150EA0133E2
:108900001EBF4FF0FE4040F44000704701F00040B1
:1089100040F0FE4040F40000704700BF80F000408F
:1089200002E000BF81F0004142001FBF5FEA410347
:1089300092EA030F7FEA226C7FEA236C6AD04FEA47
:108940001262D2EB1363C1BFD2184140484041408C
:10895000B8BF5B42192B88BF704710F0004F40F43E
:10896000000020F07F4018BF404211F0004F41F45A
:10897000000121F07F4118BF494292EA030F3FD026
:10898000A2F1010241FA03FC10EB0C00C3F1200339
:1089900001FA03F100F0004302D5494260EB4000C8
:1089A000B0F5000F13D3B0F1807F06D340084FEA33
:1089B000310102F10102FE2A51D2B1F1004F40EB28
:1089C000C25008BF20F0010040EA03007047490090
:1089D00040EB0000013A28BFB0F5000FEDD2B0FA2D
:1089E00080FCACF1080CB2EB0C0200FA0CF0AABF50
:1089F00000EBC25052421843BCBFD04018437047EE
:108A000092F0000F81F4000106BF80F400000132F3
:108A1000013BB5E74FEA41037FEA226C18BF7FEACA
:108A2000236C21D092EA030F04D092F0000F08BF0C
:108A30000846704790EA010F1CBF0020704712F0F3
:108A40007F4F04D1400028BF40F00040704712F132
:108A500000723CBF00F50000704700F0004343F097
:108A6000FE4040F4000070477FEA226216BF0846CD
:108A70007FEA23630146420206BF5FEA412390EA90
:108A8000010F40F4800070474FF0000304E000BF86
:108A900010F0004348BF40425FEA000C08BF704737
:108AA00043F0964301464FF000001CE050EA0102FB
:108AB00008BF70474FF000030AE000BF50EA010210
:108AC00008BF704711F0004302D5404261EB4101FD
:108AD0005FEA010C02BF84460146002043F0B64322
:108AE00008BFA3F18053A3F50003BCFA8CF2083A47
:108AF000A3EBC25310DB01FA02FC634400FA02FC50
:108B0000C2F12002BCF1004F20FA02F243EB020056
:108B100008BF20F00100704702F1200201FA02FCB8
:108B2000C2F1200250EA4C0021FA02F243EB0200AB
:108B300008BF20EADC70704753B94AB9002908BF62
:108B400000281CBF4FF0FF314FF0FF3000F074B928
:108B5000ADF1080C6DE904CE00F006F8DDF804E094
:108B6000DDE9022304B070472DE9F047089D044673
:108B70008E46002B4DD18A42944669D9B2FA82F2D0
:108B800052B101FA02F3C2F1200120FA01F10CFA0C
:108B900002FC41EA030E94404FEA1C48210CBEFB44
:108BA000F8F61FFA8CF708FB16E341EA034306FBCD
:108BB00007F199420AD91CEB030306F1FF3080F05C
:108BC0001F81994240F21C81023E63445B1AA4B2A9
:108BD000B3FBF8F008FB103344EA034400FB07F74B
:108BE000A7420AD91CEB040400F1FF3380F00A818C
:108BF000A74240F207816444023840EA0640E41B81
:108C000000261DB1D4400023C5E900433146BDE82C
:108C1000F0878B4209D9002D00F0EF800026C5E9CE
:108C2000000130463146BDE8F087B3FA83F6002EE6
:108C30004AD18B4202D3824200F2F980841A61EB5E
:108C4000030301209E46002DE0D0C5E9004EDDE77C
:108C500002B9FFDEB2FA82F2002A40F09280A1EB64
:108C60000C014FEA1C471FFA8CFE0126200CB1FBB9
:108C7000F7F307FB131140EA01410EFB03F08842B2
:108C800008D91CEB010103F1FF3802D2884200F23F
:108C9000CB804346091AA4B2B1FBF7F007FB1011D1
:108CA00044EA01440EFB00FEA64508D91CEB04046F
:108CB00000F1FF3102D2A64500F2BB800846A4EBCA
:108CC0000E0440EA03409CE7C6F12007B34022FAB5
:108CD00007FC4CEA030C20FA07F401FA06F31C43E4
:108CE000F9404FEA1C4900FA06F3B1FBF9F8200CF1
:108CF0001FFA8CFE09FB181140EA014108FB0EF037
:108D0000884202FA06F20BD91CEB010108F1FF3A86
:108D100080F08880884240F28580A8F10208614492
:108D2000091AA4B2B1FBF9F009FB101144EA0141A0
:108D300000FB0EFE8E4508D91CEB010100F1FF344B
:108D40006CD28E456AD90238614440EA0840A0FBE3
:108D50000294A1EB0E01A142C846A64656D353D0B9
:108D60005DB1B3EB080261EB0E0101FA07F722FADD
:108D700006F3F1401F43C5E9007100263146BDE806
:108D8000F087C2F12003D8400CFA02FC21FA03F369
:108D9000914001434FEA1C471FFA8CFEB3FBF7F0EA
:108DA00007FB10360B0C43EA064300FB0EF69E420F
:108DB00004FA02F408D91CEB030300F1FF382FD2A8
:108DC0009E422DD9023863449B1B89B2B3FBF7F650
:108DD00007FB163341EA034106FB0EF38B4208D929
:108DE0001CEB010106F1FF3816D28B4214D9023E6A
:108DF0006144C91A46EA004638E72E46284605E788
:108E00000646E3E61846F8E64B45A9D2B9EB020858
:108E100064EB0C0E0138A3E74646EAE7204694E7E8
:108E20004046D1E7D0467BE7023B614432E730461B
:108E300009E76444023842E7704700BF054808B5B7
:108E4000054B036001F042F900B908BDBDE80840D8
:108E500000F04CBC5C010020003002400B4B02686B
:108E60009A4200D0704782B000220192D3F8302895
:108E700042F48052C3F8302803F500631B6B03F4FF
:108E800080530193019B02B0704700BF0030024045
:108E900000B583B000220E4B0192186B40F48000A5
:108EA00018631B6B03F48003052101933A20019B97
:108EB00001F0C0F83A2001F0FBF80022462005211D
:108EC00001F0B8F8462003B05DF804EB01F0F0B80B
:108ED0000038024010B51148114C124900230122FC
:108EE000C0E90041C0E90232C0E90433C0E90633F9
:108EF000036201F01DFD28B90848002101F022FF9E
:108F000040B910BD00F0F2FB0448002101F01AFF47
:108F10000028F6D0BDE8104000F0E8BB6401002056
:108F2000006000405016400030B504469FB000215C
:108F30005C2207A8CDE90211CDE90411069113F0D6
:108F4000E1FD1A4B22689A4201D01FB030BD802348
:108F500007A8079302F02AFE28BB154C15480025E8
:108F60000095236B43F004032363236B03F0040396
:108F70000093C0221223CDE9022301220323CDE96D
:108F8000042302A904230693009A01F005FF01952A
:108F9000236C43F080732364236C03F0807301938C
:108FA000019B1FB030BD00F0A1FBD6E70060004080
:108FB000003802400008024008B5044C20684FF019
:108FC000FF3104F041FE0CF09BF9F7E70C030020A1
:108FD00008B5044C20684FF0FF3104F035FE0CF06A
:108FE000E3F9F7E7B802002030B50A4D83B000245A
:108FF00028688DF807404FF0FF3300220DF107017C
:1090000004F0F2FE0028F3D19DF807000CF000FAFE
:10901000EEE700BF6402002070B50A4E82B0002463
:10902000002530684FF0FF3300226946CDE9004546
:1090300004F0DAFE0028F4D1DDE900010CF08CFA2E
:10904000EFE700BF0802002010B5104C104A23685B
:1090500003FB02F2B2F1333F09D90D4A0D4903FB7C
:1090600002F2B1EB720F08D20133236010BD0A4B3C
:10907000186804F01DFE2368EFE7084B186804F039
:1090800017FE23680133236010BD00BF606C002011
:10909000CDCCCCCC999999190C030020B8020020B2
:1090A00010B5274A0021012004F07AFD254B264AFD
:1090B0000446002101201C6004F072FD234C244B67
:1090C000206000220121234804F084FC224B01216E
:1090D000186004F0BFFC214A0121082004F014FEAE
:1090E0001F4B204A0446082101201C6004F00CFE9E
:1090F0001D4B1E4A044600211D481C6004F01EFC46
:109100001C4B1D4A044600211C481C6004F016FC40
:109110001B4B1C4A044600211B481C6004F00EFC3B
:109120001A4B1B4A044600211A481C6004F006FC36
:10913000194B18600CF0DCF8BDE810400CF09CB93D
:1091400050DE01080C03002040DE0108B8020020B8
:10915000F0DE0108499000085C6C002028DE010860
:109160006402002010DE01080802002084DE0108ED
:10917000B98F0008AC64002060DE0108D18F0008C0
:10918000CC430020CCDE0108E98F00082C6C0020C5
:10919000A8DE0108199000086C670020000000009C
:1091A0002DE9F04F2DED068B00248DB0CDE906445E
:1091B000CDE908446C4B01940A941A6B6B4E6C4DCC
:1091C0006C4F42F004021A631A6B02F0040201921F
:1091D000019A02941A6B42F080021A631A6B02F031
:1091E00080020292029A03941A6B42F001021A63FF
:1091F0001A6B02F001020392039A04941A6B42F074
:1092000002021A631A6B02F002020492049A059495
:109210001A6B42F008021A631B6B03F008030593F4
:109220003046012240F23111059B01F0C7FE224673
:10923000284641F2020101F0C1FE2846012248F20F
:10924000100101F0BBFE384641F20101012201F09C
:10925000B5FE9FED3FAB22463846122101F0AEFE2F
:109260004FF48042002306A93046CDE906239FED46
:109270003A8B4FF0000A4FF0010B089401F08CFD7F
:1092800006A930469FED369B8DED06ABCDE908ABC8
:1092900001F082FD0122002306A92846CDE906231C
:1092A0004FF000084FF00009089401F075FD06A981
:1092B0002846CDE908898DED068B01F06DFD06A9E4
:1092C000304610220123CDE906238DED089B01F0E5
:1092D00063FD4FF490720123304606A9CDE90623C1
:1092E000CDE9088901F058FD06A938468DED06AB99
:1092F0008DED089B01F050FD384606A98DED068BDB
:10930000CDE9088901F048FD06A928464FF400423E
:109310000123CDE90623CDE908AB01F03DFD4FF473
:10932000881306A9042214480894CDE9062301F005
:1093300033FD22460521082000F07CFE082000F0C5
:10934000B7FE0DB0BDEC068BBDE8F08FAFF300802B
:1093500001000000010000001210000001000000E8
:109360000000000002000000003802400008024037
:109370000000024000040240000C024010B50B48FF
:109380000B4C0C4900234FF48042C0E90041C0E976
:109390000233C0E90423C0E90633036201F020FE72
:1093A00000B910BDBDE8104000F0A0B9646C002009
:1093B00000540040801A060010B50B480B4C0C49B5
:1093C00000234FF48042C0E90041C0E90233C0E904
:1093D0000423C0E90633036201F002FE00B910BDA8
:1093E000BDE8104000F082B9B86C00200058004081
:1093F000801A060010B50B480B4C0C4900234FF4A3
:109400008042C0E90041C0E90233C0E90423C0E959
:109410000633036201F0E4FD00B910BDBDE8104061
:1094200000F064B90C6D0020005C0040801A06005A
:1094300070B50368564A8EB000249342CDE90844C3
:10944000CDE90A440C9407D0524A934228D0524A9C
:10945000934261D00EB070BD504D00942B6B5048BC
:1094600043F002032B632B6B03F0020300934FF4D2
:1094700040721223CDE9082303230B9308A9042388
:109480000C93009A01F088FC01942B6C43F40013B8
:109490002B642B6C03F400130193019B0EB070BD81
:1094A0003E4D02942B6B3E4843F002032B632B6B23
:1094B00003F002030293029B03942B6B43F004031B
:1094C0002B632B6B03F0040303934FF4806212238E
:1094D000CDE90823042608A903230B930C96039BCC
:1094E00001F05AFC4FF480521223CDE908232D4895
:1094F0000C960022032308A9CDE90A2301F04CFCB5
:1095000004942B6C43F480032B642B6C03F48003D2
:109510000493049B0EB070BD204D05942B6B214825
:1095200043F004032B632B6B03F004030593059BAB
:1095300006942B6B43F001032B632B6B03F00103A9
:1095400006934FF400721223CDE90823042608A9DC
:1095500003230B930C96069B01F01EFC4FF48072C4
:109560001223CDE9082310480C960022032308A9F2
:10957000CDE90A2301F010FC07942B6C43F400039F
:109580002B642B6C03F400030793079B0EB070BD94
:109590000054004000580040005C00400038024089
:1095A00000040240000802400000024000000000E9
:1095B00010B5002396B0CDE90A33CDE90C33CDE9DF
:1095C0000233CDE90433284900930693086C274AF7
:1095D00040F080500864096C01F0805100910099BE
:1095E0000193116841F44041116012689FED1A7BAC
:1095F000022302F440424FF480000192CDE90E3084
:109600000821B42208A88DED087BCDE91123CDE90E
:109610001333019C109102F021FD08B172B6FEE7F0
:1096200002F0A8F908B172B6FEE79FED0D7B4FF48A
:10963000A0530022CDE9042302A84FF48053052152
:109640008DED027B069302F0D1F908B172B6FEE708
:1096500016B010BDAFF30080010000000000010053
:109660000F000000020000000038024000700040BF
:1096700008B500F08FFCFFF79BFFFFF791FDFFF7A8
:1096800007FC00F05DFA00F0FBFA00F035FB00F09B
:1096900073F8FFF7D3FB00F04DF800F0B9FBFFF7CC
:1096A00019FC00F025F8FFF787FEFFF767FEFFF7CC
:1096B000A1FE00F081FA064803F074F9054803F0B2
:1096C00071F904F00FF9FFF7EBFC04F01DF9FEE768
:1096D000B46E0020446F0020034B02689A4200D011
:1096E000704700F071BC00BF0010004072B6FEE78A
:1096F0000E480F494FF4827210B50023C0E90012E2
:109700004FF4007410210A22C0E90233C0E9043387
:10971000C0E90641C0E90833C0E90A3202F004FF9B
:1097200000B910BDBDE81040FFF7E0BF606D00203C
:10973000003001400E480F494FF4827210B50023EB
:10974000C0E900124FF4007410210A22C0E902336C
:10975000C0E90433C0E90641C0E90833C0E90A3270
:1097600002F0E2FE00B910BDBDE81040FFF7BEBF39
:10977000B86D0020003800400E480F494FF4827247
:1097800010B50023C0E900124FF4007410210A2222
:10979000C0E90233C0E90433C0E90641C0E9083337
:1097A000C0E90A3202F0C0FE00B910BDBDE81040A9
:1097B000FFF79CBF106E0020003C0040000000003E
:1097C00010B5026854498EB000238A42CDE90833AF
:1097D000CDE90A330C9307D050498A4227D050492B
:1097E0008A425FD00EB010BD4E4A0193506C40F4D7
:1097F00080505064506C00F48050019001980293A6
:10980000136B494843F001031363136B9FED3E7BD9
:1098100003F0010302930322052308A98DED087BC1
:10982000CDE90B23029C01F0B7FA0EB010BD3D4A02
:109830000393116C3D4841F480411164116C01F4B3
:109840008041039103990493116B41F0040111636A
:10985000116B01F00401049104990593136B43F01B
:1098600002031363136B03F0020305930C2202231C
:10987000CDE90823052408A90323CDE90B34059A73
:1098800001F08AFA4FF400520223CDE90823284858
:109890000C940022032308A9CDE90A2301F07CFAE5
:1098A0000EB010BD1F4A0693116C204841F40041D0
:1098B0001164116C01F40041069106990793136B32
:1098C00043F004031363136B03F0040307930222B2
:1098D0000223CDE9082308A903220523CDE90B23A0
:1098E000079C01F059FA9FED0A7B00220323CDE982
:1098F0000A230E48062308A98DED087B0C9301F07E
:109900004BFA0EB010BD00BFE000000002000000E6
:10991000000C000002000000003001400038004050
:10992000003C0040003802400000024000080240B5
:109930000004024082B00E4B00220092596C41F4A8
:1099400080415964586C00F4804000900098019266
:10995000186C40F0805018641B6C03F08053019326
:10996000019B0F216FF0010002B000F063BB00BF4C
:109970000038024030B5014689B00022362000F0A0
:1099800059FB362000F094FB0025164B02951A6C0B
:10999000154C42F010021A641B6C03F0100301A96D
:1099A00003A80293029B02F0DFF802F0BDF80F4A11
:1099B0000F4921604300A2FB03239B0C013B40F2B3
:1099C000E7322046C4E903256360A56002F05CFF2E
:1099D00010B1012009B030BD204603F01BF809B0DA
:1099E00030BD00BF00380240686E002083DE1B439C
:1099F00000100040FEE700BFFEE700BFFEE700BF2B
:109A0000FEE700BFFEE700BF704700BF08B50BF0E0
:109A100009FCBDE80840042001F0D6BA014803F073
:109A2000F1BA00BFFC6E0020014803F0B9BD00BFD1
:109A300094700020014803F0E5BA00BF686E002072
:109A400008B50BF02BF8BDE80840014803F0DABA7E
:109A50008C6F0020014800F099BC00BFD46F00203B
:109A6000014800F093BC00BF347000200120704713
:109A700008B512F0D9FE162303604FF0FF3008BD81
:109A800008B512F0D1FE16230360FEE770B5161E6E
:109A900007DD0C468D19AFF3008004F8010BA542D9
:109AA000F9D1304670BD00BF70B5161E07DD0C46FB
:109AB0008D1914F8010BAFF30080AC42F9D1304698
:109AC00070BD00BF4FF0FF30704700BF4FF4005330
:109AD0004B600020704700BF012070470020704796
:109AE00010B50C4C0C4B0D492268591A2AB1104480
:109AF000884207D82060104610BD094A22601044F1
:109B00008842F7D912F090FE0C234FF0FF32036029
:109B1000104610BDB06E00200000022000040000BE
:109B200020D30020044B0549D3F8882042F470026A
:109B3000C3F888209960704700ED00E000800008BD
:109B400000B51B484FF0804202605922002387B0C5
:109B500042604FF0FF32CDE90233CDE90433CDE965
:109B60000033C0E902320361836102F08DFE98B9CF
:109B70004FF480530E48029302A903F0FFF898B9FE
:109B8000202200230A486946CDE9002303F0E4FAC5
:109B900028B907B05DF804FBFFF7A8FDE8E7FFF779
:109BA000A5FD07B05DF804FBFFF7A0FDE8E700BFE7
:109BB000B46E00200000000000B52F488FB00023D5
:109BC000CDE90233CDE90433CDE90033CDE90633E5
:109BD000CDE90833CDE90A33C0E901330C930361C1
:109BE0008361264B03604FF6FF73C36002F04CFEA7
:109BF00048BB4FF480532048029302A903F0BEF8FB
:109C000090BB1D4802F044FF58BB002200231A48B5
:109C10006946CDE9002303F09FFAF8B99FED147B64
:109C200000221548089206A98DED067B0A9202F0E3
:109C3000BDFF80B91048042206A902F0B7FF28B979
:109C40000FB05DF804FBFFF751FDD2E7FFF74EFDC3
:109C50000FB05DF804FBFFF749FDEBE7FFF746FDAA
:109C6000DCE7FFF743FDD0E7FFF740FDC9E700BFA2
:109C70000000000000000000FC6E00200004004016
:109C800000B51B481B4A026089B000234FF0FF3229
:109C9000CDE90233CDE90433CDE90033C0E9013326
:109CA000C0E903230693836102F0EEFDA0B9072209
:109CB00000230F4802A9CDE9022303F00FF998B958
:109CC000002200230A486946CDE9002303F044FA44
:109CD00028B909B05DF804FBFFF708FDE7E7FFF7D7
:109CE00005FD09B05DF804FBFFF700FDE8E700BFE4
:109CF000446F0020000C004000B51248124941F6A4
:109D00004B52002383B0C0E900120122CDE9003399
:109D1000C0E90232836102F0B7FD58B90022002386
:109D200008486946CDE9002303F016FA28B903B0C4
:109D30005DF804FBFFF7DAFCF0E7FFF7D7FC03B0B0
:109D40005DF804FB8C6F00200014004000B5036830
:109D5000B3F1804F85B00BD0294A934227D0294ACE
:109D6000934215D0284A934237D005B05DF804FBE2
:109D700003F50E33002200921A6C42F001021A64BD
:109D80001B6C03F001030093009B05B05DF804FB1E
:109D90001E4B002202921A6C42F008021A641B6CDD
:109DA00003F008030293029B05B05DF804FB174B18
:109DB00000220192196C41F0020119641B6C03F03E
:109DC00002031D2001930521019B00F033F91D20A2
:109DD00005B05DF804EB00F06BB90C4B0022039268
:109DE000196C41F0200119641B6C03F0200337202B
:109DF00003930221039B00F01DF93720E8E700BF21
:109E000000040040000C00400014004000380240F4
:109E100010B50B480B4C00234FF4E1310C22C0E984
:109E20000041C0E90233C0E90432C0E9063303F05F
:109E3000D7F900B910BDBDE81040FFF757BC00BF0F
:109E4000947000200010014070B5374B026888B054
:109E500000249A42CDE90244CDE90444069401D09D
:109E600008B070BD03F5943300945A6C2F4E42F045
:109E700010025A645A6C02F010020092009A019487
:109E80001A6B42F001021A631B6B03F0010301938A
:109E90004FF4C0620223CDE9022303230593054654
:109EA000019B2348072302A9069300F075FF214A6E
:109EB00074624FF00063C6E90023304640224FF43D
:109EC0008063C6E90224C6E90544C6E90744336154
:109ED00000F02AF910BB184C18496E634FF000626D
:109EE0000023C4E9001220464FF48062C4E9023323
:109EF000C4E90423C4E90633C4E90833B56300F0B8
:109F000013F970B9AC63002205212520A56300F088
:109F100091F8252000F0CCF808B070BDFFF7E6FB03
:109F2000D9E7FFF7E3FBEDE70010014034700020B4
:109F300000000240B8640240D46F00204064024038
:109F4000DFF834D00D480E490E4A002302E0D45801
:109F5000C4500433C4188C42F9D30B4A0B4C002371
:109F600001E013600432A242FBD3FFF7DBFD12F0E5
:109F700069FDFFF77DFB7047000002200000002014
:109F800038010020C4FF0108400100201CD300203C
:109F9000FEE7000008B50B4B1A6842F400721A6025
:109FA0001A6842F480621A601A6842F480721A6079
:109FB000032000F02DF80F20FFF7DCFCFFF7BAFCC0
:109FC000002008BD003C0240034A044B11681B7886
:109FD0000B441360704700BFD870002004000020BD
:109FE000014B1868704700BFD870002038B5044690
:109FF000FFF7F6FF631C054602D0044B1B781C4498
:10A00000FFF7EEFF431BA342FAD338BD0400002044
:10A010000749CA6803024FF6FF0003F4E0630240F9
:10A02000134343F0BF6343F40033CB60704700BF7A
:10A0300000ED00E01C4BDB68C3F3022300B5C3F165
:10A04000070EBEF1040F03F1040C28BF4FF0040EFD
:10A05000BCF1060F1BD9033B4FF0FF3C0CFA03FC8D
:10A0600022EA0C024FF0FF3C0CFA0EFC21EA0C0134
:10A070009940002841EA02010CDB00F1604009012F
:10A0800000F56140C9B280F800135DF804FB0022BE
:10A090001346E7E7054B00F00F0009010344C9B27E
:10A0A00019765DF804FB00BF00ED00E0FCEC00E079
:10A0B000002808DB4109044A00F01F00012303FACD
:10A0C00000F042F82100704700E100E080B110B5D7
:10A0D0004379044603F0FF021BB1012363710020A2
:10A0E00010BD0271FEF7BAFE01236371002010BD9E
:10A0F0000120704710B4022304684371A36843F041
:10A1000001038446A3603AB1043901EB820251F89D
:10A11000043F23609142FAD1012320688CF8053076
:10A120005DF8044B704700BF38B50446FFF758FF91
:10A13000002C52D023680022022184F8351084F8C4
:10A1400034201A6822F0010205461A6005E0FFF784
:10A1500047FF431B052B39D823681A68D107F6D46B
:10A16000D4E90120E16802430A43D4E90451A0691B
:10A170002A430A43E1691D6802430A4333492940DF
:10A18000256A2A430A43616A042928D01A605A6959
:10A1900022F007021143D8B22D4A59611038A2FBB0
:10A1A000005212092B4923F47F73895CE16523F087
:10A1B00003035F2888BF04333F228A40A365002041
:10A1C0009A600123606584F8353038BD032320226E
:10A1D000626584F83530184638BD012038BDD4E9B1
:10A1E0000B5129430A431A605969A26A21F00701F9
:10A1F000114341F00401002DCDD078B1B0F5005FDE
:10A2000016D0022A03D9032AC5D1EA01C3D50123F6
:10A210004022626584F83530184638BD012A03D0E3
:10A2200032F00202B7D1F0E7B5F1C07FB3D1EEE76B
:10A23000032AB0D801A050F822F000BF0FA20008F6
:10A240000BA200080FA2000829A200083F8010F00E
:10A25000ABAAAAAA18DF010870B490F83440856D43
:10A26000012C35D090F835404FF0010C644580F852
:10A2700034C005D0002380F8343070BC0220704711
:10A28000022680F83560046800264665266826F4B4
:10A290008026266063608368402B0EBFA260A160A9
:10A2A000E260C26D08BFE1603F239340AB6023686A
:10A2B000026C43F0160323601AB1236843F00803CD
:10A2C0002360236843F001030020236070BC7047C3
:10A2D000022070BC704700BF70B50446866DFFF762
:10A2E0007FFE94F83530022B06D00023802284F8BC
:10A2F00034306265012070BD23681A6822F01602AE
:10A300001A605A6922F080025A61226C054632B303
:10A310001A6822F008021A601A6822F001021A6014
:10A3200005E0FFF75DFE431B052B0FD823681B6874
:10A3300013F00103F5D1E16D3F228A400121B260A3
:10A3400084F8351084F83430184670BD032020227C
:10A350000023626584F8343084F8350070BDA26C47
:10A36000002AD5D1D8E700BF90F83530022B03D0B2
:10A3700080234365012070470268052380F835304B
:10A38000136823F001030020136070472DE9F041AA
:10A3900082B0744A866D156800230193C36D3468DA
:10A3A00008229A402242804604D001680F6878074C
:10A3B00000F18A8001229A40224204D0D8F800108D
:10A3C0004969090678D404229A40224204D0D8F878
:10A3D000001009688F0767D410229A40224204D0E7
:10A3E000D8F800100F68380749D420229A4022423A
:10A3F00017D0D8F800100C68E00612D5B26098F8B3
:10A400003520052A73D00B6813F4802F0B6800F0F9
:10A410009080190340F19B80D8F83C300BB1404646
:10A420009847D8F854303BB3D8F85430DA071BD5E6
:10A43000D8F800204C49052388F835301368A1FB73
:10A44000051523F00103AD0A136002E01368DB0772
:10A4500004D5019B0133AB420193F7D901220023BC
:10A4600088F8352088F83430D8F84C3023B140468D
:10A4700002B0BDE8F041184702B0BDE8F081B2601B
:10A480000A6812F4802F0A682AD1D70503D40A6813
:10A4900022F008020A60D8F84020002AA5D04046E1
:10A4A0009047D8F85C30A0E7B260D8F8542042F06A
:10A4B0000402C8F854208FE7B260D8F8542042F064
:10A4C0000202C8F854207EE70F6827F004070F60E7
:10A4D000B260D8F8542042F00102C8F8542069E76D
:10A4E0001203D8D5D8F84820002AD8D17DE70A68C9
:10A4F00022F016020A604A6922F080024A61D8F806
:10A50000402052B30A6822F008020A603F2202FA91
:10A5100003F3D8F85010B3600122002388F83520E7
:10A5200088F834300029A7D0404602B0BDE8F04199
:10A53000084713F480737FF46FAF0A6822F01002AB
:10A540000A60012288F8352088F8343064E7D8F8AA
:10A550004430002B7FF463AF63E7D8F84820002A2B
:10A56000D0D1D3E700000020B5814E1B2DE9F84380
:10A570000546894617464FF010082B689E6916F06D
:10A58000040640F083809C6914F0100469D05A6876
:10A59000940103D45A6842F480425A600024B9F10D
:10A5A000FF3F9A695FD1900673D424B99C69A106D4
:10A5B000FCD52022DA61C3F81C8046F00404012196
:10A5C0009A69D00530D54FF480715605D96144F0B1
:10A5D000010404D54FF48061D96144F00804910569
:10A5E00004D54FF4007244F00204DA619A699607C8
:10A5F00044BF00229A629A69D00703D49A6942F054
:10A6000001029A615A68304802405A606B6C00211E
:10A6100020221C436C6485F8401085F8412085F8A1
:10A6200042100120BDE8F8835005D3D49205D8D458
:10A630000029DBD19A6992062ED4FFF7D1FCC01B0A
:10A64000484502D8B9F1000F97D16B6C2022134313
:10A6500000216B6485F8401085F841200120BDE899
:10A66000F8832146ACE7920613D4002CA3D1FFF760
:10A67000B7FCC01B814506D3B9F1000F04BF2026EB
:10A6800001242B688BE720260124FAE70020BDE88F
:10A69000F883002C8DD08EE79A69510702D52A8D58
:10A6A000002AF3D12024DC615968074A11400022B6
:10A6B00059606A6485F8402085F8414085F8422059
:10A6C0000120BDE8F88300BF00E800FE2DE9F84353
:10A6D0000746884616464FF010093B689D6915F0FD
:10A6E000020540F085809C6914F010046BD05A6814
:10A6F000910103D45A6842F480425A600024B8F1B0
:10A70000FF3F9A6961D1920675D424B99C69A40669
:10A71000FCD52022DA61C3F81C9045F00404012224
:10A720009D69E90530D54FF480726805DA6144F01F
:10A73000010404D54FF48062DA6144F00804AD05E9
:10A7400004D54FF4007244F00204DA619A6991076B
:10A7500044BF00229A629A69D20703D49A6942F0F0
:10A7600001029A615A68254802405A607B6C0021B8
:10A7700020221C437C6487F8401087F84120012088
:10A7800087F84210BDE8F8836905D3D4A805D8D46A
:10A79000002ADBD1B8F1FF3FA0D0FFF721FC801BDE
:10A7A000404502D8B8F1000F97D17B6C002243F0EE
:10A7B000200320217B6487F8402087F84110012086
:10A7C00087F84220DEE72246AAE7900613D4002C41
:10A7D000A1D1FFF705FC801B804506D3B8F1000F1F
:10A7E00004BF202501243B6889E720250124FAE7DE
:10A7F0000020BDE8F883002C8BD08CE700E800FE39
:10A800002DE9F8430546894617464FF010082B6896
:10A810009E6916F0200640F083809C6914F01004B5
:10A8200069D05A68940103D45A6842F480425A604D
:10A830000024B9F1FF3F9A695FD1900673D424B91F
:10A840009C69A106FCD52022DA61C3F81C8046F081
:10A85000040401219A69D00530D54FF48071560562
:10A86000D96144F0010404D54FF48061D96144F00A
:10A870000804960504D54FF4007244F00204DA612E
:10A880009A69910744BF00229A629A69D20703D459
:10A890009A6942F001029A615A68244802405A605B
:10A8A0006B6C002120221C436C6485F8401085F8F5
:10A8B000412085F842100120BDE8F8835005D3D42B
:10A8C0009005D8D40029DBD1FFF78AFBC01B48458F
:10A8D00002D8B9F1000F9AD16B6C002243F020032B
:10A8E00020216B6485F8402085F8411085F84220CE
:10A8F0000120BDE8F8832146ACE7920613D4002C72
:10A90000A3D1FFF76DFBC01B814506D3B9F1000F42
:10A9100004BF202601242B688BE720260124FAE7B8
:10A920000020BDE8F883002C8DD08EE700E800FE03
:10A9300000284FD010B590F84130044603F0FF02D4
:10A94000002B42D02368242284F8412019686268D1
:10A9500021F0010122F0706219601A619A68E168C1
:10A9600022F4004201299A60A2682AD042F40442EB
:10A9700002299A6004BF4FF400625A605968226944
:10A9800041F0007141F4004159606169D8680A439F
:10A99000A16920F4004042EA0122E169D860206AFE
:10A9A000DA6001431960196841F001011960002261
:10A9B0002023626484F84130226384F842201046E8
:10A9C00010BD42F400429A60D8E780F84020FEF7BC
:10A9D000ABFAB7E7012070472DE9F047984690F8A9
:10A9E0004130089E202B40F08E8090F84030012BA3
:10A9F000044600F08880012380F8403089461746DD
:10AA0000FFF7EEFA054604E0FFF7EAFA401B1928C3
:10AA10007CD82368986910F40040F5D1212284F88D
:10AA20004120102284F842206064A4F82A80628DBC
:10AA3000676292B2FF2A6063C9F3090775D8628D15
:10AA40004E4892B22285D1B25A6802403A4342EA55
:10AA5000014242F0007242F400525A60638D9BB290
:10AA6000002B3BD0DFF81C81DFF81CA14FF0FF0961
:10AA700003E0638D9BB2002B30D02A46314620463E
:10AA8000FFF724FE002876D1606A216810F8013BA8
:10AA90008B62628D238D6062013A92B26285628D13
:10AAA000013B9BB292B22385002AE2D0002BE0D179
:10AAB000701C46D18B691A06FCD5638D9BB2FF2BA7
:10AAC0004BD94B68A4F8289003EA08033B4343EAB8
:10AAD0000A034B60638D9BB2002BCED12A463146D0
:10AAE0002046FFF78DFE002845D12368244D202104
:10AAF000D9615A682A405A6084F8411084F84000AD
:10AB000084F8420000E00220BDE8F087636C002278
:10AB100043F020032021636484F8402084F841102E
:10AB200084F842200120BDE8F0875A6813490A40A2
:10AB30003A4342F0FF7242F49032FF2121855A607D
:10AB40008CE78B691B06B8D4FFF74AFA401B864294
:10AB5000DCD3002EDAD02168AAE7638D9BB223856F
:10AB6000DAB24B6803EA080343EA02433B4343F08B
:10AB700000734B607DE70120BDE8F087009800FC82
:10AB800000E800FE009C00FC0000FF012DE9F047FA
:10AB9000984690F84130089E202B40F0928090F823
:10ABA0004030012B044600F08C80012380F84030B7
:10ABB00089461746FFF714FA054605E0FFF710FA35
:10ABC000401B192800F28A802368986910F400401D
:10ABD000F4D1222284F84120102284F842206064BB
:10ABE000A4F82A80628D676292B2FF2A6063C9F37B
:10ABF000090700F28280628D4E4892B22285D1B25E
:10AC00005A6802403A4342EA014242F0007242F47A
:10AC100010525A60638D9BB2002B3DD0DFF81C812F
:10AC2000DFF81CA14FF0FF0903E0638D9BB2002BFE
:10AC300032D02A4631462046FFF798FC002876D1CC
:10AC40002268636A526A1A70628D238D616A013AC2
:10AC500092B26285628D013B01319BB292B2616218
:10AC60002385002AE1D0002BDFD1701C22682BD174
:10AC700093691906FCD5638D9BB2FF2B49D95368A4
:10AC8000A4F8289003EA08033B4343EA0A0353600D
:10AC9000638D9BB2002BCCD12A4631462046FFF76C
:10ACA000AFFD002843D12368234D2021D9615A6884
:10ACB0002A405A6084F8411084F8400084F8420029
:10ACC00000E00220BDE8F08793691B06D3D4FFF7AC
:10ACD00087F9401B864201D3002EC6D1636C002247
:10ACE00043F020032021636484F8402084F841105D
:10ACF00084F842200120BDE8F0875A680D490A40D7
:10AD00003A4342F0FF7242F49232FF2121855A60A9
:10AD100080E7638D9BB22385D9B2536803EA0803A9
:10AD200043EA01433B4343F0007353607DE7012056
:10AD3000BDE8F087009800FC00E800FE009C00FCE5
:10AD40000000FF0190F84120202A23D15FFA82FC05
:10AD500090F84020012A03461CD00268242000B548
:10AD600083F84100106820F001001060106820F4A2
:10AD70008050106010680143116011684FF0000EA0
:10AD800041F00101116083F841C083F840E0704652
:10AD90005DF804FB022070472DE9F04F00220C689B
:10ADA000DFF814A27D4E85B01346894605E00133D5
:10ADB000102B02F1020200F084800121994001EA87
:10ADC000040BA143F3D1D9F804C00CF003014D1ECC
:10ADD000012D79D9032940F0B9809140CD4307680E
:10ADE0003D4029431CF4403F0160E0D00021039125
:10ADF000DAF8441041F48041CAF84410DAF84410FB
:10AE000001F480410391039923F0030101F1804192
:10AE100001F59C3103F00307D1F808E0BF000F25CE
:10AE2000BD402EEA05085E4DA8421FD005F580659D
:10AE3000A84200F08F805B4DA84200F092805A4DEE
:10AE4000A84200F09580594DA84200F09880584DD6
:10AE5000A84200F09B80574DA8420CBF4FF0060E51
:10AE60004FF0070E0EFA07F748EA0708C1F8088006
:10AE7000B1686FEA0B071CF4801F0CBF39404BEA26
:10AE80000101B160F5681CF4001F0CBF3D404BEAA6
:10AE90000505F56075681CF4003F0CBF3D404BEAAA
:10AEA0000505756031681CF4803F03F101030CBF98
:10AEB00039404BEA0101102B316002F102027FF4AC
:10AEC0007CAF05B0BDE8F08FD9F80C50876805FA63
:10AED00002F8032505FA02FE27EA0E0748EA0707EB
:10AEE000876047686FEA0E0527EA0B0ECCF3001760
:10AEF0009F4047EA0E074760C76807EA050ED9F882
:10AF00000870974047EA0E070229C76001FA02F16C
:10AF10007FF465AF4FEAD30E00EB8E0E03F0070807
:10AF2000DEF820700097D9F810704FEA880807FA09
:10AF300008F701970F2707FA08F8009F27EA080883
:10AF4000019F47EA0807CEF8207048E7032595409F
:10AF5000ED43D1E74FF0010E0EFA07F748EA070874
:10AF600084E74FF0020E0EFA07F748EA07087DE77C
:10AF70004FF0030E0EFA07F748EA070876E74FF09E
:10AF8000040E0EFA07F748EA07086FE74FF0050EC0
:10AF90000EFA07F748EA070868E700BF003C0140DF
:10AFA0000000024000080240000C02400010024075
:10AFB00000140240001802400038024002B909049F
:10AFC00081617047704700BF044A5169014200D156
:10AFD000704708B55061FFF7F5FF08BD003C014020
:10AFE000002800F0B98070B590F83D30044603F0B9
:10AFF000FF02002B00F098802368242284F83D2073
:10B000001A6822F001021A601A6842F400421A60BB
:10B010001A6822F400421A6000F086FD63684F4906
:10B020008B424FD84E4A90427CD94E4D5A00A5FBD8
:10B030000035431EB3FBF2F32268506820F03F0056
:10B0400040EA95405060A90C01F1010C116A21F011
:10B050003F0141EA0C011162D16940F6FC7E0133E7
:10B0600021F44F4113EA0E0F21F0FF0161D10423B7
:10B070000B43D361D4E907301168034321F0C001C9
:10B080000B4313609168D4E9030321F403410343A4
:10B0900021F0FF010B439360D4E90530D1680343ED
:10B0A00021F0FF010B43D3601168002341F001013F
:10B0B00020201160236484F83D00236384F83E302F
:10B0C000184670BD284A90422CD9264D274EA5FB24
:10B0D000002C2268556825F03F0545EA9C455560DF
:10B0E0004FEA9C414FF4967505FB01F1A6FB015117
:10B0F000156A890925F03F05013129431162D1699B
:10B10000A56821F44F4121F0FF01ADB9013803EBEF
:10B110004303B0FBF3F30133C3F30B03D3B143F4A5
:10B120000043A5E7012070BD80F83C20FEF780F9C0
:10B1300062E7C3F30B039BE703EB8303013803EBE5
:10B140008303B0FBF3F30133C3F30B0313B143F4F5
:10B1500040438DE701238BE701207047A086010063
:10B160007F841E0083DE1B43FF083D00D34D621029
:10B170002DE9F04F054683B099460C9F88469246CC
:10B18000FEF72EFF95F83D30202B03D0022003B0B0
:10B19000BDE8F08F064605E0FEF722FF801B192868
:10B1A00000F2F5802C68A3696FEA030C1CF0020B17
:10B1B000F2D095F83C30012BE8D0012385F83C30E3
:10B1C0002368D9076FD52368974A23F40063236067
:10B1D000212385F83D30102385F83E3000232B6471
:10B1E000A5F82A906B8DEA622B85EB6AC5F824A03E
:10B1F000082B06D0012B04D0934202D02B6B122BCC
:10B2000003D1236843F4807323607B1C3DD16369C1
:10B21000D807FCD52B69B3F5804F49D108F0FE0162
:10B220002161781C04D0D8E063695A0500F1BD8023
:10B2300063699907F8D50023019363690193A369B2
:10B2400001932B8D019A002B74D0791C7FD16369F7
:10B250001A0641D463695B05F9D5002220236FF4F7
:10B26000806161612A6385F83D3085F83E202B6C52
:10B2700085F83C2043F004032B642B6C042B00F076
:10B28000E480012003B0BDE8F08F6369D907C1D421
:10B29000FEF7A6FE801B8742C0F0AF80002F00F0B3
:10B2A000AC802C68B1E7236843F0010323608AE790
:10B2B0004FEAE81303F0060343F0F00323617B1C1D
:10B2C00003D0B3E0636959056FD463691807F9D5F2
:10B2D0005FFA88F32361A4E7686AB5F828C00146DD
:10B2E0000CF1FF3211F8013B23616B8D6962013B68
:10B2F0009BB26B85636992B259072A850CD55AB106
:10B30000437823616B8D013BACF1020C02309BB2A0
:10B31000A5F828C068626B85781C28D16369590735
:10B3200005D463695A0598D463695907F9D52B8DFB
:10B33000002B8AD12368002043F40073202223606D
:10B3400085F83D2085F83C0085F83E001FE76369DD
:10B350001806C1D4636958053FF57FAFFEF740FE7C
:10B36000801B874278D3002F76D02C686DE7636905
:10B370005B07DCD463695B053FF56FAFFEF730FE1A
:10B38000801B874268D3002F66D02C68C4E7202337
:10B39000C5F830B085F83D3085F83EB02B6C85F8A7
:10B3A0003CB043F020032B64F0E6236843F40073C1
:10B3B000236000226FF48061202361612A6385F895
:10B3C0003D3085F83E202B6C85F83C2043F004038B
:10B3D00001202B6403B0BDE8F08F63699B073FF544
:10B3E0002AAF63695B05E0D4FEF7FAFD801B874254
:10B3F00040D3002F3ED02C6813E7002320222B637C
:10B4000085F83D2085F83E302A6C296885F83C3067
:10B4100042F020022A640B68DA057FF532AF4FF460
:10B4200000732B642DE700BF0000FFFF63691A075C
:10B430003FF54EAF63695A05B7D4FEF7D1FD801BC7
:10B44000874217D3B7B12C6839E72A68136843F4E9
:10B450000073012013609AE6002220232A6385F8F6
:10B460003D3085F83E202B6C85F83C2043F02003CE
:10B470002B6402E7002220232A6385F83D3085F8FB
:10B480003E202B6C85F83C2043F020032B640120E8
:10B490007DE600BF2DE9F04F054687B09946109E26
:10B4A00088469246FEF79CFD95F83D30202B03D050
:10B4B000022007B0BDE8F08F074605E0FEF790FDDB
:10B4C000C01B192800F2A7802C68A069C04310F0A7
:10B4D000020BF3D095F83C30012BE9D0012385F81D
:10B4E0003C302368DB0760D523688D4A23F4006372
:10B4F0002360222385F83D30102385F83E30002359
:10B500002B64A5F82A906B8DEA62EA6A2B85236882
:10B51000C5F824A043F48063082A236007D0012AD9
:10B5200005D012F5803F02D02B6B112B03D123687D
:10B5300043F480732360701C29D16369D907FCD55B
:10B540002B69B3F5804F35D148F00103DBB223619D
:10B55000721C03D007E1636958056AD463699B07CD
:10B56000F9D52B8D002B7CD1019363690193A369DD
:10B570000193019B236843F4007323600020202380
:10B5800085F83D3085F83C0085F83E0091E7636919
:10B59000DA07D5D4FEF724FDC01B8642C0F00C812B
:10B5A000002E00F009812C68C5E7236843F00103F1
:10B5B000236099E74FEAE81909F0060949F0F0031A
:10B5C0002361701C03D01DE163695A0531D463699E
:10B5D0001907F9D55FFA88F32361711C03D0A6E13E
:10B5E00063695B0525D463699A07F9D50023059340
:10B5F00063690593A3690593059B236843F48073EE
:10B600002360721C40F0A6816369DB07FCD549F01A
:10B61000F10323619CE72023C5F830B085F83D3065
:10B6200085F83EB02B6C85F83CB043F020032B64CA
:10B630003EE7236843F40073236000226FF48061C7
:10B64000202361612A6385F83D3085F83E202B6C0C
:10B6500085F83C2043F0040301202B6407B0BDE8CB
:10B66000F08F012B226800F05381022B00F00B8138
:10B6700042F4806222600022049262690492A2690C
:10B680000492049A032B48D8012B00F02881022B46
:10B6900000F0D480721C40F0058163695B07FCD523
:10B6A00023686A6A23F480632360236913706B8DB7
:10B6B000696A2A8D013B0131013A9BB269622A8590
:10B6C0006B85711C2A6840F0FC8053695B07FCD5D0
:10B6D0001368696A43F40073136013690B706B8D10
:10B6E000696A2A8D2868013B9BB26B850069531EED
:10B6F0004C1C6C622B8548702B8D6A8D696A013BEE
:10B70000013A01319BB292B269622B856A85002BA6
:10B710003FF434AF032B2C68B6D966B933E000BFD1
:10B720000000FFFF6369DB065CD4FEF759FCC01B19
:10B73000864230D32C6863695A06F3D56B6A226956
:10B740001A706A8D28682B8D696A013A92B26A85EF
:10B750004269013B4C1C9BB252076C622B85D6D5CB
:10B7600003694B7083E0636999073FF5FAAE63693B
:10B7700059053FF55EAFFEF733FCC01B86420AD386
:10B780004EB12C68E4E663695906D7D46369D806DC
:10B7900028D4FEF725FC002220232A6385F83D30BB
:10B7A00085F83E202B6C85F83C2043F020030120D7
:10B7B0002B6407B0BDE8F08F002320222B6385F8AF
:10B7C0003D2085F83E302A6C296885F83C3042F0EF
:10B7D00020022A640B68D90512D54FF400732B643C
:10B7E000012066E6002320226FF0100161612B63C7
:10B7F00085F83D2085F83E302A6C2A6485F83C3077
:10B80000012056E663691B073FF5E4AE63695B05FB
:10B810003FF50FAFFEF7E4FBC01B8642BBD3002E03
:10B82000B9D02C68CDE6636959070CD4FEF7D8FB74
:10B83000C01B8642AFD3002EADD02C68731CF2D152
:10B8400063695807FCD5236843F4007323606B6A6F
:10B8500022691A706A6A531C6B622B8D013B2B851F
:10B860006B8D013B9BB26B852B681B6953702B8DD5
:10B870006A8D696A013B013A01319BB292B26962F9
:10B880006A852B8543E722F480622260226842F4B5
:10B89000006222600022039262690392A26903920D
:10B8A000039AEFE6636958073FF5FAAEFEF798FB97
:10B8B000C01B8642FFF46FAF002E3FF46CAF2C68C4
:10B8C000E8E653695C073FF503AFFEF789FBC01B51
:10B8D0008642FFF460AF002E7FF4F3AE5BE75EB903
:10B8E00011E06369D9063FF57DAFFEF779FBC01B18
:10B8F0008642FFF450AF2C6863695806F1D56B6A35
:10B9000022691A70B3E763695A067FF53FAFF6E71D
:10B9100022F4806222600022029262690292A2698D
:10B920000292029A226842F400722260AAE66369D7
:10B9300098073FF55BAE636958053FF57AAEFEF7B1
:10B940004FFBC01B8642FFF426AF002E3FF423AF0F
:10B950002C6842E66369D8073FF559AEFEF740FB15
:10B96000C01B8642FFF428AF002E3FF425AF2C68A1
:10B9700047E600BF30B583B0194B1A491A4D002273
:10B9800001921A6C42F080521A641B6C03F08053CF
:10B9900001930122019B0A64FEF722FB044605E0A5
:10B9A000FEF71EFB001BB0F57A7F16D86B68DA0332
:10B9B000F6D50C4B0C4D01225A64FEF711FB0446E0
:10B9C00005E0FEF70DFB001BB0F57A7F05D86B682C
:10B9D0009B03F6D5002003B030BD032003B030BD7B
:10B9E0000038024000000E4200700040002800F0C5
:10B9F0008780484A136803F00F038B422DE9F0411A
:10BA00000D46044609D2CBB21370136803F00F033E
:10BA10008B4202D00120BDE8F0812368980714D53D
:10BA2000590704D53C498A6842F4E0528A601A07F3
:10BA300004D539498A6842F460428A603649A06870
:10BA40008A6822F0F00202438A60DF0721D562682B
:10BA5000012A57D0931E012B2F4B1B684DD99907F4
:10BA6000D8D52D4EB36823F003031343B360FEF71C
:10BA7000B7FA41F28838074604E0FEF7B1FAC01B76
:10BA8000404544D8B368626803F00C03B3EB820FFF
:10BA9000F3D1204A136803F00F03AB4206D9EBB28F
:10BAA0001370136803F00F03AB42B3D123685A0736
:10BAB00006D51949E0688A6822F4E05202438A6098
:10BAC0001B0707D5144A2169936823F4604343EAAE
:10BAD000C103936000F082FA0F4A104C926810493B
:10BAE000C2F303120346A25C0E48D34000680B6009
:10BAF000FDF740FF0020BDE8F0819801B1D489E74F
:10BB000001207047044B1B689E03AAD482E70320E0
:10BB100081E700BF003C02400038024000DF01081E
:10BB20000000002008000020044B05499B68054ADE
:10BB30000868C3F38223D35CD840704700380240C2
:10BB40000000002010DF0108044B05499B68054AEE
:10BB50000868C3F34233D35CD840704700380240D2
:10BB60000000002010DF01080E4B0F2202609A68CF
:10BB700002F0030242609A6802F0F00282609A6862
:10BB800002F4E052C2609B68DB0810B403F4E05397
:10BB9000054C036123685DF8044B03F00F030B6051
:10BBA000704700BF00380240003C02402DE9F043DE
:10BBB000036813F0010683B004460BD0A849866BD6
:10BBC000D1F88C2022F0C0623243B6FA86F6C1F872
:10BBD0008C2076099A070BD5A149E06BD1F88C200F
:10BBE00022F0C05202430028C1F88C2008BF012671
:10BBF00013F0040512D09A49256BD1F88C20B5F5C5
:10BC0000801F22F4401242EA050218BFB5FA85F5FA
:10BC1000C1F88C2012BF6D09002501261F070FD522
:10BC20008F48616BD0F88C2022F440020A43B1F5B2
:10BC3000800FC0F88C2000F0FE80002908BF01258D
:10BC4000980600F1AD80DF0605D5864B94F85820A4
:10BC5000C3F8E0212368180608D58149E06CD1F8C3
:10BC6000942022F440020243C1F89420590608D5DA
:10BC70007B49A06CD1F8942022F080620243C1F885
:10BC80009420DA050DD57649606DD1F8942022F024
:10BC90000062B0F1006F42EA000208BF0125C1F85E
:10BCA00094209F0508D56E49606CD1F8942022F04D
:10BCB00080520243C1F8942058050BD56848216D85
:10BCC000D0F8942022F000520A43B1F1005FC0F88E
:10BCD00094200BD0012E09D0B3F5006F06D0012DB2
:10BCE00000F0E480002003B0BDE8F0835E4B5C4FC1
:10BCF00000229A66FEF774F9064604E0FEF770F932
:10BD0000831B022B42D83B681901F7D42368DA075A
:10BD100040D5A26B002A3DD15149D1F88420D1F8F9
:10BD2000840002F4403200F0706002436068024315
:10BD3000A06842EA8012606942EA0072C1F8842079
:10BD40005E0704D5226BB2F5801F00F091801807C2
:10BD500004D5626BB2F5800F00F08A80590504D5D6
:10BD6000226DB2F1005F00F004811A0565D43E4BEC
:10BD70003B4F01229A66FEF733F906463B681B01EA
:10BD8000ADD4FEF72DF9801B0228F7D9032003B0AC
:10BD9000BDE8F0839F07D3D5E26B002AD0D1BBE783
:10BDA0002F4B324F002201921A6C42F080521A64DB
:10BDB0001B6C03F080530193019B3B6843F4807339
:10BDC0003B60FEF70DF9804605E0FEF709F9A0EBB0
:10BDD00008000228DAD83B68D905F6D5204F236C35
:10BDE0003A6F12F4407213D003F44071914211D0B3
:10BDF0003B6F1D4A0121C2F8401E23F4407300210D
:10BE0000C2F8401E3B673B6FDA0700F1CB80236C22
:10BE100003F44072B2F5407F00F0A08010498A68B8
:10BE200022F4F8128A600E4A116FC3F30B030B431E
:10BE30001367236807E7012602E7D4E90121236994
:10BE40001B0643EA81131343E26861695208013A11
:10BE500043EA017343EA0243014AC2F8843086E7A9
:10BE60000038024000104742000047420070004086
:10BE70005849D1F88420D1F8840002F4403200F00F
:10BE8000E040024360680243A06842EA80122069F1
:10BE900042EA0062C1F88420D1F88C00A26A20F046
:10BEA0001F00013A0243C1F88C2057E74A4B494E24
:10BEB00000221A67FEF794F8054605E0FEF790F8B1
:10BEC000401B02283FF662AF33689F00F6D4226819
:10BED000500778D5236B002B75D13E49A069D1F866
:10BEE000883003F440330343E06943EA8013606A17
:10BEF00043EA0063C1F88830D1F88C30E06A23F45B
:10BF0000F853013843EA0023C1F88C30D20514D528
:10BF1000636DB3F1006F10D12E49A569D1F8883057
:10BF2000D4E9070203F070632B43520843EA8013FD
:10BF3000013A43EA0243C1F88830274B254D0122DC
:10BF40001A67FEF74DF804462B689B003FF5CAAE12
:10BF5000FEF746F8001B0228F6D917E71D4882684D
:10BF600023F0704121F4407122F4F8120A438260F8
:10BF700059E718486668D0F88420C2F30142511C82
:10BF8000D0F8842002F0E0423243A66842EA8612EA
:10BF900042EA4162E1684908013942EA0142C0F8D7
:10BFA0008420E2E6FEF71CF841F28839804606E07C
:10BFB000FEF716F8A0EB080048453FF6E7AE3B6FEA
:10BFC0009B07F5D523E71107A0D5636B002B9DD107
:10BFD00083E700BF00380240000047421D4908B512
:10BFE0008B6803F00C03082B1AD00C2B16D14A686F
:10BFF0004B684968184813F48003C1F3881118BFCF
:10C00000002302F03F02A1FB0001FCF795FD114B5C
:10C010005B68C3F30273B0FBF3F008BD0E4808BDC4
:10C020004A684B6849680C4813F48003C1F38811CF
:10C0300018BF002302F03F02A1FB0001FCF77CFDCA
:10C04000044B5B68C3F3014301335B00B0FBF3F0C7
:10C0500008BD00BF003802400024F400002800F0B2
:10C06000B3812DE9F0410368DA0782B0044636D582
:10C07000A2498A6802F00C02042A00F0DF808A6874
:10C0800002F00C02082A00F0D5809C498A6802F070
:10C090000C020C2A00F005816368B3F5803F00F0C4
:10C0A0001981B3F5A02F00F09681944D2A6822F4EF
:10C0B00080322A602A6822F480222A60002B40F015
:10C0C0000E81FDF78DFF064605E0FDF789FF801B19
:10C0D000642800F2FB802B689903F6D423689A0742
:10C0E0002FD5864A916811F00C0F00F09880916866
:10C0F00001F00C01082900F08E8080498A6802F066
:10C100000C020C2A00F06281E368002B00F014811D
:10C110007B4B7A4E01221A60FDF762FF054605E06F
:10C12000FDF75EFF401B022800F2D08033689807BD
:10C13000F6D53368226923F0F80343EAC20333607B
:10C1400023681A0751D4580730D56C4A136C13F082
:10C15000805300F09A8000256A4E3368D90540F17B
:10C16000A580A368012B00F0CF80052B00F03D8156
:10C17000624E326F22F001023267326F22F0040207
:10C180003267002B40F0C580FDF72AFF41F2883866
:10C19000074605E0FDF724FFC01B404500F29680EE
:10C1A000336F9807F6D4002D40F00881A069C0B124
:10C1B000524DAB6803F00C03082B00F0CE80504BBF
:10C1C000002202281A6600F01A81FDF709FF0446D2
:10C1D00004E0FDF705FF001B022877D82B689B01C0
:10C1E000F7D4002002B0BDE8F0816369002B2FD0A6
:10C1F000434B424E0122C3F8802EFDF7F1FE054667
:10C2000004E0FDF7EDFE401B02285FD8736F9B072B
:10C21000F7D5236897E7526857023FF56EAF374A64
:10C220001268950725D5E268012A22D0012002B0C4
:10C23000BDE8F0814A6857027FF527AF2F4A1268A0
:10C2400095037FF54CAF6268002A7FF448AFEDE7B5
:10C250002B4A2A4EC2F8803EFDF7C2FE054604E096
:10C26000FDF7BEFE401B022830D8736F9F07F7D43E
:10C27000CFE7224920690A6822F0F80242EAC002A8
:10C280000A601A077FF55FAFAFE70193136C43F0C5
:10C2900080531364136C03F080530193019B0125B9
:10C2A0005AE74A6856027FF5F7AEC7E7336843F4AA
:10C2B00080733360FDF794FE07463368DA053FF577
:10C2C00050AFFDF78DFEC01B0228F6D9032002B047
:10C2D000BDE8F081094A136843F480331360FDF729
:10C2E0007FFE064E054604E0FDF77AFE401B6428FB
:10C2F000ECD833689803F7D5F0E600BF0038024069
:10C300000000474200700040554A136F43F001039C
:10C310001367FDF765FE524F064641F2883804E088
:10C32000FDF75EFE801B4045D0D83B6F9B07F7D5DD
:10C33000002D3FF43BAF41E04A4A494E1360FDF700
:10C340004FFE054604E0FDF74BFE401B0228BDD81A
:10C3500033689907F7D42368F3E601283FF442AF26
:10C360006B68E26903F4800191427FF45FAF226A57
:10C3700003F03F0191427FF459AF616A47F6C07202
:10C380001A40B2EB811F7FF451AFA26A520803F446
:10C390004031013AB1EB024F7FF448AFE16A03F05C
:10C3A0007062B2EB016F7FF441AF226B03F0E043A8
:10C3B000B3EB027F14BF0120002013E7284A136C5F
:10C3C00023F080531364F1E6012070474A68560257
:10C3D0003FF59AAE23E7224B1A6842F480221A6096
:10C3E0001A6842F480321A6079E71D4B1A6F42F0E6
:10C3F00004021A671A6F42F001021A6789E7FDF713
:10C40000EFFD064605E0FDF7EBFD801B02283FF639
:10C410005DAF2B689901F6D4D4E90731626A0B430A
:10C4200043EA8213D4E90A20216B43EA00635208ED
:10C4300043EA0173013A0B4943EA024301226B606C
:10C440000A66FDF7CDFD064D044605E0FDF7C8FD83
:10C45000001B02283FF63AAF2B689A01F6D5C0E6DA
:10C4600000380240000047422DE9F04182B01D46ED
:10C4700016460C460746FDF7B3FD35442D1AFDF769
:10C48000AFFD284B1B68C3F3CB3305FB03F380469A
:10C490000193731C396807D18B6834EA0303FBD01E
:10C4A000002002B0BDE8F0818B6834EA0303F7D1C5
:10C4B000FDF796FDA0EB0800A84208D2019B002BD7
:10C4C000019B03F1FF3308BF00250193E1E7D7E9A2
:10C4D00000315A68B1F5827F22F0E0025A6014D030
:10C4E000BA6AB2F5005F07D00122002387F8512015
:10C4F00087F850300320D4E71A6822F400521A60FB
:10C500001A6842F400521A60EEE7BA68B2F5004FBA
:10C5100002D0B2F5806FE3D11A6822F040021A60AF
:10C52000DEE700BF0000002000285CD0416A70B543
:10C530000446002947D00023C0E9043394F8512071
:10C540000023A36202F0FF00002A42D09C46256827
:10C55000A268022384F851302B6823F040032B603B
:10C56000636802F4044203F482731343E26802F442
:10C5700000621343226902F002021343626902F06F
:10C5800001021A43E36901F0100003F03806A169C3
:10C59000236A03F0800E01F4007313433343090C44
:10C5A00043EA0E0301F0040143EA0C0301432B604C
:10C5B0006960EB69002023F400630122EB61606590
:10C5C00084F8512070BD4368B3F5827FB6D0C16155
:10C5D000B4E784F850002046FDF7F2F8D4E90913D7
:10C5E00003F4005CB3E70120704700BF2DE9F0437E
:10C5F000044690F8500083B001280A9D00F0838023
:10C600001F46012384F8503089469046FDF7E8FC28
:10C61000064694F8510063680128C1B211D0B3F501
:10C62000827F09D002200122002384F8512084F85F
:10C63000503003B0BDE8F083A268002AF2D104298B
:10C64000F0D1B9F1000F62D0B8F1000F5FD0002F28
:10C650005DD094F85120C4F83880042A1CBF05220C
:10C6600084F8512000226265C4E910222268E7871D
:10C67000E7861168A7874906C4F83090A78603D4D7
:10C68000116841F040011160E168B1F5006F4ED0D2
:10C69000002B3ED0012F3CD00127E38E9BB21BB96B
:10C6A000E38F9BB2002B7FD02268936899070FD548
:10C6B000E38E9BB263B15FB1236B1B781373E38E80
:10C6C000226B013B01329BB222632268E386002782
:10C6D000936813F001030DD0E18F89B251B11F4669
:10C6E000A36BD2681A70A36B0133A363E38F013B82
:10C6F0009BB2E387FDF774FC801BA84214D36A1C2D
:10C70000CBD003208FE7022003B0BDE8F0830120E7
:10C7100089E799F800301373E38E226B013B0132F5
:10C720009BB22263E386B7E7002DB6D1E9E7002B81
:10C730006CD1494631F8023BD360E38E2163013B63
:10C740009BB2E3866A1C4FF0010725D061E02268A6
:10C7500093689B070DD5E38E9BB253B14FB1216B0C
:10C7600031F8023BD360E38E2163013B9BB200278B
:10C77000E386936813F001030CD0E18F89B249B1CD
:10C78000D168A26B22F8021B1F46E38FA263013B14
:10C790009BB2E387FDF724FCE38E9BB2002BD6D13E
:10C7A000E38F9BB2002BD2D1334B344A1B68A2FBE0
:10C7B00003235B0D4FF47A7202FB03F3626801936B
:10C7C000B2F5827F14D133462A4680212046FFF7F6
:10C7D0004BFE80B1636D20221343636501206265C7
:10C7E00021E7019B2268013B019393681B0602D558
:10C7F000019B002BF5D1A06800283AD12368009056
:10C80000DA6800929B680093009B0CE7012F99D196
:10C810008FE7E38E9BB21BB9E38F9BB2002BC3D093
:10C820002268936898070DD5E38E9BB253B14FB140
:10C83000236B33F8021BD1602363E38E013B9BB271
:10C840000027E386936813F001030CD0E18F89B2CF
:10C8500049B1D168A26B22F8021B1F46E38FA26385
:10C86000013B9BB2E387FDF7BBFB801BA842D0D303
:10C8700047E70020D7E600BF00000020819F5E163A
:10C8800090F85100704700BF002800F0878010B575
:10C8900090F83D30044603F0FF02002B79D0226867
:10C8A0003F49022384F83D308A4213685DD0B2F1DB
:10C8B000804F31D0A1F57C418A422DD001F58061B5
:10C8C0008A4229D001F580618A4225D001F578415C
:10C8D0008A424AD001F570518A4221D001F5806127
:10C8E0008A421DD001F580618A4219D0A1F59831A4
:10C8F0008A4215D001F580618A4211D001F580612C
:10C900008A420DD0A069E16823F0800303431360DD
:10C910006368D162936210E0A16823F070030B4357
:10C920002069A16923F44073034323F08003E06886
:10C930000B4361681360D06291620123536184F8F4
:10C94000463084F83E3084F83F3084F8403084F834
:10C95000413084F8423084F8433084F8443084F81D
:10C96000453084F83D30002010BDA068216923F0D7
:10C970007003034323F440730B43A16923F0800346
:10C980000B431360E368D362636893626369136364
:10C99000D3E780F83C20FDF7D9F980E70120704704
:10C9A0000000014090F83D30012B2CD10368184A5B
:10C9B0000221934280F83D101AD0B3F1804F17D076
:10C9C000A2F57C42934213D002F5806293420FD0CD
:10C9D00002F5806293420BD002F57842934207D071
:10C9E00002F57052934203D0A2F59432934204D1DF
:10C9F0009A6802F00702062A07D01A6842F001027C
:10CA000000201A607047012070470020704700BF67
:10CA10000000014090F83D30012B2FD103681949E7
:10CA2000022280F83D20DA688B4242F00102DA608F
:10CA300019D0B3F1804F16D0134A934213D002F5A8
:10CA4000806293420FD002F5806293420BD002F5D0
:10CA50007842934207D002F57052934203D0A2F578
:10CA60009432934204D19A6802F00702062A07D052
:10CA70001A6842F0010200201A60704701207047D6
:10CA8000002070470000014000040040704700BFD4
:10CA9000002800F0878010B590F83D30044603F080
:10CAA000FF02002B79D022683F49022384F83D30F1
:10CAB0008A4213685DD0B2F1804F31D0A1F57C413C
:10CAC0008A422DD001F580618A4229D001F580612A
:10CAD0008A4225D001F578418A424AD001F5705149
:10CAE0008A4221D001F580618A421DD001F5806122
:10CAF0008A4219D0A1F598318A4215D001F580619A
:10CB00008A4211D001F580618A420DD0A069E168A6
:10CB100023F08003034313606368D162936210E0E3
:10CB2000A16823F070030B432069A16923F44073CB
:10CB3000034323F08003E0680B4361681360D06215
:10CB400091620123536184F8463084F83E3084F8C2
:10CB50003F3084F8403084F8413084F8423084F823
:10CB6000433084F8443084F8453084F83D30002068
:10CB700010BDA068216923F07003034323F44073C0
:10CB80000B43A16923F080030B431360E368D36276
:10CB90006368936263691363D3E780F83C20FFF70F
:10CBA00075FF80E7012070470000014090F83C309D
:10CBB000012B00F0A9800123F0B480F83C300C2A4E
:10CBC00008D8DFE802F035070707580707077D0791
:10CBD00007070E00002280F83C2001231846F0BC15
:10CBE000704702680E68136A23F480531362146A54
:10CBF0005568D36923F4E64343EA06238E6824F498
:10CC0000005444EA06345C4EB24200F09F8006F5C0
:10CC10008066B24200F09A8049685560D361116421
:10CC20001462002280F83C2000231846F0BC7047B4
:10CC300002680E68136A23F001031362146A5568D0
:10CC4000936923F0730333438E6824F00204344362
:10CC5000494EB2425BD006F58066B24257D0496871
:10CC60005560936151631462002280F83C200023D8
:10CC70001846F0BC704702680E68136A23F0100370
:10CC80001362146A5568936923F4E64343EA062362
:10CC90008E6824F0200444EA0614374EB24245D090
:10CCA00006F58066B24241D0496855609361916350
:10CCB0001462002280F83C2000231846F0BC704724
:10CCC00002680E68136A23F480731362146A55684D
:10CCD000D36923F0730333438E6824F4007444EA69
:10CCE0000624254EB24237D006F58066B24233D0D4
:10CCF00049685560D361D1631462002280F83C20FA
:10CD000000231846F0BC7047022318467047CE68CF
:10CD100024F008043443D1E9057625F4407547EA48
:10CD2000060C24F004044CEA050598E7CE6824F0CC
:10CD3000800444EA0614D1E9057625F4406547EA03
:10CD4000060C24F0400445EA8C05ADE74E6925F455
:10CD5000804545EA86155FE7CE6824F4006444EA1E
:10CD60000624D1E9057625F4405547EA060C24F45B
:10CD7000806445EA0C15BBE70000014090F83C30A8
:10CD8000012B75D0024630B40223046882F83D308E
:10CD9000012082F83C00A36823F47F4323F077034B
:10CDA000A3600B68602B65D024D8402B7CD04BD976
:10CDB000502B17D14868CD68216A236A23F00103FC
:10CDC0002362A36921F00A0123F0F003014343EA3F
:10CDD0000513A3612162A36823F0700343F0570396
:10CDE0000020A3600121002382F83D1082F83C302E
:10CDF00030BC7047B3F5805F38D0B3F5005F10D119
:10CE0000D1E90153A0682B43CD6820F47F4143EA68
:10CE100005230B43A360A36843F480430020A36071
:10CE2000E0E7702BDED1D1E90153A0682B43CD6838
:10CE300020F47F4143EA05230B43A360A36843F03A
:10CE400077030020A360CDE7202B02D00AD9302B36
:10CE5000C8D1A16821F070010B4343F00703002003
:10CE6000A360BFE733F01001BCD1F2E70020B9E7BF
:10CE700002207047206ACB684D6820F010002062C5
:10CE8000A16921F4704141EA0331236AA16123F0D1
:10CE9000A00343EA05132362A36823F0700343F061
:10CEA00067030020A3609DE74868CD68216A236A74
:10CEB00023F001032362A36921F00A0123F0F003A8
:10CEC000014343EA0513A3612162A36823F07003C1
:10CED00043F047030020A36084E700BF90F83C20A4
:10CEE000012A50D0034670B40222046883F83D2022
:10CEF000012083F83C00A26848680D6822F07002A7
:10CF0000024322F007022A435028A26060D00FD9C2
:10CF100060283AD070280ED1D1E90252A0682A4385
:10CF20000D6920F47F4142EA05220A43A2600FE026
:10CF300040283DD007D90120002283F83D0083F826
:10CF40003C2070BC7047202802D012D93028F2D182
:10CF5000E26822F04002E260E2680021012522F44A
:10CF60008042E26083F83D5083F83C10084670BC74
:10CF7000704730F01002EBD00120002283F83D0012
:10CF800083F83C20DDE702207047206A0A698D683B
:10CF900020F010002062A16921F4704141EA0231C1
:10CFA000226AA16122F0A00242EA05122262CFE7C2
:10CFB000052DC0D0256A206A0E6920F0010020628C
:10CFC000A26922F0F00242EA0612A2612562BFE7DE
:10CFD00088680D69216A21F00A010143206A20F066
:10CFE00001002062A26922F0F00242EA0512A26169
:10CFF0002162ADE7704700BF704700BF704700BFB8
:10D00000704700BF03681A69910710B5044602D53E
:10D01000DA6892075FD41A69500702D5DA685107B7
:10D0200046D41A69120702D5DA6810072ED41A6995
:10D03000D20602D5DA68D00618D41A69D10702D50B
:10D04000DA68D2075DD41A69100602D5DA681106CB
:10D050005FD41A69520602D5DA68500661D41A699B
:10D06000910602D5DA68920643D410BD6FF0100124
:10D07000082219612277DB6913F4407F204664D0CF
:10D08000FFF7BAFF002223682277D6E76FF0080186
:10D09000042219612277DB699907204652D1FFF7F4
:10D0A000A9FF2046FFF7AAFF002223682277BEE7E8
:10D0B0006FF004010222196122779B6913F4407F0B
:10D0C00020463CD1FFF796FF2046FFF797FF00224E
:10D0D00023682277A5E76FF0020101221961027728
:10D0E0009B699B0725D0FFF787FF002223682277E3
:10D0F00091E76FF0200220461A61BDE8104000F071
:10D100006BB86FF001021A612046FCF7E5FA23685C
:10D1100099E76FF080021A61204600F05FF82368FB
:10D1200097E76FF040021A612046FFF769FF236816
:10D1300095E7FFF75FFF2046FFF760FFD5E7FFF7B2
:10D140005BFFC4E7FFF758FFAEE7FFF753FF20464A
:10D15000FFF754FF96E700BF90F83C30012B37D023
:10D160000368022230B480F83D205A680D689C683C
:10D1700022F070022A435A60164A93421AD0B3F141
:10D18000804F17D0A2F57C42934213D002F5806203
:10D1900093420FD002F5806293420BD002F57842A1
:10D1A000934207D002F57052934203D0A2F5943215
:10D1B000934204D14A6824F0800414439C60002305
:10D1C000012280F83D2080F83C3030BC1846704782
:10D1D0000220704700000140704700BF704700BF49
:10D1E000002800F08F8038B590F83D30044603F0F9
:10D1F000FF02002B00F081802368E068242284F87D
:10D200003D20DA6822F40052DA601969A26821F43C
:10D21000405101432069196102436069D9680243A2
:10D22000E06921F4164121F00C0102430A43DA605F
:10D230005A69A069344922F4407202438B425A6110
:10D2400035D0324A934232D0FEF76EFCE369B3F533
:10D25000004F32D0636819219A00A0FB01019B0F97
:10D26000FBF76AFC2A49A1FB00325209642505FB41
:10D270001200000132302368A1FB0010120102EB02
:10D28000501098601A6922F490421A615A6922F08B
:10D290002A025A61DA680025202142F40052DA603D
:10D2A000256484F83D1084F83E10284638BDFEF70A
:10D2B0004BFCE369B3F5004FCCD162681921921899
:10D2C0004FF000035B41A0FB0101FBF735FC104B65
:10D2D000A3FB00214D09642202FB1502D200323269
:10D2E000A3FB0232C2F342111209236801EB0511BC
:10D2F00002F4F8720A449A60C4E780F83C20FCF714
:10D30000A3FD79E70120704700100140001401409F
:10D310001F85EB51F8B5044690F83D00202835D123
:10D3200091B38AB394F83C0001282FD00120E28405
:10D3300084F83C00A284606BDFF85CC0144F154E8B
:10D3400021621346226800254FF0210E2564043225
:10D3500084F83DE0C0E90FC7C0E91365FCF77CFF26
:10D3600022686FF04003136084F83C5002F114030C
:10D3700053E8003F43F0800302F1140040E800311D
:10D380000029F3D10020F8BD0120F8BD0220F8BD2E
:10D39000F1D3000805D40008A1D30008704700BFEE
:10D3A00008B50368806B1B6813F480731AD1026898
:10D3B000C38402F1140353E8003F23F0800302F119
:10D3C000140040E800310029F3D102F10C0353E8C6
:10D3D000003F43F0400302F10C0040E80031002917
:10D3E000F3D108BDFFF7DAFF08BD00BF704700BFEB
:10D3F00008B5806BFFF7FAFF08BD00BF704700BF9C
:10D40000704700BF08B5806B0368596990F83D20EC
:10D41000212A0BD0596990F83E20222A1ED0036C95
:10D4200043F010030364FFF7EBFF08BD0906F1D5D5
:10D430000022C28403F10C0252E8002F22F0C00245
:10D4400003F10C0C4CE800210029F3D1202280F8D4
:10D450003D20596990F83E20222AE0D14A06DED5C7
:10D460000022C28503F10C0252E8002F22F49072D0
:10D4700003F10C0C4CE800210029F3D103F1140254
:10D4800052E8002F22F0010203F1140C4CE80021B5
:10D490000029F3D1026B012A05D02022002380F855
:10D4A0003E200363BBE703F10C0252E8002F22F099
:10D4B000100203F10C0C4CE800210029F3D1ECE739
:10D4C00008B5806B0023C385C384FFF799FF08BDAF
:10D4D000704700BF8368B3F5805F44D0826A002B39
:10D4E00039D003685B6803F07F031370836A0133EC
:10D4F0008362C38D013B9BB2C385002B32D102688E
:10D50000D16821F0200100B5D160D16821F480718B
:10D51000D16051694FF0200C21F00101516180F878
:10D520003EC0016B012983B028D1036302F10C03D3
:10D5300053E8003F23F0100302F10C0C4CE80031DB
:10D540000029F3D11368DB0622D4818DFFF7C0FFD9
:10D5500003B05DF804FB0369002BC2D103685B686C
:10D560001370C3E7704703696BB90268836A526836
:10D57000C2F3080223F8022B8362BAE7FFF73EFFEB
:10D5800003B05DF804FB0368826A5B681370ADE763
:10D59000002301931368019353680193019BD4E71F
:10D5A00030B503681A68D9685D6912F00F0F83B04F
:10D5B00004466ED1950602D58D0600F1B180206B30
:10D5C00001280BD0100602D50D0600F1B3805006DD
:10D5D00002D54A0600F1CD8003B030BDD506F1D5A5
:10D5E000C806EFD5002201921A6801925A6801928A
:10D5F000019A5A69550640F11681A06B026852687B
:10D6000092B2002AE8D0A18D9142E5D9E285C269A3
:10D61000B2F5807F36D003F10C0252E8002F22F4DD
:10D62000807203F10C0545E800210029F3D103F1D4
:10D63000140252E8002F22F0010203F1140545E81C
:10D6400000210029F3D103F1140252E8002F22F047
:10D65000400203F1140545E800210029F3D12022FE
:10D6600084F83E20216303F10C0252E8002F22F0DF
:10D67000100203F10C0545E800210029F3D1FCF765
:10D680002BFEA18DE38DC91A204689B2FFF720FF3A
:10D69000A2E705F0010501F4907028438FD0D00770
:10D6A00005D5C80503D5206C40F001002064500763
:10D6B00031D54DB1206C40F002002064900703D5B5
:10D6C000206C40F004002064100707D501F0200012
:10D6D000284303D0206C40F008002064206C002810
:10D6E0003FF47AAF900609D5890607D594F83E2015
:10D6F000222A03D12046FFF7EDFE23685A69256CE4
:10D7000002F0400205F0080515433DD12046FFF721
:10D7100077FE256460E79007D6D5002DD0D1D3E7FA
:10D7200090F83E30222B7FF457AF03B0BDE8304075
:10D73000FFF7D0BE94F83D20212A7FF44DAFA268B8
:10D74000B2F5805F00F0A880226A511C2162127835
:10D750005A60E28C013A92B2E284002A7FF43CAF34
:10D76000DA6822F08002DA60DA6842F04002DA60B9
:10D7700032E7DA68202122F04002DA60204684F89D
:10D780003D10FFF70BFE27E703F10C0252E8002FD4
:10D7900022F4907203F10C0040E800210029F3D13B
:10D7A00003F1140252E8002F22F0010203F11400E9
:10D7B00040E800210029F3D1226B012A22D0002267
:10D7C000202184F83E1022635A69520627D503F1BE
:10D7D000140252E8002F22F0400203F1140040E846
:10D7E00000210029F3D1A06BC8B1314B0365FCF7D0
:10D7F000BBFD00283FF4F0AEA06B036D03B0BDE8A5
:10D800003040184703F10C0252E8002F22F01002BA
:10D8100003F10C0040E800210029F3D1CFE72046B6
:10D82000FFF7EEFDD8E6E18DE28D92B289B2002AD3
:10D830003FF4D2AEA28D511A89B200293FF4CCAE8A
:10D8400003F10C0252E8002F22F4907203F10C0550
:10D8500045E800200028F3D103F1140252E8002F1C
:10D8600022F0010203F1140545E800200028F3D15D
:10D87000202284F83E20206303F10C0252E8002F9E
:10D8800022F0100203F10C0545E800200028F3D136
:10D890002046FFF71DFE9FE62269002A7FF454AF61
:10D8A000226A32F8021BC1F308015960226250E774
:10D8B000C1D4000810B502F06DFD20B1BDE81040E4
:10D8C000D0E90030184710BD08B54FF0E0231B69C0
:10D8D00002F058F9012800D108BDBDE8084002F067
:10D8E00041BE00BFEFF305832BB9064B186828B97A
:10D8F00001221A6070476FF0050070474FF0FF304B
:10D90000704700BF9873002010B5EFF3058474B919
:10D91000084B1A68012A07D107490222CC771A60FE
:10D9200001F006FF204610BD4FF0FF3010BD6FF034
:10D93000050010BD9873002000ED00E0F0B587B041
:10D94000002415460594EFF30582EAB950B3F5B10A
:10D95000AB695BBB18236A68D20723D46E694EB3E8
:10D960004FEA960CAC682F684CB3EA68BB2A19D909
:10D970002D69BDB1B6B1CDE90154009362460B46A5
:10D98000394601F069FE0446204607B0F0BD80220A
:10D99000182305AC009301940B46294601F096FE2E
:10D9A00001280AD00024204607B0F0BD5C1E372CA9
:10D9B000D1D9F7E74FF0800CD4E7059CE4E7EE6897
:10D9C000002EE1D12D69002DDED11FFA8CF23D46EB
:10D9D000DFE700BF2DE9F0411C4682B0EFF305837D
:10D9E000BBB90546A8B108200E46904602F0B2FE2B
:10D9F000074670B1321EC0E9005818BF0122E4B1D9
:10DA0000A3682068ABB1E1682B2906D8384602F03C
:10DA1000CDFE002002B0BDE8F0810D49CDE9001334
:10DA20003B46012102F000FC0028EFD002B0BDE827
:10DA3000F081E368002BE9D10446054B00930121F6
:10DA40003B46204602F088FB0028EFD1DEE700BF0E
:10DA5000B5D80008EFF3058373B910B582B070B183
:10DA60000A460093042102F05FFC01280CBF00204D
:10DA70006FF0020002B010BD6FF0050070476FF04C
:10DA80000300F7E770B5EFF30583DBB90446E0B1B7
:10DA90004668330716D48168C36806F0010681B171
:10DAA0004F2B0FD9DEB1042000F052FD05464DB1D9
:10DAB0002168284601F082FA2EB145F0010528467A
:10DAC00070BD8BB10025284670BD012000F0B0FD6F
:10DAD00005460028F6D0214601F070FAF3E7012050
