:020000040800F2
:100000000000022041070008190700081B0700082C
:100010001D0700081F070008210700080000000056
:10002000000000000000000000000000230700089E
:10003000250700080000000027070008290700081E
:100040009107000891070008910700089107000830
:100050009107000891070008910700089107000820
:100060009107000891070008910700089107000810
:100070009107000891070008910700089107000800
:1000800091070008910700089107000891070008F0
:1000900091070008910700089107000891070008E0
:1000A00091070008910700089107000891070008D0
:1000B00091070008910700089107000891070008C0
:1000C00091070008910700089107000891070008B0
:1000D00091070008910700089107000891070008A0
:1000E0009107000891070008910700089107000890
:1000F0009107000891070008910700089107000880
:10010000910700089107000891070008910700086F
:10011000910700089107000891070008910700085F
:10012000910700089107000891070008910700084F
:10013000910700080000000000000000910700087F
:10014000910700089107000891070008910700082F
:10015000910700089107000891070008910700081F
:10016000910700089107000891070008910700080F
:10017000910700089107000891070008000000009F
:1001800000000000910700080000000000000000CF
:10019000910700080000000000000000910700081F
:1001A00000000000000000000000000091070008AF
:1001B00091070008910700089107000891070008BF
:0401C000910700089B
:1001C40010B5054C237833B9044B13B10448AFF38D
:1001D40000800123237010BDBC000020000000003B
:1001E400F01E000808B5034B1BB103490348AFF3E5
:1001F400008008BD00000000C0000020F01E0008C0
:1002040053B94AB9002908BF00281CBF4FF0FF3179
:100214004FF0FF3000F074B9ADF1080C6DE904CE75
:1002240000F006F8DDF804E0DDE9022304B07047CD
:100234002DE9F047089D04468E46002B4DD18A4295
:10024400944669D9B2FA82F252B101FA02F3C2F1C8
:10025400200120FA01F10CFA02FC41EA030E944059
:100264004FEA1C48210CBEFBF8F61FFA8CF708FB7A
:1002740016E341EA034306FB07F199420AD91CEB52
:10028400030306F1FF3080F01F81994240F21C8184
:10029400023E63445B1AA4B2B3FBF8F008FB1033CC
:1002A40044EA034400FB07F7A7420AD91CEB040401
:1002B40000F1FF3380F00A81A74240F207816444D1
:1002C400023840EA0640E41B00261DB1D440002356
:1002D400C5E900433146BDE8F0878B4209D9002DBA
:1002E40000F0EF800026C5E9000130463146BDE844
:1002F400F087B3FA83F6002E4AD18B4202D38242AE
:1003040000F2F980841A61EB030301209E46002D5C
:10031400E0D0C5E9004EDDE702B9FFDEB2FA82F2B1
:10032400002A40F09280A1EB0C014FEA1C471FFA0F
:100334008CFE0126200CB1FBF7F307FB131140EAF6
:1003440001410EFB03F0884208D91CEB010103F1C3
:10035400FF3802D2884200F2CB804346091AA4B285
:10036400B1FBF7F007FB101144EA01440EFB00FE59
:10037400A64508D91CEB040400F1FF3102D2A645BE
:1003840000F2BB800846A4EB0E0440EA03409CE75D
:10039400C6F12007B34022FA07FC4CEA030C20FA0A
:1003A40007F401FA06F31C43F9404FEA1C4900FA2A
:1003B40006F3B1FBF9F8200C1FFA8CFE09FB1811A7
:1003C40040EA014108FB0EF0884202FA06F20BD91A
:1003D4001CEB010108F1FF3A80F08880884240F26A
:1003E4008580A8F102086144091AA4B2B1FBF9F0AE
:1003F40009FB101144EA014100FB0EFE8E4508D9A9
:100404001CEB010100F1FF346CD28E456AD902382D
:10041400614440EA0840A0FB0294A1EB0E01A14212
:10042400C846A64656D353D05DB1B3EB080261EB80
:100434000E0101FA07F722FA06F3F1401F43C5E95A
:10044400007100263146BDE8F087C2F12003D84090
:100454000CFA02FC21FA03F3914001434FEA1C47D2
:100464001FFA8CFEB3FBF7F007FB10360B0C43EAC4
:10047400064300FB0EF69E4204FA02F408D91CEB74
:10048400030300F1FF382FD29E422DD90238634472
:100494009B1B89B2B3FBF7F607FB163341EA034112
:1004A40006FB0EF38B4208D91CEB010106F1FF3861
:1004B40016D28B4214D9023E6144C91A46EA004658
:1004C40038E72E46284605E70646E3E61846F8E6EA
:1004D4004B45A9D2B9EB020864EB0C0E0138A3E733
:1004E4004646EAE7204694E74046D1E7D0467BE714
:1004F400023B614432E7304609E76444023842E78C
:10050400704700BF10B594B01422002108A801F070
:10051400E5FC1422002102A801F0E0FC00221E4B9D
:100524000092196C41F0805119641B6C1B4903F053
:1005340080530093009B01920B6823F4404343F4DF
:1005440080430B600B6803F4404301930121019B3A
:1005540010230224CDE90A130F9307A88023CDE9C1
:100564000D42CDE91034CDE91244079400F092FD18
:10057400014608B172B6FEE70F23CDE90234902399
:10058400CDE90430069002A800F0D2FB08B172B69F
:10059400FEE714B010BD00BF0038024000700040F8
:1005A40000B589B000F018F9FFF7ACFF1422002160
:1005B40003A801F093FC0024274B01941A6B2748ED
:1005C40042F002021A631A6B02F002020192019ACB
:1005D40002941A6B42F001021A631B6B03F00103CD
:1005E400029301224FF48051029B00F09BFB0123F4
:1005F4001A484FF4805203A9CDE90323CDE90544F9
:1006040000F0BCFA1648174904614FF4E133C0E91D
:1006140000130C23C0E90244C0E90534C46100F0AE
:1006240095FF08B172B6FEE701F070F80E4D0F4C5D
:1006340000F0F8F8B0F57A7F0AD92B7843B96668E8
:1006440000F07EFC62B6236883F30888B047EFE7C6
:1006540001F07AF8ECE700BF0038024000040240E1
:10066400D80000200010014048010020008000084C
:1006740082B00C4B002100915A6C42F480425A64BF
:100684005A6C02F480420092009A01911A6C42F072
:1006940080521A641B6C03F080530193019B02B0D7
:1006A400704700BF0038024010B5044688B01422D9
:1006B400002103A801F012FC2268144B9A4223D1B2
:1006C40003F59433002101915A6C114842F0100251
:1006D4005A645A6C02F010020192019A02911A6B48
:1006E40042F001021A631B6B03F001030293029BA5
:1006F4004FF4C06202230321CDE903230723CDE98C
:10070400061303A900F03AFA08B010BD0010014026
:1007140000000240FEE7FEE7FEE7FEE7FEE7704763
:100724007047704700F072B8034AD2F8883043F437
:100734007003C2F88830704700ED00E0DFF834D071
:100744000D480E490E4A002302E0D458C450043325
:10075400C4188C42F9D30B4A0B4C002301E01360FC
:100764000432A242FBD3FFF7DFFF01F093FBFFF754
:1007740017FF70470000022000000020BC0000208A
:100784003C1F0008BC00002078060020FEE70000A3
:1007940038B50E4A0E4B054618784FF47A73B3FBFE
:1007A400F0F31068B0FBF3F000F086F8044658B993
:1007B4000F2D09D8024629464FF0FF3000F04AF8C1
:1007C400044B20461D6038BD0120FCE700000020DA
:1007D400040000200800002008B50B4B1A6842F4FE
:1007E40000721A601A6842F480621A601A6842F44D
:1007F40080721A60032000F01BF80F20FFF7C8FF77
:10080400FFF736FF002008BD003C0240034A044BBA
:1008140011681B780B441360704700BF1C01002053
:1008240004000020014B1868704700BF1C01002021
:100834000749CA6822F4E0620302120403F4E06385
:10084400120C134343F0BF6343F40033CB6070478F
:1008540000ED00E0164B30B5DC68C4F30224C4F1AB
:100864000705231D042D28BF0425062B4FF0FF3355
:100874008CBF033C002403FA05F521EA0501A340DB
:1008840022EA0302A140002841EA0203ACBF00F1BE
:100894006040084A4FEA0313B8BF00F00F00DBB210
:1008A400AABF00F56140135480F8003330BD00BF87
:1008B40000ED00E014ED00E00138B0F1807F0BD2D0
:1008C4004FF0E023054A5861F02182F823100020FC
:1008D400072298611A6170470120704700ED00E01B
:1008E400094910B50C6924F440740C610C6944F492
:1008F40040740C610C6944F001040C610260BFF3A4
:100904006F8F436010BD00BF003C0240074B1A6963
:1009140022F440721A611A6942F400721A611A6967
:1009240042F001021A610160704700BF003C0240BE
:10093400074B1A6922F440721A611A6942F48072F0
:100944001A611A6942F001021A610180704700BFFE
:10095400003C0240204BDA68D00606D51F49CA691C
:1009640042F01002CA611022DA60DA68910606D5F4
:100974001A49CA6942F00802CA612022DA60164B99
:10098400DA68520606D51549CA6942F00402CA61FA
:100994004022DA60DA68100606D51049CA6942F0C6
:1009A4000202CA618022DA600B4BDA68D10507D5EE
:1009B4000A49CA6942F00102CA614FF48072DA60DE
:1009C400DA68920706D50549CA6942F02002CA616D
:1009D4000222DA60704700BF003C02402001002080
:1009E400064B1A69002ABFBF054A5A6002F18832D1
:1009F4005A60BABF1869C00F00207047003C02401B
:100A040023016745034A136943F00043136100203F
:100A1400704700BF003C0240064B5A69D20741BFF1
:100A2400054A9A6002F1443200204CBF9A600120CA
:100A3400704700BF003C02403B2A1908114B70B5B7
:100A440000220446DA61FFF7EDFE0F4D0646EB681F
:100A5400DA030CD4EB68DB0744BF0123EB60E868DE
:100A640010F4F97007D0FFF775FF012003E0611C53
:100A7400EDD00CB9032070BDFFF7D4FE801BA0425B
:100A8400E5D9F7E720010020003C0240F7B5204EED
:100A940001931446327E012A07460D4635D00122C1
:100AA4004CF250303276FFF7C9FFB8B9019BCFB989
:100AB400184B1A6922F440721A611A691A611A6988
:100AC400E4B242F001021A612C704CF25030FFF78C
:100AD400B5FF104A136923F0010313610023337631
:100AE40003B0F0BD012F04D1A1B22846FFF720FFC7
:100AF400EBE7022F04D121462846FFF707FFE4E77E
:100B040022462846FFF7ECFEDFE70220E8E700BFB5
:100B140020010020003C0240044A137D43F00203FC
:100B240013754CF25030FFF789BF00BF003C024000
:100B340039B101291CD002290CBF4FF400714FF4C4
:100B440040710D4B1A6922F440721A611A691143FB
:100B540019611A6922F0F8021A611A6942EAC0009E
:100B640040F0020018611A6942F480321A61704739
:100B74004FF48071E5E700BF003C02402DE9F74FD8
:100B8400DFF89C91644A00230D6801249C4004EA28
:100B9400050CAC4340F0AD804D6805F003044FEA0A
:100BA40043080326671E06FA08F6012F6FEA0606B5
:100BB40034D8876807EA060ECF6807FA08F747EAC9
:100BC4000E078760476827EA0C0EC5F300179F409D
:100BD40047EA0E074760C76807EA060E8F6807FAF8
:100BE40008F747EA0E07022CC76019D14FEAD30A67
:100BF40000EB8A0A03F0070BDAF820704FEA8B0B3C
:100C04004FF00F0E0EFA0BFE27EA0E0E0F6907FACD
:100C14000BF747EA0E07CAF8207001E0032CDAD17B
:100C2400076804FA08F43E40264315F4403F066082
:100C34005FD04FF0000ACDF804A0D9F84460374CD7
:100C440046F48046C9F84460D9F8446006F4804606
:100C54000196019E23F0030606F1804606F59C36B4
:100C640003F0030ED6F808804FEA8E0E0F2707FA1A
:100C74000EF7A04228EA070742D004F58064A04298
:100C840040D004F58064A0423ED004F58064A042C4
:100C94003CD004F58064A0423AD004F58064A042BC
:100CA40038D004F58064A0420CBF0624072404FA5B
:100CB4000EF43C43B46094686FEA0C06EF0254BF30
:100CC40034404CEA04049460D468AF0254BF344006
:100CD4004CEA0404D4605468AF0354BF34404CEA73
:100CE400040454601468ED0354BF34404CEA040413
:100CF40014600133102B7FF447AF03B0BDE8F08FCD
:100D04005446D4E70124D2E70224D0E70324CEE7F3
:100D14000424CCE70524CAE7003C0140000002405B
:100D2400003802400AB1816170470904FBE7000002
:100D34002DE9F0410D46044610B90120BDE8F081CB
:100D4400444B1A6802F00F028A4228D3226897079C
:100D54002DD4D00741D43F4B1A6802F00F02AA42A7
:100D640066D8226851076CD4130707D53A4A21691B
:100D7400936823F4604343EAC103936000F094F85A
:100D8400354B364A9B68C3F30313D35CD840344BCA
:100D94001860344B1868FFF7FBFC0020CEE7CAB29A
:100DA4001A701B6803F00F038B42C6D1CEE72A4B9F
:100DB40012F0040F1EBF996841F4E05199601607C0
:100DC40042BF996841F4604199602349A0688B68E7
:100DD40023F0F00303438B60BBE762681E4B012AD8
:100DE4001CD11B6813F4003FA7D01B4EB36823F03B
:100DF40003031343B360FFF715FD41F28838074638
:100E0400B368626803F00C03B3EB820FA3D0FFF75F
:100E140009FDC01B4045F3D903208FE7911E01292A
:100E24001B6802D813F0007FDEE713F0020FDBE744
:100E3400EAB21A701B6803F00F03AB427FF47DAF74
:100E44008FE70549E0688B6823F4E05303438B6024
:100E54008AE700BF003C024000380240131F00082C
:100E64000000002008000020044B054A9B68C3F3DF
:100E74008223D35C034A1068D8407047003802408C
:100E8400231F000800000020044B054A9B68C3F39D
:100E94004233D35C034A1068D8407047003802409C
:100EA400231F00080000002010B5234CA36803F0A2
:100EB4000C03082B03D00C2B21D0204810BD6268F2
:100EC40063681E4813F4800315BF61686468C1F346
:100ED4008811C4F3881418BF002302F03F0214BF22
:100EE400A1FB0001A4FB0001FFF78AF9124B5B6828
:100EF400C3F3014301335B00B0FBF3F0DEE7626848
:100F040063680E4813F4800315BF61686468C1F315
:100F14008811C4F3881418BF002302F03F0214BFE1
:100F2400A1FB0001A4FB0001FFF76AF9024B5B6817
:100F3400C3F30273E0E700BF003802400024F4006A
:100F440070B54F4CFFF76EFC236843F00103054670
:100F5400236023689E076ED5236843F080032360D3
:100F6400FFF760FC0023A360454C054641F2883638
:100F7400A36813F00C0F65D1FFF754FC236823F426
:100F8400502323603E4C05462368980360D4FFF742
:100F940049FC236823F080732360394C0546236899
:100FA40099015BD4FFF73EFC236823F08063236040
:100FB400334C054623681A0156D4FFF733FC2368E3
:100FC40023F0805323602E4C054623689B0051D4A4
:100FD4002C4B6360C4F8843003F16043C4F8883058
:100FE400E368294A23F4F853E360E36823F40053E5
:100FF400E360E36823F48043E360E36843F41F039E
:10100400E360E36843F40013E360E36843F48003BC
:10101400E360636F23F001036367636F43F08073DE
:1010240063671A4B1A601A4B1868FFF7B1FB003854
:1010340018BF012005E0FFF7F5FB401B022888D903
:10104400032070BDFFF7EEFB401BB04290D9F7E7D9
:10105400FFF7E8FB401B642896D9F1E7FFF7E2FBB2
:10106400401B02289BD9EBE7FFF7DCFB401B02285F
:10107400A0D9E5E7FFF7D6FB401B0228A5D9DFE797
:1010840000380240103000240024F4000000002046
:10109400080000202DE9F3410446002830D00368FD
:1010A400DF0710D423689E0763D423681A0700F16E
:1010B400AD8023685B0700F1CD80A069002840F073
:1010C4003581002034E0964B9A6802F00C02042A21
:1010D4000FD09A6802F00C02082A02D15A6855020D
:1010E40007D49A6802F00C020C2A0BD15B685802F0
:1010F40008D58B4B1B689903D4D56368002BD1D1D9
:10110400012015E06368864DB3F5803F13D12B6849
:1011140043F480332B60FFF785FB814E054633682B
:101124009A03BFD4FFF77EFB401B6428F7D9032042
:1011340002B0BDE8F081B3F5A02F04D12B6843F4CD
:1011440080232B60E3E72A6822F480322A602A682D
:1011540022F480222A60002BDDD1FFF763FB0646D0
:101164002B689B039ED5FFF75DFB801B6428F7D992
:10117400DDE76B4B9A6812F00C0F0FD09A6802F0FF
:101184000C02082A02D15A68570207D59A6802F05D
:101194000C020C2A11D15B685E020ED4604A1368FB
:1011A4009D0702D5E368012BAAD11368216923F0B6
:1011B400F80343EAC103136077E7E268594BB2B11D
:1011C40001221A60FFF72EFB554D06462B6898073F
:1011D40007D52B68226923F0F80343EAC2032B6086
:1011E40063E7FFF71FFB801B0228EFD99FE71A6014
:1011F400FFF718FB4A4E0546336899077FF555AF4C
:10120400FFF710FB401B0228F6D990E76269454BB3
:1012140082B10122C3F8802EFFF704FB404E05463D
:10122400736F9F073FF545AFFFF7FCFA401B022899
:10123400F6D97CE7C3F8802EFFF7F4FA384E05465A
:10124400736F98077FF535AFFFF7ECFA401B022860
:10125400F6D96CE7324B1A6C12F0805228D1019205
:101264001A6C42F080521A641B6C03F08053019391
:10127400019B01272C4D2B68D9051BD5A368284D4C
:10128400012B27D12B6F43F001032B67FFF7CAFA19
:10129400234E054641F28838336F9B0739D5002F1A
:1012A4003FF40BAF1E4A136C23F08053136404E71E
:1012B4000027DFE72B6843F480732B60FFF7B2FA53
:1012C40006462B68DA05D9D4FFF7ACFA801B02284E
:1012D400F7D92CE7052B04D12B6F43F004032B67BC
:1012E400D0E72A6F22F001022A672A6F22F0040253
:1012F4002A67002BCAD1FFF795FA41F288380646CF
:101304002B6F9807CBD5FFF78DFA801B4045F7D993
:101314000DE7FFF787FA401B4045BDD907E700BF3B
:101324000038024000004742007000403B4DAB686B
:1013340003F00C03082B40D0394B002202281A6614
:101344002ED1FFF76FFA06462B68990122D4D4E90F
:1013540007321343626A43EA8213E26A43EA02638E
:10136400226B43EA0273A26A5208013A43EA024337
:101374006B602B4B294D01221A66FFF753FA044682
:101384002B689A013FF59DAEFFF74CFA001B02282B
:10139400F6D9CCE6FFF746FA801B0228D4D9C6E674
:1013A400FFF740FA04462B689B017FF58AAEFFF7EE
:1013B40039FA001B0228F6D9B9E601283FF4B8AE81
:1013C4006B68E26903F4800191427FF499AE216A6B
:1013D40003F03F028A427FF493AE616A47F6C0721B
:1013E4001A40B2EB811F7FF48BAEA26A520803F459
:1013F4004031013AB1EB024F7FF482AEE16A03F06F
:101404007062B2EB016F7FF47BAE226B03F0E043BA
:10141400B3EB027F3FF455AE72E600BF00380240E2
:10142400000047420268C168136923F440530B4328
:1014340070B51361054683680069D1680343686920
:101444000343E86921F4164121F00C0103430B43E3
:10145400D3605369A96923F440730B4353611F4B51
:101464009A4203D003F580639A4223D1FFF70CFD1F
:10147400EB691921B3F5004FD5E90046A0FB010142
:101484001BD1B2194FF000035B41FEF7B9FE642192
:10149400B0FBF1F501FB1503DB003233B3FBF1F3D1
:1014A40003F007025B0002EB051203F4F873134424
:1014B400A36070BDFFF7D8FCDAE7B200B30FFEF704
:1014C4009FFE6422B0FBF2F102FB11031B013233D5
:1014D400B3FBF2F303EB0113EAE700BF0010014092
:1014E400F8B504460E4617461D462268136836EAC8
:1014F400030301D1002028E06B1CF7D025B1FFF7CE
:1015040091F9C01B8542F0D2226802F10C0353E822
:10151400003F23F4D0730C3242E8003021680028E5
:10152400F2D101F1140353E8003F23F0010301F168
:10153400140040E80032002AF3D1202384F83D301F
:1015440084F83C2084F83E300320F8BD10B50446EE
:1015540040B390F83D3003F0FF021BB980F83C2003
:10156400FFF7A2F82268242384F83D30D36823F4DB
:101574000053D3602046FFF755FF23681A6922F40D
:1015840090421A615A6922F02A025A61DA6842F4D6
:101594000052DA6000202023206484F83D3084F86F
:1015A4003E3010BD0120FCE7F7B5174690F83D200A
:1015B4000093202A04460E4649D1002945D0002F25
:1015C40043D090F83C20012A41D0012280F83C20ED
:1015D40000252122056480F83D20FFF723F9A16846
:1015E400009BA784B1F5805F0246E78403D121699B
:1015F40009B935460E46002184F83C10E18C89B2C5
:1016040041B940212046FFF76BFF60B9202384F8DD
:101614003D3009E080212046CDE90023FFF760FF3B
:10162400DDE9002310B1032003B0F0BD20684EB9FA
:1016340035F8021BC1F308014160E18C013989B21C
:10164400E184DBE716F8011BF6E70120ECE7022052
:10165400EAE72DE9F843994690F83E30202B0446FA
:101664000F4615464DD1002949D0002A47D090F89D
:101674003C30012B45D0012380F83C300026222346
:10168400066480F83E300663FFF7CCF8A368A585AE
:10169400B3F5805F8046E58503D123690BB93E46E7
:1016A4001F46002384F83C30E58DA8B220B92023DE
:1016B40084F83E30BDE8F8834B464246202120465C
:1016C400FFF70EFFF8B923684FB95B68C3F308034B
:1016D40026F8023BE38D013B9BB2E385E4E7A26875
:1016E400B2F5805F02D032B9226922B95968C9B211
:1016F40007F8011BEEE7596801F07F01F8E70120C4
:10170400D8E70220D6E70320D4E7000010B5094C3F
:10171400094B236000F060FB6060204600F084F811
:1017240000F06EF8054800F037F9BDE810400448B1
:1017340000F032B9400100200C00002020000020FD
:10174400900000207047000010B5074C237813B9AF
:1017540000F082F820702378012B03D1BDE81040FB
:1017640000F096B810BD00BF4801002080F308883F
:10177400704762B670470078704770B50C460646ED
:101784001546FFF72DF92544361BAC4204EB060140
:1017940003D1BDE87040FFF735B9002314F8012BDD
:1017A4001846FFF773F9F0E770B50446FFF7CAFF70
:1017B400FFF7DFFF65682068FFF7D8FF2B46BDE819
:1017C4007040184770B506880546FFF709F90024EC
:1017D400A64204DC0024FFF715F9204670BD01344D
:1017E400022135F81400FFF7A3F94FF4FA60FFF76C
:1017F40025F90028ECD00124EDE7FFF78DB90000AE
:1018040070B5074D074E00242B68A34200D870BD65
:1018140056F834301B6803B198470134F4E700BF2D
:101824004C0100205001002009490B68022B10B51F
:101834000BD8084A046842F8334002EBC3024068FC
:10184400506001330B60002010BD0120FCE700BF95
:101854004C0100205001002070B50020094E0A4DB3
:1018640004463368A3420AD955F834309B683BB127
:101874009847012804D1054B05EBC4041C6070BDD6
:101884000134EEE74C0100205001002068010020E3
:1018940010B5404C23681B68DB68002B78D0984750
:1018A40045286DD022D821284ED015D8022847D0FB
:1018B4000CD8002838D001283ED023681B681B6947
:1018C400002B65D0BDE810401F2018471128F4D123
:1018D40023685B68DB682AE032284DD044283FD077
:1018E4003128EAD123685B681B6920E082282FD065
:1018F40010D873283CD007D8632835D06428DCD1AD
:1019040023685B685B6B12E07428D6D123685B683C
:101914009B6B0CE092281FD0932835D08328CCD120
:1019240023685B68DB6B02E023685B681B68002B41
:101934002ED0BDE81040184723685B685B68F6E763
:1019440023685B689B68F2E723685B685B69EEE782
:1019540023685B689B69EAE723685B68DB69E6E701
:1019640023685B681B6AE2E723685B685B6ADEE7FF
:1019740023685B689B6ADAE723685B68DB6AD6E7FF
:1019840023685B681B6BD2E723685B681B6CCEE73C
:1019940010BD00BF6801002070B5124C2268022AF5
:1019A4001DD8114D06682C2151436B186E504168A7
:1019B400596081689960C168D96001691961416998
:1019C400596181699961C169D961016A1962416A80
:1019D40059620132816A99622260002070BD01203F
:1019E400FCE700BF6C010020700100200B4B30B5F8
:1019F4001C680B4B00221946944201D1002009E0D7
:101A04001D68854207D85D68854204D92C2303FBF1
:101A14000212D06830BD01322C33EDE76C01002096
:101A24007001002010B5084B1968084B02460020CD
:101A3400814200D110BD1C68944202D85C68944273
:101A4400F8D801302C33F3E76C010020700100203A
:101A5400064B1B688B4206D9054B2C2202FB013135
:101A64000B6903B118470020704700BF6C010020C8
:101A74007001002037B50446CDE90021FFF7D2FFFD
:101A8400094B1B6883420CD9084B2C2505FB0030FD
:101A9400436933B1DDE90021204603B0BDE830409D
:101AA400184703B030BD00BF6C0100207001002056
:101AB400FFF77ABE13B50C460192FFF7B3FF094B4B
:101AC4001B6883420BD9084B2C2202FB0030436A6B
:101AD4002BB10199204602B0BDE8104018470120FF
:101AE40002B010BD6C0100207001002013B50C463B
:101AF4000192FFF797FF094B1B6883420BD9084BF0
:101B04002C2202FB0030836A2BB10199204602B0DB
:101B1400BDE810401847012002B010BD6C01002040
:101B240070010020FFF769BE08B5792000F096F92E
:101B3400012000F093F9042000F090F9212000F036
:101B44008DF9BDE80840792000F088B908B57920FE
:101B540000F084F9312000F081F9002000F07EF9D2
:101B6400002000F07BF9BDE80840792000F076B948
:101B740030B5114A85B01068516801AB03C31189AF
:101B8400927A198079209A7000F068F90B2000F09D
:101B940065F9312000F062F901AD002415F8010B5C
:101BA400013400F05BF90B2CF8D1792005B0BDE8C5
:101BB400304000F053B900BF081F00082DE9F84376
:101BC400792000F04BF900F01FF9000285B200F013
:101BD4001BF9284385B225F00F024FF6F073C0F3CA
:101BE40007269A42C0B286EA000416D100F00CF926
:101BF400A0420DD14FF6FC739D4209D91F4940F212
:101C040084420D704E704FF00060FFF753FF90B3A5
:101C14001F20BDE8F84300F021B9184F01352B0A05
:101C24003D707B7040F24128023700F0EDF88146A8
:101C3400060200F0E9F806F47F4646EA000345454B
:101C440099B298BF3970DAB29CBF090A797082EAF6
:101C5400090398BF0237013D84EA0304E5D100F08B
:101C6400D3F8E4B2A042D3D1044940F284424FF005
:101C74000060FFF73BFF7920CBE700BFF4010020B1
:101C84002DE9F843804600F0BFF8074600F0BCF8A1
:101C9400044600F0B9F8064600F0B6F887EA0405F1
:101CA40075404540814600F0AFF8EDB2A84202D03D
:101CB4001F20BDE8F883220442EA076343EA0904CB
:101CC40044EA0620C8F80000FFF790FE0028EFD091
:101CD4007920EEE707B5792000F0C0F801A8FFF7F6
:101CE400CFFF1F2805D11F2000F0B8F803B05DF81E
:101CF40004FB0198FFF77AFE01380128F3D8792014
:101D040000F0ACF80198FFF7D3FEEFE7F7B57920C0
:101D140000F0A4F801A8FFF7B3FF1F2804D11F2087
:101D240000F09CF803B0F0BD792000F097F800F0C3
:101D34006BF8104F461C0446354600F065F8013D2B
:101D440007F8010B84EA0004F7D100F05DF8A04223
:101D5400E5D1084901983246FFF78CFE792000F05E
:101D64007DF80198FFF742FE0328DBD1FFF7DAFE86
:101D7400D8E700BFF401002037B5792000F06EF8F1
:101D840001A8FFF77DFF1F2804D11F2000F066F88B
:101D940003B030BD792000F061F800F035F8044656
:101DA40000F032F8E343DBB29842EED1792000F040
:101DB40055F80198FFF736FE013405462946019887
:101DC400FFF746FE00F04AF8019B013C03F10103D2
:101DD4000193F3D1DCE70000004870474C00002079
:101DE4000078704710B50C46FEF7FAFDFEF714FEB6
:101DF400044BF222DA6022785A615A6942F00202F4
:101E04005A6110BD003C024007B50B4B0B481B78D0
:101E1400002B4FF0010241F288330DF1070108BF96
:101E24004FF47A73FFF715FC20B99DF8070003B04F
:101E34005DF804FB0020FAE748010020D8000020E8
:101E440010B5FFF7E1FF0446FFF7DEFF80EA040365
:101E5400DBB2FF2B0CBF2046EC2010BD07B54FF4BE
:101E64007A738DF8070001220DF107010248FFF78C
:101E74009BFB03B05DF804FBD800002008B5FFF716
:101E8400C3FF7F2804D17920FFF7E8FF012008BDB4
:101E94000020FCE770B50D4D0D4C641BA41000260A
:101EA400A64209D10B4D0C4C00F020F8641BA41081
:101EB4000026A64205D170BD55F8043B984701366B
:101EC400EEE755F8043B98470136F2E7341F000863
:101ED400341F0008341F0008381F0008024403465A
:101EE400934200D1704703F8011BF9E7F8B500BF2E
:101EF400F8BC08BC9E467047F8B500BFF8BC08BCE7
:041F04009E4670473E
:101F08000001021121314463738292000000000035
:101F18000000000102030406070809000000000190
:041F280002030400AC
:081F2C0008E3FF7F0100000043
:041F3400E9010008B7
:041F3800C5010008D7
:101F3C000024F4000100000010000000000000006C
:101F4C0000000000811E0008451E0008611E0008EC
:101F5C000000000800000808000008000100000054
:101F6C007B1700087F17000800000000000000002D
:101F7C00AD17000800000000C9170008751B000809
:101F8C00511B00082D1B00087D1D0008111D0008A9
:101F9C00D91C00080000000000000000C11B000854
:101FAC000000000000000000000000000000000025
:101FBC000000000000000000000000000000000015
:101FCC0000C0FF1F0FC0FF1F100000000300000027
:101FDC00E51D0008E91D00080000000000000000DD
:0C1FEC00000000000000000000000000E9
:0400000508000741A7
:00000001FF
