:020000040800F2
:1080000000000220919E0008F1990008F3990008F1
:10801000F5990008F7990008F99900080000000098
:1080200000000000000000000000000011F800083F
:10803000FB99000800000000B1F80008C7DA00084A
:10804000E19E0008E19E0008E19E0008E19E000814
:10805000E19E0008E19E0008E19E0008E19E000804
:10806000FD990008E19E0008E19E0008E19E0008DD
:10807000E19E0008E19E0008E19E0008E19E0008E4
:10808000E19E0008E19E0008E19E0008E19E0008D4
:10809000E19E0008E19E0008E19E0008E19E0008C4
:1080A000E19E0008E19E0008E19E0008E19E0008B4
:1080B000E19E0008119A0008E19E0008E19E000878
:1080C000E19E0008E19E0008E19E0008E19E000894
:1080D000E19E0008219A0008E19E0008E19E000848
:1080E000E19E0008E19E0008E19E0008E19E000874
:1080F000E19E0008E19E0008E19E0008E19E000864
:10810000E19E0008E19E0008E19E0008E19E000853
:10811000E19E0008E19E0008319A0008419A00089B
:10812000E19E0008E19E0008E19E0008E19E000833
:10813000E19E00080000000000000000519A0008C5
:10814000619A0008719A0008E19E0008E19E00080B
:10815000E19E0008E19E0008E19E0008E19E000803
:10816000E19E0008E19E0008E19E0008E19E0008F3
:10817000E19E0008E19E0008E19E0008000000006A
:1081800000000000E19E0008000000000000000068
:10819000E19E00080000000000000000E19E0008D1
:1081A000000000000000000000000000E19E000848
:1081B000E19E0008E19E0008E19E0008E19E0008A3
:0481C000E19E000834
:1081D00010B5054C237833B9044B13B10448AFF301
:1081E00000800123237010BDF80100200000000072
:1081F000AC7F010808B5034B1BB103490348AFF33B
:10820000008008BD00000000FC010020AC7F0108D8
:1082100001F0FF01102A2BDB10F0070F08D010F837
:10822000013B013A8B422DD010F0070F42B3F6D13B
:10823000F0B441EA012141EA014122F007047FF054
:1082400000070023F0E80256083C85EA010586EAAB
:10825000010685FA47F5A3FA87F586FA47F6A5FAE7
:1082600087F68EB9EED1F0BC01F0FF0102F00702F3
:1082700032B110F8013B013A83EA010313B1F8D19E
:108280000020704701387047002D06BF354603387F
:10829000073815F0010F07D1013015F4807F02BFB8
:1082A000013015F4C03F0130F0BC0138704700BF09
:1082B000034613F8012B002AFBD1181A0138704726
:1082C00081F0004102E000BF83F0004330B54FEA87
:1082D00041044FEA430594EA050F08BF90EA020FF4
:1082E0001FBF54EA000C55EA020C7FEA645C7FEA87
:1082F000655C00F0E2804FEA5454D4EB5555B8BFAA
:108300006D420CDD2C4480EA020281EA030382EA1A
:10831000000083EA010180EA020281EA0303362DAC
:1083200088BF30BD11F0004F4FEA01314FF4801C7F
:108330004CEA113102D0404261EB410113F0004F91
:108340004FEA03334CEA133302D0524263EB430348
:1083500094EA050F00F0A780A4F10104D5F1200EE6
:108360000DDB02FA0EFC22FA05F2801841F1000141
:1083700003FA0EF2801843FA05F359410EE0A5F115
:1083800020050EF1200E012A03FA0EFC28BF4CF046
:10839000020C43FA05F3C01851EBE37101F00045FC
:1083A00007D54FF0000EDCF1000C7EEB00006EEB09
:1083B0000101B1F5801F1BD3B1F5001F0CD3490893
:1083C0005FEA30004FEA3C0C04F101044FEA4452EA
:1083D00012F5800F80F09A80BCF1004F08BF5FEA71
:1083E000500C50F1000041EB045141EA050130BD51
:1083F0005FEA4C0C404141EB0101013C28BFB1F563
:10840000801FE9D291F0000F04BF01460020B1FAAD
:1084100081F308BF2033A3F10B03B3F120020CDA80
:108420000C3208DD02F1140CC2F10C0201FA0CF05E
:1084300021FA02F10CE002F11402D8BFC2F1200CC3
:1084400001FA02F120FA0CFCDCBF41EA0C01904079
:10845000E41AA2BF01EB0451294330BD6FEA0404C2
:108460001F3C1CDA0C340EDC04F11404C4F12002AD
:1084700020FA04F001FA02F340EA030021FA04F3BF
:1084800045EA030130BDC4F10C04C4F1200220FA16
:1084900002F001FA04F340EA0300294630BD21FA54
:1084A00004F0294630BD94F0000F83F4801306BF1A
:1084B00081F480110134013D4EE77FEA645C18BF0E
:1084C0007FEA655C29D094EA050F08BF90EA020FA5
:1084D00005D054EA000C04BF1946104630BD91EA9D
:1084E000030F1EBF0021002030BD5FEA545C05D1A0
:1084F0004000494128BF41F0004130BD14F58004DF
:108500003CBF01F5801130BD01F0004545F0FE4152
:1085100041F470014FF0000030BD7FEA645C1ABF87
:10852000194610467FEA655C1CBF0B46024650EABE
:10853000013406BF52EA033591EA030F41F40021EA
:1085400030BD00BF90F0000F04BF0021704730B570
:108550004FF4806404F132044FF000054FF0000145
:1085600050E700BF90F0000F04BF0021704730B506
:108570004FF4806404F1320410F0004548BF4042DB
:108580004FF000013EE700BF42004FEAE2014FEA30
:1085900031014FEA02701FBF12F07F4393F07F4F0B
:1085A00081F06051704732F07F4208BF704793F00E
:1085B0007F4F04BF41F40021704730B54FF4607421
:1085C00001F0004521F000411CE700BF50EA010224
:1085D00008BF704730B54FF000050AE050EA0102CD
:1085E00008BF704730B511F0004502D5404261EB3D
:1085F00041014FF4806404F132045FEA915C3FF47E
:10860000D8AE4FF003025FEADC0C18BF03325FEA1A
:10861000DC0C18BF033202EBDC02C2F1200300FACB
:1086200003FC20FA02F001FA03FE40EA0E0021FAF0
:1086300002F11444BDE600BF70B54FF0FF0C4CF4DE
:10864000E06C1CEA11541DBF1CEA135594EA0C0F90
:1086500095EA0C0F00F0DEF82C4481EA030621EACB
:108660004C5123EA4C5350EA013518BF52EA033506
:1086700041F4801143F4801338D0A0FB02CE4FF0B8
:108680000005E1FB02E506F00042E0FB03E54FF0E8
:108690000006E1FB03569CF0000F18BF4EF0010EE0
:1086A000A4F1FF04B6F5007F64F5407404D25FEADC
:1086B0004E0E6D4146EB060642EAC62141EA55518F
:1086C0004FEAC52040EA5E504FEACE2EB4F1FD0CD1
:1086D00088BFBCF5E06F1ED8BEF1004F08BF5FEA4F
:1086E000500E50F1000041EB045170BD06F0004601
:1086F00046EA010140EA020081EA0301B4EB5C04AE
:10870000C2BFD4EB0C0541EA045170BD41F48011A5
:108710004FF0000E013C00F3AB8014F1360FDEBFCA
:10872000002001F0004170BDC4F10004203C35DAA6
:108730000C341BDC04F11404C4F1200500FA05F329
:1087400020FA04F001FA05F240EA020001F00042CA
:1087500021F0004110EBD37021FA04F642EB060140
:108760005EEA430E08BF20EAD37070BDC4F10C046A
:10877000C4F1200500FA04F320FA05F001FA04F22E
:1087800040EA020001F0004110EBD37041F100011A
:108790005EEA430E08BF20EAD37070BDC4F1200525
:1087A00000FA05F24EEA020E20FA04F301FA05F28D
:1087B00043EA020321FA04F001F0004121FA04F235
:1087C00020EA020000EBD3705EEA430E08BF20EA05
:1087D000D37070BD94F0000F0FD101F0004640003F
:1087E00041EB010111F4801F08BF013CF7D041EAC1
:1087F000060195F0000F18BF704703F000465200C5
:1088000043EB030313F4801F08BF013DF7D043EA95
:108810000603704794EA0C0F0CEA135518BF95EA4B
:108820000C0F0CD050EA410618BF52EA4306D1D1D2
:1088300081EA030101F000414FF0000070BD50EAF1
:10884000410606BF1046194652EA430619D094EA7B
:108850000C0F02D150EA013613D195EA0C0F05D165
:1088600052EA03361CBF104619460AD181EA0301B9
:1088700001F0004141F0FE4141F470014FF0000071
:1088800070BD41F0FE4141F4780170BD70B54FF00C
:10889000FF0C4CF4E06C1CEA11541DBF1CEA13558C
:1088A00094EA0C0F95EA0C0F00F0A7F8A4EB05046E
:1088B00081EA030E52EA03354FEA013100F0888065
:1088C0004FEA03334FF0805545EA131343EA12632E
:1088D0004FEA022245EA111545EA10654FEA0026E3
:1088E0000EF000419D4208BF964244F1FD0404F59C
:1088F000407402D25B084FEA3202B61A65EB0305F8
:108900005B084FEA32024FF480104FF4002CB6EBB4
:10891000020E75EB030E22BFB61A754640EA0C0034
:108920005B084FEA3202B6EB020E75EB030E22BF74
:10893000B61A754640EA5C005B084FEA3202B6EBB5
:10894000020E75EB030E22BFB61A754640EA9C0074
:108950005B084FEA3202B6EB020E75EB030E22BF44
:10896000B61A754640EADC0055EA060E18D04FEA02
:10897000051545EA16754FEA06164FEAC30343EAA2
:1089800052734FEAC2025FEA1C1CC0D111F4801F6F
:108990000BD141EA00014FF000004FF0004CB6E768
:1089A00011F4801F04BF01430020B4F1FD0C88BF07
:1089B000BCF5E06F3FF6AFAEB5EB030C04BFB6EB12
:1089C000020C5FEA500C50F1000041EB045170BD05
:1089D0000EF0004E4EEA113114EB5C04C2BFD4EB32
:1089E0000C0541EA045170BD41F480114FF0000EB6
:1089F000013C90E645EA060E8DE60CEA135594EA32
:108A00000C0F08BF95EA0C0F3FF43BAF94EA0C0F34
:108A10000AD150EA01347FF434AF95EA0C0F7FF4A9
:108A200025AF104619462CE795EA0C0F06D152EAFD
:108A300003353FF4FDAE1046194622E750EA4106E1
:108A400018BF52EA43067FF4C5AE50EA41047FF4F2
:108A50000DAF52EA43057FF4EBAE12E74FF0FF3C57
:108A600006E000BF4FF0010C02E000BF4FF0010C28
:108A70004DF804CD4FEA410C7FEA6C5C4FEA430CA1
:108A800018BF7FEA6C5C1BD001B050EA410C0CBFF0
:108A900052EA430C91EA030F02BF90EA020F002052
:108AA000704710F1000F91EA030F58BF994208BFB9
:108AB00090422CBFD8176FEAE37040F00100704776
:108AC0004FEA410C7FEA6C5C02D150EA013C07D1CD
:108AD0004FEA430C7FEA6C5CD6D152EA033CD3D018
:108AE0005DF8040B704700BF8446104662468C4612
:108AF0001946634600E000BF01B5FFF7B7FF002845
:108B000048BF10F1000F01BD4DF808EDFFF7F4FF6D
:108B10000CBF012000205DF808FB00BF4DF808EDF8
:108B2000FFF7EAFF34BF012000205DF808FB00BF1B
:108B30004DF808EDFFF7E0FF94BF012000205DF83D
:108B400008FB00BF4DF808EDFFF7CEFF94BF0120F2
:108B500000205DF808FB00BF4DF808EDFFF7C4FFEB
:108B600034BF012000205DF808FB00BF4FEA410C34
:108B70007FEA6C5C02D150EA013C0AD14FEA430C17
:108B80007FEA6C5C02D152EA033C02D14FF0000054
:108B900070474FF0010070474FEA410212F5001292
:108BA00015D211D56FF47873B3EB625212D94FEA34
:108BB000C12343F0004343EA505311F0004F23FA1E
:108BC00002F018BF404270474FF00000704750EA73
:108BD000013005D111F0004008BF6FF00040704730
:108BE0004FF00000704700BF4FEA4102B2F1E0438E
:108BF00024BFB3F5001CDCF1FE5C0DD901F0004C84
:108C00004FEAC0024CEA5070B2F1004F40EB8300D3
:108C100008BF20F00100704711F0804F21D113F1FF
:108C20003872BCBF01F00040704741F480114FEA38
:108C30005252C2F11802C2F1200C10FA0CF320FAC1
:108C400002F018BF40F001004FEAC1234FEAD323DE
:108C500003FA0CFC40EA0C0023FA02F34FEA430348
:108C6000CCE77FEA625307D150EA01331EBF4FF0D1
:108C7000FE4040F44000704701F0004040F0FE40EC
:108C800040F40000704700BF53B94AB9002908BF3B
:108C900000281CBF4FF0FF314FF0FF3000F074B9D7
:108CA000ADF1080C6DE904CE00F006F8DDF804E043
:108CB000DDE9022304B070472DE9F047089D044622
:108CC0008E46002B4DD18A42944669D9B2FA82F27F
:108CD00052B101FA02F3C2F1200120FA01F10CFABB
:108CE00002FC41EA030E94404FEA1C48210CBEFBF3
:108CF000F8F61FFA8CF708FB16E341EA034306FB7C
:108D000007F199420AD91CEB030306F1FF3080F00A
:108D10001F81994240F21C81023E63445B1AA4B257
:108D2000B3FBF8F008FB103344EA034400FB07F7F9
:108D3000A7420AD91CEB040400F1FF3380F00A813A
:108D4000A74240F207816444023840EA0640E41B2F
:108D500000261DB1D4400023C5E900433146BDE8DB
:108D6000F0878B4209D9002D00F0EF800026C5E97D
:108D7000000130463146BDE8F087B3FA83F6002E95
:108D80004AD18B4202D3824200F2F980841A61EB0D
:108D9000030301209E46002DE0D0C5E9004EDDE72B
:108DA00002B9FFDEB2FA82F2002A40F09280A1EB13
:108DB0000C014FEA1C471FFA8CFE0126200CB1FB68
:108DC000F7F307FB131140EA01410EFB03F0884261
:108DD00008D91CEB010103F1FF3802D2884200F2EE
:108DE000CB804346091AA4B2B1FBF7F007FB101180
:108DF00044EA01440EFB00FEA64508D91CEB04041E
:108E000000F1FF3102D2A64500F2BB800846A4EB78
:108E10000E0440EA03409CE7C6F12007B34022FA63
:108E200007FC4CEA030C20FA07F401FA06F31C4392
:108E3000F9404FEA1C4900FA06F3B1FBF9F8200C9F
:108E40001FFA8CFE09FB181140EA014108FB0EF0E5
:108E5000884202FA06F20BD91CEB010108F1FF3A35
:108E600080F08880884240F28580A8F10208614441
:108E7000091AA4B2B1FBF9F009FB101144EA01414F
:108E800000FB0EFE8E4508D91CEB010100F1FF34FA
:108E90006CD28E456AD90238614440EA0840A0FB92
:108EA0000294A1EB0E01A142C846A64656D353D068
:108EB0005DB1B3EB080261EB0E0101FA07F722FA8C
:108EC00006F3F1401F43C5E9007100263146BDE8B5
:108ED000F087C2F12003D8400CFA02FC21FA03F318
:108EE000914001434FEA1C471FFA8CFEB3FBF7F099
:108EF00007FB10360B0C43EA064300FB0EF69E42BE
:108F000004FA02F408D91CEB030300F1FF382FD256
:108F10009E422DD9023863449B1B89B2B3FBF7F6FE
:108F200007FB163341EA034106FB0EF38B4208D9D7
:108F30001CEB010106F1FF3816D28B4214D9023E18
:108F40006144C91A46EA004638E72E46284605E736
:108F50000646E3E61846F8E64B45A9D2B9EB020807
:108F600064EB0C0E0138A3E74646EAE7204694E797
:108F70004046D1E7D0467BE7023B614432E73046CA
:108F800009E76444023842E7704700BF08B50F485C
:108F90000F4B03601223436000238360C3604FF4D0
:108FA000803202614FF480124261037601224276E0
:108FB0008276C3760377427700F0E2FF18B9034860
:108FC00001F0C0F808BD00F01BFBF8E71402002018
:108FD0000068004010B588B0002303930493059304
:108FE000069307930268254B9A4201D008B010BD42
:108FF0000024009403F5E8331A6C42F080621A648E
:109000001A6C02F080620092009A01941A6C42F08D
:1090100000721A641A6C02F000720192019A0294B2
:109020001A6B42F002021A631B6B03F002030293F5
:10903000029B6023039302230493032306930923D3
:10904000079303A90E4801F081FE224605213F2027
:1090500001F054FA3F2001F089FA22460521402010
:1090600001F04CFA402001F081FA2246052141200E
:1090700001F044FA412001F079FAB7E700680040B6
:109080000004024008B50548054B036001F07CFA76
:1090900000B908BD00F0B4FAFBE700BF7802002079
:1090A000003002400268094B9A4200D0704782B0FB
:1090B00000230193064B1A6B42F480521A631B6B18
:1090C00003F480530193019B02B0704700300240CB
:1090D0000038024008B50E480E4B03600E4B43604B
:1090E000002383600122C260036143618361C36125
:1090F000036201F022FC28B90021054801F0F8FDC7
:1091000018B908BD00F07CFAF6E700F079FAF8E744
:1091100080020020006000405016400030B59FB033
:109120000446002119911A911B911C911D915C22FA
:1091300002A80BF063FB2268194B9A4201D01FB0C2
:1091400030BD8023029302A802F062FD20BB0025FF
:109150000095144C236B43F004032363236B03F04B
:1091600004030093009BC023199312231A93012335
:109170001B9303231C9304231D9319A90A4801F090
:10918000E5FD0195236C43F080732364236C03F0A9
:1091900080730193019BD2E700F032FAD7E700BF5A
:1091A00000600040003802400008024008B50AF0A4
:1091B000DBFD0AF0BFFEFCE708B5054A00210548C3
:1091C00004F0BCFC044B18600AF0C4FC08BD00BFEE
:1091D000F07F0108AD910008884300202DE9F0439D
:1091E0008BB0002405940694079408940994009485
:1091F0005E4B1A6B42F004021A631A6B02F004020F
:109200000092009A01941A6B42F080021A631A6B62
:1092100002F080020192019A02941A6B42F001025C
:109220001A631A6B02F001020292029A03941A6BFB
:1092300042F002021A631A6B02F002020392039ACE
:1092400004941A6B42F008021A631B6B03F00803C4
:109250000493049B464F012240F23111384601F03D
:1092600061FE444E224641F20201304601F05AFEB0
:10927000012248F21001304601F054FEDFF8FC8074
:10928000012241F20101404601F04CFE22469221AA
:10929000404601F047FE4FF480430593069407943F
:1092A00005A9384601F052FD01250595069507945C
:1092B000089505A9384601F049FD059506940794DF
:1092C00005A9304601F042FD41F2120305930695CF
:1092D0000794089405A9304601F038FD1023059342
:1092E000069507944FF00209CDF8209005A938465D
:1092F00001F02CFD4FF490730593069507940894A4
:1093000005A9384601F022FD059506950794CDF88C
:10931000209005A9404601F019FD41F29203059302
:1093200006950794089405A9404601F00FFD4FF4F7
:109330000043059306950794089505A9304601F06A
:1093400005FD042305934FF488130693079405A99C
:10935000094801F0FBFC22460521082001F0CEF867
:10936000082001F003F90BB0BDE8F083003802409B
:109370000008024000000240000C024000040240CD
:1093800008B50B480B4B03600B4B43600023836015
:10939000C3604FF48042026143618361C361036231
:1093A00001F0F6FF00B908BD00F02AF9FBE700BFA5
:1093B0008C43002000540040801A060008B50B487A
:1093C0000B4B03600B4B436000238360C3604FF47F
:1093D0008042026143618361C361036201F0D8FF8F
:1093E00000B908BD00F00CF9FBE700BFE043002026
:1093F00000580040801A060008B50B480B4B03606C
:109400000B4B436000238360C3604FF480420261D2
:1094100043618361C361036201F0BAFF00B908BD13
:1094200000F0EEF8FBE700BF34440020005C004091
:10943000801A06002DE9F0418EB0002309930A93AB
:109440000B930C930D930368534A934208D0534AED
:10945000934229D0524A934262D00EB0BDE8F081C7
:10946000002501954F4C236B43F002032363236BCC
:1094700003F002030193019B4FF4407309931223FD
:109480000A9303230C9304230D9309A9464801F082
:109490005DFC0295236C43F400132364236C03F4F6
:1094A00000130293029BD8E7002503953D4C236BE4
:1094B00043F002032363236B03F002030393039B34
:1094C0000495236B43F004032363236B03F004032D
:1094D0000493049B4FF4806309934FF01208CDF876
:1094E000288003270C9704260D9609A92E4801F021
:1094F0002DFC4FF480530993CDF828800B950C97E1
:109500000D9609A9294801F021FC0595236C43F427
:1095100080032364236C03F480030593059B9CE77D
:10952000002506951F4C236B43F004032363236B34
:1095300003F004030693069B0795236B43F0010396
:109540002363236B03F001030793079B4FF400731E
:1095500009934FF01208CDF8288003270C970426B2
:109560000D9609A9114801F0F1FB4FF4807309939E
:10957000CDF828800B950C970D9609A90C4801F0A1
:10958000E5FB0895236C43F400032364236C03F488
:1095900000030893089B60E7005400400058004017
:1095A000005C004000380240000402400008024015
:1095B0000000024010B514464FF4FA7392B202480C
:1095C00003F0F7FF204610BDFC46002008B572B638
:1095D0000268044B9A4201D062B608BD084609F001
:1095E0004FF9F9E70010014008B50268034B9A42B1
:1095F00000D008BD00F090FCFBE700BF0010004069
:1096000072B6FEE700B595B03422002107A80BF032
:10961000F5F80023029303930493059306930093B4
:10962000234A116C41F080511164126C02F0805297
:109630000092009A01931F4B1A6842F440421A604C
:109640001B6803F440430193019B012307934FF4EC
:109650008033089302230D934FF480020E92082268
:109660000F92B422109211931293139307A802F051
:10967000C3FDB0B902F09AF9A8B90F2302930223EF
:109680000393002304934FF4A05305934FF48053A6
:109690000693052102A802F0C7F930B915B05DF8AC
:1096A00004FBFFF7ADFFFFF7ABFFFFF7A9FF00BF1C
:1096B000003802400070004008B500F013FCFFF7CE
:1096C000A1FFFFF78BFD00F039FA00F0CBFA00F0B4
:1096D00001FB00F05FF8FFF7D5FC00F039F800F06F
:1096E0007DFBFFF7F7FC00F011F8FFF767FEFFF7CF
:1096F00047FEFFF781FEFFF749FC00F057FA04F040
:10970000EFF9FFF759FD04F0FDF9FEE708B50E4843
:109710000E4B03604FF48273436000238360C36089
:10972000036143614FF4007282611022C2610362DF
:10973000436283620A23C36203F01EF800B908BDC6
:10974000FFF75EFFFBE700BF8844002000300140C8
:1097500008B50E480E4B03604FF48273436000233C
:109760008360C360036143614FF400728261102221
:10977000C2610362436283620A23C36202F0FCFF98
:1097800000B908BDFFF73CFFFBE700BFE044002045
:109790000038004008B50E480E4B03604FF482734A
:1097A000436000238360C360036143614FF4007230
:1097B00082611022C2610362436283620A23C36230
:1097C00002F0DAFF00B908BDFFF71AFFFBE700BFA0
:1097D00038450020003C0040F0B58DB000230793D1
:1097E000089309930A930B9303684A4A934207D05C
:1097F000494A934227D0494A93425CD00DB0F0BD0C
:1098000000210091464B5A6C42F480525A645A6CC3
:1098100002F480520092009A01911A6B42F0010208
:109820001A631B6B03F001030193019BE023079371
:109830000223089303230A9305230B9307A93948AE
:1098400001F084FADAE700240294354B1A6C42F4F2
:1098500080421A641A6C02F480420292029A0394C3
:109860001A6B42F004021A631A6B02F004020392AC
:10987000039A04941A6B42F002021A631B6B03F002
:1098800002030493049B0C230793022708970326E3
:109890000A9605250B9507A9234801F057FA4FF4BE
:1098A00000530793089709940A960B9507A91F4838
:1098B00001F04CFAA2E700240594194B1A6C42F40B
:1098C00000421A641A6C02F400420592059A06944A
:1098D0001A6B42F004021A631B6B03F00403069335
:1098E000069B02250795089503270A9705230B93E6
:1098F0000D4E07A9304601F029FA4FF44063079353
:10990000089509940A9706230B9307A9304601F09E
:109910001DFA73E70030014000380040003C004071
:1099200000380240000002400008024000040240EB
:1099300000B583B0002200920D4B596C41F4804178
:109940005964596C01F48041009100990192196C9D
:1099500041F0805119641B6C03F080530193019B0B
:109960000F216FF0010000F0C9FD03B05DF804FBAA
:109970000038024010B588B001460022362000F0C1
:10998000BDFD362000F0F2FD00240194144B1A6C4A
:1099900042F010021A641B6C03F010030193019B48
:1099A00002A903A802F016F902F0F4F843000D48EA
:1099B000A0FB03239B0C013B0B480C4A026040F2C6
:1099C000E732C26043600461846003F081FA10B141
:1099D000012008B010BD044803F010F9F9E700BFFA
:1099E0000038024083DE1B439045002000100040F9
:1099F000FEE7FEE7FEE7FEE7FEE7704708B5042056
:109A000001F098FA01480BF02BFE08BD1480010804
:109A100008B5024803F03BF908BD00BF244600200A
:109A200008B5024803F0BAFE08BD00BFFC4600209E
:109A300008B5024803F02BF908BD00BF904500208F
:109A400008B5024803F023F908BD00BFB446002062
:109A500008B5024800F022FC08BD00BF1402002037
:109A600008B5024800F01AFC08BD00BF140200202F
:109A700008B5024800F012FC08BD00BF1402002027
:109A80000120704708B50AF03BFD162303604FF034
:109A9000FF3008BD08B54FF0FF31FFF7F3FFFEE7D9
:109AA00070B50C461646002506E0AFF3008021464F
:109AB00001F8010B01350C46B542F6DB304670BDAE
:109AC0004FF0FF3070474FF400534B600020704759
:109AD000012070470020704710B503460C4A0D491D
:109AE0000D48006840B10C4800680344521A934284
:109AF00006D8094A136010BD0748084C0460F2E715
:109B00000AF0FEFC0C2303604FF0FF30F3E700BFC8
:109B10000000022000040000D8450020A8A1002079
:109B2000044BD3F8882042F47002C3F88820024A1C
:109B30009A60704700ED00E00080000800B587B033
:109B40000023029303930493059300930193164813
:109B50004FF0804202605922426083604FF0FF3232
:109B6000C2600361836103F0B3F998B94FF4805385
:109B7000029302A90C4803F077FA70B920230093EE
:109B8000002301936946084803F072FB40B907B00F
:109B90005DF804FBFFF734FDE8E7FFF731FDEDE783
:109BA000FFF72EFDF3E700BFDC45002000B58FB0C6
:109BB00000230A930B930C930D930893099301933D
:109BC0000293039304930593069307932348244A2F
:109BD0000260436083604FF6FF72C260036183617D
:109BE00003F076F938BB4FF480530A930AA91B4857
:109BF00003F03AFA10BB194803F096F908BB0023AA
:109C00000893099308A9154803F032FBE0B9002234
:109C1000019202920392059201A9104803F0E8F91B
:109C2000A8B904220DEB02010C4803F0E1F988B950
:109C30000FB05DF804FBFFF7E3FCD4E7FFF7E0FCAF
:109C4000D9E7FFF7DDFCDAE7FFF7DAFCDFE7FFF73C
:109C5000D7FCE6E7FFF7D4FCEAE700BF2446002084
:109C60000004004000B589B00023039304930593DA
:109C700006930793019302931448154A02604360C8
:109C800083604FF0FF32C2600361836103F020F90B
:109C900098B9072303930023049303A90B4803F007
:109CA000BEFA68B900230193029301A9074803F0A3
:109CB000DFFA40B909B05DF804FBFFF7A1FCE8E763
:109CC000FFF79EFCEEE7FFF79BFCF3E76C460020F6
:109CD000000C004000B583B00023009301930F48AF
:109CE0000F4A026041F64B52426083600122C2601B
:109CF000836103F0EDF850B90023009301936946A6
:109D0000064803F0B5FA28B903B05DF804FBFFF785
:109D100077FCF1E7FFF774FCF6E700BFB4460020DC
:109D20000014004000B585B00368B3F1804F0BD03C
:109D3000264A934215D0264A934226D0254A93427A
:109D400030D005B05DF804FB00230093224B1A6C61
:109D500042F001021A641B6C03F001030093009BA4
:109D6000EFE7002201921C4B196C41F002011964CB
:109D70001B6C03F002030193019B05211D2000F0E1
:109D8000BDFB1D2000F0F2FBDBE700230293124B2A
:109D90001A6C42F008021A641B6C03F00803029369
:109DA000029BCEE7002203920B4B196C41F020017D
:109DB00019641B6C03F020030393039B02213720DB
:109DC00000F09CFB372000F0D1FBBAE70004004014
:109DD000000C0040001400400038024008B50A485A
:109DE0000A4B03604FF4E133436000238360C36098
:109DF00003610C2242618361C36103F0ABFB00B9D4
:109E000008BDFFF7FDFBFBE7FC460020001001400A
:109E100010B588B00023039304930593069307932A
:109E2000026803F1804303F588339A4201D008B0F9
:109E300010BD0024019403F594335A6C42F01002D3
:109E40005A645A6C02F010020192019A02941A6B41
:109E500042F001021A631B6B03F001030293029BA1
:109E60004FF4C06303930223049303230693072351
:109E7000079303A9054800F069FF22460521252024
:109E800000F03CFB252000F071FBD0E70000024011
:109E9000DFF834D00D480E490E4A002302E0D458B2
:109EA000C4500433C4188C42F9D30B4A0B4C002322
:109EB00001E013600432A242FBD3FFF731FE0AF047
:109EC0002DFCFFF7F9FB7047000002200000002086
:109ED000F8010020DC8D0108F8010020A4A1002079
:109EE000FEE7000008B50B4B1A6842F400721A60D6
:109EF0001A6842F480621A601A6842F480721A602A
:109F0000032000F0E9FA0F20FFF734FDFFF710FD02
:109F1000002008BD003C0240034A1168034B1B7837
:109F20000B441360704700BF40470020040000202E
:109F3000014B1868704700BF4047002038B5044601
:109F4000FFF7F6FF0546B4F1FF3F02D0044B1B7844
:109F50001C44FFF7EDFF401BA042FAD338BD00BF01
:109F60000400002070477047704770477047704783
:109F700070477047704770477047704770470000E0
:109F8000002800F0C08038B5044690F82030F3B9BE
:109F90005E4B03645E4B43645E4B83645E4BC36401
:109FA0005E4B83625E4BC3625E4B03635E4B4363F7
:109FB0005E4B83635E4BC3635E4B03655E4B4365E1
:109FC0005E4B8365C36DEBB1E36D20469847226815
:109FD000136843F001031360FFF7AAFF05462368E7
:109FE0005A6812F0010F10D1FFF7A2FF401B0A2898
:109FF000F5D9636A43F400336362052384F82030A3
:10A00000012038BD4E4BC365DEE71A6822F002021C
:10A010001A60FFF78DFF054623685A6812F0020F99
:10A020000DD0FFF785FF401B0A28F5D9636A43F47A
:10A0300000336362052384F820300120E1E7227EAB
:10A04000012A3DD01A6822F080021A60637E012B3B
:10A050003BD02268136823F040031360A37E012BDA
:10A0600039D02268136823F020031360E37E012BAC
:10A0700037D02268136843F010031360237F012B4D
:10A0800035D02268136823F008031360637F012B27
:10A0900033D02268136823F004031360A368E268D6
:10A0A000134322691343626913436268013A2168CA
:10A0B0001343CB6100206062012384F82030A0E7C5
:10A0C0001A6842F080021A60C0E72268136843F001
:10A0D00040031360C2E72268136843F02003136053
:10A0E000C4E72268136823F010031360C6E72268F0
:10A0F000136843F008031360C8E72268136843F04D
:10A1000004031360CAE70120704700BF719F000875
:10A11000739F0008759F0008779F0008659F0008DF
:10A12000679F0008699F00086B9F00086D9F0008EB
:10A130006F9F0008799F00087B9F00087D9F0008A3
:10A14000D58F000870B5044690F82050EDB2012D6F
:10A1500006D0436A43F4002343620125284670BDBC
:10A16000022380F820300268136823F00103136093
:10A17000FFF7DEFE064623685B6813F0010F0CD084
:10A18000FFF7D6FE831B0A2BF5D9636A43F400332D
:10A190006362052384F82030E0E700256562DDE78F
:10A1A00030B590F820C00468A4680CF1FF3C5FFA59
:10A1B0008CFCBCF1010F6BD814F0E05F62D0C4F3EB
:10A1C000016CBCF1020F05D9436A43F400034362FA
:10A1D000012062E0012404FA0CF41C608B68002B5F
:10A1E0003DD10D68CB68046843EA45550CF118036E
:10A1F0001B01E55003680C690CF1180E03EB0E13FC
:10A200005C600B7D012B35D0D17993791B0443EA37
:10A210000163517943EA012314790168234301EB77
:10A220000C11C1F88C31D17893781B0443EA016397
:10A23000517843EA0123117802680B4302EB0C12B8
:10A24000C2F8883102680CF1180C4FEA0C1C52F865
:10A250000C3043F0010342F80C3000201DE04C6844
:10A2600043EAC403CC6823430CF1180424010568B5
:10A270002B51BFE7036803EB0E13596841F480715B
:10A280005960C1E7436A43F400134362012004E0CC
:10A29000436A43F480234362012030BD2DE9F84F27
:10A2A000044603685D69D3F804809F68D3F80CB056
:10A2B000D3F810A0D3F8189015F0010627D017F0A6
:10A2C000010608D001229A6017F0020F00F0AC805E
:10A2D000836A9847002617F4807F0AD023684FF4DA
:10A2E00080729A6017F4007F00F0AD80E36A204628
:10A2F000984717F4803F0AD023684FF480329A6061
:10A3000017F4003F00F0AF80236B2046984715F00C
:10A31000080F07D01BF0100F04D046F40076236816
:10A320001022DA6015F0040F08D01BF0080F05D0DA
:10A3300023680822DA60636C2046984715F0020F04
:10A3400007D02368DB6813F0030F02D0236C20468C
:10A35000984715F0400F07D01AF0100F04D046F4BC
:10A360008066236810221A6115F0200F08D01AF0B9
:10A37000080F05D0236808221A61E36C204698472D
:10A3800015F0100F07D023681B6913F0030F02D0DC
:10A39000A36C2046984715F4003F08D018F0100F22
:10A3A00005D0236810225A60236D2046984715F483
:10A3B000803F08D018F0080F05D0236808225A60A3
:10A3C000636D2046984715F4004F69D018F0040FCC
:10A3D00063D015F4807F04D019F0010F01D046F04E
:10A3E000010615F4007F04D019F0020F01D046F0E9
:10A3F000020615F4806F04D019F0040F01D046F066
:10A40000040615F4006F48D019F0700945D0B9F171
:10A41000400F5AD04DD8B9F1200F53D0B9F1300FB9
:10A4200031D146F0200633E017F0040F05D117F0C4
:10A43000080605D1436B98474DE74FF400664AE79D
:10A440004FF4805647E717F4806F02D046F4005669
:10A450004FE717F4006F02D046F4804649E7A36B3C
:10A460002046984745E717F4802F02D046F400466F
:10A470004DE717F4002F02D046F4803647E7E36B30
:10A480002046984743E7B9F1100F01D146F008067E
:10A490002268936923F070039361236804225A6051
:10A4A0002EB1636A1E436662A36D20469847BDE8DD
:10A4B000F88FB9F1500F0BD0B9F1600FE8D146F425
:10A4C0008076E5E746F01006E2E746F04006DFE773
:10A4D00046F08006DCE70000074AD36823F4E06317
:10A4E0001B041B0C000200F4E060034343F0BF6355
:10A4F00043F40033D360704700ED00E000B5194B22
:10A50000DB68C3F30223C3F1070CBCF1040F28BFBF
:10A510004FF0040C03F1040EBEF1060F18D9033BF3
:10A520004FF0FF3E0EFA0CFC21EA0C0199400EFAA6
:10A5300003F322EA0303194300280BDB0901C9B224
:10A5400000F1604000F5614080F800135DF804FB05
:10A550000023E5E700F00F000901C9B2024B1954CE
:10A56000F4E700BF00ED00E014ED00E0002807DB99
:10A5700000F01F02400901239340024A42F82030B4
:10A58000704700BF00E100E058B110B504464379C0
:10A590001BB101236371002010BD0371FEF782FD22
:10A5A000F7E70120704770B50446866DFFF7C0FCE1
:10A5B00094F83530DBB2022B06D08023636500238C
:10A5C00084F83430012070BD05462268136823F0FA
:10A5D000160313602268536923F080035361236CD0
:10A5E000E3B12268136823F008031360226813683C
:10A5F00023F00103136023681B6813F0010F11D0CF
:10A60000FFF796FC431B052BF5D920236365032038
:10A6100084F83500002384F83430D4E7A36C002B91
:10A62000DFD1E3E7E26D3F239340B360012384F879
:10A630003530002084F83400C5E790F83530DBB2BF
:10A64000022B03D08023436501207047052380F847
:10A6500035300268136823F001031360002070474F
:10A6600003689A6912F0020F01D000229A6203680F
:10A670009A6912F0010F03D19A6942F001029A61BE
:10A68000704710B4019CC1F3090141EA024119432A
:10A69000214321F0004102685368640D04F4806492
:10A6A00044F07F7444F4583444F47F7444F0030459
:10A6B00023EA0404214351605DF8044B70472DE9FF
:10A6C000F041044603689D6915F0100564D00E46FC
:10A6D00017465A6812F0007F03D15A6842F480424C
:10A6E0005A604FF0000845462368986910F0200F23
:10A6F0000ED16DB9B6F1FF3FF6D0FFF719FCC01BC4
:10A70000B04201D8002EEFD148F020080125EBE738
:10A710000DB92022DA6123681022DA6148F00405BD
:10A7200001262268936913F4807F05D045F0010566
:10A730004FF48071D161012613F4806F06D045F08B
:10A74000080522684FF48061D161012613F4007F6F
:10A7500024D045F0020523684FF40072DA61012627
:10A760002046FFF77DFF2268536823F0FF7323F430
:10A770008B3323F4FF7323F001035360636C1D4399
:10A780006564202384F84130002384F8423084F843
:10A7900040303046BDE8F0810026C2E7002EF8D0F8
:10A7A000DEE770B504460D46164623689B6913F034
:10A7B000020F1DD1324629462046FFF780FFC8B957
:10A7C000B5F1FF3FF1D0FFF7B3FB801BA84201D8E2
:10A7D000002DEAD1636C43F020036364202384F8E6
:10A7E0004130002384F8423084F84030012000E0FA
:10A7F000002070BD0120FCE72DE9F04106468846A7
:10A8000017461D463468A46938EA04030CBF4FF0AC
:10A81000010C4FF0000CBC4518D1B5F1FF3FF1D051
:10A82000FFF786FB069BC01AA84201D8002DE9D18C
:10A83000736C43F020037364202386F841300023B7
:10A8400086F8423086F84030012000E00020BDE864
:10A85000F08170B505460C4616462B689B6913F0CF
:10A86000200F1AD1324621462846FFF728FFB0B9FB
:10A87000FFF75EFB801BA04201D8002CEDD16B6C72
:10A8800043F020036B64202385F84130002385F8D2
:10A89000423085F84030012070BD0020FCE70120E7
:10A8A000FAE770B504460D46164623689B6913F017
:10A8B000040F3ED1324629462046FFF700FF0146ED
:10A8C000002838D123689A6912F0200F13D1FFF7BE
:10A8D0002FFB801BA84201D8002DE6D1636C43F00A
:10A8E00020036364202384F84130002384F840303F
:10A8F0000121084670BD9A6912F0040F02D0228D22
:10A90000002AF6D12022DA6121684B6823F0FF7318
:10A9100023F48B3323F4FF7323F001034B600023F4
:10A92000636484F8412084F8423084F84030012187
:10A93000DFE70021DDE70121DBE7002859D010B572
:10A94000044690F84130002B43D0242384F8413052
:10A950002268136823F0010313606368226823F000
:10A96000706313612268936823F400439360E36883
:10A97000012B33D0A368226843F404439360E36857
:10A98000022B31D02268536843F0007343F4004334
:10A9900053602268D36823F40043D360236962695B
:10A9A0001343A169226843EA0123D360E369216A62
:10A9B00022680B4313602268136843F0010313609D
:10A9C00000206064202384F84130206384F8420032
:10A9D00010BD80F84030FEF7A1FBB6E7A3682268FF
:10A9E00043F400439360CAE723684FF400625A605F
:10A9F000C8E70120704700002DE9F04782B00F46FC
:10AA00000A9E90F84110C9B2202940F0A380044664
:10AA10009046994690F84030012B00F09F804FF00F
:10AA2000010A80F840A0FFF783FA05460090192339
:10AA300052464FF400412046FFF7DEFE002840F06A
:10AA40008F80212384F84130102384F84230002382
:10AA50006364C4F82480A4F82A906363638D9BB276
:10AA6000FF2B0AD9FF222285414B00934FF08073C0
:10AA700039462046FFF705FE18E0628D92B2228526
:10AA80003B4B00934FF00073D2B239462046FFF79C
:10AA9000F8FD0BE0628D92B22285002300934FF007
:10AAA0000073D2B239462046FFF7EBFD638D9BB2AF
:10AAB000002B33D02A4631462046FFF772FE00288D
:10AAC00050D1626A236812789A62636A01336362C2
:10AAD000638D9BB2013B9BB26385238D013B9BB28F
:10AAE0002385628D92B2002AE0D0002BDED1009542
:10AAF0003346002280212046FFF77EFEA0BB638DF7
:10AB00009BB2FF2BC6D9FF222285002300934FF072
:10AB1000807339462046FFF7B4FDC7E72A46314621
:10AB20002046FFF796FE08BB23682022DA612168E1
:10AB30004B6823F0FF7323F48B3323F4FF7323F06C
:10AB400001034B6084F84120002384F8423084F8EC
:10AB5000403000E0022002B0BDE8F0870220FAE7B2
:10AB60000120F8E70120F6E70120F4E70120F2E7F1
:10AB7000002000802DE9F04782B00F460A9E90F831
:10AB80004110C9B2202940F0A2800446904699465F
:10AB900090F84030012B00F09E804FF0010A80F8C1
:10ABA00040A0FFF7C5F905460090192352464FF41F
:10ABB00000412046FFF720FE002840F08E8022232F
:10ABC00084F84130102384F8423000236364C4F8D1
:10ABD0002480A4F82A906363638D9BB2FF2B0AD96B
:10ABE000FF222285414B00934FF080733946204667
:10ABF000FFF747FD18E0628D92B222853B4B009330
:10AC00004FF00073D2B239462046FFF73AFD0BE011
:10AC1000628D92B22285002300934FF00073D2B26E
:10AC200039462046FFF72DFD638D9BB2002B32D0B5
:10AC30002A4631462046FFF734FE00284FD12368CC
:10AC40005A6A636A1A70636A01336362228D013A39
:10AC500092B22285638D9BB2013B9BB26385638D6B
:10AC60009BB2002BE0D0002ADED100953346802134
:10AC70002046FFF7C1FDA0BB638D9BB2FF2BC7D958
:10AC8000FF222285002300934FF08073394620462F
:10AC9000FFF7F7FCC8E72A4631462046FFF7D9FD03
:10ACA00008BB23682022DA6121684B6823F0FF7318
:10ACB00023F48B3323F4FF7323F001034B6084F8F8
:10ACC0004120002384F8423084F8403000E0022024
:10ACD00002B0BDE8F0870220FAE70120F8E7012082
:10ACE000F6E70120F4E70120F2E700BF002400802E
:10ACF00090F84130DBB2202B24D190F84030012B6A
:10AD000022D0012380F84030242380F841300268AB
:10AD1000136823F0010313600268136823F480535F
:10AD2000136002681368194311600268136843F0E6
:10AD300001031360202380F84130002380F8403065
:10AD400018467047022070470220704700230F2BDF
:10AD500000F2DE8070B582B060E085685E0003249A
:10AD6000B44025EA0405CC68B4402C4384604568AF
:10AD700025EA02054C68C4F300129A402A43426057
:10AD80005AE0DC08083450F8246003F0070295000C
:10AD90000F22AA4026EA020E0A69AA4042EA0E02DF
:10ADA00040F824205CE0062200E0002202FA0EF2C5
:10ADB0002A430234574D45F82420574A94686FEAD5
:10ADC0000C0224EA0C054E6816F4801F01D04CEAF0
:10ADD0000405514CA560E46802EA04054E6816F4C7
:10ADE000001F01D04CEA04054B4CE560646802EAA0
:10ADF00004054E6816F4003F01D04CEA0405464CA9
:10AE00006560246822404D6815F4803F01D04CEA0B
:10AE10000402414C226001330F2B77D801229A4063
:10AE20000C6804EA020C32EA0404F4D14C6804F021
:10AE30000304013C012C90D94A6802F00302032A62
:10AE400009D0C4685D000322AA4024EA02048A688B
:10AE5000AA402243C2604A6802F00302022A90D04C
:10AE600004684FEA430E032202FA0EF224EA0204B7
:10AE70004A6802F0030202FA0EF2224302604A68B4
:10AE800012F4403FC7D000220192244A546C44F48B
:10AE900080445464526C02F480420192019A9C08EE
:10AEA000A51C1C4A52F8255003F003024FEA820EFB
:10AEB0000F2202FA0EF225EA0205194A90423FF4E7
:10AEC00074AF02F58062904216D002F58062904223
:10AED00014D002F58062904212D002F58062904256
:10AEE00010D002F5806290420ED002F5806290424E
:10AEF0003FF459AF072259E7012257E7022255E7ED
:10AF0000032253E7042251E705224FE702B070BD48
:10AF1000704700BF00380140003C0140003802404B
:10AF2000000002400AB181617047090481617047E5
:10AF30007047000008B5054B5B69034200D108BDAE
:10AF4000024B5861FFF7F4FFF9E700BF003C0140F6
:10AF500003685A6912F4806F01D1002070476FF4C2
:10AF600080625A6100230363202280F83D2080F82C
:10AF70003E30026C42F00402026480F83C30012052
:10AF800070472DE9F04107460D4690461E4624E0E5
:10AF9000FEF7CEFF069BC01AB04200D8EEB90023E0
:10AFA0003B63202287F83D2087F83E303A6C42F020
:10AFB00020023A6487F83C3001201EE03B689C691F
:10AFC00025EA040C1FFA8CFCBCFA8CFC4FEA5C1CD2
:10AFD000E04511D1B6F1FF3FDAD1C5F30743012BAC
:10AFE000ECD13B685B6925EA030C1FFA8CFCBCFAC8
:10AFF0008CFC4FEA5C1CEBE70020BDE8F0812DE9FA
:10B00000F04105460E46174698463DE01A6842F460
:10B0100000721A602B686FF480625A6100232B6300
:10B02000202285F83D2085F83E302A6C42F004024B
:10B030002A6485F83C30012034E0FEF779FFA0EB6C
:10B040000800B84200D8FFB900232B63202285F8FE
:10B050003D2085F83E302A6C42F020022A6485F8B3
:10B060003C3001201EE02B689C6926EA0404A4B24F
:10B07000003C18BF0124A4B12B685A6912F4806FF8
:10B08000C4D1B7F1FF3FD8D1C6F30743012BEAD1B2
:10B090002B685C6926EA0404A4B2003C18BF0124B2
:10B0A000E9E70020BDE8F081F0B583B004460D4625
:10B0B00016461F46C36A082B0DD0012B0BD013F583
:10B0C000803F08D0036B122B0AD10268136843F447
:10B0D0008073136004E02268136843F48073136084
:10B0E0000097334600224FF001112046FFF749FF39
:10B0F00080B92369B3F5804F16D1236805F0FE05AA
:10B100001D613B46324613492046FFF778FFF8B9E8
:10B1100003B0F0BD23681B6813F4807F02D04FF4A6
:10B12000007323640320F3E7EB11226803F00603A6
:10B1300043F0F00313613B46324607492046FFF7D0
:10B140005EFF18B92368EDB21D61DAE70120DFE781
:10B150000120DDE702000100080001002DE9F041B7
:10B1600084B004460D4616461F46C26A01680B6845
:10B1700043F480630B60082A0DD0012A0BD012F52E
:10B18000803F08D0036B112B0AD10268136843F487
:10B190008073136004E02268136843F480731360C3
:10B1A0000097334600224FF001112046FFF7E9FED9
:10B1B00098B92369B3F5804F19D1236845F001058B
:10B1C000EDB21D613B4632462A492046FFF717FF84
:10B1D00000284CD104B0BDE8F08123681B6813F44B
:10B1E000807F02D04FF4007323640320F2E74FEA1C
:10B1F000E51808F00608236848F0F0021A613B469B
:10B2000032461D492046FFF7FAFE08B10120E1E76A
:10B210002368EDB21D613B46324616492046FFF7D2
:10B22000EEFE08B10120D5E7002203922368596998
:10B230000391996903910399196841F48071196028
:10B24000009733464FF001112046FFF79AFE20B9D0
:10B25000226848F0F1031361B4E723681B6813F414
:10B26000807F02D04FF4007323640320B2E70120F3
:10B27000B0E700BF020001000800010070B50446FD
:10B280000D46164623685B6913F0800F1CD12046DB
:10B29000FFF75EFED0B9B5F1FF3FF3D0FEF748FEF1
:10B2A000801BA84201D8002DECD10023236320226B
:10B2B00084F83D2084F83E30226C42F02002226463
:10B2C00084F83C30012000E0002070BD0120FCE744
:10B2D00070B504460D46164623685B6913F0040FEB
:10B2E0001CD12046FFF734FED0B9B5F1FF3FF3D0B3
:10B2F000FEF71EFE801BA84201D8002DECD10023D2
:10B300002363202284F83D2084F83E30226C42F0F2
:10B310002002226484F83C30012000E0002070BD4F
:10B320000120FCE770B505460C4616462B685969A6
:10B3300011F0400F29D1596911F0100F15D1FEF706
:10B34000F7FD801BA04201D8002CEFD100232B6316
:10B35000202285F83D2085F83E302A6C42F02002FC
:10B360002A6485F83C30012070BD6FF010025A61EC
:10B3700000232B63202285F83D2085F83E302A6C7F
:10B380002A6485F83C300120EEE70020ECE700005D
:10B39000002800F0CC8070B5044690F83D30002BBA
:10B3A00077D0242384F83D302268136823F001030A
:10B3B00013602268136843F4004313602268136823
:10B3C00023F40043136000F0E5FB62685A4B9A4295
:10B3D00064D85A4B98428CBF00230123002B40F0C5
:10B3E000A8805749A1FB00318B0C25686A6822F0C0
:10B3F0003F0242EA91426A6021680A6A22F03F02F3
:10B4000066684D4DAE424FD8013313430B6221683D
:10B41000CA6922F44F4222F0FF026668464B9E4200
:10B420004CD8431E7600B3FBF6F3013340F6FC70B4
:10B43000034278D0C3F30B031343CB6121680B683D
:10B4400023F0C003E269206A024313430B602168C2
:10B450008B6823F4034323F0FF032269E06802436F
:10B4600013438B602168CB6823F0FF036269A069F6
:10B4700002431343CB602268136843F00103136057
:10B4800000202064202384F83D30206384F83E00AF
:10B4900070BD80F83C30FDF7CDFF82E7294B984224
:10B4A0008CBF0023012399E74FF4967505FB03F346
:10B4B000254DA5FB03539B090133A6E7A368BBB940
:10B4C000451E06EB460CB5FBFCF50135C5F30B0537
:10B4D000B5FA85F56D0945BBC3B9013806EB4603DE
:10B4E000B0FBF3F30133C3F30B0343F40043A3E7CF
:10B4F000451E06EB860C0CEB8C0CB5FBFCF5013500
:10B50000C5F30B05B5FA85F56D09E4E7013806EBDF
:10B51000860303EB8303B0FBF3F30133C3F30B03A5
:10B5200043F4404388E7042386E7012384E70120AE
:10B5300070470120ACE700BFA08601007F841E0099
:10B5400083DE1B43FF083D00D34D62102DE9F0431D
:10B5500085B004460F46914698460C9EFEF7E8FCDF
:10B56000054694F83D00C0B2202804D00227384692
:10B5700005B0BDE8F0830095192301224F4920460C
:10B58000FFF7FFFC002840F0928094F83C30012B3C
:10B5900000F08F80012384F83C3023681A6812F091
:10B5A000010F03D11A6842F001021A602268136881
:10B5B00023F400631360212384F83D30102384F8C2
:10B5C0003E3000232364C4F82490A4F82A80638DBD
:10B5D00023853B4BE3622B46324639462046FFF734
:10B5E00063FD0746002866D10023039323685A6948
:10B5F00003929B690393039B11E0236C042B01D0FE
:10B600000127B4E72268136843F400731360F7E777
:10B610002A4631462046FFF75BFE00282ED1238DB7
:10B62000002B36D02A4631462046FFF727FE002859
:10B63000E3D1626A236812781A61606A431C63620C
:10B64000618D89B2013989B26185238D013B9BB23D
:10B6500023852268516911F0040FD9D0002BD7D06F
:10B6600043781361636A01336362638D9BB2013B6C
:10B670009BB26385238D013B2385C9E7236C042B93
:10B6800001D0012773E72268136843F40073136045
:10B69000F7E72268136843F400731360202384F8EB
:10B6A0003D30002384F83E3084F83C305FE70227C9
:10B6B0005DE702275BE7012759E700BF02001000A2
:10B6C0000000FFFF2DE9F04387B004460F46914686
:10B6D00098460E9EFEF72CFC054694F83D00C0B23D
:10B6E000202804D00227384607B0BDE8F083009533
:10B6F0001923012289492046FFF743FC002840F026
:10B70000458194F83C30012B00F04281012384F8FC
:10B710003C3023681A6812F0010F03D11A6842F016
:10B7200001021A602268136823F400631360222365
:10B7300084F83D30102384F83E3000232364C4F89D
:10B740002490A4F82A80638D2385754BE3622B46F1
:10B75000324639462046FFF701FD0746002840F0F3
:10B760001981238D5BB9029323685A6902929A6901
:10B770000292029A1A6842F400721A607AE0012B6F
:10B780000FD0022B1FD02268136843F4806313602C
:10B790000023059323685A6905929B690593059BCD
:10B7A00068E02268136823F4806313600023039326
:10B7B00023685A6903929A690392039A1A6842F4B9
:10B7C00000721A6056E02268136823F480631360E5
:10B7D0002268136843F40063136000230493236812
:10B7E0005A6904929B690493049B43E02A463146BC
:10B7F0002046FFF797FD002840F0CE8023681A69A5
:10B80000636A1A70636A01336362238D013B238587
:10B81000638D9BB2013B9BB263852BE00095334661
:10B82000002240492046FFF7ACFB002840F0B680DC
:10B830002268136843F40073136023681A69636A0B
:10B840001A70626A531C6362238D013B2385638DEA
:10B850009BB2013B9BB2638523681B695370636A8B
:10B8600001336362238D013B2385638D9BB2013BD2
:10B870009BB26385218D00297FD0032954D80129EB
:10B88000B4D00229CAD0009533460022254920466B
:10B89000FFF777FB002840F083802268136823F4C9
:10B8A0008063136023681A69636A1A70636A0133DC
:10B8B0006362238D013B2385618D89B2013989B291
:10B8C000618500953346002216492046FFF759FB53
:10B8D000002867D12268136843F40073136023685B
:10B8E0001A69636A1A70626A531C6362238D013B92
:10B8F0002385638D9BB2013B9BB2638523681B69E3
:10B900005370636A01336362238D013B2385638D2A
:10B910009BB2013B9BB26385ACE700BF0200100005
:10B920000000FFFF040001002A4631462046FFF7D1
:10B93000F9FC002838D123681A69636A1A70626AB0
:10B94000531C6362238D013B2385638D9BB2013BB6
:10B950009BB263852368596911F0040F8AD01B6973
:10B960005370636A01336362238D013B2385638DCA
:10B970009BB2013B9BB263857CE7202384F83D307A
:10B98000002384F83E3084F83C30ACE60227AAE677
:10B990000227A8E60127A6E60127A4E60127A2E6DA
:10B9A0000127A0E601279EE601279CE610B582B09C
:10B9B00000230193194B1A6C42F080521A641B6CDD
:10B9C00003F080530193019B154B01221A64FEF78B
:10B9D000AFFA0446134B5B6813F4803F08D1FEF7BF
:10B9E000A7FA001BB0F57A7FF4D9032002B010BD8E
:10B9F0000B4B01225A64FEF79BFA0446094B5B6825
:10BA000013F4003F07D1FEF793FA001BB0F57A7FDD
:10BA1000F4D90320EAE70020E8E700BF003802403D
:10BA200000000E4200700040002800F09B8070B5BE
:10BA30000D4604464F4B1B6803F00F038B4208D2A0
:10BA4000CBB24C4A1370136803F00F038B4240F0E3
:10BA50008B80236813F0020F17D013F0040F04D06B
:10BA6000454A936843F4E0539360236813F0080F4A
:10BA700004D0414A936843F4604393603E4A93681C
:10BA800023F0F003A1680B439360236813F0010FC8
:10BA900032D06368012B21D09A1E012A25D9364A5B
:10BAA000126812F0020F61D033498A6822F0030253
:10BAB00013438B60FEF73CFA06462F4B9B6803F05E
:10BAC0000C036268B3EB820F16D0FEF731FA801BCD
:10BAD00041F288339842F0D9032042E0264A1268A6
:10BAE00012F4003FE0D101203BE0234A126812F03B
:10BAF000007FD9D1012034E01E4B1B6803F00F03F7
:10BB0000AB4207D9EAB21B4B1A701B6803F00F0354
:10BB1000AB422DD1236813F0040F06D0164A936868
:10BB200023F4E053E1680B439360236813F0080F9C
:10BB300007D0114A936823F46043216943EAC103A3
:10BB4000936000F09FFA0C4B9B68C3F303130B4AFE
:10BB5000D35CD8400A4B18600A4B1868FDF70AFFFF
:10BB6000002070BD012070470120FAE70120F8E7AE
:10BB70000120F6E7003C024000380240288001081E
:10BB80000000002008000020014B1868704700BF2B
:10BB90000000002008B5FFF7F7FF044B9B68C3F3D4
:10BBA0008223034AD35CD84008BD00BF003802405E
:10BBB0003880010808B5FFF7E7FF044B9B68C3F323
:10BBC0004233034AD35CD84008BD00BF003802406E
:10BBD000388001080F2303600B4B9A6802F00302C0
:10BBE00042609A6802F0F00282609A6802F4E052C1
:10BBF000C2609B68DB0803F4E0530361034B1B68DE
:10BC000003F00F030B60704700380240003C024015
:10BC1000F0B583B00446066816F001060DD0964ACA
:10BC2000D2F88C3023F0C063816B0B43C2F88C30A8
:10BC3000836B002B00F09B800026236813F0020F1B
:10BC40000BD08D4AD2F88C3023F0C053E16B0B43FC
:10BC5000C2F88C30E36B03B90126256815F00405A2
:10BC60000FD0854AD2F88C3023F44013216B0B435C
:10BC7000C2F88C30236BB3F5801F7AD0002B7AD0BA
:10BC80000025236813F0080F0ED07B4AD2F88C30C1
:10BC900023F44003616B0B43C2F88C30636BB3F544
:10BCA000800F6AD003B90125236813F0200F66D1F5
:10BCB000236813F0100F04D094F858206F4BC3F88A
:10BCC000E021236813F0800F08D06B4AD2F894303B
:10BCD00023F44003E16C0B43C2F89430236813F063
:10BCE000400F08D0644AD2F8943023F08063A16CEE
:10BCF0000B43C2F89430236813F4807F0DD05E4A62
:10BD0000D2F8943023F00063616D0B43C2F8943095
:10BD1000636DB3F1006F00F09B80236813F4007F24
:10BD200008D0554AD2F8943023F08053616C0B430D
:10BD3000C2F89430236813F4806F0CD04E4AD2F8C6
:10BD4000943023F00053216D0B43C2F89430236DDF
:10BD5000B3F1005F7ED0002E7CD12368B3F5006F75
:10BD600078D0012D00F02581002003B0F0BD012620
:10BD700063E7012682E7012583E7012692E7002396
:10BD800001933D4B1A6C42F080521A641B6C03F015
:10BD900080530193019B3A4A136843F48073136004
:10BDA000FEF7C6F80746364B1B6813F4807F06D1B2
:10BDB000FEF7BEF8C01B0228F5D90320D5E72E4BAD
:10BDC0001B6F13F4407314D0226C02F440729A4239
:10BDD0000FD0294B1A6F22F440722A490120C1F872
:10BDE000400E0020C1F8400E1A671B6F13F0010FC0
:10BDF00012D1236C03F44072B2F5407F1DD01E4A6D
:10BE0000936823F4F81393601B490B6F226CC2F301
:10BE10000B0213430B674BE7FEF78AF80746164BF6
:10BE20001B6F13F0020FE4D1FEF782F8C01B41F242
:10BE300088339842F3D9032097E70F498A6822F4A0
:10BE4000F81223F0704323F4407313438B60DBE755
:10BE5000012562E70B4B00229A66FEF769F8064659
:10BE6000054B1B6813F0006F0ED0FEF761F8801BC6
:10BE70000228F5D9032078E7003802400010474235
:10BE80000070004000004742236813F0010F01D00A
:10BE9000A26B22B113F0020F15D0E36B9BB9774A66
:10BEA000D2F88400D2F884106368A66843EA861347
:10BEB00000F44030034301F070610B43616943EAD1
:10BEC0000173C2F88430236813F0040F03D0226B8F
:10BED000B2F5801F06D013F0080F20D0636BB3F5C6
:10BEE000800F1CD1654AD2F88400D2F884106368B0
:10BEF000A66843EA861300F440300343206943EA0E
:10BF0000006301F0E0410B43C2F88430D2F88C307A
:10BF100023F01F03A16A01390B43C2F88C30236858
:10BF200013F4806F03D0236DB3F1005F28D0236832
:10BF300013F4006F11D06368A26843EA8213E268C9
:10BF40005208013A43EA0243226943EA0263626902
:10BF500043EA0273494AC2F88430494B01229A6687
:10BF6000FDF7E6FF0646454B1B6813F0006F7FF4B4
:10BF7000F8AEFDF7DDFF801B0228F4D90320F4E6BC
:10BF80003E48D0F88430C3F301435A1CD0F8846093
:10BF90006368A16843EA8113E1684908013943EA0B
:10BFA000014343EA426306F0E0421343C0F88430A1
:10BFB000BDE7334B00221A67FDF7BAFF05462F4B4A
:10BFC0001B6813F0005F06D0FDF7B2FF401B02288C
:10BFD000F5D90320C9E6236813F0040F01D0226BC2
:10BFE00022B113F0080F1AD0636BC3B9234AD2F8F9
:10BFF0008810A369E06943EA801301F440310B43E0
:10C00000616A43EA0163C2F88830D2F88C3023F4C5
:10C01000F853E16A013943EA0123C2F88C302368FE
:10C0200013F4807F03D0636DB3F1006F11D0144B14
:10C0300001221A67FDF77CFF0446104B1B6813F0C2
:10C04000005F18D1FDF774FF001B0228F5D903200B
:10C050008BE60A48D0F88810A369E26943EA8213A4
:10C06000226A5208013A43EA024301F07062134324
:10C07000C0F88830DBE7002077E600BF00380240D8
:10C080000000474208B55A4B9B6803F00C03082B8D
:10C0900003D00C2B57D0574808BD554B5A6802F0B7
:10C0A0003F025B6813F4800F2AD0514B5968C1F3EB
:10C0B000881C4FEA4C11B1EB0C006EEB0E0E4FEAF0
:10C0C0008E1343EA90638101091A63EB0E03DB00D0
:10C0D00043EA5173C90011EB0C0C43F100039902C0
:10C0E00000234FEA8C2041EA9C51FCF7CDFD404BE8
:10C0F0005B68C3F3014301335B00B0FBF3F0CBE7B4
:10C100003B4B5968C1F3881C4FEA4C11B1EB0C0052
:10C110006EEB0E0E4FEA8E1343EA90638101091A0B
:10C1200063EB0E03DB0043EA5173C90011EB0C0C07
:10C1300043F10003990200234FEA8C2041EA9C510D
:10C14000FCF7A2FDD3E72A4B5A6802F03F025B6876
:10C1500013F4800F28D0264B5968C1F3881C4FEA8E
:10C160004C11B1EB0C006EEB0E0E4FEA8E1343EA4E
:10C1700090638101091A63EB0E03DB0043EA5173FC
:10C18000C90011EB0C0C43F10003990200234FEAA4
:10C190008C2041EA9C51FCF777FD154B5B68C3F39B
:10C1A0000273B0FBF3F077E7114B5968C1F3881CB9
:10C1B0004FEA4C11B1EB0C006EEB0E0E4FEA8E13F2
:10C1C00043EA90638101091A63EB0E03DB0043EA43
:10C1D0005173C90011EB0C0C43F1000399020023C9
:10C1E0004FEA8C2041EA9C51FCF74EFDD5E700BF99
:10C1F000003802400024F400002800F0018270B5ED
:10C2000082B00446036813F0010F41D0994B9B683C
:10C2100003F00C03042B32D0964B9B6803F00C0305
:10C22000082B27D0934B9B6803F00C030C2B59D0A1
:10C230006368B3F5803F5BD0B3F5A02F5ED08D4B24
:10C240001A6822F480321A601A6822F480221A6076
:10C250006368002B5CD0FDF76BFE0546854B1B68C1
:10C2600013F4003F14D1FDF763FE401B6428F5D999
:10C270000320CCE17F4B5B6813F4800FD2D07D4B61
:10C280001B6813F4003F03D06368002B00F0BA81F1
:10C29000236813F0020F60D0764B9B6813F00C0FED
:10C2A0004AD0744B9B6803F00C03082B3FD0714BB2
:10C2B0009B6803F00C030C2B69D0E368002B75D04E
:10C2C0006D4B01221A60FDF733FE0546694B1B6872
:10C2D00013F0020F61D1FDF72BFE401B0228F5D9A8
:10C2E000032094E1634B5B6813F4800FA0D0C6E792
:10C2F000604A136843F480331360A9E75D4B1A6802
:10C3000042F480221A601A6842F480321A609FE771
:10C31000FDF70EFE0546574B1B6813F4003FB7D0E0
:10C32000FDF706FE401B6428F5D903206FE1514B51
:10C330005B6813F4800FBAD14E4B1B6813F0020FE9
:10C3400003D0E368012B40F05F814A4A136823F071
:10C35000F803216943EAC1031360236813F0080F4F
:10C3600049D06369002B33D0434B0122C3F8802EA0
:10C37000FDF7DEFD05463F4B5B6F13F0020F3AD130
:10C38000FDF7D6FD401B0228F5D903203FE1394BCC
:10C390005B6813F4800F90D1CEE7364A136823F020
:10C3A000F803216943EAC1031360D6E7324B002248
:10C3B0001A60FDF7BDFD05462E4B1B6813F0020FFA
:10C3C000CBD0FDF7B5FD401B0228F5D903201EE1B7
:10C3D000294B0022C3F8802EFDF7AAFD0546254B08
:10C3E0005B6F13F0020F06D0FDF7A2FD401B022881
:10C3F000F5D903200BE1236813F0040F76D01D4B11
:10C400001B6C13F0805F33D100230193194B1A6C1E
:10C4100042F080521A641B6C03F080530193019B1D
:10C420000125164B1B6813F4807F29D0A368012BCC
:10C430003AD0052B3ED00F4B1A6F22F001021A673B
:10C440001A6F22F004021A67A368002B3CD0FDF794
:10C450006FFD0646074B1B6F13F0020F45D1FDF72A
:10C4600067FD801B41F288339842F3D90320CEE068
:10C470000025D6E700380240000047420070004027
:10C480006B4A136843F480731360FDF751FD064651
:10C49000674B1B6813F4807FC8D1FDF749FD801BF3
:10C4A0000228F5D90320B2E0624A136F43F001037A
:10C4B0001367C9E75F4B1A6F42F004021A671A6FDD
:10C4C00042F001021A67BFE7FDF732FD0646594BFD
:10C4D0001B6F13F0020F08D0FDF72AFD801B41F2FD
:10C4E00088339842F3D9032091E0EDB9A369002B7A
:10C4F00000F08C804F4A926802F00C02082A54D057
:10C50000022B17D04C4B00221A66FDF711FD044692
:10C51000484B1B6813F0007F45D0FDF709FD001B59
:10C520000228F5D9032072E0424A136C23F08053AD
:10C530001364DBE7404B00221A66FDF7F9FC054661
:10C540003C4B1B6813F0007F06D0FDF7F1FC401B4D
:10C550000228F5D903205AE0E369226A1343626A8C
:10C5600043EA8213A26A5208013A43EA0243E26AAA
:10C5700043EA0263226B43EA02732E4A53602E4B56
:10C5800001221A66FDF7D4FC04462A4B1B6813F0FF
:10C59000007F06D1FDF7CCFC001B0228F5D9032053
:10C5A00035E0002033E0002031E0012B31D0214B79
:10C5B0005B6803F48001E26991422CD103F03F02F1
:10C5C000216A8A4229D1616A47F6C0721A40B2EBE9
:10C5D000811F24D103F44031A26A5208013AB1EB21
:10C5E000024F1ED103F07062E16AB2EB016F1AD103
:10C5F00003F0E043226BB3EB027F16D1002006E08C
:10C6000001207047012002E0012000E0002002B07C
:10C6100070BD0120FBE70120F9E70120F7E70120C9
:10C62000F5E70120F3E70120F1E70120EFE700BF84
:10C630000070004000380240000047422DE9F047FA
:10C6400082B00546884617461E46FDF771FC0A9BD8
:10C650001B1A03EB0609FDF76BFC82462B4B1B688C
:10C66000C3F3CB3309FB03F301932B689C6838EACF
:10C6700004030CBF4FF0010C4FF0000CBC4540D040
:10C68000B6F1FF3FF1D0FDF753FCA0EB0A0048459F
:10C690000AD2B9F1000F07D0019A02B14A46019BB4
:10C6A000013B01939146E0E72A68536823F0E003D9
:10C6B00053606B68B3F5827F0BD0AB6AB3F5005F54
:10C6C00014D0012385F85130002385F85030032021
:10C6D00018E0AB68B3F5004F02D0B3F5806FECD132
:10C6E0002A68136823F040031360E6E72A6813689A
:10C6F00023F4005313602A68136843F40053136053
:10C70000DFE7002002B0BDE8F08700BF0000002096
:10C7100010B584B00446164B1868164BA3FB0030C6
:10C72000400D4FF47A7303FB00F003906368B3F598
:10C73000827F0BD0039BBBB1039B013B0393236818
:10C740009B6813F0800FF5D100200EE000920B469D
:10C75000002280212046FFF771FF30B1636D43F066
:10C7600020036365032000E0002004B010BD00BF7B
:10C7700000000020819F5E1600285AD010B50446A4
:10C78000436A33B94368B3F5827F05D00023C361A0
:10C7900002E00023036143610023A36294F8513057
:10C7A000002B40D0022384F851302268136823F014
:10C7B00040031360636803F48273A26802F40442C6
:10C7C0001343E26802F400621343226902F002029A
:10C7D0001343626902F001021343A26902F400727A
:10C7E0001343E26902F038021343226A02F0800226
:10C7F0001343A26A02F40052216813430B60638B57
:10C8000003F00403626A02F01002216813434B60D4
:10C810002268D36923F40063D3610020606501239B
:10C8200084F8513010BD84F850302046FCF7D4FF16
:10C83000B8E7012070472DE9F04383B01F460A9DF9
:10C8400090F85030012B00F0108104468846914644
:10C85000012380F85030FDF76BFB064694F8513009
:10C86000DBB26268012B0AD0B2F5827F40F0E38030
:10C87000A268002A40F0E980042B40F0E880B8F17B
:10C88000000F00F0E680B9F1000F00F0E480002F07
:10C8900000F0E38094F85130DBB2042B02D0052382
:10C8A00084F8513000236365C4F83890E787A78780
:10C8B000C4F83080E786A7862364636423681A6817
:10C8C00012F0400F03D11A6842F040021A60E36888
:10C8D000B3F5006F11D063680BB1012F0BD1226B40
:10C8E000236812781A73236B01332363E38E9BB2A0
:10C8F000013B9BB2E38601276BE063680BB1012F1C
:10C900000BD1226B23681288DA60236B0233236316
:10C91000E38E9BB2013B9BB2E38601271CE02368B8
:10C920009A6812F0010F0ED0E28F92B25AB1DA6813
:10C93000A36B1A80A36B0233A363E38F9BB2013B0B
:10C940009BB2E3870127FDF7F3FA801BA84203D3CC
:10C95000B5F1FF3F40F08380E38E9BB21BB9E38FBC
:10C960009BB2002B53D023689A6812F0020FD6D0E6
:10C97000E28E92B2002AD2D0002FD0D0226B128841
:10C98000DA60236B02332363E38E9BB2013B9BB2DD
:10C99000E3860027C3E723689A6812F0010F0ED0E0
:10C9A000E28F92B25AB1DA68A36B1A70A36B0133AB
:10C9B000A363E38F9BB2013B9BB2E3870127FDF7A3
:10C9C000B7FA831BAB4202D3B5F1FF3F49D1002D2B
:10C9D00049D0E38E9BB213B9E38F9BB2BBB12368FE
:10C9E0009A6812F0020FD6D0E28E92B2002AD2D00C
:10C9F000002FD0D0226B12781A73236B013323637C
:10CA0000E38E9BB2013B9BB2E3860027C3E732462D
:10CA100029462046FFF77CFE48B9A36863B9019315
:10CA20002368DA6801929B680193019B04E020234C
:10CA30006365012000E00220012384F851300023C7
:10CA400084F8503003B0BDE8F0830220F4E7022000
:10CA5000F2E70120F0E70120EEE70120ECE70320F8
:10CA6000EAE70320E8E70320E6E70220EAE790F898
:10CA70005100704730B4036A23F001030362036A74
:10CA80004268846924F073040D682C4323F0020C7F
:10CA90008B6843EA0C03104DA84203D005F580656E
:10CAA000A84205D123F00803CD682B4323F00403EB
:10CAB000094DA84203D005F58065A84205D122F4AE
:10CAC00040724D692A438D692A43426084614A68F5
:10CAD0004263036230BC70470000014030B4036A17
:10CAE00023F480730362036A4268C46924F0730C00
:10CAF0000C6844EA0C0523F400738C6843EA0423B1
:10CB0000114CA04203D004F58064A04206D123F466
:10CB10000063CC6843EA042323F480630A4CA042F8
:10CB200003D004F58064A04207D122F440524C693E
:10CB300042EA04128C6942EA04124260C5614A6802
:10CB4000C263036230BC70470000014030B4036A26
:10CB500023F480530362036A4468C26922F4E64204
:10CB60000D6842EA052223F400538D6843EA053339
:10CB7000094DA84203D005F58065A84204D124F4EC
:10CB800080444D6944EA85144460C2614A68026485
:10CB9000036230BC704700BF0000014010B4036A5C
:10CBA000046A24F001040462846924F0F00C4CEA65
:10CBB000021223F00A030B43826103625DF8044B07
:10CBC000704710B4046A24F0100404628469036A94
:10CBD00024F4704C4CEA023223F0A00343EA011320
:10CBE000826103625DF8044B7047836823F0700331
:10CBF0000B4343F0070383607047000090F83D301B
:10CC0000DBB2012B37D1022380F83D300268D368B4
:10CC100043F00103D3600368194A934220D0B3F173
:10CC2000804F1DD0A2F57C42934219D002F580625C
:10CC3000934215D002F58062934211D002F57842FA
:10CC400093420DD002F57052934209D0A2F594326E
:10CC5000934205D01A6842F001021A600020704722
:10CC60009A6802F00702062A07D01A6842F0010209
:10CC70001A6000207047012070470020704700BFF5
:10CC8000000001407047704770477047704710B50B
:10CC9000044603681A6912F0020F11D0DA6812F024
:10CCA000020F0DD06FF002021A61012303770368AF
:10CCB0009B6913F0030F70D0FFF7E6FF0023237783
:10CCC00023681A6912F0040F12D0DA6812F0040F08
:10CCD0000ED06FF004021A610223237723689B6948
:10CCE00013F4407F5FD02046FFF7CEFF0023237769
:10CCF00023681A6912F0080F12D0DA6812F0080FD0
:10CD00000ED06FF008021A61042323772368DB69D1
:10CD100013F0030F4ED02046FFF7B6FF0023237712
:10CD200023681A6912F0100F12D0DA6812F0100F8F
:10CD30000ED06FF010021A61082323772368DB6995
:10CD400013F4407F3DD02046FFF79EFF002323775A
:10CD500023681A6912F0010F03D0DA6812F0010F8C
:10CD600036D123681A6912F0800F03D0DA6812F006
:10CD7000800F34D123681A6912F0400F03D0DA68AB
:10CD800012F0400F32D123681A6912F0200F03D03D
:10CD9000DA6812F0200F30D110BDFFF774FF204683
:10CDA000FFF773FF8AE72046FFF76DFF2046FFF786
:10CDB0006CFF9BE72046FFF766FF2046FFF765FF05
:10CDC000ACE72046FFF75FFF2046FFF75EFFBDE7B9
:10CDD0006FF001021A612046FCF706FCC1E76FF014
:10CDE00080021A61204600F08AFAC3E76FF0400221
:10CDF0001A612046FFF74AFFC5E76FF020021A616B
:10CE0000204600F07BFAC7E70368304A904212D010
:10CE1000B0F1804F0FD0A2F57C4290420BD002F5CA
:10CE20008062904207D002F58062904203D002F502
:10CE30007842904203D123F070034A681343234A97
:10CE400090422AD0B0F1804F27D0A2F57C42904288
:10CE500023D002F5806290421FD002F5806290429A
:10CE60001BD002F57842904217D002F570529042E2
:10CE700013D002F5806290420FD002F5806290429A
:10CE80000BD0A2F59832904207D002F58062904212
:10CE900003D002F58062904203D123F44073CA6844
:10CEA000134323F080034A69134303608B68C36212
:10CEB0000B688362054B984203D003F58063984268
:10CEC00001D10B69036301234361704700000140F6
:10CED00040B310B5044690F83D30F3B1022384F816
:10CEE0003D30214651F8040BFFF78EFF012384F8F3
:10CEF000463084F83E3084F83F3084F8403084F87F
:10CF0000413084F8423084F8433084F8443084F867
:10CF1000453084F83D30002010BD80F83C30FCF7EF
:10CF200001FFDBE70120704740B310B5044690F8DD
:10CF30003D30F3B1022384F83D30214651F8040B13
:10CF4000FFF762FF012384F8463084F83E3084F80E
:10CF50003F3084F8403084F8413084F8423084F81F
:10CF6000433084F8443084F8453084F83D30002064
:10CF700010BD80F83C30FFF785FEDBE701207047ED
:10CF800030B4036A23F010030362036A44688269C1
:10CF900022F4E6420D6842EA052223F020038D6860
:10CFA00043EA0513114DA84203D005F58065A84258
:10CFB00006D123F08003CD6843EA051323F0400334
:10CFC0000A4DA84203D005F58065A84207D124F494
:10CFD00040644D6944EA85048D6944EA85044460EF
:10CFE00082614A688263036230BC7047000001407E
:10CFF00090F83C30012B28D010B50446012380F86E
:10D000003C300C2A1CD8DFE802F0071B1B1B0C1B52
:10D010001B1B111B1B1B16000068FFF72BFD0020BC
:10D020000FE00068FFF7ACFF00200AE00068FFF7A0
:10D0300055FD002005E00068FFF788FD002000E0B6
:10D040000120002384F83C3010BD0220704710B44A
:10D05000846824F47F4C42EA03220A4342EA0C0229
:10D0600082605DF8044B704790F83C30012B78D01B
:10D0700010B50446012380F83C30022380F83D308F
:10D080000268936823F47F4323F0770393600B686F
:10D09000602B4CD029D8402B54D00CD9502B22D106
:10D0A000CA6849680068FFF779FD50212068FFF7DA
:10D0B0009CFD002005E0202B0DD009D9302B0AD093
:10D0C0000120012384F83D30002384F83C3010BD5A
:10D0D0000BB1102B05D119462068FFF786FD002003
:10D0E000EFE70120EDE70120EBE7B3F5805F34D0F7
:10D0F000B3F5005F0CD1CB684A6889680068FFF718
:10D10000A6FF2268936843F4804393600020D8E729
:10D11000702B24D1CB684A6889680068FFF797FFB5
:10D120002268936843F0770393600020C9E7CA68D8
:10D1300049680068FFF745FD60212068FFF755FD4D
:10D140000020BEE7CA6849680068FFF727FD402154
:10D150002068FFF74AFD0020B3E70020B1E7012077
:10D16000AFE70220704710B50468A26822F0700291
:10D170004B68134323F007030A681343A3604B680B
:10D18000502B32D00BD9602B36D0702B43D10B698A
:10D190008A68C9680068FFF75AFF00200FE0402B3B
:10D1A0000ED001D901200AE0202B2CD003D9302B3E
:10D1B0002FD1002003E043B3102B28D1002010BD55
:10D1C0000B68052B29D003681C6A1A6A22F0010239
:10D1D0001A620268936923F0F003096943EA0113B4
:10D1E000936103681C620020E9E70A6989680068A6
:10D1F000FFF7D4FC0020E2E70A6989680068FFF7BE
:10D20000E0FC0020DBE70020D9E70020D7E7012081
:10D21000D5E70120D3E70120D1E70120CFE790F83F
:10D220003C30012B22D010B50446012380F83C305D
:10D23000022380F83D30FFF796FF80B92268D3685B
:10D2400023F04003D3602268D36823F48043D36083
:10D25000012384F83D30002384F83C3010BD0120C8
:10D2600084F83D00002384F83C30F7E70220704743
:10D2700090F83C30012B3DD010B4012380F83C30B5
:10D28000022380F83D3003685A689C6822F0700CD5
:10D290000A6842EA0C025A600368174A93421AD09D
:10D2A000B3F1804F17D0A2F57C42934213D002F520
:10D2B000806293420FD002F5806293420BD002F558
:10D2C0007842934207D002F57052934203D0A2F500
:10D2D0009432934204D124F080044A6814439C6041
:10D2E000012380F83D30002380F83C3018465DF87B
:10D2F000044B7047022070470000014070477047A0
:10D30000026802F10C0353E8003F23F490730C32DF
:10D3100042E800310029F3D1026802F1140353E816
:10D32000003F23F00103143242E800310029F3D119
:10D33000036B012B05D0202380F83E3000230363CC
:10D340007047026802F10C0353E8003F23F010031A
:10D350000C3242E800310029F3D1ECE790F83D307F
:10D36000DBB2212B01D0022070478368B3F5805FC8
:10D3700017D0036A5A1C02621A7803685A60C38C79
:10D380009BB2013B9BB2C3844BB90268D36823F0C4
:10D390008003D3600268D36843F04003D360002069
:10D3A00070470369002BE4D1036A1B880268C3F34A
:10D3B00008035360036A02330362E0E738B50446AA
:10D3C0000268136923F44053C1680B4313618368F7
:10D3D0000269134342691343C2691A430168CB6867
:10D3E00023F4164323F00C031343CB600268536904
:10D3F00023F4407381690B4353610368314A9342BC
:10D4000006D002F58062934202D0FEF7C3FB01E032
:10D41000FEF7D0FBE369B3F5004F29D000210318D4
:10D4200049411B1841F10001C90041EA5371DB0079
:10D43000181863684FEA83024FEA937341F10001C1
:10D44000FBF722FC204DA5FB00325109642303FBAE
:10D4500011031B013233A5FB03235B0903F0F00228
:10D4600002EB011203F00F03216813448B6038BDF7
:10D470000023021843EB0301121841F10001C90017
:10D4800041EA5271D200101841F10001626892180D
:10D490005B41FBF7F9FB0C4DA5FB003251096423FE
:10D4A00003FB1103DB003233A5FB03235B095A00A6
:10D4B00002F4F87202EB011203F00703216813442F
:10D4C0008B60D4E7001001401F85EB512DE9F84334
:10D4D00005460F4616469946DDF820802C682468DC
:10D4E00037EA04030CBF4FF0010C4FF0000CB445B9
:10D4F0002DD1B8F1FF3FF1D0B8F1000F05D0FCF706
:10D5000017FDA0EB09004045E8D92A6802F10C0399
:10D5100053E8003F23F4D0730C3242E80031002975
:10D52000F3D12A6802F1140353E8003F23F001030A
:10D53000143242E800310029F3D1202385F83D3030
:10D5400085F83E30002385F83C30032000E00020C1
:10D55000BDE8F88358B310B5044690F83D300BB3DE
:10D56000242384F83D302268D36823F40053D36029
:10D570002046FFF723FF2268136923F490431361C9
:10D580002268536923F02A0353612268D36843F465
:10D590000053D36000202064202384F83D3084F8B9
:10D5A0003E3010BD80F83C30FCF732FCD8E701205B
:10D5B00070472DE9F04182B01E4690F83D30DBB255
:10D5C000202B54D104460D469046002953D0002A02
:10D5D00053D090F83C30012B51D0012380F83C30DF
:10D5E00000230364212380F83D30FCF7A1FC0746AB
:10D5F000A4F82480A4F82680A368B3F5805F05D042
:10D600004FF00008002384F83C3012E0236913B186
:10D610004FF00008F6E7A8460025F3E738F8023B8C
:10D620002268C3F308035360E28C92B2013A92B2CB
:10D63000E284E38C9BB273B100963B4600228021CA
:10D640002046FFF743FFE0B9002DE7D015F8012B86
:10D6500023685A60E8E700963B46002240212046B6
:10D66000FFF734FF78B9202384F83D3000E0022032
:10D6700002B0BDE8F0810120FAE70120F8E70220BE
:10D68000F6E70320F4E70320F2E7704708B50168E6
:10D69000CA6822F04002CA60202280F83D20FFF7CD
:10D6A000F4FF002008BD7047704708B5806B002369
:10D6B000C385C384FFF7F8FF08BD90F83E30DBB2A6
:10D6C000222B67D18368B3F5805F4DD0826AB3F5B2
:10D6D000805F04D0002B54D10369002B51D1036823
:10D6E0005B681370836A01338362C38D9BB2013B15
:10D6F0009BB2C385002B4FD100B583B00268D368BD
:10D7000023F02003D3600268D36823F48073D360CE
:10D710000268536923F001035361202380F83E30EF
:10D72000036B012B33D100230363026802F10C0366
:10D7300053E8003F23F010030C3242E80031002987
:10D74000F3D103681A6812F0100F06D0002201927C
:10D750001A6801925B680193019B818DFBF736FF8C
:10D76000002003B05DF804FB0269002AAED1826A92
:10D7700003685B68C3F308031380836A0233836220
:10D78000B3E703685B6803F07F031370AAE7FFF752
:10D790008AFFE5E7022070470020704730B583B06C
:10D7A000044602681368D068516913F00F0505D16B
:10D7B00013F0200F02D010F0200F19D12DB111F06D
:10D7C000010119D110F4907F16D1216B01297DD070
:10D7D00013F0800F03D010F0800F40F0158113F08C
:10D7E000400F03D010F0400F40F0128103B030BD65
:10D7F0002046FFF762FFF9E713F0010F06D010F49F
:10D80000807F03D0226C42F00102226413F0040FE7
:10D8100004D019B1226C42F00202226413F0020F0C
:10D8200004D019B1226C42F00402226413F0080FF4
:10D8300007D010F0200F00D119B1226C42F008027D
:10D840002264226C002AD1D013F0200F02D010F0F5
:10D85000200F29D123685B6903F04003226C12F08A
:10D86000080F00D163B32046FFF74AFD23685B69C8
:10D8700013F0400F20D0226802F1140353E8003F58
:10D8800023F04003143242E800310029F3D1A36BA6
:10D8900073B1614A1A65A06BFCF7CFFE0028A5D0D2
:10D8A000A06B036D9847A1E72046FFF706FFD1E77D
:10D8B0002046FFF7F9FE99E72046FFF7F5FE95E7CA
:10D8C0002046FFF7F1FE002323648FE713F0100FCB
:10D8D0003FF47EAF10F0100F3FF47AAF00230193B6
:10D8E0001368019353680193019B536913F0400F30
:10D8F00050D0A26B13685B689BB2002B3FF476AFED
:10D90000A18D99427FF672AFE385D369B3F5807F2D
:10D9100037D0226802F10C0353E8003F23F48073F0
:10D920000C3242E800310029F3D1226802F11403DD
:10D9300053E8003F23F00103143242E8003100298C
:10D94000F3D1226802F1140353E8003F23F04003AF
:10D95000143242E800310029F3D1202384F83E300C
:10D9600000232363226802F10C0353E8003F23F0F5
:10D9700010030C3242E800310029F3D1A06BFCF710
:10D9800012FEA18DE38D9BB2C91A89B22046FBF726
:10D990001DFE2BE7A18DE38D9BB2C91A89B2E38DE1
:10D9A0009BB2002B3FF422AF00293FF41FAF226847
:10D9B00002F10C0353E8003F23F490730C3242E869
:10D9C00000300028F3D1226802F1140353E8003F2D
:10D9D00023F00103143242E800300028F3D1202361
:10D9E00084F83E3000232363226802F10C0353E8DD
:10D9F000003F23F010030C3242E800300028F3D13E
:10DA00002046FBF7E3FDF1E62046FFF7A7FCEDE635
:10DA10002046FFF73BFEE9E6ABD60008816282852F
:10DA2000C28500230364222280F83E2080F83C3027
:10DA3000036923B10268D36843F48073D36002683A
:10DA4000536943F0010353610268D36843F0200334
:10DA5000D3600020704790F83E30DBB2202B29D1F4
:10DA600010B582B0044639B342B390F83C30012B74
:10DA700027D0012380F83C300363FFF7CFFFF0B9D4
:10DA8000236B012B01D0012019E0002301932368AF
:10DA90001A6801925B680193019B226802F10C03F2
:10DAA00053E8003F43F010030C3242E800310029F4
:10DAB000F3D104E002207047012000E0012002B011
:10DAC00010BD0220FBE708B54FF0E0231B6901F011
:10DAD0001BFB012800D108BD01F01CFFFBE7000083
