:020000040800F2
:108000000000022051B3000879A400087DA40008F4
:1080100081A4000885A4000889A4000800000000CD
:10802000000000000000000000000000E1A00208C5
:108030008DA4000800000000A1A10208CD8D020857
:10804000A1B30008A1B30008A1B30008A1B30008C0
:10805000A1B30008A1B3000891A4000899A40008E6
:10806000A1B30008A1A40008A9A40008A1B30008B6
:10807000A1B30008A1B30008A1B30008A1B3000890
:10808000B1A40008BDA40008A1B30008C9A4000859
:10809000D5A40008E1A40008A1B30008EDA40008DD
:1080A000A1B3000801A50008A1B30008A1B300080E
:1080B000A1B300080DA50008A1B30008A1B30008F2
:1080C000A1B30008A1B30008A1B30008A1B3000840
:1080D000A1B30008A1B3000819A50008A1B30008C6
:1080E00025A50008A1B30008A1B30008A1B30008AA
:1080F000A1B30008A1B30008A1B30008A1B3000810
:10810000A1B30008A1B30008A1B30008A1B30008FF
:10811000A1B30008A1B300084DA5000859A50008A7
:10812000A1B30008A1B30008A1B30008A1B30008DF
:10813000A1B300080000000000000000A1B3000887
:10814000A1B30008A1B30008A1B30008A1B30008BF
:10815000A1B30008A1B30008A1B30008A1B30008AF
:10816000A1B30008A1B30008A1B30008A1B300089F
:10817000A1B30008A1B30008A1B3000800000000EB
:1081800000000000A1B30008000000000000000093
:10819000A1B300080000000000000000A1B3000827
:1081A000000000000000000000000000A1B3000873
:1081B000A1B30008A1B30008A1B30008A1B300084F
:0481C000A1B300085F
:1081D00010B5054C237833B9044B13B10448AFF301
:1081E00000800123237010BDB004002000000000B7
:1081F00008C1040808B5034B1BB103490348AFF39A
:10820000008008BD00000000B404002008C104087C
:10821000A3F5803A704700BF174B002B08BF134BE4
:108220009D46FFF7F5FF00218B460F461348144A81
:10823000121A42F0AEFF0E4B002B00D098470D4BA8
:10824000002B00D098470020002104000D000D48AD
:10825000002802D00C4842F024FD43F0F7F820003B
:10826000290001F0E9FD42F023FD00BF00000800F5
:10827000000000000000000000000000B00400202A
:1082800064900120A3AC0408000000009883050856
:1082900000000020AC040020B00400206490012005
:1082A0004FEA4102B2F1E04324BFB3F5001CDCF118
:1082B000FE5C0DD901F0004C4FEAC0024CEA507050
:1082C000B2F1004F40EB830008BF20F0010070477F
:1082D00011F0804F21D113F13872BCBF01F0004082
:1082E000704741F480114FEA5252C2F11802C2F1B4
:1082F000200C10FA0CF320FA02F018BF40F0010035
:108300004FEAC1234FEAD32303FA0CFC40EA0C00E6
:1083100023FA02F34FEA4303CCE77FEA625307D123
:1083200050EA01331EBF4FF0FE4040F4400070475A
:1083300001F0004040F0FE4040F40000704700BFF4
:1083400080F0004002E000BF81F0004142001FBF0A
:108350005FEA410392EA030F7FEA226C7FEA236C13
:108360006AD04FEA1262D2EB1363C1BFD218414008
:1083700048404140B8BF5B42192B88BF704710F09E
:10838000004F40F4000020F07F4018BF404211F041
:10839000004F41F4000121F07F4118BF494292EAA9
:1083A000030F3FD0A2F1010241FA03FC10EB0C00D5
:1083B000C3F1200301FA03F100F0004302D5494262
:1083C00060EB4000B0F5000F13D3B0F1807F06D30F
:1083D00040084FEA310102F10102FE2A51D2B1F107
:1083E000004F40EBC25008BF20F0010040EA0300FC
:1083F0007047490040EB0000013A28BFB0F5000F7C
:10840000EDD2B0FA80FCACF1080CB2EB0C0200FA31
:108410000CF0AABF00EBC25052421843BCBFD04080
:108420001843704792F0000F81F4000106BF80F4FA
:1084300000000132013BB5E74FEA41037FEA226CBD
:1084400018BF7FEA236C21D092EA030F04D092F088
:10845000000F08BF0846704790EA010F1CBF0020BC
:10846000704712F07F4F04D1400028BF40F0004019
:10847000704712F100723CBF00F50000704700F039
:10848000004343F0FE4040F4000070477FEA226260
:1084900016BF08467FEA23630146420206BF5FEA31
:1084A000412390EA010F40F4800070474FF0000331
:1084B00004E000BF10F0004348BF40425FEA000CF8
:1084C00008BF704743F0964301464FF000001CE0A0
:1084D00050EA010208BF70474FF000030AE000BFF6
:1084E00050EA010208BF704711F0004302D5404234
:1084F00061EB41015FEA010C02BF844601460020A6
:1085000043F0B64308BFA3F18053A3F50003BCFAC0
:108510008CF2083AA3EBC25310DB01FA02FC63446D
:1085200000FA02FCC2F12002BCF1004F20FA02F274
:1085300043EB020008BF20F00100704702F1200267
:1085400001FA02FCC2F1200250EA4C0021FA02F2C8
:1085500043EB020008BF20EADC7070477BB972B9B8
:108560000029BEBF00204FF0004106E008BF0028F0
:108570001CBF6FF000414FF0FF3000F0D3B9ADF1F8
:10858000080C6DE904CE002909DB002B1ADB00F092
:108590004DF8DDF804E0DDE9022304B07047404205
:1085A00061EB4101002B1BDB00F040F8DDF804E03B
:1085B000DDE9022304B0404261EB4101524263EB2A
:1085C00043037047524263EB430300F02FF8DDF89A
:1085D00004E0DDE9022304B0404261EB4101704751
:1085E000524263EB430300F021F8DDF804E0DDE9DB
:1085F000022304B0524263EB4303704753B94AB9B4
:10860000002908BF00281CBF4FF0FF314FF0FF309A
:1086100000F088B9ADF1080C6DE904CE00F006F861
:10862000DDF804E0DDE9022304B070472DE9F047EE
:10863000089D8E4604468846002B4AD18A4217463A
:1086400062D9B2FA82F64EB1C6F1200301FA06F8F9
:1086500020FA03F3B74043EA0808B4404FEA174E44
:108660001FFA87FCB8FBFEF1230C0EFB118843EACE
:10867000084301FB0CF29A4209D9FB1801F1FF30C3
:1086800080F0EA809A4240F2E78002393B449A1A2D
:10869000A3B2B2FBFEF00EFB102243EA024300FB42
:1086A0000CFC9C4509D9FB1800F1FF3280F0D68004
:1086B0009C4540F2D3803B44023840EA0140A3EBA2
:1086C0000C0300211DB1F3400022C5E90032BDE8D2
:1086D000F0878B4205D90DB1C5E90001002108469C
:1086E000F5E7B3FA83F1002946D1734502D38242FC
:1086F00000F20581841A6EEB030201209046002DE2
:10870000E5D0C5E90048E2E7002A00F09080B2FA1F
:1087100082F6002E40F0A4808A1A030C4FEA174E0E
:1087200080B2BCB20121B2FBFEFC0EFB1C2243EA6C
:10873000024304FB0CF29A4207D9FB180CF1FF38F4
:1087400002D29A4200F2E080C4469B1AB3FBFEF2CA
:108750000EFB123340EA034302FB04F49C4207D9A8
:10876000FB1802F1FF3002D29C4200F2CA8002469E
:108770001B1B42EA0C40A5E7C1F120068B4022FA00
:1087800006F71F430EFA01F420FA06F32EFA06FE4E
:108790004FEA1749234300FA01F81FFA87FCBEFB92
:1087A000F9F01C0C09FB10EE44EA0E4400FB0CFE31
:1087B000A64502FA01F209D93C1900F1FF3A80F00E
:1087C0009C80A64540F2998002383C44A4EB0E04FC
:1087D0001FFA83FEB4FBF9F309FB13444EEA044489
:1087E00003FB0CFCA44508D93C1903F1FF3E80F0C3
:1087F0008280A4457FD9023B3C4443EA0040A4EB7D
:108800000C04A0FB02EC64457346E14662D35FD0E2
:108810005DB1B8EB030264EB090404FA06F622FA30
:1088200001F31E43CC40C5E9006400214FE7B1FBD2
:10883000F2FC010C41EA0E4180B240EA01423B46A3
:1088400038463C46B846BE462026B1FBF7F1A2EBBF
:10885000080241EA0C4166E7014618E710462CE79A
:10886000C6F120022EFA02F3B740B14020FA02F21C
:108870004FEA174E0A43B3FBFEF8BCB20EFB1833A7
:10888000110C41EA034108FB04F9B04089454FEA65
:10889000104380B23ED9791808F1FF3C01D28945D6
:1088A0001FD8A1EB0901B1FBFEF909FB04F80EFB8F
:1088B000191192B242EA0142424529D2BA1809F18D
:1088C000FF31C4D24245C2D2A9F102013A44BEE707
:1088D000F0459DD2BEEB02036CEB070C0138E1467C
:1088E00096E7A7EB09094944A8F1020CB1FBFEF990
:1088F00009FB04F8DBE773467FE7504666E7084666
:10890000FDE63B44023A33E7ACF1020C3B441CE782
:1089100049469CE7A1EB0901C446B1FBFEF909FBFE
:1089200004F8C4E7704700BF00000000000000002A
:1089300001F0FF01102A2BDB10F0070F08D010F810
:10894000013B013A8B422DD010F0070F42B3F6D114
:10895000F0B441EA012141EA014122F007047FF02D
:1089600000070023F0E80256083C85EA010586EA84
:10897000010685FA47F5A3FA87F586FA47F6A5FAC0
:1089800087F68EB9EED1F0BC01F0FF0102F00702CC
:1089900032B110F8013B013A83EA010313B1F8D177
:1089A0000020704701387047002D06BF3546033858
:1089B000073815F0010F07D1013015F4807F02BF91
:1089C000013015F4C03F0130F0BC0138704700BFE2
:1089D000034613F8012B002AFBD1181A01387047FF
:1089E00008B50248192103F011FA00BF08C40408B1
:1089F00008B50248212103F009FA00BF10C4040899
:108A000008B50248292103F001FA00BF18C4040880
:108A100008B50248302103F0F9F900BF20C404086A
:108A200008B50248372103F0F1F900BF28C4040853
:108A300010B5EFF305834BB904461FF07BF901280D
:108A400008D0204621F0D6FC40B110BD0548662173
:108A500003F0DCF903486C2103F0D8F901487321D5
:108A600003F0D4F930C4040810B5EFF305834BB913
:108A700004461FF05FF9012808D0204621F0BAFC17
:108A800040B110BD0548662103F0C0F903486C21D0
:108A900003F0BCF90148732103F0B8F930C40408AD
:108AA00008B50248A42103F0B1F900BF44C404088A
:108AB00008B50248AB2103F0A9F900BF54C404086B
:108AC00010B5EFF3058353B904461FF033F90128BD
:108AD0000AD044B12046BDE8104021F049BD044809
:108AE000882103F093F910BD0148892103F08EF924
:108AF00064C4040810B5EFF3058353B904461FF0AE
:108B000019F901280AD044B12046BDE8104021F0EF
:108B10002FBD0448882103F079F910BD014889214F
:108B200003F074F964C4040810B5EFF305834BB97E
:108B300004461FF0FFF8012808D02046BDE8104089
:108B400021F058BC03487B2103F060F901488121E2
:108B500003F05CF974C4040810B5EFF305834BB956
:108B600004461FF0E7F8012808D02046BDE8104071
:108B700021F040BC03487B2103F048F901488121E2
:108B800003F044F974C4040808B50248CA2103F08C
:108B90003DF900BF44C4040808B50248D12103F0E0
:108BA00035F900BF54C4040810B5EFF3058353B979
:108BB00004461FF0BFF801280AD044B12046BDE8A2
:108BC000104021F0D5BC0448882103F01FF910BDE6
:108BD0000148892103F01AF964C4040810B5EFF3C1
:108BE000058353B904461FF0A5F801280AD044B103
:108BF0002046BDE8104021F0BBBC0448882103F0AA
:108C000005F910BD0148892103F000F964C4040886
:108C100010B5EFF3058353B904461FF08BF8012814
:108C20000AD044B12046BDE8104021F0A1BC044860
:108C3000882103F0EBF810BD0148892103F0E6F824
:108C400064C4040810B5EFF3058353B904461FF05C
:108C500071F801280AD044B12046BDE8104021F047
:108C600087BC0448882103F0D1F810BD0148892150
:108C700003F0CCF864C4040808B50248F42103F0FA
:108C8000C5F800BF84C4040808B50248FA2103F0FF
:108C9000BDF800BF94C4040808B502484FF48071C1
:108CA00003F0B4F884C4040808B502484FF4837193
:108CB00003F0ACF894C4040808B502484FF4887176
:108CC00003F0A4F884C4040808B502484FF48B717B
:108CD00003F09CF894C404082DE9F041274D284C7A
:108CE000284F294E04E0023008D023680133236066
:108CF0002868072120F014FE0028F4D1D4F8008061
:108D0000B8F1000F21D000200CF0C8F80CF0D2F818
:108D100000200CF0C3FE0DF075FD206810F0070870
:108D200020D0002003F07CFE012103F0B5FE236873
:108D300007FB03F2B6EBB20F4FF00000D6D303F0FF
:108D40006FFE052103F0A8FECFE7404603F068FE62
:108D50000F2103F0A1FE404603F062FE1F2103F045
:108D60009BFED0E740460BF0E9FD0BF0F5FD4046D9
:108D70000AF0D8FF0BF0A4FDD3E700BFCC0600201B
:108D8000D0040020CDCCCCCCCCCCCC0C2DE9F04107
:108D9000264D274C274F284E04E0012B0DD0236889
:108DA00001332360012214231146286820F062FC5D
:108DB00003469A1C4FF00000EFD10CF06FFE0CF050
:108DC0009FFE00200AF0B8FC0AF0B4FD00200DF070
:108DD000A5FE0DF06BFF00200CF0E2F90CF022FA7A
:108DE00000200CF0DDF980460EF0DEFE02460B4658
:108DF00040460CF04DFA002003F012FE022103F071
:108E00004BFE236807FB03F2B6EB720F4FF0000036
:108E1000C6D303F005FE032103F03EFE002003F05D
:108E2000FFFD042103F038FEB9E700BF7C050020F8
:108E3000CC040020CDCCCCCC9999991930B502281E
:108E400085B03DD8204B1B68002B35D01F4B1B68CD
:108E500073B31F4B1B683BB31E4B044693E80700DC
:108E600004AB03E9070003EB84034FF0FF3153F831
:108E70000C3C186820F054FD08B105B030BD204608
:108E80000AF050FF05460EF08FFE02460B462846BC
:108E90000BF04CFA104A114B52F82410186805B028
:108EA000BDE8304020F08EBB0D48702102F0AEFFCF
:108EB0000B486F2102F0AAFF09486E2102F0A6FFBD
:108EC00007486D2102F0A2FF78060020240600204A
:108ED000D0050020C0C10408D04F05087C05002043
:108EE000A8C4040880B5154D154F164E2868C8B1A2
:108EF0003B68FBB13368CBB14FF0FF3120F010FD80
:108F00000028F3D10AF00EFF04460EF04DFE024693
:108F10000B4620460BF00AFA0B4B0121186820F093
:108F200051FBE3E709486E2102F070FF074870210A
:108F300002F06CFF05486F2102F068FF7806002000
:108F400024060020D00500207C050020A8C40408C9
:108F500080B5164D164F174E2B68D3B1386800B345
:108F60003368D3B14FF0FF3120F0DAFC0028F3D1A1
:108F700001200AF0D7FE04460EF016FE02460B460C
:108F800020460BF0D3F90C4B0221186820F01AFB95
:108F9000E2E70A486E2102F039FF0848702102F02A
:108FA00035FF06486F2102F031FF00BF7806002030
:108FB00024060020D00500207C050020A8C4040859
:108FC00080B5164D164F174E2B68D3B13B6803B3CF
:108FD0003068D0B14FF0FF3120F0A2FC0028F3D16F
:108FE00002200AF09FFE04460EF0DEFD02460B460C
:108FF00020460BF09BF90C4B0421186820F0E2FA94
:10900000E2E70A486E2102F001FF0848702102F0F1
:10901000FDFE06486F2102F0F9FE00BF7806002031
:1090200024060020D00500207C050020A8C40408E8
:109030000D480E4A10B500230D4C04601221C0E902
:1090400001134FF48034C3604FF480114FF48073E8
:10905000C0E904418261838321F026FF00B910BD7D
:10906000BDE8104001F024B8D40400200001010044
:10907000006400400000000030B5274B026889B052
:1090800000249A42CDE90244CDE90444069401D07B
:1090900009B030BD03F5EA3300941A6C1F4842F062
:1090A00000721A641A6C02F000720092009A019425
:1090B0001A6B42F001021A631B6B9FED157B03F0E4
:1090C0000103019302A909230322CDE905238DEDB4
:1090D000027B019D28F072FB22460521132022F01D
:1090E000D1FD132022F014FE22460521142022F087
:1090F000C9FD142022F00CFE22460521152022F085
:10910000C1FD152022F004FE09B030BDAFF3008090
:10911000001800000200000000640040000002404F
:1091200008B502680C4B9A4200D008BD0B4A0C48A7
:10913000136C23F0007313644FF4C05128F072FDD8
:10914000132022F0F9FD142022F0F6FDBDE80840BE
:10915000152022F0F1BD00BF00640040003802403D
:1091600000000240054808B5054B036022F0D4FF1B
:1091700000B908BDBDE8084000F09ABFFC0400201B
:10918000003002400B4B02689A4200D0704782B018
:1091900000220192D3F8302842F48052C3F83028DC
:1091A00003F500631B6B03F480530193019B02B032
:1091B000704700BF00300240054B02689A4200D061
:1091C0007047044A136B23F480531363704700BF46
:1091D000003002400038024010B582B000240F4B2E
:1091E0000194196B41F4001119631B6B03F4001314
:1091F0002246052101931020019B22F043FD1020FF
:1092000022F086FD22460521112022F03BFD11208F
:1092100002B0BDE8104022F07BBD00BF0038024024
:1092200010B51148114C124900230122C0E9004138
:10923000C0E90232C0E90433C0E90633036224F016
:109240008BF828B90848002128F0FAF940B910BD78
:1092500000F02EFF0448002128F0F2F90028F6D093
:10926000BDE8104000F024BF080500200060004069
:109270005016400030B504469FB000215C2207A87C
:10928000CDE90211CDE90411069141F082FF1B4B9B
:1092900022689A4201D01FB030BD802307A80793EF
:1092A0002EF044F830BB164C164800250095236B71
:1092B00043F008032363236B03F0080300934FF488
:1092C00040421223CDE9022301220323CDE90423E6
:1092D00002A904230693009A28F070FA0195236CE2
:1092E00043F080732364236C03F080730193019B2C
:1092F0001FB030BD00F0DCFED5E700BF00600040CD
:1093000000380240000C0240074B02689A4200D02D
:109310007047064A0648136C23F080734FF44041AF
:10932000136428F07FBC00BF00600040003802409A
:10933000000C024008B5012020F064F8FBE700BFF4
:10934000704700BF0020704710B50C4672B6174832
:10935000174A00F1200E0D2113681B06FCD5516041
:1093600010F8011F09B17045F6D184B1601E104A92
:1093700010F8011F04F1200C49B1844507D013688F
:109380001C06FCD5516010F8011F0029F5D10849D1
:109390000B681A06FCD50D23054A4B6013681B06A3
:1093A000FCD50A23536000BFFDE700BFC0C404081A
:1093B0000044004010B59B4A0021012020F050FAE3
:1093C000994B9A4A0446002101201C6020F048FA7B
:1093D000974B984A0446002101201C6020F040FA77
:1093E000954B964A0446002101201C6020F038FA73
:1093F000934B944A0446002101201C6020F030FA6F
:10940000914B924A0446002101201C6020F028FA6A
:109410008F4B904A0446002101201C6020F020FA66
:109420008D4C8E4B2060002201218D4820F010F8D9
:109430008C4B0121186020F051F88B4A0121082043
:1094400020F0E8FA894B8A4A0446082101201C6072
:1094500020F0E0FA874B884A0446082101201C606E
:1094600020F0D8FA854B864A0446082101201C606A
:1094700020F0D0FA834B844A0446082101201C6066
:1094800020F0C8FA814B824A0446082101201C6062
:1094900020F0C0FA7F4B804A0446082101201C605E
:1094A00020F0B8FA7D4B7E4A0446082101201C605A
:1094B00020F0B0FA7B4B7C4A0446082101201C6056
:1094C00020F0A8FA794B7A4A0446082101201C6052
:1094D00020F0A0FA774B784A0446002177481C60B8
:1094E0001FF066FD764B774A0446002176481C60E3
:1094F0001FF05EFD754B764A0446002175481C60DE
:109500001FF056FD744B754A0446002174481C60D8
:109510001FF04EFD734B744A0446002173481C60D3
:109520001FF046FD724B734A0446002172481C60CE
:109530001FF03EFD714B724A0446002171481C60C9
:109540001FF036FD704B714A0446002170481C60C4
:109550001FF02EFD6F4B704A044600216F481C60BF
:109560001FF026FD6E4B6F4A044600216E481C60BA
:109570001FF01EFD6D4B6E4A044600216D481C60B5
:109580001FF016FD6C4B6D4A044600216C481C60B0
:109590001FF00EFD6B4B6C4A044600216B481C60AB
:1095A0001FF006FD6A4B6B4A044600216A481C60A6
:1095B0001FF0FEFC694B6A4A0446002169481C60A2
:1095C0001FF0F6FC684B694A0446002168481C609D
:1095D0001FF0EEFC674B684A0446002167481C6098
:1095E0001FF0E6FC664B674A0446002166481C6093
:1095F0001FF0DEFC654B664A0021044665481C608E
:109600001FF0D6FC644B024600201A601FF0C8FF12
:10961000624B024662481A601FF0C2FF614B18603D
:1096200010BD00BF4C500508C80700203C5005087D
:10963000740700202C500508200700201C50050846
:10964000CC0600200C50050878060020FC4F0508C9
:1096500024060020EC4F0508D00500205C500508CA
:10966000EDA80008F807002044510508900B0020E1
:109670002C510508340B002014510508D80A00208D
:10968000FC5005087C0A0020E4500508200A002050
:10969000CC500508C4090020B45005086809002012
:1096A0009C5005080C09002084500508B0080020D3
:1096B0006C50050854080020E4530508CDA60008A6
:1096C000D0CB0020C05305082DA9000810C70020EA
:1096D0009C530508D9A9000850C2002078530508FA
:1096E0005DA9000890BD0020545305089DAA0008FC
:1096F000D0B8002030530508A1A9000810B40020FC
:109700000C530508D5AA000850AF0020E852050800
:1097100015AB000890A60020C4520508F5AB000860
:10972000D0A10020A0520508E9AD0008109D00203E
:109730007C5205088D8D000850980020585205086D
:1097400051AB00089087002034520508E58E0008D0
:10975000D082002010520508518F000810620020AE
:10976000EC510508C18F000850410020C851050880
:10977000D98C000890200020A451050895AB000862
:10978000D017002080510508C5AB00081013002039
:109790005C510508F1AD0008500E0020D4CB00202C
:1097A000DC4F05087C0500202DE9F04F00248FB028
:1097B000CDE90844CDE90A44C14B00940C941A6BDE
:1097C000DFF810A3DFF810B3DFF81093BD4F42F0BD
:1097D00004021A631A6B02F004020092009A0194C8
:1097E0001A6B42F010021A631A6B02F01002019217
:1097F000019A02941A6B42F002021A631A6B02F089
:1098000002020292029A03941A6B42F008021A634F
:109810001A6B02F008020392039A04941A6B42F046
:1098200001021A631A6B02F001020492049A059471
:109830001A6B42F020021A631A6B02F020020592A2
:10984000059A06941A6B42F080021A631A6B02F0B2
:1098500080020692069A07941A6B42F040021A633D
:109860001B6B03F040030793504601221821079B0E
:1098700028F024FB2246504640F6070128F01EFB44
:1098800022469148802128F019FB2246584648F28A
:10989000102128F013FB4846012244F2010128F070
:1098A0000DFB224638464FF4007128F007FB224694
:1098B000864843F2080128F001FB584601220521A1
:1098C00028F0FCFA82480122022128F0F7FA3846F3
:1098D00001224FF4004128F0F1FA4FF4205208A978
:1098E00048464FF488130125CDE908230A9427F050
:1098F00065FF40F6190308A9504606264FF00208F6
:10990000CDE90835CDE90A4427F058FF08A95046AB
:10991000CDE909540896CDF82C8027F04FFF30236D
:10992000089308A9032338460B93CDE909840C96C4
:1099300027F044FF802208A963480892CDE9095422
:109940000B9427F03BFF48F2152208A958460892CD
:10995000CDE909540B9427F031FF44F2010208A924
:1099600048460892CDE909540B9427F027FF9FED54
:10997000527B504608A98DED087B0A9427F01EFF04
:109980004FF4007208A938460892CDE90954CDF881
:109990002C8027F013FF03230B9308A94FF4806357
:1099A00048460893CDE909840C9627F007FF48F252
:1099B0001002484608A94FF40413CDE908230A947D
:1099C00027F0FCFE43F2080308A940480893CDE9BC
:1099D00009540B9427F0F2FE08A940F201224FF43B
:1099E00088133B480A94CDE9082327F0E7FE4FF49B
:1099F0000072002308A935480A94CDE9082327F00E
:109A0000DDFE08A93248CDF82080CDE909540B9439
:109A100027F0D4FE08A94FF4806200232A480A9454
:109A2000CDE9082327F0CAFE0A22584608A94FF4B8
:109A30008813CDE908230A9427F0C0FE4FF40043B1
:109A400008A938460893CDE90A44099527F0B6FEDF
:109A500022460521304622F015F9304622F058F909
:109A600022460521072022F00DF9072022F050F9A7
:109A700022460521092022F005F9092022F048F9A3
:109A8000224605210A2022F0FDF80A2022F040F9A2
:109A900022460521172022F0F5F8172022F038F988
:109AA00022460521282022F0EDF8282022F030F966
:109AB0000FB0BDE8F08F00BF2004000000002100BF
:109AC0000038024000040240000C02400014024032
:109AD000001802400010024000000240000802404E
:109AE00010B50B480B4C0C4900234FF48042C0E9E1
:109AF0000041C0E90233C0E90423C0E90633036230
:109B000028F0BEFC00B910BDBDE8104000F0D0BA8E
:109B100088CC002000540040801A060010B50B4885
:109B20000B4C0C4900234FF48042C0E90041C0E9CE
:109B30000233C0E90423C0E90633036228F0A0FC25
:109B400000B910BDBDE8104000F0B2BA30CC002022
:109B500000580040801A060010B50B480B4C0C4909
:109B600000234FF48042C0E90041C0E90233C0E95C
:109B70000423C0E90633036228F082FC00B910BD5B
:109B8000BDE8104000F094BAD8CB0020005C004043
:109B9000801A0600F0B50368494A8FB0002493424A
:109BA000CDE90844CDE90A440C9407D0454A9342D4
:109BB00028D0454A934248D00FB0F0BD434D0194A0
:109BC0002B6B43F002032B632B6B03F00203019317
:109BD0004FF4C0721223CDE9082301983C480322B8
:109BE000042308A9CDE90B2327F0E8FD02942B6C90
:109BF00043F400132B642B6C03F400130293029BB9
:109C00000FB0F0BD314D03942B6B43F020032B6359
:109C10002B6B03F02003039303221223CDE90823C7
:109C200003982C480322042308A9CDE90B2327F02D
:109C3000C5FD04942B6C43F480032B642B6C03F45C
:109C400080030493049B0FB0F0BD204D05942B6B53
:109C5000214843F004032B632B6B03F004030593AB
:109C6000059B06942B6B43F001032B632B6B03F0D6
:109C7000010306934FF400720327042608A9122358
:109C8000CDE90823CDE90B76069B27F097FD4FF42D
:109C90008072122311480B9708A9CDE908230A9472
:109CA0000C9627F08BFD07942B6C43F400032B6478
:109CB0002B6C03F400030793079B0FB0F0BD00BFAC
:109CC0000054004000580040005C00400038024052
:109CD000000402400014024000080240000002405C
:109CE00008B51F4A0368934206D01E4A934214D017
:109CF0001D4A934221D008BD02F5F2321B48136C75
:109D000023F400134FF48071136427F08BFFBDE838
:109D100008401648802127F085BF02F5F03214482C
:109D2000136C23F480030121136427F07BFFBDE84B
:109D300008400F48022127F075BF02F5EE320D48AA
:109D4000136C23F400034FF40071136427F06AFFCF
:109D5000BDE8084008484FF4807127F063BF00BF9A
:109D60000054004000580040005C004000040240E5
:109D70000014024000080240000002400000000001
:109D800030B5002397B0CDE90A33CDE90C33CDE9E6
:109D90000333CDE90533264901930793086C254A1F
:109DA00040F080500864096C01F0805101910199E4
:109DB0000293136843F440431360136803F4404371
:109DC000022402934FF480019FED177BCDE90E41F1
:109DD0000298149402200221CDE912010822B42332
:109DE00008A88DED087B109211932EF005FA08B1AA
:109DF00072B6FEE72CF0E0FC034608B172B6FEE74F
:109E00000F22CDE903244FF4A0554FF4805203A84C
:109E10000521CDE9053507922DF0DAF808B172B6C3
:109E2000FEE717B030BD00BF0100000000000100D8
:109E3000003802400070004008B520F053FF0120B8
:109E400000F0B2FAFFF79CFFFFF7AEFCFFF7C4F992
:109E500000F0E6FF01F088F801F0C0F900F070F9B9
:109E6000FFF780F900F028F901F0BAF801F0E2F804
:109E700000F044F9FFF7D4F901F00EF8324830F061
:109E80009BFF324830F098FF31480122082128F02A
:109E900015F8002201212F4828F010F80A2020F0A0
:109EA0007BFF2C480122102128F008F82A480122C3
:109EB0004FF4805128F002F800220221274827F0B1
:109EC000FDFF0A2020F068FF214801224FF40061C5
:109ED00027F0F4FF204801224FF4005127F0EEFF55
:109EE000002201211E4827F0E9FF0A2020F054FF3C
:109EF0001C4801224FF4007127F0E0FF14480122B2
:109F0000022127F0DBFF12480122042127F0D6FFAF
:109F1000002204210F4827F0D1FF0A2020F03CFF47
:109F2000FFF7DEFDFFF7FAFDFFF716FE0E490F48BB
:109F300002F0D0FA02F0F6FA1EF056FFFFF73AFAF6
:109F40001EF08EFFFEE700BFA0CF002010CF002044
:109F500000100240000002400014024000180240BD
:109F60000008024000040240E8CF0020A8D00020F2
:109F7000074B02689A4200D0704710B5044602F0C1
:109F8000F3FA00B110BDA08CBDE8104003F0AAB9EF
:109F900000440040034B02689A4200D070470846D4
:109FA00002F060BA0044004030B5012883B03BD0D5
:109FB000102832D002280CD0B0F5806F27D00828A6
:109FC0001FD0202814D10DF0EFFD274A04460D467E
:109FD00004E00DF0E9FD254A04460D460023106813
:109FE00069461A46CDE900451FF04CFD03B030BD6F
:109FF000B0F5005F1ED10DF0D7FD1D4A04460D4699
:10A00000ECE70DF0D1FD1B4A04460D46E6E70DF0E6
:10A01000CBFD194A04460D46E0E7184B186803B01B
:10A02000BDE830401FF0AEBC0DF0BEFD144A044642
:10A030000D46D3E7B0F5007F05D10DF0B5FD114A0F
:10A0400004460D46CAE7B0F5004F05D10DF0ACFD52
:10A050000D4A04460D46C1E7B0F5006FC6D103B006
:10A06000BDE830400DF0A2B8C4090020340B002038
:10A0700068090020200A00207C0A0020C807002070
:10A08000D80A00200C090020B008002008B51046AE
:10A0900001F0BCFE08B5104601F0B8FE034B0268A3
:10A0A0009A4200D0704720F037BE00BF0010004039
:10A0B00072B6FEE7704700BF0E480F494FF4827238
:10A0C00010B50023C0E900124FF4007418210A22D1
:10A0D000C0E90233C0E90433C0E90641C0E90833EE
:10A0E000C0E90A322EF042FD00B910BDBDE81040B3
:10A0F000FFF7DEBF90CD0020003001400E480F4931
:10A100004FF4827210B50023C0E900124FF40074BE
:10A1100008210A22C0E90233C0E90433C0E906413C
:10A12000C0E90833C0E90A322EF020FD00B910BDA5
:10A13000BDE81040FFF7BCBF38CD0020003800401C
:10A140000E480F494FF4827210B50023C0E9001287
:10A150004FF4007418210A22C0E90233C0E9043325
:10A16000C0E90641C0E90833C0E90A322EF0FEFC1E
:10A1700000B910BDBDE81040FFF79ABFE0CC002049
:10A1800000340140F0B503684D4A8FB0002493427B
:10A19000CDE90844CDE90A440C9407D0494A9342DA
:10A1A00027D0494A934266D00FB0F0BD474B019487
:10A1B0005A6C474842F480525A645A6C02F48052F6
:10A1C0000192019A02941A6B42F001021A631B6B0E
:10A1D00003F0010302930322052308A9E0240225CA
:10A1E000CDE90845CDE90B23029C27F0E7FA0FB033
:10A1F000F0BD364B03941A6C364842F480421A6420
:10A200001A6C02F480420392039A04941A6B42F08F
:10A2100008021A631A6B02F008020492049A059469
:10A220001A6B42F004021A631B6B03F0040308224A
:10A2300005930325052708A90223CDE90823022653
:10A24000059BCDE90B5727F0B9FA072308A9224847
:10A250000C93CDE90866CDE90A4527F0AFFA04234F
:10A260001D48099608A9CDE90A450C97089327F0DF
:10A27000A5FA0FB0F0BD154B06945A6C174842F47E
:10A2800000525A645A6C02F400520692069A0794DD
:10A290001A6B42F010021A631B6B03F01003079352
:10A2A0000322052308A94FF4E0440225CDE908451F
:10A2B000CDE90B23079C27F081FA0FB0F0BD00BF5A
:10A2C00000300140003800400034014000380240B6
:10A2D00000000240000C0240000802400010024052
:10A2E00008B51A4A0368934206D0194A93420FD020
:10A2F000184A93421CD008BD02F584321648536CAC
:10A3000023F480535364E021BDE8084027F08ABC61
:10A3100002F500321148136C23F4804308211364C2
:10A3200027F080FCBDE808400D48062127F07ABCE4
:10A3300002F582320B48536C23F4005353644FF4FC
:10A34000E041BDE8084027F06DBC00BF003001408F
:10A35000003800400034014000000240000C024080
:10A36000000802400010024082B00E4B0022009212
:10A37000596C41F480415964586C00F4804000905D
:10A3800000980192186C40F0805018641B6C03F028
:10A3900080530193019B0F216FF0010002B021F067
:10A3A00071BC00BF0038024070B588B0234B00225A
:10A3B00002921A6C42F010021A641B6C03F0100334
:10A3C0000293054601A903A8029B2CF07DFF069B82
:10A3D000D3B92CF013FF0346194A1A4C1A49A2FBB1
:10A3E00003239B0C013B0022C4E90013204640F2EA
:10A3F000E7332261A260A261E36030F04DFB0646C4
:10A4000030B1304608B070BD2CF0F8FE4300E3E7F1
:10A41000204630F09DFD06460028F2D1362021F07E
:10A4200077FC0F2D01D90126EBE73246294636206D
:10A4300021F028FC054B1D60E3E700BF0038024017
:10A4400083DE1B43E8CD00200010004044040020C0
:10A45000034B1A68D36823F00103D360704700BF31
:10A46000E8CD0020034B1A68D36843F00103D360A2
:10A47000704700BFE8CD0020FEE700BFFEE700BF49
:10A48000FEE700BFFEE700BFFEE700BF704700BF6A
:10A49000012027F067BD00BF022027F063BD00BF89
:10A4A000082027F05FBD00BF102027F05BBD00BF74
:10A4B000014822F01FBA00BFE8CF0020014822F077
:10A4C00019BA00BF48D00020014821F041BA00BFAE
:10A4D000D4040020014821F03BBA00BFD40400207E
:10A4E000014821F035BA00BFD404002008B520206F
:10A4F00027F038FDBDE808404FF4007027F032BD6A
:10A50000014B18681FF03EBA74070020014837F06D
:10A510001BBF00BF58CF002001483DF007B900BF66
:10A52000A8D0002008B54FF4806027F01BFD4FF441
:10A53000006027F017FD4FF4005027F013FDBDE831
:10A5400008404FF4004027F00DBD00BF014837F030
:10A55000FBBE00BFE8CD002008B503F097FFBDE8C3
:10A560000840014837F0F0BEC8CE0020704700BF59
:10A570000120704708B540F063FF162303604FF0D9
:10A58000FF3008BD08B540F05BFF16230360FEE70F
:10A5900070B5161E07DD0C468D19AFF3008004F868
:10A5A000010BA542F9D1304670BD00BF70B5161E33
:10A5B00007DD0C468D1914F8010BAFF30080A5429E
:10A5C000F9D1304670BD00BF4FF0FF30704700BF7B
:10A5D0004FF400534B600020704700BF01207047CC
:10A5E000002070470EB44FF0FF3003B0704700BF3B
:10A5F00008B540F025FF0A2303604FF0FF3008BD87
:10A6000008B540F01DFF022303604FF0FF3008BD86
:10A610004FF0FF30704700BF4FF400534B600020F5
:10A62000704700BF08B540F00BFF1F2303604FF0D9
:10A63000FF3008BD08B540F003FF0B2303604FF067
:10A64000FF3008BD08B540F0FBFE0C2303604FF05F
:10A65000FF3008BD044B0549D3F8882042F470024E
:10A66000C3F888209960704700ED00E00080000882
:10A67000124A936803F00C03082B0AD0104B0F4AC0
:10A68000104892681049C2F30312825CD3400B60F9
:10A690007047536851685368094AC3F3881301F03F
:10A6A0003F01B2FBF1F202FB03F3044A5268C2F32A
:10A6B000014201325200B3FBF2F3E0E700380240FE
:10A6C0000024F400105405080800002038B5854D1A
:10A6D00001F044FB01F062FB002004F099FA0368EA
:10A6E0001B689847002004F093FA03685B6898475A
:10A6F000002800F0F380002004F0EEFC03681B68E3
:10A700009847002004F0E8FC03685B68984700283D
:10A7100000F0E480002002F0F1FD03681B68984718
:10A72000002002F0EBFD03685B689847002800F00A
:10A73000D580002004F080FF03681B689847002044
:10A7400004F07AFF03685B689847002800F0C68031
:10A75000002003F049FA03681B689847002003F0C3
:10A7600043FA03685B689847002800F0B780002030
:10A7700005F0ECFE03681B689847002005F0E6FE34
:10A7800003685B689847002800F0A880002005F067
:10A7900047FA03681B689847002005F041FA0368F0
:10A7A0005B689847002800F09980002006F096F832
:10A7B00003681B689847002006F090F803685B6800
:10A7C0009847002800F08A80002007F0B1FD036858
:10A7D0001B689847002007F0ABFD03685B6898474B
:10A7E00000287BD0002008F0D7F803681B68984742
:10A7F000002008F0D1F803685B68984700286DD006
:10A80000002008F02FFA03681B689847002008F022
:10A8100029FA03685B68984700285FD0002002F09F
:10A82000FFF803681B689847002002F0F9F80368F6
:10A830005B689847002851D000200BF02FF903687F
:10A840001B68984700200BF029F903685B6898475C
:10A85000002843D0002420460AF0B2FE03681B689B
:10A86000984720460AF0ACFE03685B6898470028CA
:10A8700034D00134032CEED100200AF0BBFD036874
:10A880001B68984700200AF0B5FD03685B6898478D
:10A8900020B3002006F03AFD03681B6898470020AB
:10A8A00006F034FD03685B689847B8B1002007F0F4
:10A8B0007FFB03681B689847002007F079FB03685B
:10A8C0005B68984750B1002009F02CFA0022002361
:10A8D00009F02CFD28681EF00DFCF9E602489821CD
:10A8E00001F094FAD0CB0020C0C704080B4B10B580
:10A8F0000B4C18681FF046F80A4A236803FB02F263
:10A90000B2F1333F02D90133236010BD064B186802
:10A910001FF038F823680133236010BD20070020A2
:10A9200078CE0020CDCCCCCCCC06002038B5094C5C
:10A93000094D28684FF0FF33002221461FF0D4F85C
:10A940000028F6D102F0DAFCD4E9002302F0E0FF9F
:10A95000EFE700BF70CE0020D80A002070B50D4C84
:10A960000D4D0E4E28684FF0FF33002221461FF098
:10A97000BBF80028F6D130684FF0FF311EF0D0FF51
:10A980000028EFD104F058FED4E9002305F026F8A2
:10A99000E8E700BF68CE0020340B0020C807002085
:10A9A00038B50B4C0B4D28684FF0FF330022214681
:10A9B0001FF09AF80028F6D105F0C8FDD4E900236D
:10A9C00005F0FEFE02200AF0FBFD0AF0A7FEEAE712
:10A9D00060CE0020200A002030B52F4D83B0002427
:10A9E00028688DF807404FF0FF3300220DF1070172
:10A9F0001FF07AF80028F3D19DF80730013B0E2BA9
:10AA0000EED801A252F823F08DAA000881AA00080E
:10AA100075AA000869AA00085DAA000851AA0008E2
:10AA2000E1A90008E1A90008E1A90008E1A90008DE
:10AA3000E1A90008E1A90008E1A90008E1A90008CE
:10AA400045AA0008002001F0EBFF02F037F8C7E745
:10AA5000002001F0E5FF02F0D1FBC1E7002001F08A
:10AA6000DFFF02F0B1F9BBE7002001F0D9FF02F0EF
:10AA700019FAB5E7002001F0D3FF02F085FAAFE73D
:10AA8000002001F0CDFF02F0E9FAA9E7002001F073
:10AA9000C7FF02F031F9A3E7900B002038B50B4C4B
:10AAA0000B4D28684FF0FF33002221461FF01CF8A1
:10AAB0000028F6D105F0B4F8D4E9002305F0E0F958
:10AAC00001200AF07DFD0AF029FEEAE758CE0020B9
:10AAD0007C0A0020F8B50D4D0D4F002628684FF078
:10AAE000FF311EF01DFF04460028F7D103F07CF86B
:10AAF00003F0F0F8204609F015F909F0E7FDF30737
:10AB000002D438681EF03EFF0136E7E774070020E4
:10AB10007806002070B50C4D0C4E30684FF0FF33B6
:10AB2000002229461EF0E0FF04460028F5D105F07A
:10AB3000D5FED5E9002306F05BF920460AF040FD7A
:10AB40000AF0ECFDE9E700BF50CE0020C409002068
:10AB500070B50E4D0E4E30684FF0FF33002229467F
:10AB60001EF0C2FF04460028F5D107F0E1FBD5E94D
:10AB7000002307F071FC20460AF03CFC0AF066FC5A
:10AB800020460AF08BFF0BF061FDE4E748CE002081
:10AB90006809002038B5094C094D28684FF0FF338B
:10ABA000002221461EF0A0FF0028F6D107F0F4FE97
:10ABB000D4E9002307F04CFFEFE700BF40CE0020B0
:10ABC0000C09002038B5094C094D28684FF0FF33B7
:10ABD000002221461EF088FF0028F6D108F042F836
:10ABE000D4E9002308F080FBEFE700BF38CE002057
:10ABF000B0080020F8B507F047FA794E794C0546C1
:10AC000033E0A8682768002848D128692768002809
:10AC100052D1A869276800285CD1286A27680028D3
:10AC200066D1A86A2768002870D1286B2768002899
:10AC30007AD1A86B2768002840F08680286C2768A6
:10AC4000002840F09180A86C2768002840F09C8084
:10AC5000286D2768002840F0A780A86D2768002885
:10AC600040F0B28023680133236030684FF0FF3139
:10AC70001EF056FE0028F5D1286827680028C0D0AD
:10AC800007F0AAFAB7FBF0F303FB1077002FB8D157
:10AC90006B689847A86827680028B6D007F09CFA28
:10ACA000B7FBF0F303FB1077002FAED1EB689847AA
:10ACB000286927680028ACD007F08EFAB7FBF0F3BC
:10ACC00003FB1077002FA4D16B699847A869276808
:10ACD0000028A2D007F080FAB7FBF0F303FB10774F
:10ACE000002F9AD1EB699847286A2768002898D0E6
:10ACF00007F072FAB7FBF0F303FB1077002F90D147
:10AD00006B6A9847A86A276800288ED007F064FA13
:10AD1000B7FBF0F303FB1077002F86D1EB6A98475F
:10AD2000286B2768002884D007F056FAB7FBF0F3A9
:10AD300003FB1077002F7FF47CAF6B6B9847A86BF9
:10AD4000276800283FF47AAF07F046FAB7FBF0F324
:10AD500003FB1077002F7FF471AFEB6B9847286CE3
:10AD6000276800283FF46FAF07F036FAB7FBF0F31F
:10AD700003FB1077002F7FF466AF6B6C9847A86CCD
:10AD8000276800283FF464AF07F026FAB7FBF0F31A
:10AD900003FB1077002F7FF45BAFEB6C9847286DB7
:10ADA000276800283FF459AF07F016FAB7FBF0F315
:10ADB00003FB1077002F7FF450AF6B6D9847A86DA1
:10ADC000276800283FF44EAF07F006FAB7FBF0F310
:10ADD00003FB1077002F7FF445AFEB6D984741E7F9
:10ADE0002007002034CE002008B506F0C3FAFCE7A7
:10ADF00070B50A4E82B00024002530684FF0FF3352
:10AE000000226946CDE900451EF06EFE0028F4D10F
:10AE1000DDE900010CF050FAEFE700BF5408002014
:10AE200000B51B484FF0804287B0026059220023D2
:10AE300042604FF0FF32CDE90233CDE90433CDE972
:10AE40000033C0E90232036183612FF025FE98B917
:10AE50004FF480530E48029302A936F0FDFC98B9D6
:10AE6000202200230A486946CDE900233BF016F86A
:10AE700028B907B05DF804FBFFF71AF9E8E7FFF718
:10AE800017F907B05DF804FBFFF712F9E8E700BF18
:10AE9000A0CF00200000000000B53148314A8FB03B
:10AEA0000023CDE90233CDE90433CDE90033CDE908
:10AEB0000633CDE90833CDE90A330C93836003618F
:10AEC000836140F23F63C0E900234FF6FF73C36024
:10AED0002FF0E2FD48BB4FF480532148029302A9B2
:10AEE00036F0BAFC90BB1E4830F0D2F958BB0022B5
:10AEF00000231B486946CDE900233AF0CFFFF8B99B
:10AF00009FED157B00221648089206A98DED067B61
:10AF10000A9237F0CFFD80B91148042206A937F014
:10AF2000C9FD28B90FB05DF804FBFFF7C1F8D2E7FF
:10AF3000FFF7BEF80FB05DF804FBFFF7B9F8EBE7D9
:10AF4000FFF7B6F8DCE7FFF7B3F8D0E7FFF7B0F8A4
:10AF5000C9E700BFAFF30080000000000000000060
:10AF600058CF00200004004000B51B481B4A89B0A0
:10AF7000002302604FF0FF32CDE90233CDE9043304
:10AF8000CDE90033C0E90133C0E9032306938361AF
:10AF90002FF082FDA0B9072200230F4802A9CDE9B6
:10AFA000022336F02BFF98B9002200230A48694695
:10AFB000CDE900233AF072FF28B909B05DF804FB2F
:10AFC000FFF776F8E7E7FFF773F809B05DF804FBE1
:10AFD000FFF76EF8E8E700BF10CF0020000C00403C
:10AFE00000B51248124943F6652283B00023C0E938
:10AFF00000120122CDE90033C0E9023283612FF053
:10B000004BFD58B90022002308486946CDE90023CA
:10B010003AF044FF28B903B05DF804FBFFF748F8A5
:10B02000F0E7FFF745F803B05DF804FBC8CE002059
:10B030000014004009480A4908B54FF6FF72002382
:10B04000C0E90013C0E90232036183612FF024FDDF
:10B0500000B908BDBDE80840FFF72AB880CE00203F
:10B060000044014000B50368B3F1804F87B00ED0B3
:10B07000334A93422AD0334A934218D0324A9342F9
:10B080003AD0324A934249D007B05DF804FB03F549
:10B090000E33002201921A6C42F001021A641B6CFA
:10B0A00003F001030193019B07B05DF804FB284BFB
:10B0B000002203921A6C42F008021A641B6C03F01F
:10B0C00008030393039B07B05DF804FB204B0022A9
:10B0D0000292196C41F0020119641B6C03F0020327
:10B0E00002931D200521029B20F0CCFD1D2007B0FE
:10B0F0005DF804EB20F00CBE154B00220492196C95
:10B1000041F0200119641B6C03F0200304933720E5
:10B110000221049B20F0B6FD3720E8E70C4B00220B
:10B120000592596C41F4003159645B6C03F40033AF
:10B13000059319200521059B20F0A4FD1920D6E7D1
:10B1400000040040000C0040001400400044014096
:10B15000003802400368B3F1804F0CD01A4A934282
:10B1600016D01A4A93420CD0194A934219D0194A60
:10B1700093421FD07047184A136C23F001031364E5
:10B18000704702F50B32136C23F008031364704709
:10B1900002F50D321D20136C23F00203136420F01E
:10B1A000CBBD02F509323720136C23F02003136462
:10B1B00020F0C2BD02F574421920536C23F4003311
:10B1C000536420F0B9BD00BF00040040000C0040F3
:10B1D00000140040004401400038024010B50B4804
:10B1E0000B4C00234FF4E1310C22C0E90041C0E9CF
:10B1F0000233C0E90432C0E906333BF071F800B90C
:10B2000010BDBDE81040FEF753BF00BFA8D000201E
:10B210000044004070B5374B026888B000249A4261
:10B22000CDE90244CDE90444069401D008B070BDD4
:10B2300003F5FA3300941A6C2F4E42F400321A646C
:10B240001A6C02F400320092009A01941A6B42F0D8
:10B2500008021A631B6B03F00803019360220223A8
:10B26000CDE902230546032207230198234802A9BA
:10B27000CDE9052326F0A2FA214A74624FF000635B
:10B28000C6E90023304640224FF48063C6E9022419
:10B29000C6E90544C6E90744336120F0B9FF10BB95
:10B2A000184C194A22604FF000620023AE636260BE
:10B2B00020464FF48062C4E90233C4E90423C4E9A0
:10B2C0000633C4E90833B56320F0A2FF70B9002249
:10B2D0000521EC632620A56320F0D4FC262020F075
:10B2E00017FD08B070BDFEF7E3FED9E7FEF7E0FEFC
:10B2F000EDE700BF0044004048D00020000C0240B1
:10B30000A0600240E8CF0020886002400D4B026838
:10B310009A4200D070470C4A136C10B523F40033E6
:10B32000044660211364094826F07CFCA06B21F0E0
:10B33000BFF8E06B21F0BCF8BDE81040262020F0FB
:10B34000FBBC00BF0044004000380240000C02403B
:10B35000DFF834D0FFF77EF90C480D490D4A002381
:10B3600002E0D458C4500433C4188C42F9D30A4ABA
:10B370000A4C002301E013600432A242FBD340F0E8
:10B3800065F8FEF759FD704700000220000000201C
:10B39000AC04002098830508B004002064900120CC
:10B3A000FEE700000022C0E900228260704700BF73
:10B3B000002070471C2070471B2070471A207047E0
:10B3C00019207047182070471720704716207047C3
:10B3D00015207047142070471320704712207047C3
:10B3E00011207047102070470F2070470E207047C3
:10B3F0000D2070470C2070470B2070470A207047C3
:10B4000009207047082070470720704706207047C2
:10B4100005207047042070470320704702207047C2
:10B42000012070470020704738B5664C664B04F524
:10B43000805505F51470C5F8503200F0CDFC634B13
:10B44000C5F8C03104F58E5000F0C6FC604BC5F85D
:10B45000303105F5987000F0BFFC5E4BC5F8A030A8
:10B4600004F5855000F0B8FC5B4B2B6105F1100032
:10B4700000F0B2FC594BC4F8D03E04F56D6000F00A
:10B48000ABFC574BC4F8903D04F5596000F0A4FCA8
:10B49000544BC4F8503C04F5456000F09DFC524B01
:10B4A000C4F8C83B04F6C83000F096FC4F4BC4F813
:10B4B000403B04F5346000F08FFC4D4BC4F8B83AC3
:10B4C00004F6B82000F088FC4A4BC4F8583904F65A
:10B4D000581000F081FC484BC4F8C83804F6C80086
:10B4E00000F07AFC454BC4F8483804F6480000F0F8
:10B4F00073FC434BC4F8B83704F5F76000F06CFCFC
:10B50000404BC4F8203704F5E46000F065FC3E4B86
:10B51000C4F8A83604F5D56000F05EFC3B4BC4F8D7
:10B52000183604F5C36000F057FC394BC4F8883571
:10B5300004F5B16000F050FC364BC4F8F83404F563
:10B540009F6000F049FC344BC4F8703404F58E6001
:10B5500000F042FC314BC4F8E83304F57A7000F097
:10B560003BFC2F4BC4F8603304F5587000F034FCFA
:10B570002C4BC4F8D83204F5367000F02DFC2A4B61
:10B58000C4F8503204F5147000F026FC274BC4F8C0
:10B59000C83104F5E47000F01FFC254BC4F83031CD
:10B5A00004F5987000F018FC2046224B40F8983FB4
:10B5B00000F012FC204B23602046BDE8384000F02C
:10B5C0000BBC00BF00D10020285605081C560508FA
:10B5D0001056050804560508F8550508EC550508E9
:10B5E000E0550508D4550508C8550508BC5505089B
:10B5F000B0550508A4550508985505088C5505084B
:10B600008055050874550508685505085C550508FA
:10B610005055050844550508385505082C550508AA
:10B62000205505081455050808550508FC5405085B
:10B63000F0540508E4540508D8540508000000003B
:10B640002DE9F04F2DED028B044683B000F0A8FBEE
:10B6500020463026DE4BDF4D40F8683B3246002165
:10B660003FF097FDA56604F1980000F099FBDA4BD6
:10B67000C4F898303246002104F580703FF089FD0F
:10B68000C4F8005104F5987000F08AFBD34BC4F85D
:10B6900030313246002104F5CC703FF07AFDC4F819
:10B6A000985104F5E4704FF0200900F079FBCC4B81
:10B6B000CC4DC4F8C8314A46002104F50C703FF067
:10B6C00068FDC4F8305204F5147000F069FBC64BF5
:10B6D000C4F850324A46002104F52E703FF059FD5F
:10B6E000C4F8B85204F5367000F05AFBBF4BC4F8EA
:10B6F000D8324A46002104F550703FF04AFDC4F8A4
:10B70000405304F5587000F04BFBB94BC4F860335C
:10B710004A46002104F572703FF03BFDC4F8C8535F
:10B7200004F57A7000F03CFBB24BC4F8E8334A46AB
:10B73000002104F58A603FF02CFDC4F8505404F554
:10B740008E6000F02DFBAC4BC4F870344A460021EB
:10B7500004F59B603FF01DFDC4F8D85404F59F60CC
:10B760004FF0280A00F01CFBA44BA54FC4F8F83496
:10B770005246002104F5AC603FF00BFDC4F8607543
:10B7800004F5B16000F00CFB9E4BC4F888355246BE
:10B79000002104F5BE603FF0FCFCC4F8F07504F530
:10B7A000C36000F0FDFA984BC4F8183652460021E9
:10B7B00004F5D0603FF0EDFC9FED838BC4F88076FC
:10B7C00004F5D56000F0ECFA904BC4F8A83604F507
:10B7D000D6628F4BDFF86CB282ED1A8B04F5E46011
:10B7E000C4F8103700F0DCFA8A4BC4F82037324630
:10B7F000002104F5F1603FF0CCFC874BC4F888379A
:10B8000004F5F76000F0CCFA844BC4F8B837524620
:10B81000002104F502603FF0BCFCC4F8207804F677
:10B82000480000F0BDFA7E4BC4F8483800267D4B36
:10B83000C4F8B038C4F8B468C4F8B868C4F8BC68D0
:10B84000C4F8C068C4F8C46804F6C80000F0A8FAD8
:10B85000754BC4F8C8385246314604F513603FF0C2
:10B8600098FCC4F8307904F6581000F099FA6F4B40
:10B87000C4F858393146F82204F51C603FF089FCC1
:10B880006B4BC4F8C03904F6B82000F089FA694B54
:10B89000C4F8B83A4A46314604F532603FF079FCC4
:10B8A000C4F8205B04F5346000F07AFA624BC4F807
:10B8B000403B4A46314604F6A8303FF06AFCC4F8E3
:10B8C000A85B04F6C83000F06BFA5C4BC4F8C83BC8
:10B8D0004A46314604F543603FF05BFCC4F8305CF7
:10B8E00004F5456000F05CFA4FF0D008544BC4F802
:10B8F000503C4246314604F54C603FF04AFC04F5AA
:10B900004D6304F54E60019300F082FB04F54F6136
:10B9100000250D6004F6F4414FF07E570D6004F6EB
:10B92000F84104F553620D6004F6FC4104F55960DA
:10B930000D6004F550610D6004F604510D6004F6CD
:10B9400008510F6004F60C510F6004F551610F604F
:10B9500004F614510F6004F618510F6004F61C51E0
:10B960000F6004F552610D6004F624510D6004F679
:10B9700028510D601560556004F63852156004F6C4
:10B980003C52156004F55462156004F6445215608B
:10B9900004F64852156004F64C52156004F55562E1
:10B9A000156004F65452156004F65852156004F6FA
:10B9B0005C52156004F55662156004F66452156019
:10B9C00004F6685215603FE000000000000000002F
:10B9D000D854050828540508E4540508F05405080F
:10B9E000FC54050868540508085505081455050851
:10B9F000205505082C5505083855050844550508F7
:10BA000078540508505505085C5505086855050823
:10BA10005854050874550508A854050880550508AC
:10BA20008C5505084854050898550508A45505087F
:10BA300088540508B0550508BC550508C8550508C3
:10BA4000D45505089854050804F66C52156004F5A1
:10BA50005762156004F67452156004F67852019B23
:10BA6000156004F67C52156083ED2C8BC4F8886D4C
:10BA700084F88C6DC4F8C0BC00F092F9AD4BC4F8EA
:10BA8000903D4246314604F560603FF082FB04F58C
:10BA9000616304F56260019300F0BAFA04F5636132
:10BAA00004F567620D6004F6346104F56D600D60A5
:10BAB00004F638610D6004F63C610D6004F56461C4
:10BAC0000D6004F644610D6004F648610F6004F6F1
:10BAD0004C610F6004F565610F6004F654610F60FE
:10BAE00004F658610F6004F65C610F6004F566614E
:10BAF0000D6004F664610D6004F668610D60156008
:10BB0000556004F67862156004F67C62156004F5F1
:10BB10006862156004F68462156004F68862156038
:10BB200004F68C62156004F56962156004F694628F
:10BB3000156004F69862156004F69C62156004F5C1
:10BB40006A62156004F6A462156004F6A8621560C6
:10BB500004F6AC62156004F56B62156004F6B4621D
:10BB6000156004F6B862019B156004F6BC621560AE
:10BB700083ED2C8BC4F8C86E84F8CC6EC4F800BE7C
:10BB800000F00EF96C4BC4F8D03E4246314604F545
:10BB900074603FF0FEFA04F5756304F57660019376
:10BBA00000F036FA04F5776104F57B620D6004F667
:10BBB000747104F580580D6004F6787140460D608C
:10BBC00004F67C7110300D6004F578610D6004F6A8
:10BBD00084710D6004F688710F6004F68C710F603B
:10BBE00004F579610F6004F694710F6004F69871A2
:10BBF0000F6004F69C710F6004F57A610D6004F625
:10BC0000A4710D6004F6A8710D601560556004F60E
:10BC1000B872156004F6BC72156004F57C6215609C
:10BC200004F6C472156004F6C872156004F6CC728E
:10BC3000156004F57D62156004F6D472156004F693
:10BC4000D872156004F6DC72156004F57E6215602A
:10BC500004F6E472156004F6E872156004F6EC72FE
:10BC6000156004F57F62156004F6F472156004F641
:10BC7000F872019B156004F6FC72156083ED2C8B45
:10BC8000C8F8086088F80C60C4F840BF00F088F875
:10BC90002A4B2B4DC8F810305246314608F1780037
:10BCA0003FF077FAC8F8785004F5855000F078F83E
:10BCB000244BC8F8A0305246314608F584703FF056
:10BCC00068FA04F58950C8F80851103000F068F897
:10BCD0001D4BC8F830315246314608F5CC703FF064
:10BCE00058FAC8F8985104F58E5000F059F8174BDF
:10BCF000C8F8C0315246314608F50A703FF049FA9B
:10BD0000134BC8F8283204F59250103000F048F870
:10BD1000104BC8F850324A46314608F52E703FF0B5
:10BD200038FA0D4BC8F8B832204603B0BDEC028B90
:10BD3000BDE8F08FE0550508EC550508F8550508F5
:10BD40003854050804560508105605081C56050801
:10BD5000B854050828560508C854050810B50C4CF9
:10BD60002368BFF35B8FDB0701D50A4810BD20466F
:10BD70003CF040F80028F8D00648FFF761FC064880
:10BD80003EF08FFF20463CF044F8024810BD00BF53
:10BD9000F0D0002000D1002029B40008704700BF77
:10BDA00010B5044600230A48206004F1080150221F
:10BDB000C4E91633C4E9181204F158001DF098FCC8
:10BDC000606008B1204610BD02480F2100F01EF847
:10BDD00034560508CCC7040810B50446034B406828
:10BDE00023601DF027FD204610BD00BF3456050816
:10BDF00008B5012140681DF0CBFCB0FA80F0400985
:10BE000008BD00BF40681DF0E7BC00BF80B50E460E
:10BE1000BAB0074672B66C486C4C6B4D3BF0B4F848
:10BE200064232146012228463AF0BCFC14F8013F65
:10BE3000002BF5D13B7853B1634C64233946012282
:10BE400020463AF0AFFC17F8013F002BF5D1604CCB
:10BE50005D4D64232146012228463AF0A3FC14F8E4
:10BE6000013F002BF5D186EAE674A4EBE674092CB9
:10BE70004FEAD67640F29580632C40F29F80B4F56D
:10BE80007A7F72D342F20F739C4240F29580514BFD
:10BE90009C4240F29580504B9C4298BF05230BD9A1
:10BEA0004E4B9C4238BF052360D34D4B9C4271D909
:10BEB0004C4B9C4272D9092303F1010801AD03AB3D
:10BEC00008EB06012D222846019307AF3CF05BF8F2
:10BED000019B4549C92238461E443FF0EFFA632CC6
:10BEE0003AD9A8F10202DFF8088132444FF0640E1B
:10BEF00042F20F7CA8FB04135B090EFB13402146A2
:10BF000037F8100022F8020961451C46F2D8B1F555
:10BF10007A7F21D204F13003DBB23370019C2378A5
:10BF200053B1294E64232146012230463AF03AFCAF
:10BF300014F8013F002BF5D128463BF0C0FF2B4CF5
:10BF4000214D64232146012228463AF02BFC14F8A7
:10BF5000013F002BF5D1FEE73AAB03EB440414F8A4
:10BF6000CB2C14F8CC3C7270D7E7012303F1020804
:10BF700001AD03AB08EB060128462D22019307AF64
:10BF80003CF001F8019B1849C92238461E443FF095
:10BF900095FAA6E7052303F10308E9E74FF009083E
:10BFA000E6E701AD03AB711C2D22284601933BF05F
:10BFB000EAFF019B1E44ADE70123ECE701237BE789
:10BFC0004FF00508D4E700BFA8D00020E8C7040858
:10BFD00008C804089F8601003F420F008096980021
:10BFE000FFE0F505FFC99A3B14C8040810C804080F
:10BFF0001F85EB5108B5034A034B04486D21FEF73A
:10C0000045F800BFD0C90408E0C804085CCA0408A9
:10C0100008B5030707D100224FF07E51016042604E
:10C020008260C26008BDFFF7E5FF00BF08B50307E7
:10C030000CD10A6842604FF0000C8A68C0F800C05A
:10C04000D1F804C0C0F808C0C26008BDFFF7D2FF35
:10C0500008B5030708D180ED000AC0ED010A80EDA4
:10C06000021AC0ED031A08BDFFF7C4FF91ED007A74
:10C07000D0ED007AD0ED016A77EE877A90ED027A02
:10C08000C0ED007A91ED016AD0ED037A76EE866A12
:10C09000C0ED016AD1ED026A37EE267A80ED027AB0
:10C0A00091ED037A77EE877AC0ED037A704700BF8F
:10C0B000D1ED016A92ED014A91ED027AD2ED024A88
:10C0C000D1ED037A92ED035A91ED006AD2ED005A58
:10C0D00076EE846A37EE247A77EE857A36EE256A34
:10C0E000C0ED016A80ED006A80ED027AC0ED037A4E
:10C0F000704700BF91ED007AD0ED007AD0ED016A73
:10C1000077EEC77A90ED027AC0ED007A91ED016A80
:10C11000D0ED037A76EEC66AC0ED016AD1ED026A0F
:10C1200037EE667A80ED027A91ED037A77EEC77A80
:10C13000C0ED037A704700BFD1ED016A92ED014A6C
:10C1400091ED027AD2ED024AD1ED037A92ED035AD3
:10C1500091ED006AD2ED005A76EEC46A37EE647A49
:10C1600077EEC57A36EE656AC0ED016A80ED006A49
:10C1700080ED027AC0ED037A704700BF08B503076F
:10C1800074D14FF07E5CC0F800C04FF0000CC0F8D6
:10C1900004C0C0F808C0C0F80CC091ED016AD2ED2F
:10C1A000017AD1ED006A92ED007AD1ED025A67EE84
:10C1B000C67A92ED026AE6EE877AD1ED036A92EDD5
:10C1C000037AE5EEC67AE6EEC77AC0ED007A91ED25
:10C1D000016AD2ED007AD1ED006A92ED017AD1EDDB
:10C1E000025A67EE867A92ED036AE6EE877AD1ED1F
:10C1F000036A92ED027AE5EE867AE6EEC77AC0ED42
:10C20000017A91ED026AD2ED007AD1ED006A92EDE9
:10C21000027AD1ED015A67EE867A92ED036AE6EE74
:10C22000877AD1ED036A92ED017AE5EEC67AE6EE01
:10C23000877AC0ED027AD2ED007A91ED036AD1EDF2
:10C24000006A92ED037AD1ED015A67EE867A92ED9B
:10C25000026AE6EE877AD1ED026A92ED017AE5EEA6
:10C26000867AE6EEC77AC0ED037A08BDFFF7C2FE14
:10C2700090ED006AD0ED016A90ED027AD0ED037A7C
:10C2800026EE006A66EE806A27EE007A67EE807A14
:10C2900080ED006AC0ED016A80ED027AC0ED037A9C
:10C2A000704700BFD1ED016A91ED027AD1ED037ABA
:10C2B00091ED006A60EE266A20EE077A60EE277A3A
:10C2C00026EE006AC0ED016A80ED006A80ED027A18
:10C2D000C0ED037A704700BF10B5044651EC100B57
:10C2E000FBF7DEFFD4ED005A94ED016AD4ED026A4B
:10C2F00094ED037A07EE900A65EEA75A26EE276AB8
:10C3000066EEA76A67EE277AC4ED005A84ED016AEB
:10C31000C4ED026AC4ED037A204610BD38B5044668
:10C320000D4651EC100BFBF7BBFFD5ED015AD5EDD7
:10C33000026A95ED037A95ED006A07EE900A67EEC2
:10C34000A55A67EEA66A27EE877A66EE277A204618
:10C35000C4ED015AC4ED007AC4ED026A84ED037A9B
:10C3600038BD00BF704700BF90ED000A704700BFA6
:10C370000430704790ED010A704700BF08307047E5
:10C3800090ED020A704700BF0C30704790ED030A31
:10C39000704700BFD0ED015AD0ED036A90ED005A0E
:10C3A00090ED026A65EEA57A26EEA67AE5EE057AAC
:10C3B000A6EE067A77EE877AF5EEC07AF1EE10FAFD
:10C3C00011DDB1EEE77AC5EE074AC6EE877A85EE53
:10C3D000875AC6EE075AC0ED004A80ED015AC0EDFB
:10C3E000025AC0ED037A7047D1ED016A91ED027AED
:10C3F000D1ED037A91ED006A60EE266A20EE077AAD
:10C4000060EE277A26EE006AC0ED016A80ED006AD0
:10C4100080ED027AC0ED037A704700BF38B504465C
:10C420000D4651EC100BFBF73BFFD5ED015AD5ED56
:10C43000026A95ED037A95ED006A07EE900A67EEC1
:10C44000A55A67EEA66A27EE877A66EE277A204617
:10C45000C4ED015AC4ED007AC4ED026A84ED037A9A
:10C4600038BD00BF154B5B68C3F3080370B5FBB163
:10C47000134E3468BFF35B8F14F00104054605D0FA
:10C4800029461048BDE8704000F0D8B930463BF06E
:10C49000B1FC0028F4D00B4B3046C3E91544DC65F1
:10C4A0003BF0B7FC29460748BDE8704000F0C6B92C
:10C4B000054B064A06480B21FDF7E8FD00ED00E0BC
:10C4C000E0E30020E4E300209CCA0408C0CA04089A
:10C4D000F4CA0408F8B5114F3C68BFF35B8F14F041
:10C4E000010405460E4606D0324629460C48BDE8F2
:10C4F000F84000F063B838463BF07CFC0028F3D0ED
:10C50000074B3846C3E91544DC653BF082FC3246F4
:10C5100029460348BDE8F84000F050B8E0E30020A9
:10C52000E4E3002038B50E4D2C68BFF35B8F14F0A8
:10C53000010404D0BDE838400A4800F035BA284666
:10C540003BF058FC0028F5D0064B2846C3E91544BB
:10C55000DC653BF05EFCBDE83840024800F024BAE0
:10C56000E0E30020E4E3002038B50E4D2C68BFF373
:10C570005B8F14F0010404D0BDE838400A4800F095
:10C5800015B828463BF036FC0028F5D0064B284667
:10C59000C3E91544DC653BF03CFCBDE8384002488B
:10C5A00000F004B8E0E30020E4E3002090F9560036
:10C5B0000028D4BF00200120704700BFC0E9161238
:10C5C000704700BFF0B5F22991B0044671D0F3294D
:10C5D0000B464ED1944A4579ADF80D3092E80300F0
:10C5E000F92D4FF0000202908DF80C108DF80F20FD
:10C5F0008DF810208DF811208DF8122040F29080D7
:10C60000FF238DF80E304FF0FF32072102A80BF008
:10C61000B5FA02ABCDF80F0003CBC4F82A001A8894
:10C62000628604F12A079A78C4F82E100B23BA7296
:10C63000A4F85430A36D002B38D00BF0B5FA7B4D25
:10C640004519A06D41F100063AF020FB04E00BF023
:10C65000ABFAA842B14129D2A06D90F84130202B0D
:10C66000F5D1B4F8542039463AF042FA012011B01D
:10C67000F0BD6D4A8DF8193092E803000023059053
:10C680008DF818104FF0FF32072105A88DF81A30E9
:10C690008DF81B308DF81C308DF81D308DF81E3054
:10C6A0000BF06CFA05ABCDF81B00B5E7002011B01C
:10C6B000F0BD5F4A43798DF8193092E80300F92BF9
:10C6C00005908DF8181065D902AD574A92E803001D
:10C6D0008DF80C104FF6F271002302904FF0FF32EC
:10C6E000ADF80D10284607218DF80F308DF8103069
:10C6F0008DF811308DF812300BF040FA2A46CDF843
:10C700000F0003CA04F12A07138863869278C4F8DD
:10C710002A000B23C4F82E10BA72A4F8543089E70B
:10C7200044484FF4004125F0C9FBD4F80630CDF859
:10C730001630D4F81630D4F80A20D4F80E60CDF8AC
:10C7400026306623D4F81210CDF81A20CDF81E60DA
:10C75000D4F81A20D4F81E6000936D01CDF8221091
:10C76000D4F82210CDF82A206DBACDF83210324814
:10C77000ADF81450222305AAA021CDF82E6020F098
:10C78000D1FE002849D02B4801224FF4004125F06A
:10C7900095FB35E75B0159BA012202AD0092ADF875
:10C7A0000810254802232A46A02120F0BBFE0028BD
:10C7B0008BD12023204800930DF11A02A02121F0F3
:10C7C00055F8002881D14FF0FF32262105A80BF043
:10C7D000D5F904F12A07CDF83A000DF1140C3E46C4
:10C7E0000DF1340E65460FCD754506F110060CF1BE
:10C7F000100C46F8100C46F80C1C46F8082C46F8AD
:10C80000043CEFD1BCE803003060BCF8002032816A
:10C810002A237160A4F854300CE7064801224FF433
:10C82000004125F04BFBEEE6D4C1040840420F0066
:10C83000CCC1040800040240080500202A2938B5AC
:10C8400004460ED9FE2380F856302A22A06D2146D8
:10C850003BF0A0FAE36D1A68136823F00803136035
:10C8600038BD0D1F4FF0FF3229460BF087F9635991
:10C87000984203D0FF2384F85630E6E723784E2B06
:10C88000E3D16378452BE0D16388032BDDD1217997
:10C89000F12914D00DD8F029D7D1012384F85630CE
:10C8A0002046FFF78FFE0028CFD1FD2384F85630B5
:10C8B000CBE701F10E03DBB2012BF1D9C5E7002371
:10C8C00084F85630ECE700BF00F12A032DE9F0436D
:10C8D00003EB020E9AB1AEEB0004A4F12B05052D7B
:10C8E00001F1010C03D9A3EB0C05022D0BD81CF8A8
:10C8F000011C03F8011B9E450CF1010CF7D1A0F8B7
:10C900005420BDE8F083A4F12A0626F003088C46E3
:10C910001C464FEA960908EB01075CF8045B44F8F3
:10C92000045BBC45F9D1464503EB0804E7D011F898
:10C93000291003F82910631C9E45E0D09CF80130B3
:10C940006370A31C9E45DAD09CF80230A370A0F857
:10C950005420BDE8F08300BF836D03B370B5044677
:10C960000BF022F90F4B0546ED18A06D41F10006C2
:10C970003AF08CF904E00BF017F9A842B1410CD25F
:10C98000A06D90F84130202BF5D1B4F8542004F17B
:10C990002A013AF0ADF8012070BD002070BD0020E2
:10C9A000704700BF40420F0070B505462A22294655
:10C9B000806D104C3BF0EEF9EB6D1A68136823F0B4
:10C9C000080313600BF0F0F8041941F100060BF0B6
:10C9D000EBF8A042B141FAD395F95630002BF6DCC2
:10C9E000A86D90F84130202BF1D1BDE870403AF0AD
:10C9F00075BD00BF404B4C00D0F81402003818BF82
:10CA000001207047D0F8143203B1704710B50446C6
:10CA100000F51A701CF06CFEC4F8140210BD00BFC3
:10CA2000F8B5174E3468BFF35B8F14F00104054668
:10CA300002D0F5B91348F8BD30463BF0DBF90028C9
:10CA4000F7D0104F104B384640F8043B0AF050FC2A
:10CA500007F50673C7F8703230465023C7E98344A0
:10CA6000C7E99A44C7F81442C7F874323BF0D1F9C9
:10CA7000DFE7064B064A07481821FDF707FB00BF12
:10CA800044E4002048E400204056050894CB040804
:10CA9000ACCB0408FCCB040800B5074A83B00023E4
:10CAA0008C4610688DF807C01A460DF107011CF07E
:10CAB000E9FF03B05DF804FB900B002070B586B071
:10CAC000011D044601A80AF039FF1DF02DFBD4E931
:10CAD0008335EB1A54BF143303F50573B3F5007FA8
:10CAE00023D205F1140305F10A0EB3F5007F04EB20
:10CAF0000E0C1FD9C5F50076324601A960463EF0FE
:10CB0000DDFC01ABA5F5F672991904F10A003EF0BF
:10CB1000D5FC1648D4F8103290F841201433C3F3F2
:10CB20000803202AC4F8103213D006B0BDE87040C4
:10CB30001DF01CBB01AD0FCD44F80E002868CCF8E9
:10CB400004101426CCF80820CCF80C30CCF81000D7
:10CB5000DFE7D4F80C120A31B2B2214439F0C8FF31
:10CB600006B0BDE870401DF001BB00BFA8D000209A
:10CB700070B586B0011D044668460AF019FF1DF025
:10CB8000D3FAD4E98335EB1A54BF183303F506738F
:10CB9000B3F5007F23D205F1180305F10A0EB3F5B2
:10CBA000007F04EB0E0C1FD9C5F5007632466946AE
:10CBB00060463EF083FCA5F5F4720DEB060104F12E
:10CBC0000A003EF07BFC1748D4F8103290F8412060
:10CBD0001833C3F30803202AC4F8103215D006B066
:10CBE000BDE870401DF0C2BA6D460FCD44F80E008E
:10CBF000CCF8041003CD1826CCF80820CCF80C3063
:10CC0000CCF81000CCF81410DDE7D4F80C120A317F
:10CC1000B2B2214439F06CFF06B0BDE870401DF09F
:10CC2000A5BA00BFA8D00020531EB3F5007F2DE9A0
:10CC3000F04152D2054614460F461DF075FAD5E96B
:10CC40008336F31A48BF03F500732344B3F5007F1E
:10CC50001DD2A31906F10A00B3F5007F28441CD8A1
:10CC6000224639463EF02AFCA046D5F810321E482E
:10CC70001C4490F84130C4F30804202BC5F810423E
:10CC80001BD001241DF072FA2046BDE8F08100247B
:10CC90001DF06CFA2046BDE8F081C6F500784246EA
:10CCA00039463EF00BFCA6F50072224407EB080162
:10CCB00005F10A003EF002FCD7E7D5F80C120A3164
:10CCC0001FFA88F2294439F013FFB0FA80F464099E
:10CCD0001DF04CFA2046BDE8F081044B044A05489B
:10CCE000D921FDF7D3F900BFA8D00020A0CC0408BB
:10CCF000CCCC0408FCCB040870B59CB00546FFF70B
:10CD00002DF82C220446002111A83EF042FA2C4AAC
:10CD100092E8030004F5E46600232A4A09903046AD
:10CD200010928DF828108DF82930CDF82A30CDF8E2
:10CD30002E30CDF83230ADF836300F93FFF758F87B
:10CD400008B91CB070BD04F5F16330465A68119201
:10CD50009A681292DA6813921A69596914929A6958
:10CD6000169204F5F263D3E906231591B4F8B017CF
:10CD7000ADF86810CDE91823FFF744F8D5F8140290
:10CD800001211CF005FD0028DBD110AA291D6846F1
:10CD90000AF0C2FA00980199029A039B09AC0FC4E9
:10CDA00004980599069A07C41C2209A92846FFF78A
:10CDB0003BFFD5F814021CF00FFD1CB070BD00BF86
:10CDC000DCC10408A854050870B598B00546FEF704
:10CDD000C5FF2C22044600210DA83EF0DAF92F4AA7
:10CDE00092E8030004F5E46600232D4A07903046DC
:10CDF0000C928DF82010ADF821308DF823300B9374
:10CE00008DF824308DF825308DF826308DF82730B8
:10CE10008DF828308DF829308DF82A30FEF7E8FF9C
:10CE200008B918B070BD04F5F16330465A680D9228
:10CE30009A680E92DA680F921A69596910929A6983
:10CE4000129204F5F263D3E906231191B4F8B017F6
:10CE5000ADF85810CDE91423FEF7D4FFD5F814022D
:10CE600001211CF095FC0028DBD10CAA291D684685
:10CE70000AF062FB00980199029A039B07AC0FC469
:10CE800004982060142207A92846FFF7CDFED5F8A4
:10CE900014021CF0A1FC18B070BD00BFE4C104086E
:10CEA000A854050870B5364B054693E8030096B0C4
:10CEB0000023079033480C9000228DF820100020AA
:10CEC0000021CDE91201ADF821308DF823308DF825
:10CED00024308DF825308DF826308DF827308DF8E8
:10CEE00028308DF829308DF82A300B930D920E9250
:10CEF0000F9210928DF85030FEF730FF00F58E56ED
:10CF000004463046FEF774FF08B916B070BD04F54C
:10CF100080543046D4F82C22D4F830320D920E933F
:10CF2000D4F83422D4F838320F921093D4E99023F5
:10CF300094F848128DF85010CDE91223FEF762FFE5
:10CF4000D5F8140201211CF023FC0028DDD10CAA25
:10CF5000291D68460AF004FC00980199029A039B77
:10CF600007AC0FC404982060142207A92846FFF7D5
:10CF70005BFED5F814021CF02FFC16B070BD00BF8C
:10CF8000ECC10408B854050870B5324B054693E867
:10CF900003009AB0002309902F488DF82810002232
:10CFA000109000210020CDE90C33CDE916018DF859
:10CFB0002930CDF82A30ADF82E300F938DF860303F
:10CFC0001192129213921492FEF7C8FE00F58E563B
:10CFD00004463046FEF70CFF08B91AB070BD04F5E0
:10CFE00080543046D4F82C22D4F830321192129367
:10CFF000D4F83422D4F8383213921493D4E990231D
:10D0000094F848128DF86010CDE91623FEF7FAFE69
:10D01000D5F8140201211CF0BBFB0028DDD110AAB9
:10D02000291D68460AF0E8FB00980199029A039BC3
:10D0300009AC0FC404980599069A07C41C2209A9D3
:10D040002846FFF7F1FDD5F814021CF0C5FB1AB015
:10D0500070BD00BFF4C10408B85405082DE9F043C1
:10D06000624A6349A7B00023CDE91033CDE91332FA
:10D07000ADF848308DF868308DF890308DF830304C
:10D080005C4B1C9300244FF000084FF000095A4BF2
:10D090000E9102250F95CDE91889CDE92289CDE9B8
:10D0A0000A890646159416941D941E941F94209484
:10D0B00009940893FEF752FE00F592571037054683
:10D0C0003846FEF795FE002835D1CDE9188915942C
:10D0D00016948DF86800FEF741FE00F58E55044663
:10D0E0002846FEF785FE002866D100240025CDE9FC
:10D0F000224500231D931E931F9320938DF89000CB
:10D10000FEF72CFE00F6480504462846FEF770FEA2
:10D11000002841D100240025CDE90A4500230993C8
:10D120008DF83000D6F8140201211CF031FBB0B1AB
:10D1300027B0BDE8F08305F580553846D5F8BC2208
:10D14000D5F8C03215921693D5E9B22395F8D012CE
:10D150008DF86810CDE91823FEF754FEBBE708AB45
:10D16000009314AA1CAB311D02A80AF02FFA0298F2
:10D170000399049A059B0EAC0FC4069807991822D0
:10D1800003C40EA93046FFF74FFDD6F814021CF079
:10D1900023FB27B0BDE8F08304F50B6394F8C018B7
:10D1A0005A680992D3E902232846CDE90A238DF86B
:10D1B0003010FEF727FEB5E704F580542846D4F872
:10D1C0002C22D4F830321D921E93D4F83422D4F895
:10D1D00038321F922093D4E9902394F848128DF8A6
:10D1E0009010CDE92223FEF70DFE89E7C85405080B
:10D1F0004E450300B85405084854050870B586B07C
:10D200000646FEF7ABFD00F5D56504462846FEF759
:10D21000EFFD08B906B070BD284604F5E264D4E914
:10D220000245FEF7EFFDD6F8140201211CF0B0FA1A
:10D230000028EFD12B462246311D01A80AF044FBFD
:10D24000142201A93046FFF7EFFCD6F814021CF0B7
:10D25000C3FA06B070BD00BF08B5164B5B68C3F3D8
:10D26000080303B3D0E983321944C1F30801521A09
:10D27000002A8446C0F80C1201DC08D108BD0A312E
:10D28000BDE808400C4892B2614439F031BCC1F5A8
:10D29000007201F10A030CEB03010748BDE80840E6
:10D2A00092B239F025BC054B054A06484FF482710D
:10D2B000FCF7ECFE00ED00E0A8D000209CCA0408BA
:10D2C0000CCD0408FCCB0408D0E98303181A48BF2E
:10D2D00001F500710844B0F5007F2CBF002001204B
:10D2E000704700BF10B504460020FFF799FB2146A8
:10D2F000BDE81040FFF7B0BF0079704708B9034898
:10D30000704708B502481521FEF780FD0C0000208B
:10D3100048CD040830B5002487B0802320460D4650
:10D32000ADF814408DF8143001F0D6FE022301222E
:10D33000CDE90123009505AA214601F0E3FF07B0DE
:10D3400030BD00BF30B5002487B0A12320460D4674
:10D35000ADF814408DF8143001F0BEFE0223012216
:10D36000CDE90123009505AA214601F0CBFF07B0C6
:10D3700030BD00BF70B5002486B07D2320468DF8F7
:10D3800014308DF8134001F0A7FE164B012502263C
:10D390008DE8680005AA2B46214601F0E1FE10B990
:10D3A000002006B070BDFD232046ADF814408DF876
:10D3B000143001F091FE0DF113030093CDE90156F5
:10D3C000334605AA214601F09DFF0028E8D09DF8CC
:10D3D000130000F00E00A0F10E00B0FA80F040093A
:10D3E00006B070BD605605082DE9F047002486B0F0
:10D3F000802307462046ADF8144002258DF81430EE
:10D400008DF810408DF811408DF812408DF81340C2
:10D41000012601F061FE0DF112030093CDE90165D3
:10D420002B4605AA214601F06DFF18B19DF8123078
:10D43000242B08D001201DF0AFFC14201DF0ACFC03
:10D4400006B0BDE8F0874FF0FC0920460DF110084A
:10D45000ADF814408DF8149001F03EFECDE9016561
:10D46000CDF800802B4605AA214601F04BFF30B9CC
:10D4700030461DF091FC14201DF08EFCE0E79DF875
:10D48000103023F001038DF8103020467C238DF8F6
:10D49000143001F021FECDE90165CDF8008033465E
:10D4A00005AA214601F05CFE824630461DF074FC60
:10D4B000BAF1000FC1D02046ADF814408DF8149099
:10D4C00001F00AFECDE90165CDF800802B4605AAE2
:10D4D000214601F017FF0028AFD09DF81030DB4344
:10D4E00013F0010340F097801C4614201DF054FCFB
:10D4F000002CA5D00024A1232046ADF8144002261C
:10D500008DF8143001F0E8FD0123CDE901360DF16D
:10D510001103009305AA3346214601F0F3FE9DF85E
:10D52000115005F00F05012D8AD1002888D038460A
:10D53000FFF720FF002883D0402320468DF81430C9
:10D5400001F0CAFD614B0093CDE901562B4605AAB7
:10D55000214601F005FE00283FF472AF412320462A
:10D560008DF8143001F0B8FD594B0093CDE9015608
:10D570002B4605AA214601F0F3FD00283FF460AFD9
:10D58000422320468DF8143001F0A6FD514B009344
:10D59000CDE901562B4605AA214601F0E1FD002800
:10D5A0003FF44EAF432320468DF8143001F094FD34
:10D5B000494B0093CDE901562B4605AA214601F0BF
:10D5C000CFFD00283FF43CAF532320468DF81430A4
:10D5D00001F082FD414B0093CDE901562B4605AA8F
:10D5E000214601F0BDFD00283FF42AAF5823204614
:10D5F0008DF8143001F070FD2146394C0094CDE9CE
:10D6000001562B4605AA01F0ABFD00283FF418AFE8
:10D6100001233B7114E7592320468DF8143001F0A3
:10D620005BFD304A0092CDE90165334605AA2146EB
:10D6300001F096FD00283FF400AFDFF8B0804FF016
:10D640005E0900208DF8149001F046FD4FF4007340
:10D6500001930295CDF80080012305AA002101F075
:10D660007FFD00283FF4E9AE04F580739CB2C3F35C
:10D670000B138DF8133000205C238DF81430012635
:10D6800001F02AFD0DF11303009302950196334634
:10D6900005AA002101F064FD00283FF4CEAEB4F5E8
:10D6A000805F08F50078CCD1592300208DF8143024
:10D6B00001F012FD0C4B0295CDE9003605AA334668
:10D6C000002101F04DFD04460FE700BF5D5605083F
:10D6D0005C5605085B5605085A5605085856050855
:10D6E000595605085F5605085E5605086456050834
:10D6F00030B587B0402300208DF81730012401F0A9
:10D70000EBFC02250F4B0093CDE9014523460DF1BB
:10D710001702002101F024FD08B907B030BD4123F4
:10D7200000208DF8173001F0D7FC074B0295CDE9AA
:10D7300000340DF117022346002101F011FD07B05E
:10D7400030BD00BF5D5605085C56050830B587B092
:10D75000422300208DF81730012401F0BDFC022582
:10D760000F4B0093CDE9014523460DF1170200212F
:10D7700001F0F6FC08B907B030BD432300208DF856
:10D78000173001F0A9FC074B0295CDE900340DF1EB
:10D7900017022346002101F0E3FC07B030BD00BFB3
:10D7A0005B5605085A56050830B587B0532300204C
:10D7B0008DF81730012401F08FFC02250F4B0093E8
:10D7C000CDE9014523460DF11702002101F0C8FC07
:10D7D00008B907B030BD582300208DF8173001F08C
:10D7E0007BFC074B0295CDE900340DF1170223466F
:10D7F000002101F0B5FC07B030BD00BF5856050848
:10D800005956050810B5002486B09D232046ADF872
:10D8100014408DF813408DF8143001F05DFC0121A7
:10D820000DF113020223CDE901130092214605AA4E
:10D8300001F068FD40B19DF8130000F0C000A0F1B8
:10D84000C000B0FA80F0400906B010BDF0B5002469
:10D8500089B08C232046ADF810400E468DF810306C
:10D860001546CDE9054405AF079401F035FC0C22BF
:10D870000223CDE901230097214604AA01F042FDCD
:10D88000F8B3BDF916309FED204ADFED204A05EED2
:10D89000903ABDF9183006EE103ABDF91A3006EE8E
:10D8A000903ABDF91C3007EE103ABDF91E3007EE74
:10D8B000903ABDF9143005EE103AF8EEE55AB8EE9C
:10D8C000C66AF8EEE66AB8EEC77AB8EEC55AF8EE60
:10D8D000E77A25EE045A65EE845A26EE046A66EE6F
:10D8E000A46A27EE247A67EEA47A86ED005AC6ED84
:10D8F000015A86ED026AC5ED006A85ED017AC5ED33
:10D90000027A09B0F0BD00BF0AE81C3B55A08B3974
:10D910002DE9F04701682DED088B49681D46584BED
:10D9200099428AB00446164640F0A580007900BBB3
:10D930009FED548A0027F0EE48AAF0EE488AB0EE38
:10D94000489AB0EE48BAF0EE489AB0EE48AAB94606
:10D950003E463D46FEF702FA00F19808044640466E
:10D96000FEF746FA002868D10AB0BDEC088BBDE886
:10D97000F0874FF000089D234FF0020A40464FF019
:10D98000010904AFADF81C808DF810808DF81C30B3
:10D9900001F0A2FBCDE9019A0097534607AA414640
:10D9A00001F0B0FC0028C3D09DF8103003F0C00394
:10D9B000C02BBDD1204607AA3946CDE90488CDE960
:10D9C0000688CDE90888FFF741FF0028B0D0A223E0
:10D9D00040469DED079A9DED04AADDED059ADDED2B
:10D9E000088AADF81C809DED06BA8DF81C30DDED7F
:10D9F00009AAADF8108001F06FFB0097CDE901AAEC
:10DA0000534607AA414601F07DFCB1EE4AAAF1EE69
:10DA1000699AB1EE499AF1EE688A074668B3BDF992
:10DA200010309FED197A07EE903AF8EEE77AB3EEF0
:10DA3000078AA7EE878A4F468CE74046C4F82061E4
:10DA400084ED41AAC4ED429A84ED43BA84ED449A30
:10DA5000C4ED458AC4ED46AA84ED478AC4F8245132
:10DA600084F8289184F829710AB0BDEC088BBDE8D0
:10DA7000F047FEF7C7B9884759E79FED028A69E783
:10DA8000F9D20008000000000000003B30B500247F
:10DA900087B0A2232046ADF814400D468DF814300F
:10DAA000ADF8104001F018FB04AA02230092CDE962
:10DAB000013305AA214601F025FC68B1BDF91030FB
:10DAC000DFED066A07EE103AB8EEC77AF3EE077A92
:10DAD000E7EE267AC5ED007A07B030BD0000003BC6
