:020000040800F2
:108000000000022031B90008ADA60008B1A60008A2
:10801000B5A60008B9A60008BDA60008000000002B
:10802000000000000000000000000000E1BC0208A9
:10803000C1A6000800000000A1BD0208CDA90208E9
:1080400081B9000881B9000881B9000881B9000828
:1080500081B9000881B90008C5A60008CDA60008AE
:1080600081B90008D5A60008DDA60008E5A600082D
:10807000F1A60008FDA6000881B9000881B9000832
:1080800009A7000815A7000881B9000821A7000862
:108090002DA7000839A7000881B9000845A70008E6
:1080A00081B9000859A7000881B9000881B9000802
:1080B00081B9000865A7000881B9000871A7000808
:1080C0007DA7000889A7000895A7000881B90008C6
:1080D00081B9000881B90008A1A7000881B900088A
:1080E000ADA7000881B9000881B9000881B900086E
:1080F00081B9000881B9000881B9000881B9000878
:1081000081B9000881B9000881B9000881B9000867
:1081100081B9000881B90008D5A70008E1A70008C7
:1081200081B9000881B9000881B9000881B9000847
:1081300081B90008000000000000000081B90008BB
:1081400081B9000881B9000881B9000881B9000827
:1081500081B9000881B9000881B9000881B9000817
:10816000F5A7000801A8000881B9000881B9000836
:1081700081B9000881B9000881B900080000000039
:108180000000000081B900080000000000000000AD
:1081900081B90008000000000000000081B900085B
:1081A00000000000000000000000000081B900088D
:1081B00081B9000881B9000881B9000881B90008B7
:0481C00081B9000879
:1081D00010B5054C237833B9044B13B10448AFF301
:1081E00000800123237010BDD00400200000000097
:1081F00020DF040808B5034B1BB103490348AFF364
:10820000008008BD00000000D404002020DF040826
:10821000A3F5803A704700BF174B002B08BF134BE4
:108220009D46FFF7F5FF00218B460F461348144A81
:10823000121A44F0BAFE0E4B002B00D098470D4B9B
:10824000002B00D098470020002104000D000D48AD
:10825000002802D00C4844F030FC45F003F8200020
:10826000290001F0E1FE44F02FFC00BF00000800EF
:10827000000000000000000000000000D00400200A
:1082800024960120BBCA0408000000005CA4050875
:1082900000000020C8040020D00400202496012003
:1082A0004FEA4102B2F1E04324BFB3F5001CDCF118
:1082B000FE5C0DD901F0004C4FEAC0024CEA507050
:1082C000B2F1004F40EB830008BF20F0010070477F
:1082D00011F0804F21D113F13872BCBF01F0004082
:1082E000704741F480114FEA5252C2F11802C2F1B4
:1082F000200C10FA0CF320FA02F018BF40F0010035
:108300004FEAC1234FEAD32303FA0CFC40EA0C00E6
:1083100023FA02F34FEA4303CCE77FEA625307D123
:1083200050EA01331EBF4FF0FE4040F4400070475A
:1083300001F0004040F0FE4040F40000704700BFF4
:1083400080F0004002E000BF81F0004142001FBF0A
:108350005FEA410392EA030F7FEA226C7FEA236C13
:108360006AD04FEA1262D2EB1363C1BFD218414008
:1083700048404140B8BF5B42192B88BF704710F09E
:10838000004F40F4000020F07F4018BF404211F041
:10839000004F41F4000121F07F4118BF494292EAA9
:1083A000030F3FD0A2F1010241FA03FC10EB0C00D5
:1083B000C3F1200301FA03F100F0004302D5494262
:1083C00060EB4000B0F5000F13D3B0F1807F06D30F
:1083D00040084FEA310102F10102FE2A51D2B1F107
:1083E000004F40EBC25008BF20F0010040EA0300FC
:1083F0007047490040EB0000013A28BFB0F5000F7C
:10840000EDD2B0FA80FCACF1080CB2EB0C0200FA31
:108410000CF0AABF00EBC25052421843BCBFD04080
:108420001843704792F0000F81F4000106BF80F4FA
:1084300000000132013BB5E74FEA41037FEA226CBD
:1084400018BF7FEA236C21D092EA030F04D092F088
:10845000000F08BF0846704790EA010F1CBF0020BC
:10846000704712F07F4F04D1400028BF40F0004019
:10847000704712F100723CBF00F50000704700F039
:10848000004343F0FE4040F4000070477FEA226260
:1084900016BF08467FEA23630146420206BF5FEA31
:1084A000412390EA010F40F4800070474FF0000331
:1084B00004E000BF10F0004348BF40425FEA000CF8
:1084C00008BF704743F0964301464FF000001CE0A0
:1084D00050EA010208BF70474FF000030AE000BFF6
:1084E00050EA010208BF704711F0004302D5404234
:1084F00061EB41015FEA010C02BF844601460020A6
:1085000043F0B64308BFA3F18053A3F50003BCFAC0
:108510008CF2083AA3EBC25310DB01FA02FC63446D
:1085200000FA02FCC2F12002BCF1004F20FA02F274
:1085300043EB020008BF20F00100704702F1200267
:1085400001FA02FCC2F1200250EA4C0021FA02F2C8
:1085500043EB020008BF20EADC7070477BB972B9B8
:108560000029BEBF00204FF0004106E008BF0028F0
:108570001CBF6FF000414FF0FF3000F0D3B9ADF1F8
:10858000080C6DE904CE002909DB002B1ADB00F092
:108590004DF8DDF804E0DDE9022304B07047404205
:1085A00061EB4101002B1BDB00F040F8DDF804E03B
:1085B000DDE9022304B0404261EB4101524263EB2A
:1085C00043037047524263EB430300F02FF8DDF89A
:1085D00004E0DDE9022304B0404261EB4101704751
:1085E000524263EB430300F021F8DDF804E0DDE9DB
:1085F000022304B0524263EB4303704753B94AB9B4
:10860000002908BF00281CBF4FF0FF314FF0FF309A
:1086100000F088B9ADF1080C6DE904CE00F006F861
:10862000DDF804E0DDE9022304B070472DE9F047EE
:10863000089D8E4604468846002B4AD18A4217463A
:1086400062D9B2FA82F64EB1C6F1200301FA06F8F9
:1086500020FA03F3B74043EA0808B4404FEA174E44
:108660001FFA87FCB8FBFEF1230C0EFB118843EACE
:10867000084301FB0CF29A4209D9FB1801F1FF30C3
:1086800080F0EA809A4240F2E78002393B449A1A2D
:10869000A3B2B2FBFEF00EFB102243EA024300FB42
:1086A0000CFC9C4509D9FB1800F1FF3280F0D68004
:1086B0009C4540F2D3803B44023840EA0140A3EBA2
:1086C0000C0300211DB1F3400022C5E90032BDE8D2
:1086D000F0878B4205D90DB1C5E90001002108469C
:1086E000F5E7B3FA83F1002946D1734502D38242FC
:1086F00000F20581841A6EEB030201209046002DE2
:10870000E5D0C5E90048E2E7002A00F09080B2FA1F
:1087100082F6002E40F0A4808A1A030C4FEA174E0E
:1087200080B2BCB20121B2FBFEFC0EFB1C2243EA6C
:10873000024304FB0CF29A4207D9FB180CF1FF38F4
:1087400002D29A4200F2E080C4469B1AB3FBFEF2CA
:108750000EFB123340EA034302FB04F49C4207D9A8
:10876000FB1802F1FF3002D29C4200F2CA8002469E
:108770001B1B42EA0C40A5E7C1F120068B4022FA00
:1087800006F71F430EFA01F420FA06F32EFA06FE4E
:108790004FEA1749234300FA01F81FFA87FCBEFB92
:1087A000F9F01C0C09FB10EE44EA0E4400FB0CFE31
:1087B000A64502FA01F209D93C1900F1FF3A80F00E
:1087C0009C80A64540F2998002383C44A4EB0E04FC
:1087D0001FFA83FEB4FBF9F309FB13444EEA044489
:1087E00003FB0CFCA44508D93C1903F1FF3E80F0C3
:1087F0008280A4457FD9023B3C4443EA0040A4EB7D
:108800000C04A0FB02EC64457346E14662D35FD0E2
:108810005DB1B8EB030264EB090404FA06F622FA30
:1088200001F31E43CC40C5E9006400214FE7B1FBD2
:10883000F2FC010C41EA0E4180B240EA01423B46A3
:1088400038463C46B846BE462026B1FBF7F1A2EBBF
:10885000080241EA0C4166E7014618E710462CE79A
:10886000C6F120022EFA02F3B740B14020FA02F21C
:108870004FEA174E0A43B3FBFEF8BCB20EFB1833A7
:10888000110C41EA034108FB04F9B04089454FEA65
:10889000104380B23ED9791808F1FF3C01D28945D6
:1088A0001FD8A1EB0901B1FBFEF909FB04F80EFB8F
:1088B000191192B242EA0142424529D2BA1809F18D
:1088C000FF31C4D24245C2D2A9F102013A44BEE707
:1088D000F0459DD2BEEB02036CEB070C0138E1467C
:1088E00096E7A7EB09094944A8F1020CB1FBFEF990
:1088F00009FB04F8DBE773467FE7504666E7084666
:10890000FDE63B44023A33E7ACF1020C3B441CE782
:1089100049469CE7A1EB0901C446B1FBFEF909FBFE
:1089200004F8C4E7704700BF00000000000000002A
:1089300001F0FF01102A2BDB10F0070F08D010F810
:10894000013B013A8B422DD010F0070F42B3F6D114
:10895000F0B441EA012141EA014122F007047FF02D
:1089600000070023F0E80256083C85EA010586EA84
:10897000010685FA47F5A3FA87F586FA47F6A5FAC0
:1089800087F68EB9EED1F0BC01F0FF0102F00702CC
:1089900032B110F8013B013A83EA010313B1F8D177
:1089A0000020704701387047002D06BF3546033858
:1089B000073815F0010F07D1013015F4807F02BF91
:1089C000013015F4C03F0130F0BC0138704700BFE2
:1089D000034613F8012B002AFBD1181A01387047FF
:1089E00008B50248192103F06BFD00BF20E204081E
:1089F00008B50248212103F063FD00BF28E2040806
:108A000008B50248292103F05BFD00BF30E20408ED
:108A100008B50248302103F053FD00BF38E20408D6
:108A200008B50248372103F04BFD00BF40E20408BF
:108A300010B5EFF305834BB9044620F07BFF012806
:108A400008D0204623F0D6FA40B110BD0548662173
:108A500003F036FD03486C2103F032FD0148732119
:108A600003F02EFD48E2040810B5EFF305834BB97F
:108A7000044620F05FFF012808D0204623F0BAFA10
:108A800040B110BD0548662103F01AFD03486C2172
:108A900003F016FD0148732103F012FD48E20408BB
:108AA00008B50248A42103F00BFD00BF5CE20408F6
:108AB00008B50248AB2103F003FD00BF6CE20408D7
:108AC00010B5EFF3058353B9044620F033FF0128B6
:108AD0000AD044B12046BDE8104023F049BB044809
:108AE000882103F0EDFC10BD0148892103F0E8FC6A
:108AF0007CE2040810B5EFF3058353B9044620F077
:108B000019FF01280AD044B12046BDE8104023F0E7
:108B10002FBB0448882103F0D3FC10BD01488921F4
:108B200003F0CEFC7CE2040810B5EFF305834BB9EB
:108B3000044620F0FFFE012808D02046BDE8104082
:108B400023F058BA03487B2103F0BAFC0148812185
:108B500003F0B6FC8CE2040810B5EFF305834BB9C3
:108B6000044620F0E7FE012808D02046BDE810406A
:108B700023F040BA03487B2103F0A2FC0148812185
:108B800003F09EFC8CE2040808B50248CA2103F0F9
:108B900097FC00BF5CE2040808B50248D12103F04D
:108BA0008FFC00BF6CE2040810B5EFF3058353B9E6
:108BB000044620F0BFFE01280AD044B12046BDE89B
:108BC000104023F0D5BA0448882103F079FC10BD89
:108BD0000148892103F074FC7CE2040810B5EFF32E
:108BE000058353B9044620F0A5FE01280AD044B1FC
:108BF0002046BDE8104023F0BBBA0448882103F0AA
:108C00005FFC10BD0148892103F05AFC7CE2040896
:108C100010B5EFF3058353B9044620F08BFE01280D
:108C20000AD044B12046BDE8104023F0A1BA044860
:108C3000882103F045FC10BD0148892103F040FC68
:108C40007CE2040810B5EFF3058353B9044620F025
:108C500071FE01280AD044B12046BDE8104023F03F
:108C600087BA0448882103F02BFC10BD01488921F4
:108C700003F026FC7CE2040808B50248F42103F066
:108C80001FFC00BF9CE2040808B50248FA2103F06B
:108C900017FC00BFACE2040808B502484FF480712D
:108CA00003F00EFC9CE2040808B502484FF48371FF
:108CB00003F006FCACE2040808B502484FF48871E2
:108CC00003F0FEFB9CE2040808B502484FF48B71E8
:108CD00003F0F6FBACE204082DE9F0412C4D2D4CDD
:108CE0002D4F2E4E04E0023008D02368013323605C
:108CF0002868072122F014FC0028F4D1D4F8008061
:108D0000B8F1000F21D000200DF0FCF80DF006F9AD
:108D100000200EF007FB0FF0B9F9206810F00708EB
:108D200020D0002004F0D6F9012104F00FFA2368C6
:108D300007FB03F2B6EBB20F4FF00000D6D304F0FE
:108D4000C9F9052104F002FACFE7404604F0C2F960
:108D50000F2104F0FBF9404604F0BCF91F2104F098
:108D6000F5F9D0E740460CF01DFE0CF029FE404618
:108D70000CF000F80CF0D8FD01200BF0FBFF0CF01C
:108D8000D3FD02200BF0F6FF0CF0CEFDC9E700BFCB
:108D9000E8070020F0040020CDCCCCCCCCCCCC0C0F
:108DA0002DE9F041264D274C274F284E04E0072B94
:108DB0000DD0236801332360142301222868072182
:108DC00022F058FA03469A1C4FF00000EFD10EF043
:108DD000A9FA0EF0D9FA00200BF0D6FC0BF0D2FD68
:108DE00000200FF0DFFA0FF0A5FB00200DF014FAC1
:108DF0000DF054FA00200DF00FFA804610F016FB2B
:108E000002460B4640460DF07FFA002004F062F95E
:108E1000022104F09BF9236807FB03F2B6EB720F03
:108E20004FF00000C6D304F055F9032104F08EF989
:108E3000002004F04FF9042104F088F9B9E700BFDD
:108E40009C050020EC040020CDCCCCCC999999193C
:108E500030B5022885B03DD8204B1B68002B35D09B
:108E60001F4B1B6873B31F4B1B683BB31E4B044661
:108E700093E8070004AB03E9070003EB84034FF01A
:108E8000FF3153F80C3C186822F04AFB08B105B0DA
:108E900030BD20460BF06EFF054610F0C7FA0246C3
:108EA0000B4628460CF06AFA104A114B52F824106F
:108EB000186805B0BDE8304022F084B90D48702133
:108EC00003F0FEFA0B486F2103F0FAFA09486E210D
:108ED00003F0F6FA07486D2103F0F2FA9407002038
:108EE00040070020EC060020D8DF04082C7005089D
:108EF0009C050020C0E2040880B5154D154F164EA4
:108F00002868C8B13B68FBB13368CBB14FF0FF3183
:108F100022F006FB0028F3D10BF02CFF044610F0E2
:108F200085FA02460B4620460CF028FA0B4B01212D
:108F3000186822F047F9E3E709486E2103F0C0FA08
:108F40000748702103F0BCFA05486F2103F0B8FA16
:108F50009407002040070020EC0600209C0500201C
:108F6000C0E2040880B5164D164F174E2B68D3B1DA
:108F7000386800B33368D3B14FF0FF3122F0D0FA34
:108F80000028F3D101200BF0F5FE044610F04EFA54
:108F900002460B4620460CF0F1F90C4B02211868F2
:108FA00022F010F9E2E70A486E2103F089FA084836
:108FB000702103F085FA06486F2103F081FA00BFA3
:108FC0009407002040070020EC0600209C050020AC
:108FD000C0E2040880B5164D164F174E2B68D3B16A
:108FE0003B6803B33068D0B14FF0FF3122F098FAFC
:108FF0000028F3D102200BF0BDFE044610F016FA53
:1090000002460B4620460CF0B9F90C4B04211868B7
:1090100022F0D8F8E2E70A486E2103F051FA084836
:10902000702103F04DFA06486F2103F049FA00BFA2
:109030009407002040070020EC0600209C0500203B
:10904000C0E204080D480E4A10B500230D4C046020
:109050001221C0E901134FF48034C3604FF4801132
:109060004FF48073C0E904418261838323F01CFDC7
:1090700000B910BDBDE8104001F034B9F40400207F
:10908000000101000064004030B5274B026889B040
:1090900000249A42CDE90244CDE90444069401D06B
:1090A00009B030BD03F5EA3300941A6C1F4842F052
:1090B00000721A641A6C02F000720092009A019415
:1090C0001A6B42F001021A631B6B9FED157B03F0D4
:1090D0000103019302A909230322CDE905238DEDA4
:1090E000027B019D2AF06AF922460521132024F013
:1090F000C9FB132024F00CFC22460521142024F087
:10910000C1FB142024F004FC22460521152024F084
:10911000B9FB152024F0FCFB09B030BDAFF3008093
:10912000001800000200000000640040000002403F
:1091300008B502680C4B9A4200D008BD0B4A0C4897
:10914000136C23F0007313644FF4C0512AF06AFBD0
:10915000132024F0F1FB142024F0EEFBBDE80840BE
:10916000152024F0E9BB00BF006400400038024035
:1091700000000240054808B5054B036024F0CCFD13
:1091800000B908BDBDE8084001F0ACB81C050020DE
:10919000003002400B4B02689A4200D0704782B008
:1091A00000220192D3F8302842F48052C3F83028CC
:1091B00003F500631B6B03F480530193019B02B022
:1091C000704700BF00300240054B02689A4200D051
:1091D0007047044A136B23F480531363704700BF36
:1091E000003002400038024010B582B000241B4B12
:1091F0000194196B41F4001119631B6B03F4001304
:109200002246052101930B20019B24F03BFB0B2000
:1092100024F07EFB224605210C2024F033FB0C2099
:1092200024F076FB224605210D2024F02BFB0D2097
:1092300024F06EFB22460521102024F023FB102091
:1092400024F066FB22460521112024F01BFB11208F
:1092500002B0BDE8104024F05BBB00BF0038024004
:1092600010B51148114C124900230122C0E90041F8
:10927000C0E90232C0E90433C0E90633036225F0D5
:109280006BFE28B90848002129F0DAFF40B910BD6B
:1092900001F028F80448002129F0D2FF0028F6D078
:1092A000BDE8104001F01EB8280500200060004015
:1092B0005016400030B504469FB000215C2207A83C
:1092C000CDE90211CDE90411069143F06EFE1B4B6E
:1092D00022689A4201D01FB030BD802307A80793AF
:1092E0002FF024FE30BB164C164800250095236B4A
:1092F00043F008032363236B03F0080300934FF448
:1093000040421223CDE9022301220323CDE90423A5
:1093100002A904230693009A2AF050F80195236CC1
:1093200043F080732364236C03F080730193019BEB
:109330001FB030BD00F0D6FFD5E700BF0060004091
:1093400000380240000C0240074B02689A4200D0ED
:109350007047064A0648136C23F080734FF440416F
:1093600013642AF05FBA00BF00600040003802407A
:10937000000C024008B5012021F044FEFBE700BFCD
:10938000704700BF0020704710B50C4672B61748F2
:10939000174A00F1200E0D2113681B06FCD5516001
:1093A00010F8011F09B17045F6D184B1601E104A52
:1093B00010F8011F04F1200C49B1844507D013684F
:1093C0001C06FCD5516010F8011F0029F5D1084991
:1093D0000B681A06FCD50D23054A4B6013681B0663
:1093E000FCD50A23536000BFFDE700BFD8E20408A4
:1093F0000044004010B5A74A0021012022F030F8B7
:10940000A54BA64A0446002101201C6022F028F842
:10941000A34BA44A0446002101201C6022F020F83E
:10942000A14BA24A0446002101201C6022F018F83A
:109430009F4BA04A0446002101201C6022F010F836
:109440009D4B9E4A0446002101201C6022F008F832
:109450009B4B9C4A0446002101201C6022F000F82E
:10946000994B9A4A0446002101201C6021F0F8FF24
:10947000974B984A0446002101201C6021F0F0FF20
:10948000954B964A0446002101201C6021F0E8FF1C
:10949000934C944B206000220121934821F0D8FD89
:1094A000924B0121186021F019FE914A01210820F8
:1094B00022F0B0F88F4B904A0446082101201C602E
:1094C00022F0A8F88D4B8E4A0446082101201C602A
:1094D00022F0A0F88B4B8C4A0446082101201C6026
:1094E00022F098F8894B8A4A0446082101201C6022
:1094F00022F090F8874B884A0446082101201C601E
:1095000022F088F8854B864A0446082101201C6019
:1095100022F080F8834B844A0446082101201C6015
:1095200022F078F8814B824A0446082101201C6011
:1095300022F070F87F4B804A0446082101201C600D
:1095400022F068F87D4B7E4A044600217D481C606D
:1095500021F02EFB7C4B7D4A044600217C481C6098
:1095600021F026FB7B4B7C4A044600217B481C6093
:1095700021F01EFB7A4B7B4A044600217A481C608E
:1095800021F016FB794B7A4A0446002179481C6089
:1095900021F00EFB784B794A0446002178481C6084
:1095A00021F006FB774B784A0446002177481C607F
:1095B00021F0FEFA764B774A0446002176481C607B
:1095C00021F0F6FA754B764A0446002175481C6076
:1095D00021F0EEFA744B754A0446002174481C6071
:1095E00021F0E6FA734B744A0446002173481C606C
:1095F00021F0DEFA724B734A0446002172481C6067
:1096000021F0D6FA714B724A0446002171481C6061
:1096100021F0CEFA704B714A0446002170481C605C
:1096200021F0C6FA6F4B704A044600216F481C6057
:1096300021F0BEFA6E4B6F4A044600216E481C6052
:1096400021F0B6FA6D4B6E4A044600216D481C604D
:1096500021F0AEFA6C4B6D4A044600216C481C6048
:1096600021F0A6FA6B4B6C4A002104466B481C6043
:1096700021F09EFA6A4B024600201A6021F090FD0C
:10968000684B024668481A6021F08AFD674B1860F3
:1096900010BD00BFD8700508E4080020C870050898
:1096A00090080020B87005083C080020A870050844
:1096B000E8070020987005089407002088700508C6
:1096C0004007002078700508EC0600206870050847
:1096D00098060020587005084406002048700508C8
:1096E000F0050020E8700508D1AB0008140900203F
:1096F000D0710508AC0C0020B8710508500C002092
:10970000A0710508F40B002088710508980B002053
:10971000707105083C0B002058710508E00A002014
:1097200040710508840A002028710508280A0020D5
:1097300010710508CC090020F87005087009002098
:10974000707405086DA90008ECCC00204C74050865
:1097500011AC00082CC80020287405083DAD000895
:109760006CC300200474050871AC0008ACBE002076
:10977000E073050801AE0008ECB90020BC730508D1
:10978000F9AC00082CB500209873050845AE000818
:109790006CB000207473050891AE0008ACA70020DF
:1097A00050730508D5B10008ECA200202C73050801
:1097B000C9B300082C9E002008730508A18D00087D
:1097C0006C990020E4720508D5AE0008AC88002032
:1097D000C0720508F98E0008EC8300209C72050811
:1097E000658F00082C63002078720508D58F00086B
:1097F0006C42002054720508D98C0008AC2100206E
:1098000030720508E5AF0008EC1800200C7205085E
:10981000DDB000082C140020E8710508D1B3000861
:109820006C0F0020F0CC0020387005089C0500204B
:109830002DE9F04F00248FB0CDE90844CDE90A446A
:10984000C14B00940C941A6BDFF810A3DFF810B32F
:10985000DFF81093BD4F42F004021A631A6B02F056
:1098600004020092009A01941A6B42F010021A63EB
:109870001A6B02F010020192019A02941A6B42F0E4
:1098800002021A631A6B02F002020292029A039415
:109890001A6B42F008021A631A6B02F00802039274
:1098A000039A04941A6B42F001021A631A6B02F0D5
:1098B00001020492049A05941A6B42F020021A6382
:1098C0001A6B02F020020592059A06941A6B42F078
:1098D00080021A631A6B02F080020692069A0794BD
:1098E0001A6B42F040021A631B6B03F040030793AC
:1098F000504601221821079B2AF0E0F822465046E4
:1099000040F607012AF0DAF82246914880212AF031
:10991000D5F82246584648F210212AF0CFF848469A
:10992000012244F201012AF0C9F8224638464FF4D8
:1099300000712AF0C3F82246864843F208012AF053
:10994000BDF85846012205212AF0B8F882480122C4
:1099500002212AF0B3F8384601224FF400412AF0E0
:10996000ADF84FF4205208A948464FF4881301255A
:10997000CDE908230A9429F021FD40F6190308A92E
:10998000504606264FF00208CDE90835CDE90A44D5
:1099900029F014FD08A95046CDE909540896CDF8E0
:1099A0002C8029F00BFD3023089308A903233846A7
:1099B0000B93CDE909840C9629F000FD802208A9BB
:1099C00063480892CDE909540B9429F0F7FC48F25A
:1099D000152208A958460892CDE909540B9429F09C
:1099E000EDFC44F2010208A948460892CDE9095469
:1099F0000B9429F0E3FC9FED527B504608A98DEDB6
:109A0000087B0A9429F0DAFC4FF4007208A9384662
:109A10000892CDE90954CDF82C8029F0CFFC03231E
:109A20000B9308A94FF4806348460893CDE9098455
:109A30000C9629F0C3FC48F21002484608A94FF4DE
:109A40000413CDE908230A9429F0B8FC43F2080373
:109A500008A940480893CDE909540B9429F0AEFCBD
:109A600008A940F201224FF488133B480A94CDE93B
:109A7000082329F0A3FC4FF40072002308A93548FD
:109A80000A94CDE9082329F099FC08A93248CDF8B9
:109A90002080CDE909540B9429F090FC08A94FF4DB
:109AA000806200232A480A94CDE9082329F086FC25
:109AB0000A22584608A94FF48813CDE908230A94CE
:109AC00029F07CFC4FF4004308A938460893CDE9FF
:109AD0000A44099529F072FC22460521304623F0FC
:109AE000D1FE304623F014FF22460521072023F043
:109AF000C9FE072023F00CFF22460521092023F090
:109B0000C1FE092023F004FF224605210A2023F08C
:109B1000B9FE0A2023F0FCFE22460521172023F07F
:109B2000B1FE172023F0F4FE22460521282023F061
:109B3000A9FE282023F0ECFE0FB0BDE8F08F00BF97
:109B40002004000000002100003802400004024010
:109B5000000C0240001402400018024000100240B5
:109B6000000002400008024010B50B480B4C0C49A5
:109B700000234FF48042C0E90041C0E90233C0E94C
:109B80000423C0E9063303622AF07AFA00B910BD53
:109B9000BDE8104000F0A6BBC8CE00200054004035
:109BA000801A060010B50B480B4C0C4900234FF4EB
:109BB0008042C0E90041C0E90233C0E90423C0E9A2
:109BC000063303622AF05CFA00B910BDBDE810400C
:109BD00000F088BB70CE002000580040801A0600BC
:109BE00010B50B480B4C0C4900234FF48042C0E9E0
:109BF0000041C0E90233C0E90423C0E9063303622F
:109C00002AF03EFA00B910BDBDE8104000F06ABB72
:109C100018CE0020005C0040801A06002DE9F041BB
:109C200003688F4A8EB000249342CDE90844CDE901
:109C30000A4405460C9409D08A4A934255D08A4A70
:109C4000934200F09F800EB0BDE8F081874F0194F1
:109C50003B6B874843F002033B633B6B03F002031B
:109C600001934FF4C072019B1223CDE9082308A988
:109C700004230326CDE90B6329F0A0FB02943B6C7F
:109C80007C4E7D4AB46043F400133B643B6C32600D
:109C900003F4001302934FF48063C6E903434FF0CB
:109CA00000724FF400333046C6E90544C6E9074365
:109CB00002997260746224F0ABF8002840F0C7800B
:109CC000AE63002205211F20B56323F0DBFD1F20BA
:109CD00023F01EFE00220521202023F0D3FD2020AA
:109CE00023F016FE0EB0BDE8F081604F03943B6B8D
:109CF000624E43F020033B633B6B03F0200303936E
:109D00000322039B1223CDE9082303200423CDE97A
:109D10000B0308A95A4829F051FB04943B6CB4602A
:109D200043F480033B643B6C564A326003F4800387
:109D300004934FF48063C6E903434FF060624FF42D
:109D400000333046C6E90544C6E90743049972600A
:109D5000746224F05DF800287CD1AE6300220521F6
:109D60002120B56323F08EFD212023F0D1FD0022B8
:109D70000521222023F086FD222023F0C9FD0EB00C
:109D8000BDE8F081394F05943B6B3F4843F0040335
:109D90003B633B6B03F004030593059B06943B6B0D
:109DA00043F001033B633B6B03F0010306934FF465
:109DB00000720426069B4FF00308122308A9CDE980
:109DC0000823CDE90B8629F0F9FA4FF480721223AB
:109DD0002E480C9608A9CDE90823CDF82C800A94CA
:109DE00029F0ECFA07943B6C294E2A4AB46043F4FC
:109DF00000033B643B6C326003F4000307934FF4B1
:109E00008063C6E903434FF000724FF400333046DD
:109E1000C6E90544C6E9074307997260746223F0F6
:109E2000F7FFD0B9AE63002205214820B56323F0C7
:109E300029FD482023F06CFD00220521492023F054
:109E400021FD492023F064FD0EB0BDE8F08100F053
:109E500049FA35E700F046FA7FE700F043FAE1E718
:109E60000054004000580040005C004000380240B0
:109E700000040240B4CD00201060024054CD002008
:109E8000001402404060024000080240000002400E
:109E9000F4CC0020286002402D4A0368934210B59C
:109EA000044606D02B4A93421DD02B4A934233D00E
:109EB00010BD02F5F2322948136C23F40013136429
:109EC0004FF4807129F0AEFC8021244829F0AAFCCF
:109ED000A06B24F0EDF81F2023F02EFDBDE810400C
:109EE000202023F029BD02F5F0321D48136C23F425
:109EF00080031364012129F095FC0221184829F000
:109F000091FCA06B24F0D4F8212023F015FDBDE8CE
:109F10001040222023F010BD02F5EE321148136CE0
:109F200023F4000313644FF4007129F07BFC4FF419
:109F300080710D4829F076FCA06B24F0B9F8482018
:109F400023F0FAFCBDE81040492023F0F5BC00BF27
:109F50000054004000580040005C004000040240F3
:109F6000001402400008024000000240000000000F
:109F700030B5002397B0CDE90A33CDE90C33CDE9F4
:109F80000333CDE90533264901930793086C254A2D
:109F900040F080500864096C01F0805101910199F2
:109FA0000293136843F440431360136803F440437F
:109FB000022402934FF480019FED177BCDE90E41FF
:109FC0000298149402200221CDE912010822B42340
:109FD00008A88DED087B109211932FF00DFF08B1AA
:109FE00072B6FEE72EF0E8F9034608B172B6FEE756
:109FF0000F22CDE903244FF4A0554FF4805203A85B
:10A000000521CDE9053507922EF0E2FD08B172B6C3
:10A01000FEE717B030BD00BF0100000000000100E6
:10A02000003802400070004008B522F05BFC0120BF
:10A0300000F0D4FAFFF79CFFFFF7FAFBFFF7D4F824
:10A0400001F0DEF901F080FA01F0B8FB00F092F9BE
:10A05000FFF790F800F04AF901F0B2FA01F0DAFAED
:10A0600000F066F9FFF7FCF801F006FA324832F02A
:10A07000A3FC324832F0A0FC31480122082129F02B
:10A080001DFD002201212F4829F018FD0A2022F091
:10A0900083FC2C480122102129F010FD2A480122BE
:10A0A0004FF4805129F00AFD00220221274829F0AF
:10A0B00005FD0A2022F070FC214801224FF40061C6
:10A0C00029F0FCFC204801224FF4005129F0F6FC55
:10A0D000002201211E4829F0F1FC0A2022F05CFC3C
:10A0E0001C4801224FF4007129F0E8FC14480122B9
:10A0F000022129F0E3FC12480122042129F0DEFCB0
:10A10000002204210F4829F0D9FC0A2022F044FC47
:10A11000FFF72AFDFFF746FDFFF762FD0E490F48E6
:10A1200002F032FD02F058FD20F05EFCFFF762F90C
:10A1300020F096FCFEE700BFE0D1002050D10020C7
:10A1400000100240000002400014024000180240CB
:10A15000000802400004024028D20020E8D200207B
:10A16000074B02689A4200D0704710B5044602F0CF
:10A1700055FD00B110BDA08CBDE8104003F00CBC33
:10A1800000440040034B02689A4200D070470846E2
:10A1900002F0C2BC0044004030B5012883B03BD07F
:10A1A000102832D002280CD0B0F5806F27D00828B4
:10A1B0001FD0202814D10FF039F9274A04460D4644
:10A1C00004E00FF033F9254A04460D4600231068D9
:10A1D00069461A46CDE9004521F054FA03B030BD76
:10A1E000B0F5005F1ED10FF021F91D4A04460D465F
:10A1F000ECE70FF01BF91B4A04460D46E6E70FF0AB
:10A2000015F9194A04460D46E0E7184B186803B0E3
:10A21000BDE8304021F0B6B90FF008F9144A044601
:10A220000D46D3E7B0F5007F05D10FF0FFF8114AD6
:10A2300004460D46CAE7B0F5004F05D10FF0F6F819
:10A240000D4A04460D46C1E7B0F5006FC6D103B014
:10A25000BDE830400EF0EEBBE00A0020500C0020BC
:10A26000840A00203C0B0020980B0020E40800200A
:10A27000F40B0020280A0020CC0900200A4B984249
:10A2800006D00A4B984207D0094B984208D0704735
:10A29000084B186821F076B9074B186821F072B99D
:10A2A000064B186821F06EB9C8CE002070CE002091
:10A2B00018CE0020F005002098060020440600205B
:10A2C00008B5104602F0FCF808B5104602F0F8F8A0
:10A2D000034B02689A4200D0704722F01DBB00BFBA
:10A2E0000010004072B6FEE7704700BF0E480F49ED
:10A2F0004FF4827210B50023C0E900124FF40074CD
:10A3000018210A22C0E90233C0E90433C0E906413A
:10A31000C0E90833C0E90A3230F028FA00B910BDAC
:10A32000BDE81040FFF7DEBFD0CF00200030014075
:10A330000E480F494FF4827210B50023C0E9001295
:10A340004FF4007408210A22C0E90233C0E9043343
:10A35000C0E90641C0E90833C0E90A3230F006FA24
:10A3600000B910BDBDE81040FFF7BCBF78CF00209A
:10A37000003800400E480F494FF4827210B5002398
:10A38000C0E900124FF4007418210A22C0E9023318
:10A39000C0E90433C0E90641C0E90833C0E90A3224
:10A3A00030F0E4F900B910BDBDE81040FFF79ABFE6
:10A3B00020CF002000340140F0B503684D4A8FB033
:10A3C00000249342CDE90844CDE90A440C9407D017
:10A3D000494A934227D0494A934266D00FB0F0BD14
:10A3E000474B01945A6C474842F480525A645A6C65
:10A3F00002F480520192019A02941A6B42F0010217
:10A400001A631B6B03F0010302930322052308A9BF
:10A41000E0240225CDE90845CDE90B23029C28F074
:10A42000CDFF0FB0F0BD364B03941A6C364842F4A2
:10A4300080421A641A6C02F480420392039A0494D4
:10A440001A6B42F008021A631A6B02F008020492B7
:10A45000049A05941A6B42F004021A631B6B03F012
:10A460000403082205930325052708A90223CDE943
:10A4700008230226059BCDE90B5728F09FFF0723F1
:10A4800008A922480C93CDE90866CDE90A4528F0D1
:10A4900095FF04231D48099608A9CDE90A450C97A4
:10A4A000089328F08BFF0FB0F0BD154B06945A6C43
:10A4B000174842F400525A645A6C02F40052069251
:10A4C000069A07941A6B42F010021A631B6B03F092
:10A4D000100307930322052308A94FF4E044022543
:10A4E000CDE90845CDE90B23079C28F067FF0FB0A5
:10A4F000F0BD00BF00300140003800400034014092
:10A500000038024000000240000C024000080240F7
:10A510000010024008B51A4A0368934206D0194A4F
:10A5200093420FD0184A93421CD008BD02F58432E2
:10A530001648536C23F480535364E021BDE808406F
:10A5400029F070B902F500321148136C23F48043EE
:10A550000821136429F066F9BDE808400D4806217A
:10A5600029F060B902F582320B48536C23F4005392
:10A5700053644FF4E041BDE8084029F053B900BFEF
:10A58000003001400038004000340140000002402B
:10A59000000C0240000802400010024082B00E4B46
:10A5A00000220092596C41F480415964586C00F4C7
:10A5B0008040009000980192186C40F08050186420
:10A5C0001B6C03F080530193019B0F216FF001007E
:10A5D00002B023F057B900BF0038024070B588B010
:10A5E000234B002202921A6C42F010021A641B6C78
:10A5F00003F010030293054601A903A8029B2EF065
:10A6000063FC069BD3B92EF0F9FB0346194A1A4C9A
:10A610001A49A2FB03239B0C013B0022C4E900134F
:10A62000204640F2E7332261A260A261E36032F08B
:10A6300033F8064630B1304608B070BD2EF0DEFB70
:10A640004300E3E7204632F083FA06460028F2D1C1
:10A65000362023F05DF90F2D01D90126EBE73246B4
:10A660002946362023F00EF9054B1D60E3E700BFB5
:10A670000038024083DE1B4328D000200010004039
:10A6800060040020034B1A68D36823F00103D360F1
:10A69000704700BF28D00020034B1A68D36843F0EE
:10A6A0000103D360704700BF28D00020FEE700BF41
:10A6B000FEE700BFFEE700BFFEE700BFFEE700BF0A
:10A6C000704700BF012029F04DBA00BF022029F0D9
:10A6D00049BA00BF082029F045BA00BF102029F070
:10A6E00041BA00BF014823F005BF00BFB4CD002030
:10A6F000014823F0FFBE00BFF4CC0020014823F046
:10A70000F9BE00BF54CD0020014823F0F3BE00BFC6
:10A7100028D20020014823F0EDBE00BF88D20020DF
:10A72000014822F015BF00BFF4040020014822F0C8
:10A730000FBF00BFF4040020014822F009BF00BF92
:10A74000F404002008B5202029F00CFABDE80840E8
:10A750004FF4007029F006BA014B186820F012BFC0
:10A7600090080020014839F0EFBB00BF98D10020CD
:10A7700001482CF0B3BF00BFC8CE002001482DF027
:10A780008DBC00BFC8CE002001482CF0A7BF00BF81
:10A7900070CE002001482DF081BC00BF70CE00209B
:10A7A00001483EF0C3BD00BFE8D2002008B54FF419
:10A7B000806029F0D7F94FF4006029F0D3F94FF405
:10A7C000005029F0CFF9BDE808404FF4004029F0CF
:10A7D000C9B900BF014839F0B7BB00BF28D000207D
:10A7E00008B504F0F1F9BDE80840014839F0ACBB08
:10A7F00008D1002001482CF071BF00BF18CE002006
:10A8000001482DF04BBC00BF18CE0020704700BFA0
:10A810000120704708B542F01FFD162303604FF07A
:10A82000FF3008BD08B542F017FD16230360FEE7B0
:10A8300070B5161E07DD0C468D19AFF3008004F8C5
:10A84000010BA542F9D1304670BD00BF70B5161E90
:10A8500007DD0C468D1914F8010BAFF30080A542FB
:10A86000F9D1304670BD00BF4FF0FF30704700BFD8
:10A870004FF400534B600020704700BF0120704729
:10A88000002070470EB44FF0FF3003B0704700BF98
:10A8900008B542F0E1FC0A2303604FF0FF3008BD29
:10A8A00008B542F0D9FC022303604FF0FF3008BD29
:10A8B0004FF0FF30704700BF4FF400534B60002053
:10A8C000704700BF08B542F0C7FC1F2303604FF07C
:10A8D000FF3008BD08B542F0BFFC0B2303604FF00A
:10A8E000FF3008BD08B542F0B7FC0C2303604FF001
:10A8F000FF3008BD044B0549D3F8882042F47002AC
:10A90000C3F888209960704700ED00E000800008DF
:10A91000124A936803F00C03082B0AD0104B0F4A1D
:10A92000104892681049C2F30312825CD3400B6056
:10A930007047536851685368094AC3F3881301F09C
:10A940003F01B2FBF1F202FB03F3044A5268C2F387
:10A95000014201325200B3FBF2F3E0E7003802405B
:10A960000024F4009C7405080800002038B5964DBA
:10A9700001F04EFD01F06CFD002004F0E7FC0368DF
:10A980001B689847002004F0E1FC03685B68984767
:10A99000002800F01581002005F024F803681B68EA
:10A9A0009847002005F01EF803685B689847002868
:10A9B00000F00681002002F0FBFF03681B68984747
:10A9C000002002F0F5FF03685B689847002800F05C
:10A9D000F780002005F0B6FA03681B68984700204E
:10A9E00005F0B0FA03685B689847002800F0E8803B
:10A9F000002003F079FC03681B689847002003F0EF
:10AA000073FC03685B689847002800F0D980002039
:10AA100006F064FA03681B689847002006F05EFAA7
:10AA200003685B689847002800F0CA80002005F0A2
:10AA3000A3FD03681B689847002005F09DFD03688F
:10AA40005B689847002800F0BB80002006F02AFCD5
:10AA500003681B689847002006F024FC03685B68C5
:10AA60009847002800F0AC80002008F061F90368E6
:10AA70001B689847002008F05BF903685B689847FB
:10AA8000002800F09D80002008F02AFE03681B6863
:10AA90009847002008F024FE03685B689847002868
:10AAA00000F08E80002009F01BF803681B689847AF
:10AAB000002009F015F803685B68984700287FD0EC
:10AAC000002002F007FB03681B689847002002F093
:10AAD00001FB03685B689847002871D000200CF0E8
:10AAE00021FC03681B68984700200CF01BFC0368DE
:10AAF0005B689847002863D0002420460CF0A4F936
:10AB000003681B68984720460CF09EF903685B6851
:10AB10009847002854D00134032CEED1002420465D
:10AB20000BF078FD03681B68984720460BF072FD18
:10AB300003685B689847002842D00134032CEED1AB
:10AB400000200BF093FC03681B68984700200BF073
:10AB50008DFC03685B68984790B3002007F0D6F837
:10AB600003681B689847002007F0D0F803685B680B
:10AB7000984728B3002007F01BFF03681B6898471D
:10AB8000002007F015FF03685B689847C0B10020FC
:10AB90000AF0F0F8002200230AF0F0FB01200AF08E
:10ABA000E9F8002200230AF0E9FB02200AF0E2F8AB
:10ABB000002200230AF0E2FB286820F09BF8D7E689
:10ABC0000248D52101F07CFCECCC002014E60408FE
:10ABD0000B4B10B50B4C186820F0D4FC0A4A2368C4
:10ABE00003FB02F2B2F1333F02D90133236010BDFF
:10ABF000064B186820F0C6FC23680133236010BDA3
:10AC00003C080020B8D00020CDCCCCCCE8070020F8
:10AC1000F8B5144D144E154F002415E002F0C8FE8F
:10AC2000D5E9002303F0F4F901200BF0F3FC0BF05D
:10AC30005DFE01200AF09EF80AF07EFDE30702D4D3
:10AC4000386820F09FFC0134306832230022294606
:10AC500020F04AFD0028E1D0002002F0A9FE02F019
:10AC6000B3FEE1E7B0D00020F40B00204007002045
:10AC70002DE9F8431C4E1D4FDFF87490DFF8748007
:10AC800000251BE0D9F8000020F04AFC30BB05F09D
:10AC900059F9D6E9002305F04DFB02200BF0BAFC70
:10ACA0000BF024FE02200AF065F80AF045FDEB07E0
:10ACB00003D4D8F8000020F065FC0135314638682F
:10ACC0003223002220F010FD044603210020002C36
:10ACD000D8D005F037F905F041F9DEE7204605F058
:10ACE00031F905F03BF9D8E7A8D00020500C00203E
:10ACF000E4080020EC06002038B50E4C0E4D0AE0AA
:10AD000006F0ECF8D4E9002306F03EFA02200CF03D
:10AD10009BF80CF047F9286896230022214620F082
:10AD2000E3FC0028ECD0002006F0D8F806F0E2F8AA
:10AD3000ECE700BFA0D000203C0B002030B52F4D29
:10AD400083B0002428688DF807404FF0FF330022BD
:10AD50000DF1070120F0C8FC0028F3D19DF8073061
:10AD6000013B0E2BEED801A252F823F0F1AD000802
:10AD7000E5AD0008D9AD0008CDAD0008C1AD0008B3
:10AD8000B5AD000845AD000845AD000845AD00086B
:10AD900045AD000845AD000845AD000845AD0008CB
:10ADA00045AD0008A9AD0008002002F093F902F0BB
:10ADB000DFF9C7E7002002F08DF902F079FDC1E765
:10ADC000002002F087F902F059FBBBE7002002F0F7
:10ADD00081F902F0C1FBB5E7002002F07BF902F037
:10ADE0002DFCAFE7002002F075F902F091FCA9E715
:10ADF000002002F06FF902F0D9FAA3E7AC0C0020B2
:10AE000038B50E4C0E4D0AE005F0B6FBD4E9002330
:10AE100005F0FEFC01200CF017F80CF0C3F82868D0
:10AE200096230022214620F05FFC0028ECD0002071
:10AE300005F0A2FB05F0CCFBECE700BF98D00020AA
:10AE4000980B0020F8B5104D104F002628684FF0E1
:10AE5000FF3120F065FB04460028F7D103F044FAE7
:10AE600003F0B8FA20460BF0D5FB0BF03FFD20466F
:10AE700009F080FF0AF060FCF30702D4386820F084
:10AE800081FB0136E2E700BF900800209407002014
:10AE900038B50E4C0E4D0AE006F004FAD4E9002352
:10AEA00006F0A6FC00200BF0CFFF0CF07BF8286822
:10AEB00096230022214620F017FC0028ECD0002029
:10AEC00006F0F0F906F0FAF9ECE700BF90D00020A8
:10AED000E00A00202DE9F0413F4EDFF804813F4FAA
:10AEE000D8F800004FF496730022314620F0FCFBA6
:10AEF000044608BB2146386820F012FB204607F0C4
:10AF000017FF08F0B7F8C0B13868032120F008FB3C
:10AF1000054600284CD107F00BFFD6E9002308F0C6
:10AF2000BDF828460BF0A2FA0BF0CCFA28460CF03C
:10AF3000F9F90CF0CFFFD3E7002007F0F9FE08F095
:10AF400041F900200BF092FA0BF0BCFA00200CF053
:10AF5000E9F90CF0BFFF1FF079FE05461FF0AEFEC9
:10AF6000431C04460FD0102128461FF095FE0020F8
:10AF700004F0ECF9002104F02DFC60B921462846CC
:10AF80001FF08AFEACE7002004F0E0F9002104F095
:10AF900021FC0028A4D0322020F034F8002004F056
:10AFA000D5F9002104F0ECFB60B9621C98D0E5E70C
:10AFB0002146386820F0B4FA204607F0B9FE08F0C0
:10AFC00001F9BEE7322020F01DF8002007F0B0FEA6
:10AFD00003681B689847E8E788D00020F005002048
:10AFE000840A00202DE9F041394D3A4F3A4E386835
:10AFF0004FF496730022294620F076FB0446A8B948
:10B000002146306820F08CFA204608F069FB08F0F1
:10B0100073FC60B13068032120F082FA002841D12E
:10B0200008F05EFB296808F07BFCE0E7002008F0F0
:10B0300057FB08F0C7FC1FF009FE80461FF03EFEDC
:10B04000421C04460FD0102140461FF025FE002070
:10B0500004F07CF9022104F0BDFB68BB21464046A8
:10B060001FF01AFEC3E7002004F070F9022104F07B
:10B07000B1FB0028BBD032201FF0C4FF002004F039
:10B0800065F9022104F07CFB0028B0D032201FF0CB
:10B09000B9FF002008F024FB03681B689847631C75
:10B0A000A5D0DBE72146306820F03AFA204608F0C8
:10B0B00017FB08F087FCBEE732201FF0A3FF00203B
:10B0C00004F044F9022104F05BFB0028C6D0DDE760
:10B0D00080D00020280A0020440600202DE9F041FD
:10B0E000394D3A4F3A4E38684FF49673002229464C
:10B0F00020F0FAFA0446A8B92146306820F010FA88
:10B10000204608F0EDFC09F0A5F860B13068032195
:10B1100020F006FA002841D108F0E2FC296809F085
:10B12000ABF8E0E7002008F0DBFC09F05FF91FF066
:10B130008DFD80461FF0C2FD421C04460FD0102139
:10B1400040461FF0A9FD002004F000F9012104F0A1
:10B1500041FB68BB214640461FF09EFDC3E700202F
:10B1600004F0F4F8012104F035FB0028BBD03220B4
:10B170001FF048FF002004F0E9F8012104F000FB73
:10B180000028B0D032201FF03DFF002008F0A8FCBE
:10B1900003681B689847631CA5D0DBE7214630682D
:10B1A00020F0BEF9204608F09BFC09F01FF9BEE72D
:10B1B00032201FF027FF002004F0C8F8012104F01E
:10B1C000DFFA0028C6D0DDE778D00020CC090020C7
:10B1D00098060020F8B507F057FC794E794C0546E3
:10B1E00033E0A8682768002848D128692768002824
:10B1F00052D1A869276800285CD1286A27680028EE
:10B2000066D1A86A2768002870D1286B27680028B3
:10B210007AD1A86B2768002840F08680286C2768C0
:10B22000002840F09180A86C2768002840F09C809E
:10B23000286D2768002840F0A780A86D276800289F
:10B2400040F0B28023680133236030684FF0FF3153
:10B2500020F066F90028F5D1286827680028C0D0BA
:10B2600007F0BAFCB7FBF0F303FB1077002FB8D15F
:10B270006B689847A86827680028B6D007F0ACFC30
:10B28000B7FBF0F303FB1077002FAED1EB689847C4
:10B29000286927680028ACD007F09EFCB7FBF0F3C4
:10B2A00003FB1077002FA4D16B699847A869276822
:10B2B0000028A2D007F090FCB7FBF0F303FB107757
:10B2C000002F9AD1EB699847286A2768002898D000
:10B2D00007F082FCB7FBF0F303FB1077002F90D14F
:10B2E0006B6A9847A86A276800288ED007F074FC1C
:10B2F000B7FBF0F303FB1077002F86D1EB6A98477A
:10B30000286B2768002884D007F066FCB7FBF0F3B1
:10B3100003FB1077002F7FF47CAF6B6B9847A86B13
:10B32000276800283FF47AAF07F056FCB7FBF0F32C
:10B3300003FB1077002F7FF471AFEB6B9847286CFD
:10B34000276800283FF46FAF07F046FCB7FBF0F327
:10B3500003FB1077002F7FF466AF6B6C9847A86CE7
:10B36000276800283FF464AF07F036FCB7FBF0F322
:10B3700003FB1077002F7FF45BAFEB6C9847286DD1
:10B38000276800283FF459AF07F026FCB7FBF0F31D
:10B3900003FB1077002F7FF450AF6B6D9847A86DBB
:10B3A000276800283FF44EAF07F016FCB7FBF0F318
:10B3B00003FB1077002F7FF445AFEB6D984741E713
:10B3C0003C08002074D0002008B506F0D3FCFCE750
:10B3D00070B50A4E82B00024002530684FF0FF336C
:10B3E00000226946CDE9004520F07EF90028F4D11D
:10B3F000DDE900010DF0A4FBEFE700BF70090020BC
:10B4000000B51B484FF0804287B0026059220023EC
:10B4100042604FF0FF32CDE90233CDE90433CDE98C
:10B420000033C0E902320361836131F035F998B924
:10B430004FF480530E48029302A938F00DF898B9E2
:10B44000202200230A486946CDE900233CF026FB70
:10B4500028B907B05DF804FBFEF744FFE8E7FEF704
:10B4600041FF07B05DF804FBFEF73CFFE8E700BFD3
:10B47000E0D100200000000000B53148314A8FB013
:10B480000023CDE90233CDE90433CDE90033CDE922
:10B490000633CDE90833CDE90A330C9383600361A9
:10B4A000836140F23F63C0E900234FF6FF73C3603E
:10B4B00031F0F2F848BB4FF480532148029302A9BF
:10B4C00037F0CAFF90BB1E4831F0E2FC58BB0022A7
:10B4D00000231B486946CDE900233CF0DFFAF8B9A8
:10B4E0009FED157B00221648089206A98DED067B7C
:10B4F0000A9239F0DFF880B91148042206A939F020
:10B50000D9F828B90FB05DF804FBFEF7EBFED2E7DF
:10B51000FEF7E8FE0FB05DF804FBFEF7E3FEEBE795
:10B52000FEF7E0FEDCE7FEF7DDFED0E7FEF7DAFE31
:10B53000C9E700BFAFF3008000000000000000007A
:10B5400098D100200004004000B51B481B4A89B078
:10B55000002302604FF0FF32CDE90233CDE904331E
:10B56000CDE90033C0E90133C0E9032306938361C9
:10B5700031F092F8A0B9072200230F4802A9CDE9C3
:10B58000022338F03BFA98B9002200230A486946A2
:10B59000CDE900233CF082FA28B909B05DF804FB3C
:10B5A000FEF7A0FEE7E7FEF79DFE09B05DF804FB9D
:10B5B000FEF798FEE8E700BF50D10020000C0040E5
:10B5C00000B51248124943F6652283B00023C0E952
:10B5D00000120122CDE90033C0E90232836131F06B
:10B5E0005BF858B90022002308486946CDE90023DA
:10B5F0003CF054FA28B903B05DF804FBFEF772FE84
:10B60000F0E7FEF76FFE03B05DF804FB08D1002001
:10B610000014004009480A4908B54FF6FF7200239C
:10B62000C0E90013C0E902320361836131F034F8EC
:10B6300000B908BDBDE80840FEF754BEC0D00020E8
:10B640000044014000B50368B3F1804F87B00ED0CD
:10B65000334A93422AD0334A934218D0324A934213
:10B660003AD0324A934249D007B05DF804FB03F563
:10B670000E33002201921A6C42F001021A641B6C14
:10B6800003F001030193019B07B05DF804FB284B15
:10B69000002203921A6C42F008021A641B6C03F039
:10B6A00008030393039B07B05DF804FB204B0022C3
:10B6B0000292196C41F0020119641B6C03F0020341
:10B6C00002931D200521029B22F0DCF81D2007B00B
:10B6D0005DF804EB22F01CB9154B00220492196CA2
:10B6E00041F0200119641B6C03F020030493372000
:10B6F0000221049B22F0C6F83720E8E70C4B002219
:10B700000592596C41F4003159645B6C03F40033C9
:10B71000059319200521059B22F0B4F81920D6E7DE
:10B7200000040040000C00400014004000440140B0
:10B73000003802400368B3F1804F0CD01A4A93429C
:10B7400016D01A4A93420CD0194A934219D0194A7A
:10B7500093421FD07047184A136C23F001031364FF
:10B76000704702F50B32136C23F008031364704723
:10B7700002F50D321D20136C23F00203136422F036
:10B78000DBB802F509323720136C23F02003136471
:10B7900022F0D2B802F574421920536C23F400331E
:10B7A000536422F0C9B800BF00040040000C004000
:10B7B00000140040004401400038024010B50B481E
:10B7C0000B4C00234FF4E1310C22C0E90041C0E9E9
:10B7D0000233C0E90432C0E906333CF081FB00B912
:10B7E00010BDBDE81040FEF77DBD00BFE8D20020CF
:10B7F0000044004070B5374B026888B000249A427C
:10B80000CDE90244CDE90444069401D008B070BDEE
:10B8100003F5FA3300941A6C2F4E42F400321A6486
:10B820001A6C02F400320092009A01941A6B42F0F2
:10B8300008021A631B6B03F00803019360220223C2
:10B84000CDE902230546032207230198234802A9D4
:10B85000CDE9052327F0B2FD214A74624FF0006361
:10B86000C6E90023304640224FF48063C6E9022433
:10B87000C6E90544C6E90744336122F0C9FA10BBA2
:10B88000184C194A22604FF000620023AE636260D8
:10B8900020464FF48062C4E90233C4E90423C4E9BA
:10B8A0000633C4E90833B56322F0B2FA70B9002256
:10B8B0000521EC632620A56321F0E4FF262022F079
:10B8C00027F808B070BDFEF70DFDD9E7FEF70AFDB9
:10B8D000EDE700BF0044004088D20020000C024089
:10B8E000A060024028D20020886002400D4B026810
:10B8F0009A4200D070470C4A136C10B523F4003301
:10B90000044660211364094827F08CFFA06B22F0E5
:10B91000CFFBE06B22F0CCFBBDE81040262022F0EC
:10B920000BB800BF0044004000380240000C024049
:10B93000DFF834D0FEF7DEFF0C480D490D4A002336
:10B9400002E0D458C4500433C4188C42F9D30A4AD4
:10B950000A4C002301E013600432A242FBD341F001
:10B9600081FCFEF761FB7047000002200000002010
:10B97000C80400205CA40508D004002024960120FF
:10B98000FEE700000022C0E900228260704700BF8D
:10B99000002070471F2070471E2070471D207047F1
:10B9A0001C2070471B2070471A20704719207047D1
:10B9B00018207047172070471620704715207047D1
:10B9C00014207047132070471220704711207047D1
:10B9D000102070470F2070470E2070470D207047D1
:10B9E0000C2070470B2070470A20704709207047D1
:10B9F00008207047072070470620704705207047D1
:10BA000004207047032070470220704701207047D0
:10BA10000020704738B5704C704B04F5805505F523
:10BA20008160C5F8083400F031FD6D4BC5F8703306
:10BA300005F55C7000F02AFD6A4BC5F8D83205F5B3
:10BA4000367000F023FD684BC5F8503205F51470D0
:10BA500000F01CFD654BC5F8C03104F58E5000F0B8
:10BA600015FD634BC5F8303105F5987000F00EFDFB
:10BA7000604BC5F8A03004F5855000F007FD5E4B23
:10BA80002B6105F1100000F001FD5C4BC4F8D03EC5
:10BA900004F56D6000F0FAFC594BC4F8903D04F5D4
:10BAA000596000F0F3FC574BC4F8503C04F5456076
:10BAB00000F0ECFC544BC4F8C83B04F6C83000F06E
:10BAC000E5FC524BC4F8403B04F5346000F0DEFC6A
:10BAD0004F4BC4F8B83A04F6B82000F0D7FC4D4BF1
:10BAE000C4F8583904F6581000F0D0FC4A4BC4F89A
:10BAF000C83804F6C80000F0C9FC484BC4F8483800
:10BB000004F6480000F0C2FC454BC4F8B83704F511
:10BB1000F76000F0BBFC434BC4F8203704F5E46049
:10BB200000F0B4FC404BC4F8A83604F5D56000F032
:10BB3000ADFC3E4BC4F8183604F5C36000F0A6FC1B
:10BB40003B4BC4F8883504F5B16000F09FFC394BDD
:10BB5000C4F8F83404F59F6000F098FC364BC4F844
:10BB6000703404F58E6000F091FC344BC4F8E83377
:10BB700004F57A7000F08AFC314BC4F8603304F5A8
:10BB8000587000F083FC2F4BC4F8D83204F536709F
:10BB900000F07CFC2C4BC4F8503204F5147000F01B
:10BBA00075FC2A4BC4F8C83104F5E47000F06EFC53
:10BBB000274BC4F8303104F5987000F067FC20463C
:10BBC000244B40F8983F00F061FC234B2360204653
:10BBD000BDE8384000F05ABC40D30020D8760508B4
:10BBE000CC760508C0760508B4760508A876050861
:10BBF0009C76050890760508847605087876050811
:10BC00006C760508607605085476050848760508C0
:10BC10003C76050830760508247605081876050870
:10BC20000C76050800760508F4750508E875050822
:10BC3000DC750508D0750508C4750508B8750508D4
:10BC4000AC750508A0750508947505088875050884
:10BC50007C7505087075050864750508000000000E
:10BC60002DE9F04F2DED048B044683B000F0F2FB7C
:10BC700020464FF0300AE24BDFF8F8B340F8683B5B
:10BC80005246002141F091F9C4F868B004F19800DF
:10BC900000F0E0FBDB4BC4F898305246002104F57D
:10BCA000807041F082F9C4F800B104F5987000F09A
:10BCB000D1FBD54BC4F830315246002104F5CC708D
:10BCC00041F073F9C4F898B104F5E4704FF020081E
:10BCD00000F0C0FBCD4BCE4DC4F8C8314246002128
:10BCE00004F50C7041F061F9C4F8305204F5147099
:10BCF00000F0B0FBC74BC4F850324246002104F5B7
:10BD00002E7041F052F9C4F8B85204F5367000F0C4
:10BD1000A1FBC14BC4F8D8324246002104F5507053
:10BD200041F043F9C4F8405304F5587000F092FB19
:10BD3000BA4BC4F860334246002104F5727041F0FA
:10BD400034F9C4F8C85304F57A7000F083FBB44B9F
:10BD5000C4F8E8334246002104F58A6041F025F931
:10BD6000C4F8505404F58E6000F074FBAD4BC4F879
:10BD700070344246002104F59B6041F016F9C4F886
:10BD8000D85404F59F604FF0280900F063FBA64BE0
:10BD9000A64FC4F8F8344A46002104F5AC6041F0DF
:10BDA00004F9C4F8607504F5B16000F053FBA04BD2
:10BDB000C4F888354A46002104F5BE6041F0F5F824
:10BDC000C4F8F07504F5C36000F044FB994BC4F867
:10BDD00018364A46002104F5D06041F0E6F89FEDA0
:10BDE000869BC4F8807604F5D56000F033FB924B57
:10BDF000C4F8A83604F5D662904B82ED1A9B04F580
:10BE0000E460C4F8103700F025FB8D4BC4F82037F0
:10BE10005246002104F5F16041F0C7F8894BC4F89F
:10BE2000883704F5F76000F015FB874BC4F8B83786
:10BE30004A46002104F5026041F0B7F8C4F82078C2
:10BE400004F6480000F006FB804BC4F84838002692
:10BE50007F4BC4F8B038C4F8B468C4F8B868C4F804
:10BE6000BC68C4F8C068C4F8C46804F6C80000F030
:10BE7000F1FA784BC4F8C8384A46314604F51360E5
:10BE800041F093F8C4F8307904F6581000F0E2FA63
:10BE9000714BC4F858393146F82204F51C6041F062
:10BEA00084F86E4BC4F8C03904F6B82000F0D2FA1A
:10BEB0006B4BC4F8B83A4246314604F5326041F063
:10BEC00074F8C4F8205B04F5346000F0C3FA654BE5
:10BED000C4F8403B4246314604F6A83041F065F8CC
:10BEE000C4F8A85B04F6C83000F0B4FA5E4BC4F89E
:10BEF000C83B4246314604F5436041F056F8C4F869
:10BF0000305C04F5456000F0A5FAD027574BC4F823
:10BF1000503C31463A4604F54C6041F046F804F591
:10BF20004D6204F54E60019200F0CCFB04F54F60C9
:10BF30000025056004F6F440B7EE008A056004F6BB
:10BF4000F84004F55361056004F6FC40484B056079
:10BF500004F55060056004F60450056004F60850CE
:10BF600080ED008A04F60C5080ED008A04F55160E3
:10BF700080ED008A04F6145080ED008A04F6185013
:10BF800080ED008A04F61C5080ED008A04F55260B2
:10BF9000056004F62450056004F6285005600D6025
:10BFA0004D6004F6385104F559600D6004F63C51BB
:10BFB0000D6004F554610D6004F644510D6004F603
:10BFC00048510D6004F64C510D6004F555610D604B
:10BFD00004F654510D6004F658510D6004F65C519E
:10BFE0000D6004F556610D6004F664510D6004F6B1
:10BFF00068510D6040E000BF00000000000000003C
:10C0000064750508707505087C7505088875050850
:10C01000F474050894750508A0750508AC75050845
:10C02000B8750508C4750508D075050804750508B8
:10C03000DC750508E8750508F4750508E47405085D
:10C0400000760508347505080C760508187605088D
:10C05000D47405082476050830760508147505089B
:10C060003C7605084876050854760508607605088C
:10C0700024750508B474050804F66C510D6004F5C8
:10C0800057610D6004F674510D6004F67851019A01
:10C090000D6004F67C510D6082ED2C9BC4F8C03C11
:10C0A000C4F8886D84F88C6D00F0D4F9CA4AC4F8DD
:10C0B000902D31463A4604F5606040F076FF04F575
:10C0C000616204F56260019200F0FCFA04F56360BD
:10C0D00004F56761056004F63460C04B056004F642
:10C0E0003860056004F63C60056004F56460056036
:10C0F00004F64460056004F6486080ED008A04F6AA
:10C100004C6080ED008A04F5656080ED008A04F6DD
:10C11000546080ED008A04F6586080ED008A04F6D1
:10C120005C6080ED008A04F56660056004F664607A
:10C13000056004F6686005600D604D6004F6786186
:10C1400004F56D600D6004F67C610D6004F56861B6
:10C150000D6004F684610D6004F688610D6004F6DC
:10C160008C610D6004F569610D6004F694610D60E9
:10C1700004F698610D6004F69C610D6004F56A6137
:10C180000D6004F6A4610D6004F6A8610D6004F66C
:10C19000AC610D6004F56B610D6004F6B4610D6077
:10C1A00004F6B861019A0D6004F6BC610D6082ED81
:10C1B0002C9BC4F8003EC4F8C86E84F8CC6E00F026
:10C1C00049F98749C4F8D01E3A46314604F57460EF
:10C1D00040F0EBFE04F5756204F57660019200F024
:10C1E00071FA04F5776004F57B61056004F67470FC
:10C1F00004F58057056004F67870784B056004F606
:10C200007C70056004F57860056004F68470056054
:10C2100004F6887080ED008A04F68C7080ED008A48
:10C2200004F5796080ED008A04F6947080ED008A50
:10C2300004F6987080ED008A04F69C7080ED008A08
:10C2400004F57A60056004F6A470056004F6A87031
:10C25000683040F8685C0D604D6004F6B8710D60A0
:10C2600004F6BC710D6004F57C610D6004F6C471C8
:10C270000D6004F6C8710D6004F6CC710D6004F514
:10C280007D610D6004F6D4710D6004F6D8710D6007
:10C2900004F6DC710D6004F57E610D6004F6E47156
:10C2A0000D6004F6E8710D6004F6EC710D6004F5A4
:10C2B0007F610D6004F6F4710D6004F6F871019A67
:10C2C0000D6004F6FC710D6082ED2C9BBE603E7328
:10C2D000C4F8403F00F0BEF8424B434D3B614A4634
:10C2E000314607F1780040F060FEBD6704F58550E7
:10C2F00000F0B0F83D4BC7F8A0304A46314607F58C
:10C30000847040F052FE04F58950C7F8085110308F
:10C3100000F0A0F8364BC7F830314A46314607F5F1
:10C32000CC7040F042FEC7F8985104F58E5000F0F2
:10C3300091F8304BC7F8C0314A46314607F50A70CC
:10C3400040F033FE2C4BC7F8283204F592501030E1
:10C3500000F080F8294BC7F850324246314607F5C5
:10C360002E7040F022FE264BC7F8B83204F59650E6
:10C37000183000F06FF8234BC7F8D83252463146D8
:10C3800004F59A5040F011FE04F59B50C7F840B3F5
:10C39000103000F05FF81C4BC7F87033524631463E
:10C3A00007F5767040F001FE04F5A050C7F8D8B349
:10C3B000083000F04FF8154BC7F8083452463146A4
:10C3C00007F58E6040F0F1FD2046C7F870B403B069
:10C3D000BDEC048BBDE8F08F6C760508247505086C
:10C3E0007876050884760508C474050890760508F3
:10C3F0009C760508A876050844750508B4760508F6
:10C4000054750508C0760508CC760508D876050869
:10C4100010B50C4C2368BFF35B8FDB0701D50A48CE
:10C4200010BD20463DF0E6FA0028F8D00648FFF798
:10C4300017FC064840F041FB20463DF0EAFA02486E
:10C4400010BD00BF30D3002040D3002015BA000833
:10C45000704700BF10B5044600230A48206004F16D
:10C4600008015022C4E91633C4E9181204F1580037
:10C470001EF03EFF606008B1204610BD02480F214B
:10C4800000F01EF8E476050820E6040810B504461E
:10C49000034B406823601EF0CDFF204610BD00BF57
:10C4A000E476050808B5012140681EF071FFB0FA76
:10C4B00080F0400908BD00BF40681EF08DBF00BF7E
:10C4C00080B50E46BAB0074672B66C486C4C6B4DE0
:10C4D0003CF05AFB64232146012228463BF062FFD0
:10C4E00014F8013F002BF5D13B7853B1634C642322
:10C4F0003946012220463BF055FF17F8013F002B3B
:10C50000F5D1604C5D4D64232146012228463BF065
:10C5100049FF14F8013F002BF5D186EAE674A4EB3D
:10C52000E674092C4FEAD67640F29580632C40F2EF
:10C530009F80B4F57A7F72D342F20F739C4240F22F
:10C540009580514B9C4240F29580504B9C4298BF45
:10C5500005230BD94E4B9C4238BF052360D34D4B6E
:10C560009C4271D94C4B9C4272D9092303F10108BA
:10C5700001AD03AB08EB06012D222846019307AF5E
:10C580003DF001FB019B4549C92238461E4440F05D
:10C59000A1FE632C3AD9A8F10202DFF808813244E7
:10C5A0004FF0640E42F20F7CA8FB04135B090EFBF4
:10C5B0001340214637F8100022F8020961451C4655
:10C5C000F2D8B1F57A7F21D204F13003DBB23370B7
:10C5D000019C237853B1294E642321460122304621
:10C5E0003BF0E0FE14F8013F002BF5D128463DF06A
:10C5F00066FA2B4C214D64232146012228463BF04C
:10C60000D1FE14F8013F002BF5D1FEE73AAB03EB66
:10C61000440414F8CB2C14F8CC3C7270D7E70123F7
:10C6200003F1020801AD03AB08EB060128462D22F9
:10C63000019307AF3DF0A7FA019B1849C92238467C
:10C640001E4440F047FEA6E7052303F10308E9E78F
:10C650004FF00908E6E701AD03AB711C2D22284617
:10C6600001933DF090FA019B1E44ADE70123ECE7F6
:10C6700001237BE74FF00508D4E700BFE8D2002094
:10C680003CE604085CE604089F8601003F420F0078
:10C6900080969800FFE0F505FFC99A3B68E604081C
:10C6A00064E604081F85EB5108B5034A034B0448B0
:10C6B0006D21FDF705FE00BF24E8040834E70408F7
:10C6C000B0E8040808B5030707D100224FF07E51F7
:10C6D000016042608260C26008BDFFF7E5FF00BFF5
:10C6E00008B503070CD10A6842604FF0000C8A6855
:10C6F000C0F800C0D1F804C0C0F808C0C26008BDCE
:10C70000FFF7D2FF08B5030708D180ED000AC0ED9E
:10C71000010A80ED021AC0ED031A08BDFFF7C4FF3D
:10C7200091ED007AD0ED007AD0ED016A77EE877A4C
:10C7300090ED027AC0ED007A91ED016AD0ED037AB6
:10C7400076EE866AC0ED016AD1ED026A37EE267A8E
:10C7500080ED027A91ED037A77EE877AC0ED037A65
:10C76000704700BFD1ED016A92ED014A91ED027A66
:10C77000D2ED024AD1ED037A92ED035A91ED006AAF
:10C78000D2ED005A76EE846A37EE247A77EE857A17
:10C7900036EE256AC0ED016A80ED006A80ED027A0E
:10C7A000C0ED037A704700BF91ED007AD0ED007ABA
:10C7B000D0ED016A77EEC77A90ED027AC0ED007A8B
:10C7C00091ED016AD0ED037A76EEC66AC0ED016A9A
:10C7D000D1ED026A37EE667A80ED027A91ED037A46
:10C7E00077EEC77AC0ED037A704700BFD1ED016ADA
:10C7F00092ED014A91ED027AD2ED024AD1ED037A2F
:10C8000092ED035A91ED006AD2ED005A76EEC46AB9
:10C8100037EE647A77EEC57A36EE656AC0ED016A66
:10C8200080ED006A80ED027AC0ED037A704700BFA8
:10C8300008B5030774D14FF07E5CC0F800C04FF01C
:10C84000000CC0F804C0C0F808C0C0F80CC091EDDE
:10C85000016AD2ED017AD1ED006A92ED007AD1ED54
:10C86000025A67EEC67A92ED026AE6EE877AD1ED59
:10C87000036A92ED037AE5EEC67AE6EEC77AC0ED7A
:10C88000007A91ED016AD2ED007AD1ED006A92ED65
:10C89000017AD1ED025A67EE867A92ED036AE6EEEE
:10C8A000877AD1ED036A92ED027AE5EE867AE6EEBA
:10C8B000C77AC0ED017A91ED026AD2ED007AD1ED2E
:10C8C000006A92ED027AD1ED015A67EE867A92ED16
:10C8D000036AE6EE877AD1ED036A92ED017AE5EE1E
:10C8E000C67AE6EE877AC0ED027AD2ED007A91ED53
:10C8F000036AD1ED006A92ED037AD1ED015A67EE39
:10C90000867A92ED026AE6EE877AD1ED026A92EDBE
:10C91000017AE5EE867AE6EEC77AC0ED037A08BDC5
:10C92000FFF7C2FE90ED006AD0ED016A90ED027A49
:10C93000D0ED037A26EE006A66EE806A27EE007A72
:10C9400067EE807A80ED006AC0ED016A80ED027AC0
:10C95000C0ED037A704700BFD1ED016A91ED027A14
:10C96000D1ED037A91ED006A60EE266A20EE077A37
:10C9700060EE277A26EE006AC0ED016A80ED006A5B
:10C9800080ED027AC0ED037A704700BF10B504460F
:10C9900051EC100BFBF784FCD4ED005A94ED016AC6
:10C9A000D4ED026A94ED037A07EE900A65EEA75A79
:10C9B00026EE276A66EEA76A67EE277AC4ED005A6C
:10C9C00084ED016AC4ED026AC4ED037A204610BD0D
:10C9D00038B504460D4651EC100BFBF761FCD5ED64
:10C9E000015AD5ED026A95ED037A95ED006A07EEDE
:10C9F000900A67EEA55A67EEA66A27EE877A66EE7A
:10CA0000277A2046C4ED015AC4ED007AC4ED026ACB
:10CA100084ED037A38BD00BF704700BF90ED000A77
:10CA2000704700BF0430704790ED010A704700BFA7
:10CA30000830704790ED020A704700BF0C30704715
:10CA400090ED030A704700BFD0ED015AD0ED036AA4
:10CA500090ED005A90ED026A65EEA57A26EEA67A70
:10CA6000E5EE057AA6EE067A77EE877AF5EEC07ADD
:10CA7000F1EE10FA11DDB1EEE77AC5EE074AC6EE27
:10CA8000877A85EE875AC6EE075AC0ED004A80EDD8
:10CA9000015AC0ED025AC0ED037A7047D1ED016A28
:10CAA00091ED027AD1ED037A91ED006A60EE266A8B
:10CAB00020EE077A60EE277A26EE006AC0ED016A62
:10CAC00080ED006A80ED027AC0ED037A704700BF06
:10CAD00038B504460D4651EC100BFBF7E1FBD5EDE4
:10CAE000015AD5ED026A95ED037A95ED006A07EEDD
:10CAF000900A67EEA55A67EEA66A27EE877A66EE79
:10CB0000277A2046C4ED015AC4ED007AC4ED026ACA
:10CB100084ED037A38BD00BF154B5B68C3F308038F
:10CB200070B5FBB1134E3468BFF35B8F14F0010492
:10CB3000054605D029461048BDE8704000F0D8B938
:10CB400030463CF057FF0028F4D00B4B3046C3E989
:10CB50001544DC653CF05DFF29460748BDE87040A0
:10CB600000F0C6B9054B064A06480B21FDF7A8FBA5
:10CB700000ED00E0E0E70020E4E70020F0E8040832
:10CB800014E9040848E90408F8B5114F3C68BFF3FC
:10CB90005B8F14F0010405460E4606D03246294646
:10CBA0000C48BDE8F84000F063B838463CF022FF7E
:10CBB0000028F3D0074B3846C3E91544DC653CF048
:10CBC00028FF324629460348BDE8F84000F050B837
:10CBD000E0E70020E4E7002038B50E4D2C68BFF3F5
:10CBE0005B8F14F0010404D0BDE838400A4800F01F
:10CBF00035BA28463CF0FEFE0028F5D0064B284604
:10CC0000C3E91544DC653CF004FFBDE83840024848
:10CC100000F024BAE0E70020E4E7002038B50E4D2C
:10CC20002C68BFF35B8F14F0010404D0BDE83840DA
:10CC30000A4800F015B828463CF0DCFE0028F5D084
:10CC4000064B2846C3E91544DC653CF0E2FEBDE82E
:10CC50003840024800F004B8E0E70020E4E7002094
:10CC600090F956000028D4BF00200120704700BF73
:10CC7000C0E91612704700BFF0B5F22991B0044622
:10CC800071D0F3290B464ED1944A4579ADF80D3059
:10CC900092E80300F92D4FF0000202908DF80C107D
:10CCA0008DF80F208DF810208DF811208DF81220AE
:10CCB00040F29080FF238DF80E304FF0FF320721B5
:10CCC00002A80CF09DFB02ABCDF80F0003CBC4F81B
:10CCD0002A001A88628604F12A079A78C4F82E106E
:10CCE0000B23BA72A4F85430A36D002B38D00CF08B
:10CCF0009DFB7B4D4519A06D41F100063BF0C6FD43
:10CD000004E00CF093FBA842B14129D2A06D90F849
:10CD10004130202BF5D1B4F8542039463BF0E8FCE3
:10CD2000012011B0F0BD6D4A8DF8193092E8030072
:10CD3000002305908DF818104FF0FF32072105A849
:10CD40008DF81A308DF81B308DF81C308DF81D30A1
:10CD50008DF81E300CF054FB05ABCDF81B00B5E789
:10CD6000002011B0F0BD5F4A43798DF8193092E888
:10CD70000300F92B05908DF8181065D902AD574ABC
:10CD800092E803008DF80C104FF6F2710023029028
:10CD90004FF0FF32ADF80D10284607218DF80F3007
:10CDA0008DF810308DF811308DF812300CF028FB12
:10CDB0002A46CDF80F0003CA04F12A0713886386B8
:10CDC0009278C4F82A000B23C4F82E10BA72A4F883
:10CDD000543089E744484FF4004126F06FFED4F800
:10CDE0000630CDF81630D4F81630D4F80A20D4F82E
:10CDF0000E60CDF826306623D4F81210CDF81A2034
:10CE0000CDF81E60D4F81A20D4F81E6000936D018E
:10CE1000CDF82210D4F82210CDF82A206DBACDF822
:10CE200032103248ADF81450222305AAA021CDF8C3
:10CE30002E6022F077F9002849D02B4801224FF4C8
:10CE4000004126F03BFE35E75B0159BA012202ADF5
:10CE50000092ADF80810254802232A46A02122F0AE
:10CE600061F900288BD12023204800930DF11A028C
:10CE7000A02122F0FBFA002881D14FF0FF322621B9
:10CE800005A80CF0BDFA04F12A07CDF83A000DF11F
:10CE9000140C3E460DF1340E65460FCD754506F176
:10CEA00010060CF1100C46F8100C46F80C1C46F855
:10CEB000082C46F8043CEFD1BCE803003060BCF815
:10CEC000002032812A237160A4F854300CE7064810
:10CED00001224FF4004126F0F1FDEEE6ECDF0408FC
:10CEE00040420F00E4DF040800040240280500204F
:10CEF0002A2938B504460ED9FE2380F856302A2256
:10CF0000A06D21463CF046FDE36D1A68136823F0DE
:10CF10000803136038BD0D1F4FF0FF3229460CF097
:10CF20006FFA6359984203D0FF2384F85630E6E73E
:10CF300023784E2BE3D16378452BE0D16388032B14
:10CF4000DDD12179F12914D00DD8F029D7D10123D1
:10CF500084F856302046FFF78FFE0028CFD1FD23FE
:10CF600084F85630CBE701F10E03DBB2012BF1D987
:10CF7000C5E7002384F85630ECE700BF00F12A0330
:10CF80002DE9F04303EB020E9AB1AEEB0004A4F1DD
:10CF90002B05052D01F1010C03D9A3EB0C05022D86
:10CFA0000BD81CF8011C03F8011B9E450CF1010C69
:10CFB000F7D1A0F85420BDE8F083A4F12A0626F0AA
:10CFC00003088C461C464FEA960908EB01075CF8FB
:10CFD000045B44F8045BBC45F9D1464503EB080407
:10CFE000E7D011F8291003F82910631C9E45E0D002
:10CFF0009CF801306370A31C9E45DAD09CF8023087
:10D00000A370A0F85420BDE8F08300BF836D03B384
:10D0100070B504460CF00AFA0F4B0546ED18A06DEA
:10D0200041F100063BF032FC04E00CF0FFF9A842AD
:10D03000B1410CD2A06D90F84130202BF5D1B4F85D
:10D04000542004F12A013BF053FB012070BD002065
:10D0500070BD0020704700BF40420F0070B505460C
:10D060002A222946806D104C3CF094FCEB6D1A6826
:10D07000136823F0080313600CF0D8F9041941F188
:10D0800000060CF0D3F9A042B141FAD395F956301D
:10D09000002BF6DCA86D90F84130202BF1D1BDE8D3
:10D0A00070403CF01BB800BF404B4C00D0F814025D
:10D0B000003818BF01207047D0F8143203B1704710
:10D0C00010B5044600F51A701EF012F9C4F81402E7
:10D0D00010BD00BFF8B5174E3468BFF35B8F14F076
:10D0E0000104054602D0F5B91348F8BD30463CF0BE
:10D0F00081FC0028F7D0104F104B384640F8043B15
:10D100000BF03AFD07F50673C7F87032304650232E
:10D11000C7E98344C7E99A44C7F81442C7F8743290
:10D120003CF077FCDFE7064B064A07481821FDF77D
:10D13000C7F800BF44E8002048E80020F076050862
:10D14000ECE9040804EA040854EA040800B5074AB4
:10D1500083B000238C4610688DF807C01A460DF185
:10D1600007011EF08FFA03B05DF804FBAC0C002041
:10D1700070B586B0011D044601A80CF023F81EF01E
:10D18000D3FDD4E98335EB1A54BF143303F505738B
:10D19000B3F5007F23D205F1140305F10A0EB3F5B0
:10D1A000007F04EB0E0C1FD9C5F50076324601A9AD
:10D1B000604640F08FF801ABA5F5F672991904F1BD
:10D1C0000A0040F087F81648D4F8103290F8412051
:10D1D0001433C3F30803202AC4F8103213D006B066
:10D1E000BDE870401EF0C2BD01AD0FCD44F80E0089
:10D1F0002868CCF804101426CCF80820CCF80C30A1
:10D20000CCF81000DFE7D4F80C120A31B2B2214496
:10D210003BF06EFA06B0BDE870401EF0A7BD00BF3F
:10D22000E8D2002070B586B0011D044668460CF0B7
:10D2300001F81EF079FDD4E98335EB1A54BF183399
:10D2400003F50673B3F5007F23D205F1180305F14A
:10D250000A0EB3F5007F04EB0E0C1FD9C5F500765E
:10D2600032466946604640F035F8A5F5F4720DEB9C
:10D27000060104F10A0040F02DF81748D4F81032E6
:10D2800090F841201833C3F30803202AC4F8103261
:10D2900015D006B0BDE870401EF068BD6D460FCDDC
:10D2A00044F80E00CCF8041003CD1826CCF8082062
:10D2B000CCF80C30CCF81000CCF81410DDE7D4F822
:10D2C0000C120A31B2B221443BF012FA06B0BDE8AA
:10D2D00070401EF04BBD00BFE8D20020531EB3F5D6
:10D2E000007F2DE9F04152D2054614460F461EF04C
:10D2F0001BFDD5E98336F31A48BF03F500732344B9
:10D30000B3F5007F1DD2A31906F10A00B3F5007F23
:10D3100028441CD8224639463FF0DCFFA046D5F809
:10D3200010321E481C4490F84130C4F30804202BEE
:10D33000C5F810421BD001241EF018FD2046BDE8A0
:10D34000F08100241EF012FD2046BDE8F081C6F5F4
:10D350000078424639463FF0BDFFA6F500722244F0
:10D3600007EB080105F10A003FF0B4FFD7E7D5F855
:10D370000C120A311FFA88F229443BF0B9F9B0FACD
:10D3800080F464091EF0F2FC2046BDE8F081044BF5
:10D39000044A0548D921FCF793FF00BFE8D20020DA
:10D3A000F8EA040824EB040854EA040870B59CB0B9
:10D3B0000546FFF72DF82C220446002111A83FF066
:10D3C000F4FD2C4A92E8030004F5E46600232A4A9F
:10D3D0000990304610928DF828108DF82930CDF83C
:10D3E0002A30CDF82E30CDF83230ADF836300F93EC
:10D3F000FFF758F808B91CB070BD04F5F16330466A
:10D400005A6811929A681292DA6813921A695969E5
:10D4100014929A69169204F5F263D3E906231591E2
:10D42000B4F8B017ADF86810CDE91823FFF744F849
:10D43000D5F8140201211DF0ABFF0028DBD110AAA2
:10D44000291D68460BF0ACFB00980199029A039BDA
:10D4500009AC0FC404980599069A07C41C2209A9AF
:10D460002846FFF73BFFD5F814021DF0B5FF1CB0AE
:10D4700070BD00BFF4DF04083475050870B598B0BE
:10D480000546FEF7C5FF2C22044600210DA83FF0FB
:10D490008CFD2F4A92E8030004F5E46600232D4A30
:10D4A000079030460C928DF82010ADF821308DF8A1
:10D4B00023300B938DF824308DF825308DF82630ED
:10D4C0008DF827308DF828308DF829308DF82A30E6
:10D4D000FEF7E8FF08B918B070BD04F5F1633046F7
:10D4E0005A680D929A680E92DA680F921A69596911
:10D4F00010929A69129204F5F263D3E9062311910E
:10D50000B4F8B017ADF85810CDE91423FEF7D4FFE6
:10D51000D5F8140201211DF03BFF0028DBD10CAA35
:10D52000291D68460BF04CFC00980199029A039B58
:10D5300007AC0FC404982060142207A92846FFF7FF
:10D54000CDFED5F814021DF047FF18B070BD00BF26
:10D55000FCDF04083475050870B5364B054693E8C2
:10D56000030096B00023079033480C9000228DF8FA
:10D57000201000200021CDE91201ADF821308DF8F6
:10D5800023308DF824308DF825308DF826308DF835
:10D5900027308DF828308DF829308DF82A300B93FC
:10D5A0000D920E920F9210928DF85030FEF730FFD0
:10D5B00000F58E5604463046FEF774FF08B916B0E3
:10D5C00070BD04F580543046D4F82C22D4F83032A3
:10D5D0000D920E93D4F83422D4F838320F9210936F
:10D5E000D4E9902394F848128DF85010CDE9122315
:10D5F000FEF762FFD5F8140201211DF0C9FE0028D4
:10D60000DDD10CAA291D68460BF0EEFC00980199AB
:10D61000029A039B07AC0FC404982060142207A948
:10D620002846FFF75BFED5F814021DF0D5FE16B0B4
:10D6300070BD00BF04E004084475050870B5324BA6
:10D64000054693E803009AB0002309902F488DF80F
:10D6500028100022109000210020CDE90C33CDE9E4
:10D6600016018DF82930CDF82A30ADF82E300F9301
:10D670008DF860301192129213921492FEF7C8FE48
:10D6800000F58E5604463046FEF70CFF08B91AB076
:10D6900070BD04F580543046D4F82C22D4F83032D2
:10D6A00011921293D4F83422D4F83832139214938E
:10D6B000D4E9902394F848128DF86010CDE9162330
:10D6C000FEF7FAFED5F8140201211DF061FE0028D4
:10D6D000DDD110AA291D68460BF0D2FC00980199F3
:10D6E000029A039B09AC0FC404980599069A07C4D3
:10D6F0001C2209A92846FFF7F1FDD5F814021DF0F8
:10D700006BFE1AB070BD00BF0CE00408447505083C
:10D710002DE9F043624A6349A7B00023CDE91033F5
:10D72000CDE91332ADF848308DF868308DF890307F
:10D730008DF830305C4B1C9300244FF000084FF004
:10D7400000095A4B0E9102250F95CDE91889CDE9B4
:10D750002289CDE90A890646159416941D941E94D3
:10D760001F94209409940893FEF752FE00F59257F7
:10D77000103705463846FEF795FE002835D1CDE92D
:10D780001889159416948DF86800FEF741FE00F58F
:10D790008E5504462846FEF785FE002866D10024F3
:10D7A0000025CDE9224500231D931E931F9320934E
:10D7B0008DF89000FEF72CFE00F64805044628463A
:10D7C000FEF770FE002841D100240025CDE90A456E
:10D7D000002309938DF83000D6F8140201211DF0C2
:10D7E000D7FDB0B127B0BDE8F08305F580553846C8
:10D7F000D5F8BC22D5F8C03215921693D5E9B223DC
:10D8000095F8D0128DF86810CDE91823FEF754FE74
:10D81000BBE708AB009314AA1CAB311D02A80BF0A8
:10D8200019FB02980399049A059B0EAC0FC4069845
:10D830000799182203C40EA93046FFF74FFDD6F80A
:10D8400014021DF0C9FD27B0BDE8F08304F50B6399
:10D8500094F8C0185A680992D3E902232846CDE902
:10D860000A238DF83010FEF727FEB5E704F5805443
:10D870002846D4F82C22D4F830321D921E93D4F8C6
:10D880003422D4F838321F922093D4E9902394F8AC
:10D8900048128DF89010CDE92223FEF70DFE89E79E
:10D8A000547505084E45030044750508D4740508F1
:10D8B00070B586B00646FEF7ABFD00F5D5650446AB
:10D8C0002846FEF7EFFD08B906B070BD284604F5FE
:10D8D000E264D4E90245FEF7EFFDD6F81402012117
:10D8E0001DF056FD0028EFD12B462246311D01A820
:10D8F0000BF02EFC142201A93046FFF7EFFCD6F8FE
:10D9000014021DF069FD06B070BD00BF08B5164BCE
:10D910005B68C3F3080303B3D0E983321944C1F34E
:10D920000801521A002A8446C0F80C1201DC08D102
:10D9300008BD0A31BDE808400C4892B261443AF093
:10D94000D7BEC1F5007201F10A030CEB03010748D1
:10D95000BDE8084092B23AF0CBBE054B054A0648F6
:10D960004FF48271FCF7ACFC00ED00E0E8D200203F
:10D97000F0E8040864EB040854EA0408D0E98303DF
:10D98000181A48BF01F500710844B0F5007F2CBF9C
:10D9900000200120704700BF10B504460020FFF7AB
:10D9A00099FB2146BDE81040FFF7B0BF00797047F2
:10D9B00008B90348704708B502481521FEF780FDF5
:10D9C0000C000020A0EB040838B5FEF721FD00F1A3
:10D9D000980504462846FEF765FD00B938BD0022CB
:10D9E000002300200021A4F82821C4E94801C4F83C
:10D9F0000431C4F80831C4F80C31C4F81031C4F84B
:10DA00001431C4F81831C4F81C312846BDE8384038
:10DA1000FEF752BD30B5002487B0802320460D4666
:10DA2000ADF814408DF8143001F0DCFF0223012220
:10DA3000CDE90123009505AA214602F0E9F807B0D7
:10DA400030BD00BF30B5002487B0A12320460D466D
:10DA5000ADF814408DF8143001F0C4FF0223012208
:10DA6000CDE90123009505AA214602F0D1F807B0BF
:10DA700030BD00BF70B5002486B07D2320468DF8F0
:10DA800014308DF8134001F0ADFF164B012502262E
:10DA90008DE8680005AA2B46214601F0E7FF10B982
:10DAA000002006B070BDFD232046ADF814408DF86F
:10DAB000143001F097FF0DF113030093CDE90156E7
:10DAC000334605AA214602F0A3F80028E8D09DF8C5
:10DAD000130000F00E00A0F10E00B0FA80F0400933
