:020000040800F2
:1080000000000220B5AB000895A5000899A500085E
:108010009DA50008A1A50008A5A500080000000076
:10802000000000000000000000000000F144010812
:10803000A9A500080000000081450108B50E01084F
:1080400005AC000805AC000805AC000805AC00084C
:1080500005AC000805AC000805AC000805AC00083C
:10806000ADA5000805AC000805AC0008BDA50008DA
:10807000D9A5000805AC000805AC000805AC00084F
:1080800005AC000805AC000805AC000805AC00080C
:1080900005AC000805AC000805AC000805AC0008FC
:1080A00005AC0008F5A5000805AC000805AC000803
:1080B00005AC000801A6000805AC00080DA60008E4
:1080C00005AC000805AC000805AC000805AC0008CC
:1080D00005AC000819A6000805AC000805AC0008AE
:1080E00005AC000805AC000805AC000805AC0008AC
:1080F00005AC000805AC000805AC000805AC00089C
:1081000005AC000805AC000805AC000805AC00088B
:1081100005AC000805AC000825A6000831A600083B
:1081200005AC000805AC000845A6000805AC000831
:1081300005AC0008000000000000000051A6000887
:108140005DA6000869A6000805AC000805AC00089B
:1081500005AC000805AC000875A6000805AC0008D1
:1081600081A6000805AC000805AC000805AC0008B5
:1081700005AC000805AC000805AC000800000000D4
:108180000000000005AC0008000000000000000036
:1081900005AC0008000000000000000005AC00086D
:1081A00000000000000000000000000005AC000816
:1081B00005AC000805AC000805AC000805AC0008DB
:0481C00005AC000802
:1081D00010B5054C237833B9044B13B10448AFF301
:1081E00000800123237010BD200400200000000047
:1081F0001C02030808B5034B1BB103490348AFF346
:10820000008008BD00000000240400201C020308B8
:1082100001F0FF01102A2BDB10F0070F08D010F837
:10822000013B013A8B422DD010F0070F42B3F6D13B
:10823000F0B441EA012141EA014122F007047FF054
:1082400000070023F0E80256083C85EA010586EAAB
:10825000010685FA47F5A3FA87F586FA47F6A5FAE7
:1082600087F68EB9EED1F0BC01F0FF0102F00702F3
:1082700032B110F8013B013A83EA010313B1F8D19E
:108280000020704701387047002D06BF354603387F
:10829000073815F0010F07D1013015F4807F02BFB8
:1082A000013015F4C03F0130F0BC0138704700BF09
:1082B00070B54FF0FF0C4CF4E06C1CEA11541DBF7C
:1082C0001CEA135594EA0C0F95EA0C0F00F0DEF847
:1082D0002C4481EA030621EA4C5123EA4C5350EA2C
:1082E000013518BF52EA033541F4801143F480137D
:1082F00038D0A0FB02CE4FF00005E1FB02E506F00E
:108300000042E0FB03E54FF00006E1FB03569CF062
:10831000000F18BF4EF0010EA4F1FF04B6F5007F68
:1083200064F5407404D25FEA4E0E6D4146EB0606DA
:1083300042EAC62141EA55514FEAC52040EA5E5063
:108340004FEACE2EB4F1FD0C88BFBCF5E06F1ED80D
:10835000BEF1004F08BF5FEA500E50F1000041EB44
:10836000045170BD06F0004646EA010140EA0200F1
:1083700081EA0301B4EB5C04C2BFD4EB0C0541EA13
:10838000045170BD41F480114FF0000E013C00F328
:10839000AB8014F1360FDEBF002001F0004170BD4C
:1083A000C4F10004203C35DA0C341BDC04F1140465
:1083B000C4F1200500FA05F320FA04F001FA05F2F1
:1083C00040EA020001F0004221F0004110EBD370BE
:1083D00021FA04F642EB06015EEA430E08BF20EAEA
:1083E000D37070BDC4F10C04C4F1200500FA04F38D
:1083F00020FA05F001FA04F240EA020001F000411F
:1084000010EBD37041F100015EEA430E08BF20EA91
:10841000D37070BDC4F1200500FA05F24EEA020ED9
:1084200020FA04F301FA05F243EA020321FA04F008
:1084300001F0004121FA04F220EA020000EBD370BF
:108440005EEA430E08BF20EAD37070BD94F0000FBF
:108450000FD101F00046400041EB010111F4801FF3
:1084600008BF013CF7D041EA060195F0000F18BFA4
:10847000704703F00046520043EB030313F4801FE0
:1084800008BF013DF7D043EA0603704794EA0C0F9A
:108490000CEA135518BF95EA0C0F0CD050EA4106B0
:1084A00018BF52EA4306D1D181EA030101F000412D
:1084B0004FF0000070BD50EA410606BF1046194655
:1084C00052EA430619D094EA0C0F02D150EA013661
:1084D00013D195EA0C0F05D152EA03361CBF1046A2
:1084E00019460AD181EA030101F0004141F0FE4141
:1084F00041F470014FF0000070BD41F0FE4141F4C5
:10850000780170BD81F0004102E000BF83F00043BC
:1085100030B54FEA41044FEA430594EA050F08BF1E
:1085200090EA020F1FBF54EA000C55EA020C7FEAE2
:10853000645C7FEA655C00F0E2804FEA5454D4EB5F
:108540005555B8BF6D420CDD2C4480EA020281EA29
:10855000030382EA000083EA010180EA020281EA61
:108560000303362D88BF30BD11F0004F4FEA0131B3
:108570004FF4801C4CEA113102D0404261EB4101C2
:1085800013F0004F4FEA03334CEA133302D0524248
:1085900063EB430394EA050F00F0A780A4F1010404
:1085A000D5F1200E0DDB02FA0EFC22FA05F280183E
:1085B00041F1000103FA0EF2801843FA05F3594124
:1085C0000EE0A5F120050EF1200E012A03FA0EFCA3
:1085D00028BF4CF0020C43FA05F3C01851EBE371CD
:1085E00001F0004507D54FF0000EDCF1000C7EEBEA
:1085F00000006EEB0101B1F5801F1BD3B1F5001F28
:108600000CD349085FEA30004FEA3C0C04F1010446
:108610004FEA445212F5800F80F09A80BCF1004F6F
:1086200008BF5FEA500C50F1000041EB045141EAF1
:10863000050130BD5FEA4C0C404141EB0101013CBA
:1086400028BFB1F5801FE9D291F0000F04BF0146A9
:108650000020B1FA81F308BF2033A3F10B03B3F17B
:1086600020020CDA0C3208DD02F1140CC2F10C020B
:1086700001FA0CF021FA02F10CE002F11402D8BF69
:10868000C2F1200C01FA02F120FA0CFCDCBF41EA35
:108690000C019040E41AA2BF01EB0451294330BD04
:1086A0006FEA04041F3C1CDA0C340EDC04F11404E1
:1086B000C4F1200220FA04F001FA02F340EA0300B8
:1086C00021FA04F345EA030130BDC4F10C04C4F1FE
:1086D000200220FA02F001FA04F340EA03002946DE
:1086E00030BD21FA04F0294630BD94F0000F83F428
:1086F000801306BF81F480110134013D4EE77FEA0B
:10870000645C18BF7FEA655C29D094EA050F08BF56
:1087100090EA020F05D054EA000C04BF1946104637
:1087200030BD91EA030F1EBF0021002030BD5FEA7B
:10873000545C05D14000494128BF41F0004130BDA3
:1087400014F580043CBF01F5801130BD01F00045F7
:1087500045F0FE4141F470014FF0000030BD7FEA6A
:10876000645C1ABF194610467FEA655C1CBF0B4665
:10877000024650EA013406BF52EA033591EA030F7C
:1087800041F4002130BD00BF90F0000F04BF002174
:10879000704730B54FF4806404F132044FF00005A7
:1087A0004FF0000150E700BF90F0000F04BF002120
:1087B000704730B54FF4806404F1320410F0004586
:1087C00048BF40424FF000013EE700BF42004FEA81
:1087D000E2014FEA31014FEA02701FBF12F07F43FE
:1087E00093F07F4F81F06051704732F07F4208BFB5
:1087F000704793F07F4F04BF41F40021704730B5BC
:108800004FF4607401F0004521F000411CE700BF07
:1088100050EA010208BF704730B54FF000050AE08A
:1088200050EA010208BF704730B511F0004502D58B
:10883000404261EB41014FF4806404F132045FEA8D
:10884000915C3FF4D8AE4FF003025FEADC0C18BF36
:1088500003325FEADC0C18BF033202EBDC02C2F128
:10886000200300FA03FC20FA02F001FA03FE40EABA
:108870000E0021FA02F11444BDE600BF4FEA4102A6
:10888000B2F1E04324BFB3F5001CDCF1FE5C0DD96E
:1088900001F0004C4FEAC0024CEA5070B2F1004FB8
:1088A00040EB830008BF20F00100704711F0804FBB
:1088B00021D113F13872BCBF01F00040704741F480
:1088C00080114FEA5252C2F11802C2F1200C10FA84
:1088D0000CF320FA02F018BF40F001004FEAC12368
:1088E0004FEAD32303FA0CFC40EA0C0023FA02F30C
:1088F0004FEA4303CCE77FEA625307D150EA0133E2
:108900001EBF4FF0FE4040F44000704701F00040B1
:1089100040F0FE4040F40000704700BF80F000408F
:1089200002E000BF81F0004142001FBF5FEA410347
:1089300092EA030F7FEA226C7FEA236C6AD04FEA47
:108940001262D2EB1363C1BFD2184140484041408C
:10895000B8BF5B42192B88BF704710F0004F40F43E
:10896000000020F07F4018BF404211F0004F41F45A
:10897000000121F07F4118BF494292EA030F3FD026
:10898000A2F1010241FA03FC10EB0C00C3F1200339
:1089900001FA03F100F0004302D5494260EB4000C8
:1089A000B0F5000F13D3B0F1807F06D340084FEA33
:1089B000310102F10102FE2A51D2B1F1004F40EB28
:1089C000C25008BF20F0010040EA03007047490090
:1089D00040EB0000013A28BFB0F5000FEDD2B0FA2D
:1089E00080FCACF1080CB2EB0C0200FA0CF0AABF50
:1089F00000EBC25052421843BCBFD04018437047EE
:108A000092F0000F81F4000106BF80F400000132F3
:108A1000013BB5E74FEA41037FEA226C18BF7FEACA
:108A2000236C21D092EA030F04D092F0000F08BF0C
:108A30000846704790EA010F1CBF0020704712F0F3
:108A40007F4F04D1400028BF40F00040704712F132
:108A500000723CBF00F50000704700F0004343F097
:108A6000FE4040F4000070477FEA226216BF0846CD
:108A70007FEA23630146420206BF5FEA412390EA90
:108A8000010F40F4800070474FF0000304E000BF86
:108A900010F0004348BF40425FEA000C08BF704737
:108AA00043F0964301464FF000001CE050EA0102FB
:108AB00008BF70474FF000030AE000BF50EA010210
:108AC00008BF704711F0004302D5404261EB4101FD
:108AD0005FEA010C02BF84460146002043F0B64322
:108AE00008BFA3F18053A3F50003BCFA8CF2083A47
:108AF000A3EBC25310DB01FA02FC634400FA02FC50
:108B0000C2F12002BCF1004F20FA02F243EB020056
:108B100008BF20F00100704702F1200201FA02FCB8
:108B2000C2F1200250EA4C0021FA02F243EB0200AB
:108B300008BF20EADC70704753B94AB9002908BF62
:108B400000281CBF4FF0FF314FF0FF3000F088B914
:108B5000ADF1080C6DE904CE00F006F8DDF804E094
:108B6000DDE9022304B070472DE9F047089D8E46E9
:108B700004468846002B4AD18A42174662D9B2FA87
:108B800082F64EB1C6F1200301FA06F820FA03F38B
:108B9000B74043EA0808B4404FEA174E1FFA87FC73
:108BA000B8FBFEF1230C0EFB118843EA084301FBDE
:108BB0000CF29A4209D9FB1801F1FF3080F0EA80EB
:108BC0009A4240F2E78002393B449A1AA3B2B2FBC0
:108BD000FEF00EFB102243EA024300FB0CFC9C4516
:108BE00009D9FB1800F1FF3280F0D6809C4540F295
:108BF000D3803B44023840EA0140A3EB0C03002140
:108C00001DB1F3400022C5E90032BDE8F0878B4278
:108C100005D90DB1C5E9000100210846F5E7B3FA11
:108C200083F1002946D1734502D3824200F20581C7
:108C3000841A6EEB030201209046002DE5D0C5E9B1
:108C40000048E2E7002A00F09080B2FA82F6002E97
:108C500040F0A4808A1A030C4FEA174E80B2BCB2CF
:108C60000121B2FBFEFC0EFB1C2243EA024304FB83
:108C70000CF29A4207D9FB180CF1FF3802D29A4243
:108C800000F2E080C4469B1AB3FBFEF20EFB1233E7
:108C900040EA034302FB04F49C4207D9FB1802F1AB
:108CA000FF3002D29C4200F2CA8002461B1B42EAFD
:108CB0000C40A5E7C1F120068B4022FA06F71F43BE
:108CC0000EFA01F420FA06F32EFA06FE4FEA1749CF
:108CD000234300FA01F81FFA87FCBEFBF9F01C0CD5
:108CE00009FB10EE44EA0E4400FB0CFEA64502FA16
:108CF00001F209D93C1900F1FF3A80F09C80A645A9
:108D000040F2998002383C44A4EB0E041FFA83FE23
:108D1000B4FBF9F309FB13444EEA044403FB0CFCD7
:108D2000A44508D93C1903F1FF3E80F08280A44598
:108D30007FD9023B3C4443EA0040A4EB0C04A0FB77
:108D400002EC64457346E14662D35FD05DB1B8EB97
:108D5000030264EB090404FA06F622FA01F31E4347
:108D6000CC40C5E9006400214FE7B1FBF2FC010CE7
:108D700041EA0E4180B240EA01423B4638463C4659
:108D8000B846BE462026B1FBF7F1A2EB080241EA45
:108D90000C4166E7014618E710462CE7C6F12002B1
:108DA0002EFA02F3B740B14020FA02F24FEA174E12
:108DB0000A43B3FBFEF8BCB20EFB1833110C41EAB8
:108DC000034108FB04F9B04089454FEA104380B2E3
:108DD0003ED9791808F1FF3C01D289451FD8A1EB93
:108DE0000901B1FBFEF909FB04F80EFB191192B25F
:108DF00042EA0142424529D2BA1809F1FF31C4D2F0
:108E00004245C2D2A9F102013A44BEE7F0459DD2E3
:108E1000BEEB02036CEB070C0138E14696E7A7EBCB
:108E200009094944A8F1020CB1FBFEF909FB04F859
:108E3000DBE773467FE7504666E70846FDE63B44BE
:108E4000023A33E7ACF1020C3B441CE749469CE78D
:108E5000A1EB0901C446B1FBFEF909FB04F8C4E724
:108E6000704700BF08B5024819211AF023FA00BF65
:108E70004C04030808B5024821211AF01BFA00BF70
:108E80005404030810B5EFF305834BB904460AF008
:108E9000D7FE012808D020460BF08AFC40B110BD57
:108EA000054866211AF006FA03486C211AF002FA06
:108EB000014873211AF0FEF95C04030810B5EFF3C2
:108EC000058353B904460AF0BBFE01280AD044B119
:108ED0002046BDE810400BF0C9BC044888211AF0B8
:108EE000E9F910BD014889211AF0E4F9700403087A
:108EF00030B52B4B02688BB000249A42CDE9044474
:108F0000CDE90644089401D00BB030BD03F5E83339
:108F100001941A6C234842F080621A641A6C02F0C1
:108F200080620192019A02941A6C42F000721A64F3
:108F30001A6C02F000720292029A03941A6B42F0C9
:108F400002021A631B6B9FED147B03F00203039371
:108F500004A909230322CDE907238DED047B039D9A
:108F600003F0FCFA224605213F2002F079FA3F2067
:108F700002F0B2FA22460521402002F071FA4020A8
:108F800002F0AAFA22460521412002F069FA4120A6
:108F900002F0A2FA0BB030BD600000000200000039
:108FA000006800400004024008B502680E4B9A4277
:108FB00000D008BD03F5E83360211A6C0B4822F09D
:108FC00080621A641A6C22F000721A6403F0A6FC24
:108FD0003F2002F08FFA402002F08CFABDE80840F2
:108FE000412002F087BA00BF006800400004024040
:108FF000054808B5054B036002F09CFA00B908BDAE
:10900000BDE8084001F03CB9A00400200030024057
:109010000B4B02689A4200D0704782B00022019246
:10902000D3F8302842F48052C3F8302803F50063A7
:109030001B6B03F480530193019B02B0704700BF88
:109040000030024010B582B000241C4B0094196B14
:1090500041F480011963186B00F4800000900098BF
:109060000194186B40F4001018631B6B03F4001399
:109070002246052101930B20019B02F0F1F90B2000
:1090800002F02AFA224605210C2002F0E9F90C2010
:1090900002F022FA224605213A2002F0E1F93A20B4
:1090A00002F01AFA22460521462002F0D9F946209C
:1090B00002B0BDE8104002F00FBA00BF0038024015
:1090C00010B51148114C124900230122C0E900419A
:1090D000C0E90232C0E90433C0E90633036202F09A
:1090E00091FF28B90848002103F00EFA40B910BDDD
:1090F00001F0C6F80448002103F006FA0028F6D073
:10910000BDE8104001F0BCB8A80400200060004099
:109110005016400030B504469FB000215C2207A8DD
:10912000CDE90211CDE90411069126F00DFB1A4B91
:1091300022689A4201D01FB030BD802307A8079350
:1091400005F030FB28BB154C154800250095236B16
:1091500043F004032363236B03F004030093C02252
:109160001223CDE9022301220323CDE9042302A91E
:1091700004230693009A03F0F1F90195236C43F060
:1091800080732364236C03F080730193019B1FB0F1
:1091900030BD01F075F8D6E70060004000380240AD
:1091A0000008024008B5044C20684FF0FF3108F079
:1091B00031F910F039FEF7E78405002030B50A4D8B
:1091C00083B0002428688DF807404FF0FF33002259
:1091D0000DF1070108F0E4F90028F3D19DF807002C
:1091E00010F024FEEEE700BF6C06002070B50A4EBA
:1091F00082B00024002530684FF0FF33002269461A
:10920000CDE9004508F0CCF90028F4D1DDE90001F2
:1092100011F09AF8EFE700BF1006002008B5044CE3
:1092200020684FF0FF3108F0F5F810F04FFEF7E737
:109230007C05002008B510F039FFFCE7274B10B57E
:10924000274C186808F018F9264A236803FB02F235
:10925000B2F1333F18D9234A234903FB02F2B1EBA1
:10926000F20F35D221482249DA1C00FB02F2B1EBA1
:10927000B20F1FD21F4A204903FB02F2B1EB321F8B
:1092800010D20133236010BD1C4B186808F0F4F8AD
:109290001B4B186808F0F0F81A4B186808F0ECF847
:1092A0002368D8E7184B186808F0E6F823680133FC
:1092B000236010BD154B186808F0DEF8144B1868D1
:1092C00008F0DAF8134B186808F0D6F82368D1E7ED
:1092D000114B186808F0D0F82368C3E77C0500201C
:1092E000FC040020CDCCCCCC66666606295C8FC21F
:1092F000285C8F02917EFB3AB88D06008005002025
:109300007805002074050020540500206405002025
:1093100060050020580500205C0500202DE9F84379
:109320000025304FDFF8C4802F4CDFF8C4902E4664
:109330001BE0D8F80000052108F06CF8F8B90DF032
:109340001DF9012012F0FCFF012012F019F9236829
:10935000D9072ED55A0716D18EB3052D17D0013552
:10936000EDB2012623680133236038684FF0FF31E6
:1093700008F050F800200DF08DF80028D9D000201A
:109380000DF094FCDDE7002EEDD0052DE7D1002097
:109390000DF0CCFBD0B9D8F80000294608F03AF817
:1093A000A0B90FF005F9012014F094FC0625002661
:1093B000D8E7D9F8000008F05FF82368CAE730461C
:1093C0000DF002FC30B901252E46CBE700200DF050
:1093D00045FFE8E730460DF041FF012014F07AFC2C
:1093E0002368C0E7780500202005002070050020D4
:1093F0004C0500202DE9F8430025314FDFF8C880E7
:10940000304CDFF8C8902E461CE0D8F8000005214B
:1094100008F000F800BB01200DF0B0F8022012F0B7
:109420008FFF022012F0ACF82368D9072FD55A0716
:1094300016D196B3052D17D00135EDB2012623685C
:109440000133236038684FF0FF3107F0E3FF01205C
:109450000DF020F80028D8D001200DF027FCDDE722
:10946000002EEDD0052DE7D101200DF05FFBD8B91E
:10947000D8F80000294607F0CDFFA8B901200FF069
:1094800097F8022014F026FC06250026D7E7D9F825
:10949000000007F0F1FF2368C9E701200DF094FBFD
:1094A00030B901252E46CAE701200DF0D7FEE8E7C6
:1094B00001200DF0D3FE022014F00CFC2368BFE75E
:1094C000740500201C0500206C05002048050020C4
:1094D00008B5044C20684FF0FF3107F09BFF10F0F7
:1094E000E7FDF7E76805002008B5054C20684FF058
:1094F000FF3107F08FFF002010F0FEFDF6E700BF00
:109500006405002008B5054C20684FF0FF3107F0D6
:1095100081FF012010F0F0FDF6E700BF600500209C
:1095200008B5044C20684FF0FF3107F073FF10F0CE
:10953000F9FDF7E75C05002008B5044C20684FF002
:10954000FF3107F067FF10F0FBFDF7E7580500203B
:1095500008B5034C10F006FE206807F06DFDF9E732
:109560002C7200202DE9F04F2DED028BDFF8E891F1
:1095700083B0724B4FF0FF31186807F04BFF0AF0D1
:109580004FFC05460AF0A2F86D4B00901C68041BC6
:1095900019D06C4BDFED6C6A1B689FED6C7AEB1A8F
:1095A00007EE903AF8EE677A694B67EEA67A06EE18
:1095B000904AB8EE666AC7EE866A66EE877A37EE3C
:1095C000677A83ED007A0AF087F82028014600F2D6
:1095D000AD8000225F480AF085F84FF4906207469C
:1095E00000215D4826F0B0F8002F38D0002C43D180
:1095F000594EDFF88C810195DFF858B1DFF870A182
:109600004546B8463746264619E0DAF80020824239
:109610001FD007F0E7FC06EBC60409EB8404DBF877
:1096200004102062384626F065F9226A042A1CD903
:109630000136B0450BF1240B07F124070ED0DBF8FF
:1096400000002A688242E0D1444BDBF818201A60FF
:10965000DFE7434BDBF818201A60DAE7019D384B4F
:10966000009A1A60374B1D6083E73E4B3E4A3F48E5
:1096700040F2744100F0F6FDDFED338A9FED338A4E
:10968000DFF8D0B0DFF8F880394E4FF0000A17E06D
:109690003368984232D007F0A5FC0AEBCA0309EB05
:1096A0008303DBF804101862184626F023F9036AD6
:1096B000042BDAD90AF1010A57450BF1240BCED05D
:1096C000DBF80000D8F800309842E1D1234ADBF8FB
:1096D0001830116813605B1A07EE903A07EE104AD3
:1096E000F8EE677AF8EE476A67EEA87A214B87EEC4
:1096F000A67A67EE087AC3ED007ACCE71849DBF862
:1097000018300A680B609B1A07EE903A07EE104A71
:10971000F8EE677AF8EE476A67EEA87A164B87EE9E
:10972000A67A67EE087AC3ED007AB4E7134B0E4AC7
:109730000E4840F2534100F095FD00BF5405002053
:1097400018050020140500206F12833A0000C8425B
:109750001005002030C90020B0C400200C050020F6
:1097600004050020C404030844710308AC04030882
:10977000ECC100200805002000050020800403083B
:109780002CB90020704700BF08B510F041FB08BDA0
:1097900008B5034A034B04484FF4F37100F062FD2F
:1097A0006471030810050308AC04030810B59C4A53
:1097B0000021012007F0CEFD9A4B9B4A0446002170
:1097C00001201C6007F0C6FD984B994A0446002111
:1097D00001201C6007F0BEFD964B974A044600210D
:1097E00001201C6007F0B6FD944B954A0446002109
:1097F00001201C6007F0AEFD924B934A0446002105
:1098000001201C6007F0A6FD904B914A0446002100
:1098100001201C6007F09EFD8E4B8F4A04460021FC
:1098200001201C6007F096FD8C4B8D4A04460021F8
:1098300001201C6007F08EFD8A4B8B4A04460021F4
:1098400001201C6007F086FD884B894A04460021F0
:1098500001201C6007F07EFD864B874A04460021EC
:1098600001201C6007F076FD844B854A04460021E8
:1098700001201C6007F06EFD824B834A04460021E4
:1098800001201C6007F066FD804B814A04460021E0
:1098900001201C6007F05EFD7E4B7F4A04460021DC
:1098A00001201C6007F056FD7C4C7D4B206000229F
:1098B00001217C4807F0DEFB7B4B0121186007F09B
:1098C00017FC7A4A0121082007F000FE784B794AFC
:1098D0000446082101201C6007F0F8FD764B774A0A
:1098E0000446002176481C6007F01EFB754B764A43
:1098F0000446002175481C6007F016FB744B754A3E
:109900000446002174481C6007F00EFB734B744A38
:109910000446002173481C6007F006FB724B734A33
:109920000446002172481C6007F0FEFA714B724A2F
:109930000446002171481C6007F0F6FA704B714A2A
:109940000446002170481C6007F0EEFA6F4B704A25
:10995000044600216F481C6007F0E6FA6E4B6F4A20
:10996000044600216E481C6007F0DEFA6D4B6E4A1B
:10997000044600216D481C6007F0D6FA6C4B6D4A16
:10998000044600216C481C6007F0CEFA6B4B6C4A11
:10999000044600216B481C6007F0C6FA6A4B6B4A0C
:1099A000044600216A481C6007F0BEFA694B6A4A07
:1099B0000446002169481C6007F0B6FA684B694A02
:1099C0000446002168481C6007F0AEFA674B684AFD
:1099D0000446002167481C6007F0A6FA664B674AF8
:1099E0000446002166481C6007F09EFA654B664AF3
:1099F0000446002165481C6007F096FA644B654AEE
:109A00000446002164481C6007F08EFA634B02464E
:109A100063481A6007F084FB624B186010BD00BFFA
:109A200084720308840500207472030880050020F6
:109A3000647203087C050020547203087805002036
:109A40004472030874050020347203087005002076
:109A5000247203086C0500201472030868050020B6
:109A60000472030864050020F471030860050020F7
:109A7000E47103085C050020D47103085805002038
:109A8000C471030854050020B47103085005002078
:109A9000A47103084C0500209471030848050020B8
:109AA000947203083D920008B4050020BC720308BC
:109AB0006C060020A4720308100600205C750308E1
:109AC000A5910008ACC400203875030879A30108EB
:109AD000ECC100201475030841A401082CB9002032
:109AE000F0740308BD9100086CA80020CC74030832
:109AF000ED910008ACA30020A87403081D92000893
:109B0000ECA0002084740308359200082C9C0020EF
:109B1000607403081D9300086C9700203C740308D0
:109B2000F5930008AC92002018740308D194000843
:109B3000EC8D0020F4730308E99400082C850020C4
:109B4000D0730308059500086C800020AC730308EF
:109B500021950008AC7B0020887303083995000824
:109B6000EC76002064730308519500082C720020E5
:109B700040730308659500086C6D00201C73030892
:109B8000F1A40108AC680020F87203085DA5010883
:109B9000EC470020D4720308CDA501082C27002033
:109BA00084710308440500202DE9F04100248CB0A5
:109BB000CDE90644CDE90844634B01940A941A6B3D
:109BC000624E634FDFF8908142F004021A631A6B11
:109BD00002F004020192019A02941A6B42F0800290
:109BE0001A631A6B02F080020292029A03941A6BB3
:109BF00042F001021A631A6B02F001020392039A07
:109C000004941A6B42F002021A631A6B02F0020209
:109C10000492049A05941A6B42F008021A631B6BB3
:109C200003F008030593224630464FF40041059B9C
:109C300002F088FF3046012240F2311102F082FF2B
:109C40002246384641F2020102F07CFF38460122EA
:109C500048F2100102F076FF4046012241F2010174
:109C600002F070FF2246404644F2920102F06AFF81
:109C70004FF4804206A9304600230125CDE9062392
:109C8000089402F06BFC48F2201306A93046CDE997
:109C90000635CDE9084402F061FC06A93046CDE95D
:109CA0000655CDE9084502F059FC012206A93846BF
:109CB0000023CDE90623089402F050FC41F2120380
:109CC00006A938460693CDE90754099402F046FCEC
:109CD0001023304606A902260693CDE907540996BB
:109CE00002F03CFC06A94046CDE9065509960894C9
:109CF00002F034FC404645F2920306A90693CDE9F2
:109D00000754099402F02AFC4FF40043384606A990
:109D10000693CDE90754099502F020FC4FF488130F
:109D2000042206A90B480894CDE9062302F016FC8C
:109D300022460521082001F093FB082001F0CCFB0E
:109D40000CB0BDE8F08100BF0038024000080240BE
:109D500000000240000C02400004024010B50B4815
:109D60000B4C0C4900234FF48042C0E90041C0E98C
:109D70000233C0E90423C0E90633036202F088FF1E
:109D800000B910BDBDE8104000F07ABA20CF002025
:109D900000540040801A060010B50B480B4C0C49CB
:109DA00000234FF48042C0E90041C0E90233C0E91A
:109DB0000423C0E90633036202F06AFF00B910BD54
:109DC000BDE8104000F05CBAC8CE0020005800404A
:109DD000801A060010B50B480B4C0C4900234FF4B9
:109DE0008042C0E90041C0E90233C0E90423C0E970
:109DF0000633036202F04CFF00B910BDBDE810400D
:109E000000F03EBA70CE0020005C0040801A0600D0
:109E10002DE9F04103687B4A8EB000249342CDE9DE
:109E20000844CDE90A4405460C9409D0764A934289
:109E30004CD0764A934200F084800EB0BDE8F081A9
:109E4000734F00943B6B7348734E43F002033B63C4
:109E50003B6B03F0020300934FF44072009B12230C
:109E6000CDE9082308A904234FF0030CCDE90BC367
:109E700002F074FB01943B6CB46043F400133B6448
:109E80003B6C664A326003F4001301934FF000729A
:109E90004FF480633046C6E90343C6E90544C6E98A
:109EA000074401997260746201F072FB002840F06F
:109EB000A380AE63002205211F20B56301F0D0FA14
:109EC0001F2001F009FB0EB0BDE8F081504D029457
:109ED0002B6B504843F002032B632B6B03F0020300
:109EE0000293029B03942B6B43F004032B632B6BB5
:109EF00003F0040303934FF480620327042608A9A8
:109F00001223CDE90823CDE90B76039B02F026FB53
:109F10000C96122342480B9708A94FF48056CDE9BE
:109F200008630A9402F01AFB04942B6C43F4800338
:109F30002B642B6C03F480030493049B0EB0BDE8E8
:109F4000F081334F05943B6B354843F004033B638A
:109F50003B6B03F004030593059B06943B6B43F0B6
:109F600001033B633B6B03F0010306934FF4007264
:109F70000426069B4FF00308122308A9CDE9082305
:109F8000CDE90B8602F0EAFA4FF4807212232548DD
:109F90000C9608A9CDE90823CDF82C800A9402F08C
:109FA000DDFA07943B6C204E204AB46043F4000372
:109FB0003B643B6C326003F4000307934FF0007284
:109FC0004FF480633046C6E90343C6E90544C6E959
:109FD000074407997260746201F0DAFA78B9AE63E7
:109FE000002205214820B56301F03AFA482001F02B
:109FF00073FA0EB0BDE8F08100F042F959E700F0C5
:10A000003FF9ECE70054004000580040005C00407D
:10A01000003802400004024010CE002010600240D0
:10A020000008024000000240B0CD0020286002403D
:10A03000274A0368934210B5044606D0254A934246
:10A040001BD0254A93422AD010BD02F5F232234894
:10A05000136C23F4001313644FF4807102F05EFC60
:10A060001E484FF4007102F059FCA06B01F024FB74
:10A07000BDE810401F2001F03DBA02F5F03217484C
:10A08000136C23F480034FF48061136402F046FCE8
:10A09000BDE8104012484FF4805102F03FBC02F579
:10A0A000EE320F48136C23F4000313644FF4007175
:10A0B00002F034FC0B484FF4807102F02FFCA06BCF
:10A0C00001F0FAFABDE81040482001F013BA00BFD1
:10A0D0000054004000580040005C00400004024072
:10A0E000000802400000024030B5002397B0CDE9DF
:10A0F0000A33CDE90C33CDE90333CDE905332649E5
:10A1000001930793086C254A40F080500864096C5D
:10A1100001F08051019101990293136843F4404387
:10A120001360136803F44043022402934FF4800148
:10A130009FED177BCDE90E41029814940220022175
:10A14000CDE912010822B42308A88DED087B1092F6
:10A15000119304F07FFD08B172B6FEE704F006FA31
:10A16000034608B172B6FEE70F22CDE903244FF48F
:10A17000A0554FF4805203A80521CDE9053507927B
:10A1800004F030FA08B172B6FEE717B030BD00BF78
:10A190000100000000000100003802400070004093
:10A1A00008B51D4B01221A6000F02EFDFFF79CFF41
:10A1B000FFF7FAFCFEF746FF00F086FA00F028FBF6
:10A1C00000F062FB00F0A2F8FEF712FF00F07CF84E
:10A1D00000F058FCFEF774FF00F054F8FFF7DCFDC8
:10A1E000FFF7BCFDFFF7F6FD00F0AAFA00F076FBE2
:10A1F0000A4805F04FFB0A4805F04CFB09490A489C
:10A2000017F068F917F08EF906F062FEFFF7CEFA44
:10A2100006F070FEFEE700BF08000020E8D1002035
:10A2200058D1002030D20020F0D20020034B026829
:10A230009A4200D07047084617F014B90010014048
:10A24000074B02689A4200D0704710B5044617F0D9
:10A250008BF900B110BDA08CBDE8104018F058B8C3
:10A260000010014008B5104619F024F8034B0268AD
:10A270009A4200D0704700F0E1BC00BF00100040DF
:10A2800072B6FEE70E480F494FF4827210B50023F4
:10A29000C0E900124FF4007410210A22C0E9023311
:10A2A000C0E90433C0E90641C0E90833C0E90A3215
:10A2B00004F084FF00B910BDBDE81040FFF7E0BF17
:10A2C00028D00020003001400E480F494FF4827220
:10A2D00010B50023C0E900124FF4007410210A22C7
:10A2E000C0E90233C0E90433C0E90641C0E90833DC
:10A2F000C0E90A3204F062FF00B910BDBDE81040A9
:10A30000FFF7BEBFD0CF0020003800400E480F49F5
:10A310004FF4827210B50023C0E900124FF40074AC
:10A3200010210A22C0E90233C0E90433C0E9064122
:10A33000C0E90833C0E90A3204F040FF00B910BD9B
:10A34000BDE81040FFF79CBF78CF0020003C0040E4
:10A3500070B503684E4A8EB000249342CDE908449C
:10A36000CDE90A440C9407D04A4A934227D04A4A7E
:10A3700093425DD00EB070BD484B01945A6C484872
:10A3800042F480525A645A6C02F480520192019A4B
:10A3900002941A6B42F001021A631B6B03F0010373
:10A3A00002930322052308A9E0240225CDE90845EC
:10A3B000CDE90B23029C02F0D1F80EB070BD374BF3
:10A3C00003941A6C374842F480421A641A6C02F4FF
:10A3D00080420392039A04941A6B42F004021A63B7
:10A3E0001A6B02F004020492049A05941A6B42F06C
:10A3F00002021A631B6B03F0020305930C2203266F
:10A40000052508A90223CDE90823CDE90B65059BA5
:10A4100002F0A4F84FF40053089323480C9502234C
:10A4200008A9CDE90A46099302F098F80EB070BD6C
:10A430001A4B06941A6C1B4842F400421A641A6CB8
:10A4400002F400420692069A07941A6B42F0040244
:10A450001A631B6B03F00403079302220223CDE966
:10A4600008230325052308A9CDE90B53079A02F019
:10A4700075F84FF440620223CDE90823094806230A
:10A4800008A9CDE90A450C9302F068F80EB070BD3A
:10A490000030014000380040003C004000380240DD
:10A4A00000000240000802400004024082B00E4B4F
:10A4B00000220092596C41F480415964586C00F4B8
:10A4C0008040009000980192186C40F08050186411
:10A4D0001B6C03F080530193019B0F216FF001006F
:10A4E00002B000F0BDBF00BF0038024070B588B0B8
:10A4F000234B002202921A6C42F010021A641B6C69
:10A5000003F010030293054601A903A8029B04F07F
:10A5100027F9069BD3B904F003F90346194A1A4CEC
:10A520001A49A2FB03239B0C013B0022C4E9001340
:10A53000204640F2E7332261A260A261E36005F0A9
:10A5400011F9064630B1304608B070BD04F0E8F8A5
:10A550004300E3E7204605F0D3F906460028F2D190
:10A56000362000F0B9FF0F2D01D90126EBE7324666
:10A570002946362000F074FF054B1D60E3E700BF5D
:10A580000038024083DE1B4380D0002000100040D2
:10A5900008000020FEE700BFFEE700BFFEE700BFA7
:10A5A000FEE700BFFEE700BF704700BF08B518F028
:10A5B000F3FDBDE80840042002F0CABA08B504481B
:10A5C00001F050F9034B1868BDE8084006F054BF8D
:10A5D00010CE00207005002008B5044801F042F9B3
:10A5E000034B1868BDE8084006F046BFB0CD002018
:10A5F0006C050020014B186806F03EBF680500207E
:10A60000014805F03BBD00BFA0D10020014803F088
:10A61000CDBA00BF20CF0020014806F011BA00BF1C
:10A62000F0D20020014805F029BD00BF80D00020F5
:10A6300008B518F037FABDE80840014805F01EBD1E
:10A6400010D10020014801F00DB900BF30D2002028
:10A65000014800F0A3BD00BF3C040020014800F009
:10A660009DBD00BF3C040020014800F097BD00BF25
:10A670003C040020014801F0F5B800BF90D2002052
:10A68000014803F093BA00BF70CE0020012070474C
:10A6900008B525F003F9162303604FF0FF3008BD1D
:10A6A00008B525F0FBF816230360FEE7044B0549C7
:10A6B000D3F8882042F47002C3F88820996070476C
:10A6C00000ED00E00080000800B51B484FF080421C
:10A6D00087B002605922002342604FF0FF32CDE97B
:10A6E0000233CDE90433CDE90033C0E9023203611E
:10A6F000836105F037F898B94FF480530E48029300
:10A7000002A905F085FB98B9202200230A48694672
:10A71000CDE9002305F04EFD28B907B05DF804FB34
:10A72000FFF7AEFDE8E7FFF7ABFD07B05DF804FB10
:10A73000FFF7A6FDE8E700BFE8D100200000000019
:10A7400000B53148314A8FB00023CDE90233CDE95D
:10A750000433CDE90033CDE90633CDE90833CDE943
:10A760000A330C9383600361836140F23F63C0E965
:10A7700000234FF6FF73C36004F0F4FF48BB4FF4AF
:10A7800080532148029302A905F042FB90BB1E486A
:10A7900005F0F2F858BB002200231B486946CDE9BA
:10A7A000002305F007FDF8B99FED157B0022164840
:10A7B000089206A98DED067B0A9205F05BFA80B936
:10A7C0001148042206A905F055FA28B90FB05DF822
:10A7D00004FBFFF755FDD2E7FFF752FD0FB05DF820
:10A7E00004FBFFF74DFDEBE7FFF74AFDDCE7FFF762
:10A7F00047FDD0E7FFF744FDC9E700BFAFF3008096
:10A800000000000000000000A0D100200004004073
:10A8100000B51B481B4A89B0002302604FF0FF328D
:10A82000CDE90233CDE90433CDE90033C0E901338A
:10A83000C0E903230693836104F094FFA0B90722C3
:10A8400000230F4802A9CDE9022305F08BFB98B93C
:10A85000002200230A486946CDE9002305F0AAFC3E
:10A8600028B909B05DF804FBFFF70AFDE7E7FFF739
:10A8700007FD09B05DF804FBFFF702FDE8E700BF44
:10A8800058D10020000C004000B51248124943F690
:10A89000652283B00023C0E900120122CDE9003314
:10A8A000C0E90232836104F05DFF58B90022002341
:10A8B00008486946CDE9002305F07CFC28B903B0BF
:10A8C0005DF804FBFFF7DCFCF0E7FFF7D9FC03B011
:10A8D0005DF804FB10D100200014004009480A492B
:10A8E00008B54FF6FF720023C0E90013C0E9023239
:10A8F0000361836104F036FF00B908BDBDE808407C
:10A90000FFF7BEBCC8D000200044014000B503687A
:10A91000B3F1804F87B00ED0334A93422AD0334AE6
:10A92000934218D0324A93423AD0324A934249D0A5
:10A9300007B05DF804FB03F50E33002201921A6C98
:10A9400042F001021A641B6C03F001030193019BA6
:10A9500007B05DF804FB284B002203921A6C42F00A
:10A9600008021A641B6C03F008030393039B07B0EF
:10A970005DF804FB204B00220292196C41F00201A9
:10A9800019641B6C03F0020302931D200521029B36
:10A9900000F066FD1D2007B05DF804EB00F09CBDE3
:10A9A000154B00220492196C41F0200119641B6CB4
:10A9B00003F02003049337200221049B00F050FD94
:10A9C0003720E8E70C4B00220592596C41F4003126
:10A9D00059645B6C03F40033059319200521059B32
:10A9E00000F03EFD1920D6E700040040000C0040B6
:10A9F0000014004000440140003802400368B3F1F5
:10AA0000804F0CD01A4A934216D01A4A93420CD067
:10AA1000194A934219D0194A93421FD07047184AD5
:10AA2000136C23F001031364704702F50B32136CAF
:10AA300023F008031364704702F50D321D20136CD8
:10AA400023F00203136400F055BD02F509323720EC
:10AA5000136C23F02003136400F04CBD02F5744224
:10AA60001920536C23F40033536400F043BD00BF3E
:10AA700000040040000C004000140040004401406D
:10AA80000038024010B50B480B4C00234FF4E13165
:10AA90000C22C0E90041C0E90233C0E90432C0E938
:10AAA000063305F0CBFB00B910BDBDE81040FFF741
:10AAB000E7BB00BFF0D200200010014070B5374B5B
:10AAC000026888B000249A42CDE90244CDE90444EA
:10AAD000069401D008B070BD03F5943300945A6C0D
:10AAE0002F4E42F010025A645A6C02F0100200928B
:10AAF000009A01941A6B42F001021A631B6B03F077
:10AB0000010301934FF4C0620223CDE902230546FD
:10AB1000032207230198234802A9CDE9052301F068
:10AB20001DFD214A74624FF00063C6E900233046E0
:10AB300040224FF48063C6E90224C6E90544C6E911
:10AB40000744336100F024FD10BB184C184A226002
:10AB50004FF000620023AE63626020464FF48062D3
:10AB6000C4E90233C4E90423C4E90633C4E9083361
:10AB7000B56300F00DFD70B900220521EC632520BE
:10AB8000A56300F06DFC252000F0A6FC08B070BDA8
:10AB9000FFF776FBD9E7FFF773FBEDE70010014005
:10ABA00090D2002000000240B864024030D2002061
:10ABB00040640240DFF834D00D480E490E4A0023AD
:10ABC00002E0D458C4500433C4188C42F9D30B4A61
:10ABD0000B4C002301E013600432A242FBD3FFF7C9
:10ABE00065FD24F061FEFFF7DBFA704700000220EC
:10ABF000000000201C040020C88603082004002058
:10AC0000B8780120FEE7000008B50B4B1A6842F443
:10AC100000721A601A6842F480621A601A6842F47C
:10AC200080721A60032000F009FC0F20FFF75EFC21
:10AC3000FFF73CFC002008BD003C0240034A044BE7
:10AC400011681B780B441360704700BF38D3002095
:10AC500004000020014B1868704700BF38D3002063
:10AC600038B50446FFF7F6FF631C054602D0044BD7
:10AC70001B781C44FFF7EEFF401BA042FAD338BDFF
:10AC800004000020024B1868C0F30B00704700BF9F
:10AC9000002004E0014BD3F8100A70470070FF1F3A
:10ACA000014BD3F8140A70470070FF1F014BD3F813
:10ACB000180A70470070FF1F704700BF704700BF41
:10ACC000704700BF704700BF704700BF704700BFAC
:10ACD000704700BF704700BF002800F09B8038B568
:10ACE00090F820300446002B72D02268136843F09D
:10ACF00001031360FFF7AEFF054604E0FFF7AAFF6C
:10AD0000431B0A2B5BD823685A68D107F6D51A680B
:10AD100022F002021A60FFF79DFF054604E0FFF7EC
:10AD200099FF401B0A284AD823685A689207F6D42C
:10AD3000227E012A1A680CBF42F0800222F08002B3
:10AD40001A60627E012A1A680CBF42F0400222F0AB
:10AD500040021A60A27E012A1A680CBF42F020024B
:10AD600022F020021A60E27E012A1A680CBF22F04B
:10AD7000100242F010021A60227F012A1A680CBFEA
:10AD800042F0080222F008021A60627F012A1A6863
:10AD90000CBF42F0040222F004021A60D4E902203F
:10ADA000216902430A4360696168024301390A4329
:10ADB00000200121DA61606284F8201038BD636AE6
:10ADC000052243F40033636284F82020012038BD5B
:10ADD0001149124AC36D1248C4E91012114A1249AE
:10ADE000C4E91202114A1248C4E90A12114A12496E
:10ADF000C4E90C02114A1248C4E90E121149124A60
:10AE0000A265C4E9140113B1204698476DE70F4BC2
:10AE1000E365F9E70120704765F90108C9AC00084E
:10AE2000F5FA0108CDAC000861F401080DF601083F
:10AE3000B9F70108BDAC0008C1AC0008C5AC0008FA
:10AE4000D1AC0008D5AC0008B9AC0008F18E000800
:10AE500090F82020013A012A06D9426A034642F4BA
:10AE6000802201205A627047404BD3F80022012013
:10AE7000024330B4C3F80022D3F8002222F47C52FB
:10AE8000C3F80022D3F800224C6A42EA0422C3F835
:10AE900000224A6902F01F04A040D3F81C4224EAB1
:10AEA0000004C3F81C42CD69C443002D45D1D3F83A
:10AEB0000C522540C3F80C52D200CD688B8802F1A9
:10AEC000804202F5C84243EA0543C2F840328D6829
:10AED0000B8843EA0543C2F844328B69234A33BBEB
:10AEE000D2F804322340C2F804320B69C3B91F4BB5
:10AEF000D3F814221440C3F814420B6A012B05D175
:10AF00001A4AD2F81C320343C2F81C32174AD2F84C
:10AF1000003223F00103002030BCC2F80032704739
:10AF2000124AD2F814320343C2F81432E5E7D2F8D9
:10AF300004320343C2F80432D7E7012DCDD1D3F850
:10AF40000C520543C3F80C52D2000D688B8802F1F5
:10AF5000804202F5C84243EA0543C2F840328D6898
:10AF60008B8943EA0543C2F84432B6E700640040E7
:10AF700038B590F82030012B044605D0436A43F4DD
:10AF800000234362012038BD0268022380F820308C
:10AF9000136823F001031360FFF75CFE054604E02D
:10AFA000FFF758FE431B0A2B07D823685B6813F092
:10AFB0000103F5D16362184638BD636A052243F484
:10AFC0000033636284F82020DCE700BF30B490F8DF
:10AFD00020C005680CF1FF3CBCF1010FAC6839D80A
:10AFE00014F0E05F06D1436A43F40013436201208A
:10AFF00030BC7047C4F301640120A04018608B6826
:10B000006BB3C8680343486843EAC00304F11800FF
:10B0100000012B5005EB041C0B69CCF884310B7D2F
:10B02000012B4FEA041105D1DCF8843143F480731D
:10B03000CCF884316B185168C3F88C111268C3F8CE
:10B040008821DCF8803143F00103002030BCCCF8CB
:10B0500080317047436A43F480234362C7E7CB687B
:10B06000086843EA405004F118031B01E850D1E797
:10B0700090F820C00CF1FF3CBCF1010F6BD870B50B
:10B08000046841B9E568AD0708D1436A43F4001389
:10B090004362012070BD2569AE07F6D004EB011CA8
:10B0A0004FEA011EDCF8B05105F004059560002D53
:10B0B00057D0DCF8B051ED085560DCF8B05105F020
:10B0C0000205D560DCF8B4512D0758BFDCF8B45147
:10B0D000DCF8B46154BF05F00F0508251561744410
:10B0E000DCF8B451C6F3072696612D0CD4F8B8618C
:10B0F00055611E7002687244D2F8B821120A5A7063
:10B1000002687244D2F8B821120C9A700268724434
:10B11000D2F8B821120EDA7002687244D2F8BC215B
:10B120001A7102687244D2F8BC21120A5A7102687C
:10B130007244D2F8BC21120C9A7102687244D2F89F
:10B14000BC21120EDA71026881B9D36843F0200382
:10B15000D360002070BD436A43F480234362012022
:10B160007047DCF8B0516D0D1560A6E7136943F028
:10B1700020031361EDE700BF90F82020013A012A77
:10B18000034605D9426A42F4802201205A62704780
:10B19000026853690B430020536170472DE9F04F5B
:10B1A00003685D69D3F804809F68D3F80CA0D3F8D6
:10B1B0001090D3F818B015F0010681B004461FD0E6
:10B1C000FA0700F1AF804FF400514FF480400026A1
:10B1D000FA0509D523684FF480729A60BB0540F1E7
:10B1E000D580E36A20469847F90309D523684FF4D0
:10B1F00080329A60BA0340F1C480236B204698479E
:10B20000290703D51AF0100F40F086806A0702D58F
:10B210001AF0080F79D1AB0703D52368DB689F07C5
:10B220006FD1680602D519F0100F64D1A90602D5B6
:10B2300019F0080F58D1EA0603D523681B699B074C
:10B240004ED1AF0302D518F0100F42D1E80302D55A
:10B2500018F0080F36D129042FD518F0040F2368F1
:10B2600029D0EA0544BF0BF001021643AF0517D5FC
:10B270001BF0020F14D0680546F0020605F40062C8
:10B2800064D51BF0040F5FD192B904225A60636A3F
:10B29000A26D33432046636201B0BDE8F04F104712
:10B2A000690505F4006202D51BF0040F4CD112B100
:10B2B0001BF0700B4FD104225A60002EE7D101B071
:10B2C000BDE8F08F236808225A602046636D9847D6
:10B2D000C1E7236810225A602046236D9847B5E7DE
:10B2E000A36C20469847ACE7236808221A612046E1
:10B2F000E36C98479FE72368102246F480661A6142
:10B3000094E7236C204698478BE723680822DA608D
:10B310002046636C98477EE72368102246F4007647
:10B32000DA6073E701229A60BB070AD47E0733D440
:10B3300039073FD54FF440514FF4A0404FF48056A9
:10B3400046E7836A98473EE746F00406002A9CD009
:10B350001BF0700B99D0BBF1400F45D035D8BBF135
:10B36000200F53D0BBF1300F47D0BBF1100F56D197
:10B370009A69042122F070029A6146F00806596029
:10B3800085E77B030FD546F4004639E77A050FD4ED
:10B390003B0516D5064627E74FF420514FF4904061
:10B3A0004FF4006614E7380307D546F4803627E7E4
:10B3B0000E4619E7436B984705E7E36B204698472D
:10B3C0001EE7A36B204698470EE7BBF1500F2BD02A
:10B3D000BBF1600F23D19A69042122F070029A61B7
:10B3E00046F48076596052E79A69042122F070028F
:10B3F0009A6146F04006596049E79A69042122F0B3
:10B4000070029A6146F02006596040E79A6904216B
:10B4100022F070029A6146F01006596037E79A6987
:10B4200022F070029A6146E79A69042122F07002C4
:10B430009A6146F08006596029E700BF0749CA684B
:10B4400003024FF6FF0003F4E0630240134343F0AE
:10B45000BF6343F40033CB60704700BF00ED00E0F2
:10B460001B4BDB68C3F3022300B5C3F1070EBEF12B
:10B47000040F03F1040C28BF4FF0040EBCF1060FBB
:10B480001CD9A3F1030C4FF0FF3303FA0CF322EAAB
:10B4900003024FF0FF3303FA0EF321EA030303FA2A
:10B4A0000CF313431B010028DBB20ADB00F1604000
:10B4B00000F5614080F800335DF804FB00229446FB
:10B4C000E7E7044A00F00F00024413765DF804FB3E
:10B4D00000ED00E0FCEC00E0002807DB044A410935
:10B4E000012300F01F00834042F82130704700BF65
:10B4F00000E100E000280CDB4309064900F01F00D2
:10B5000020330122824041F82320BFF34F8FBFF345
:10B510006F8F704700E100E0002808DB4309044911
:10B5200000F01F0001224033824041F82320704781
:10B5300000E100E080B110B54379044603F0FF025A
:10B540001BB101236371002010BD0271FDF760FD86
:10B5500001236371002010BD0120704710B4022345
:10B5600004684371A36843F001038446A3603AB1C1
:10B57000043901EB820251F8043F23609142FAD171
:10B58000012320688CF805305DF8044B704700BF3C
:10B5900038B50446FFF75EFB002C6DD0236800220F
:10B5A000022184F8351084F834201A6822F0010250
:10B5B00005461A6005E0FFF74DFB431B052B37D806
:10B5C00023681A68D107F6D4D4E90120E168024360
:10B5D0000A43D4E90451A0692A430A43E1691D687A
:10B5E00002430A4331492940256A2A430A43616AD2
:10B5F000042924D01A605A6922F007021143D8B2F4
:10B600002B4A59611038A2FB0052120929496FF3E5
:10B610000903895CE1655F2888BF04333F228A40C3
:10B62000A36500209A600123606584F8353038BD39
:10B6300003232022626584F83530184638BDD4E9EA
:10B640000B512943114319605969A26A21F007017E
:10B65000114341F00401002DD1D078B1B0F5005F65
:10B6600016D0022A03D9032AC9D1EA01C7D540223C
:10B670000123626584F83530012038BD012A03D0EA
:10B6800032F00202BBD1F0E7B5F1C07FB7D1EEE7EF
:10B69000032AB4D801A050F822F000BF6FB600080A
:10B6A0006BB600086FB6000889B600083F8010F03E
:10B6B000ABAAAAAA98750308002834D090F83520C0
:10B6C000022A0346D0B230D01A681849D0B21038D6
:10B6D00030B4A1FB004109091468154D24F00104A0
:10B6E0006D5C14600021116051609160D160116146
:10B6F000212151615F286FF3090288BF04323F2482
:10B700000021AC40DD65C3E90F11C3E91111C3E9A4
:10B7100013119A659460596583F8341083F83510D5
:10B72000084630BC7047012070477047ABAAAAAAF0
:10B730009875030870B490F83440856D012C0AD0D8
:10B7400090F835404FF0010C644580F834C005D0C6
:10B75000002380F83430022070BC7047022680F845
:10B760003560046800264665266826F48026266033
:10B7700063608368402B0EBFA260A160E260C26D6F
:10B7800008BFE1603F239340AB602368026C43F045
:10B79000160323601AB1236843F00803236023686B
:10B7A00043F001030020236070BC704770B504466D
:10B7B000866DFFF74FFA94F83530022B06D08023C0
:10B7C0006365002384F83430012070BD23681A6853
:10B7D00022F016021A605A6922F080025A61226C25
:10B7E000054642B31A6822F008021A601A6822F06D
:10B7F00001021A6005E0FFF72DFA431B052B10D854
:10B8000023681B6813F00103F5D1E16D3F228A40E4
:10B81000184601210023B26084F8351084F83430D2
:10B8200070BD032320226265184684F8353000235A
:10B8300084F8343070BDA26C002AD3D1D6E700BFA3
:10B8400090F83530022B03D08023436501207047E8
:10B850000268052380F83530136823F001030020C7
:10B8600013607047F0B583B0674A876D1668002390
:10B870000193C36D3D6808229A402A42044603D0D2
:10B8800001680868400778D401229A402A4203D010
:10B890002168496908066AD404229A402A4203D0E2
:10B8A0002168096889075CD410229A402A4203D093
:10B8B00021680868000741D420229A402A4214D007
:10B8C00021680868C00610D5BA6094F83520052AAA
:10B8D00063D00B6813F4802F0B687ED0190340F1FE
:10B8E0008980E36B0BB120469847636D23B3636D8A
:10B8F000DA071AD522684549052384F835301368DC
:10B90000A1FB061623F00103B60A136002E01368D8
:10B91000DB0704D5019B0133B3420193F7D9012220
:10B92000002384F8352084F83430E36C23B12046BA
:10B9300003B0BDE8F040184703B0F0BDBA600A6834
:10B9400012F4802F0A6822D1D20503D40A6822F0AB
:10B9500008020A60226C002AAED020469047E36DB0
:10B96000AAE7BA60626D42F0040262659CE7BA60C1
:10B97000626D42F0020262658EE7086820F0040002
:10B980000860BA60626D42F0010262657CE71103F3
:10B99000E0D5A26C002AE0D18EE70A6822F01602F8
:10B9A0000A604A6922F080024A61226C3AB30A684E
:10B9B00022F008020A603F2202FA03F3216DBB6005
:10B9C0000122002384F8352084F834300029B3D0D4
:10B9D000204603B0BDE8F040084713F4807380D1DF
:10B9E0000A6822F010020A60012284F8352084F8E7
:10B9F000343076E7636C002B7FF475AF75E7A26C8B
:10BA0000002AD4D1D7E700BF00000020B5814E1B2B
:10BA100090F83500704700BF406D704703689A6921
:10BA2000120440F197802DE9F04104460E4610279C
:10BA30009A6912F010087FD0DF6135469A6912F0DA
:10BA400020087BD1FFF706F9401B192823683DD851
:10BA50009A699006F6D52022DA6148F0040801259B
:10BA60009A69D10552D54FF480715505D96148F0D6
:10BA7000010804D54FF48061D96148F008089105A8
:10BA800004D54FF4007248F00208DA619A6995070C
:10BA900044BF00229A629A69D00703D49A6942F09F
:10BAA00001029A615A682C4802405A60636C202156
:10BAB000002243EA0803636484F8411084F84220BA
:10BAC000002384F840300120BDE8F081586894F8E4
:10BAD000422099690904D2B20BD5410409D4202A25
:10BAE00007D05A6842F480425A60FFF7B3F82368DF
:10BAF00005469A699006A1D4FFF7ACF8401B1928B7
:10BB00002368F6D99A694FF02008A6E75005B1D40A
:10BB10009205B6D4002DB9D1FFF79CF8801B1928E7
:10BB2000236802D99A6911040BD49A6912043FF56B
:10BB30007FAF0020BDE8F081454691E74FF0000857
:10BB400089E7636C20221343636484F8412084F8FE
:10BB50004250B5E70020704700E800FE2DE9F047AD
:10BB6000044600680F4616461D464FF010084FF079
:10BB70002009836937EA03030CBF01230023B34282
:10BB80006CD1836913F0100366D06B1CC0F81C8065
:10BB900067D183699A06FCD5C0F81C90002343F056
:10BBA00004030121826912F4807F31D04FF4807147
:10BBB000C161510543F0010304D54FF48061C161B7
:10BBC00043F00803910504D54FF4007243F00203DB
:10BBD000C2618269910744BF002282628269D207F2
:10BBE00003D4826942F001028261426839490A4005
:10BBF0004260626C202500211343636484F8415045
:10BC000084F84210002384F840300120BDE8F0871A
:10BC100012F4806FD1D19205D6D40029D9D16B1CF2
:10BC2000A7D0FFF717F8089BC31AAB42206801D8CA
:10BC3000002D9CD1836937EA03030CBF0123002345
:10BC4000B34294D1636C20210B430022636484F8D7
:10BC5000411084F84220D5E71946A3E70020BDE84B
:10BC6000F087DDF820A083699B0695D4FEF7F2FFEC
:10BC7000A0EB0A00854200D305BB2068416894F818
:10BC8000423082691204DBB20BD54A0409D4202B5E
:10BC900007D0436843F480434360FEF7DBFF8246EE
:10BCA000206883699906DED4FEF7D4FFA0EB0A0072
:10BCB00019282068F5D98369202370E720688369F3
:10BCC00099063FF569AFFEF7C5FFA0EB0A00854274
:10BCD000F4D2D2E700E800FE2DE9F84303680446F9
:10BCE000986980065FD40D46164610274FF020084D
:10BCF0009A6912F0100C59D06A1CDF6161D19A69FF
:10BD00009106FCD5C3F81C804FF0000C4CF0040CDD
:10BD100001219A69D00532D54FF480715505D9615A
:10BD20004CF0010C04D54FF48061D9614CF0080C43
:10BD3000910504D54FF400724CF0020CDA619A6957
:10BD4000900744BF00229A629A69D10703D49A6986
:10BD500042F001029A615A68364802405A60636CA8
:10BD60002021002243EA0C03636484F8411084F824
:10BD70004220002384F840300120BDE8F8835005BC
:10BD8000D1D49205D6D40029D9D1FEF763FF801B08
:10BD9000A842236800D81DB99A6912F0200207D082
:10BDA0009A699206A4D50020BDE8F8836146B0E701
:10BDB000636C20210B43636484F8411084F84220B3
:10BDC000D7E7B1469A6992069CD4FEF743FFA0EBF1
:10BDD0000900854200D30DBB2368586894F84220BF
:10BDE00099690904D2B20BD5410409D4202A07D09D
:10BDF0005A6842F480425A60FEF72CFF236881465D
:10BE00009A699006DED4FEF725FFA0EB09001928F9
:10BE10002368F5D99A694FF0200C77E723689A696F
:10BE200090063FF56FAFFEF715FFA0EB09008542C6
:10BE3000F4D2D1E700E800FE2DE9F8430368044698
:10BE40009869400700F19A800D46164610274FF07A
:10BE500020089A6912F0100C6BD06A1CDF6140F068
:10BE600094809A699106FCD5C3F81C804FF0000CB1
:10BE70004CF0040C01219A69D00538D54FF480713B
:10BE80005505D9614CF0010C04D54FF48061D9619E
:10BE90004CF0080C910504D54FF400724CF0020CE4
:10BEA000DA619A69950744BF00229A629A69D007BD
:10BEB00003D49A6942F001029A615A6850480240DC
:10BEC0005A60626C0021202042EA0C02626484F80D
:10BED000401084F8410084F842109B69990623D4ED
:10BEE000FEF7B8FE23689B690120BDE8F883500582
:10BEF000CBD49205D0D40029D3D19A6992061AD511
:10BF00009A699A69D0062BD5202010250422DD617C
:10BF10006264D8615A683A4D2A405A6084F84100F8
:10BF200084F8401084F84210FEF794FE23689B6961
:10BF3000DAE761469FE7FEF78DFE801B854215D24A
:10BF400021688A6912F004020B4619D1636C84F8E7
:10BF5000402020200343636484F841008B69C3E7D9
:10BF60006164FEF777FE801B8542E9D3236819469A
:10BF7000002DE6D09A6952077FF56BAF0020B4E739
:10BF80008A6951077FF565AFF8E7B1469A6992066D
:10BF90003FF56AAFFEF75EFEA0EB0900854200D3D5
:10BFA0000DBB2368586894F8422099690904D2B2FD
:10BFB0000BD5410409D4202A07D05A6842F48042A4
:10BFC0005A60FEF747FE236881469A699006DDD4E1
:10BFD000FEF740FEA0EB090019282368F5D99A69FD
:10BFE0004FF0200C44E723689A6990063FF53CAF78
:10BFF000FEF730FEA0EB09008542F4D2D1E700BF86
:10C0000000E800FE002854D010B590F841300446F6
:10C0100003F0FF02002B47D02368242284F841203C
:10C020001968626821F0010122F0706219601A61DA
:10C030009A68E16822F4004201299A60A26809D056
:10C0400042F4044202299A6007D15A6842F400621D
:10C050005A6006E042F400429A605A6822F4006294
:10C060005A605968226941F0007141F400415960F9
:10C070006169D8680A43A16920F4004042EA0122BC
:10C08000E169D860206ADA6001431960196841F0FB
:10C090000101196000222023626484F84130226388
:10C0A00084F84220104610BD80F84020FDF732F899
:10C0B000B2E70120704700BF2DE9F04F154690F818
:10C0C000412083B0202A0C9E40F08A801F4690F8C1
:10C0D0004030012B044600F08380012380F840307B
:10C0E0008B46FEF7B7FD824601462046FFF796FCD9
:10C0F000002871D1212384F84130102384F8423084
:10C1000060646785628D2368656292B2FF2A60630E
:10C11000CBF3090B68D8618D89B22185002940F0E5
:10C120002B815A6898490A4042EA0B0242F0007299
:10C1300042F400525A60628D92B2002A00F0A88048
:10C140004FF010084FF020099D6915F0020540F0EE
:10C1500089809A6912F0100200F08280771CC3F87F
:10C160001C8040F0D3809A699106FCD5C3F81C90DE
:10C1700045F0040201209969CD0550D54FF4807037
:10C18000D861480542F0010204D54FF48060D861BF
:10C1900042F008028E0504D54FF4007142F002020D
:10C1A000D9619969880744BF002199629969C907D3
:10C1B00003D4996941F0010199615968734D29408F
:10C1C0005960636C002020211343636484F84000AD
:10C1D00084F8411084F84200012003B0BDE8F08FDC
:10C1E000022003B0BDE8F08FFF2222854FF47F00CC
:10C1F000FE214FF0807215F8017B9F622185618DD1
:10C200006562013989B2618559685F4D42EA0B0266
:10C2100029400A43024342F400525A608BE74F051B
:10C22000B3D48D05B8D40028BBD1721C8CD0FEF7D6
:10C2300011FDA0EB0A039E42236801D3002E81D199
:10C240009A6912F002027FF47DAF636C84F840209B
:10C2500020210B43636484F8411084F84220BBE73B
:10C26000104688E7606A228D10F8011B9962618D83
:10C270006062013989B26185618D013A92B289B2F9
:10C28000228501B1CAB1628D92B2002A7FF45AAF01
:10C29000524631462046FFF71FFD00289CD12368F7
:10C2A0003A4D2021D9615A682A405A6084F84110D9
:10C2B00084F8400084F842008FE7CDF800A03346B0
:10C2C00080212046FFF74AFC002885D1628D236833
:10C2D00092B2FF2A0CD95A682D490A4042EA0B0251
:10C2E00042F0FF7242F48032FF2121855A60CAE792
:10C2F000628D2748596892B22285D2B24BEA024237
:10C3000001400A4342F000725A60BCE757469A69FE
:10C3100092063FF52BAFFEF79DFCC01B864200D373
:10C32000FEB92368586894F8422099690904D2B28A
:10C330000BD5410409D4202A07D05A6842F4804220
:10C340005A60FEF787FC236807469A699006DED498
:10C35000FEF780FCC01B19282368F6D99A692025AE
:10C3600006E723689A6990063FF500AFFEF772FC76
:10C37000C01B8642F5D2D4E7013989B2481CC0B24D
:10C3800000044FF0007236E7009800FC00E800FE61
:10C39000009C00FC2DE9F047044690F8410082B073
:10C3A00020280A9E40F08D80984694F84030012B5A
:10C3B00000F087804FF0010A84F840A00F469146B4
:10C3C000FEF748FC054601462046FFF727FB0028FC
:10C3D00073D1222384F84130102384F84230606402
:10C3E000A4F82A80638D2268C4F824909BB2FF2BA6
:10C3F0006063C7F3090768D8638D404851689BB2F2
:10C400002385DBB247EA034301400B4343F000734B
:10C4100043F410535360638D9BB22A463146204645
:10C42000002B39D0FFF708FD002846D12268636A47
:10C43000526A1A70638D228D616A013B9BB26385DB
:10C44000638D013A92B201319BB261622285002B69
:10C45000E1D0002ADFD18021009533462046FFF746
:10C460007DFBFF2148BB638DDFF898C022689BB23B
:10C470008B42604635D95368218503EA0C033B4360
:10C4800043F0FF7343F480335360638D9BB22A46BD
:10C4900031462046002BC5D1FFF71EFC68B9236842
:10C4A000174D2021D9615A682A405A6084F84110FA
:10C4B00084F8400084F8420000E0012002B0BDE8AA
:10C4C000F087022002B0BDE8F08753680B49A4F85A
:10C4D00028A00B403B4343F0807343F492335360F6
:10C4E00099E7638D51689BB22385DBB247EA03432A
:10C4F00001400B4343F0007353608CE7009800FC4D
:10C5000000E800FE009C00FC90F84120202A23D186
:10C510005FFA82FC90F84020012A03461CD0026892
:10C52000242000B583F84100106820F0010010605D
:10C53000106820F480501060106801431160116889
:10C540004FF0000E41F00101116083F841C083F803
:10C5500040E070465DF804FB022070472DE9F04F83
:10C56000A44A0B68904285B04FF0000200F0D580DD
:10C57000DFF890824FF0010B8A4603E00132102A67
:10C5800000F086800BFA02F101EA03069943F5D127
:10C59000DAF8044004F0030C510003250CF1FF37D6
:10C5A0008D40012F6FEA050575D9BCF1030F40F0EE
:10C5B0009C8107680CFA01F13D40294314F4403F87
:10C5C0000160DBD08C4D00210391696C41F4804106
:10C5D0006964696C01F480410391039922F00301BD
:10C5E00001F1804101F59C3102F003078D68BF0025
:10C5F0004FF00F0C0CFA07FC25EA0C0E7F4DA842F9
:10C6000000F084807E4DA84200F05381DFF8F8C12D
:10C61000604500F05581DFF8F4C1604500F05781B6
:10C62000DFF8ECC1604500F05981DFF8E8C16045F2
:10C630000CBF4FF0060C4FF0070C0CFA07F74EEA50
:10C6400007058D60D8F80810F543E70254BF29406C
:10C650003143C8F80810D8F80C10A70254BF29407D
:10C660003143C8F80C10D8F80410A70354BF294070
:10C670003143C8F80410D8F80010E40302F10102B5
:10C6800054BF29403143102AC8F800107FF47AAF14
:10C6900005B0BDE8F08F876807EA050EDAF80C7080
:10C6A0008F4047EA0E078760476827EA060EC4F303
:10C6B0000017974047EA0E074760C76807EA050E6C
:10C6C000DAF808708F4047EA0E07BCF1020FC76026
:10C6D0007FF46FAF4FEAD20900EB890902F0070E31
:10C6E000D9F820700097DAF810704FEA8E0E07FA2A
:10C6F0000EF701970F2707FA0EFE009F27EA0E0E8E
:10C70000019F47EA0E07C9F8207052E74FF0010C6D
:10C710000CFA07F74EEA070593E7DFF8DCB04FF0B5
:10C72000010A02E00132102AB2D00AFA02F403EA46
:10C7300004069C43F6D14D685400032707FA04FC15
:10C7400005F003086FEA0C0908F1FF3CBCF1010F8A
:10C7500062D9B8F1030F40F0D280D0F800C008FAD7
:10C7600004F40CEA090C44EA0C0415F4403F04609C
:10C77000D8D000240394DBF8444044F48044CBF840
:10C780004440DBF8444004F480440394039C22F0CA
:10C79000030404F1804404F59C3402F0030CD4F843
:10C7A00008E00F274FEA8C0C07FA0CFC2EEA0C0C61
:10C7B000C4F808C0134CEF02A4686FEA060C76D4E4
:10C7C00004EA0C040F4FBC60FC68AF026DD404EAAD
:10C7D0000C040C4FFC607C68AF0364D40CEA0404C6
:10C7E000084FED037C603C685BD40CEA0404054D03
:10C7F0002C6097E70000024000380240000402402D
:10C8000000080240003C0140000C024000100240C1
:10C810000014024000180240D0F808E0CF6809EA8E
:10C820000E0E07FA04FC4CEA0E0CC0F808C0D0F853
:10C8300004E0C5F3001C2EEA060E0CFA02FC4CEADA
:10C840000E0CC0F804C0D0F80CE08F6809EA0E0E98
:10C8500007FA04FC4CEA0E0CB8F1020FC0F80CC049
:10C860007FF47BAF4FEAD20C4FEA8C0C0CF1804C7A
:10C870000CF5003C02F0070EDCF8207000970F6901
:10C880004FEA8E0E07FA0EF701970F2707FA0EFEF2
:10C89000009F27EA0E0E019F47EA0E0ECCF820E01B
:10C8A0005BE73443A3E734439AE7344391E73443E7
:10C8B00088E74FF0020C0CFA07F74EEA0705C0E6CE
:10C8C0004FF0030C0CFA07F74EEA0705B9E64FF0F4
:10C8D000040C0CFA07F74EEA0705B2E64FF0050C18
:10C8E0000CFA07F74EEA0705ABE6C76807EA050E3C
:10C8F000DAF808708F4047EA0E07C76059E6DFF89C
:10C9000018C08F68DCF80CE0A74009EA0E0E47EA71
:10C910000E0ECCF80CE020E7000002402DE9F04FAD
:10C92000804B984283B04FF000034FF0010600F0B7
:10C9300089807D4F4FF00F094FF0030A02E0013369
:10C94000102B34D006FA03F232EA010402EA010C99
:10C95000F5D123F0030404F1804403F00305AD0096
:10C9600004F59C3409FA05F80195704DD4F808E0F7
:10C97000A84208EA0E0E1DD06D4DA84256D06D4D4E
:10C98000A84259D06C4DA84200F0BF80DFF8ACB18E
:10C99000584500F0C080DFF8A8B1019D58450CBF94
:10C9A0004FF0060B4FF0070B0BFA05F505E003B04F
:10C9B000BDE8F08F019D06FA05F5AE4513D13D683F
:10C9C00025EA0C053D607D6825EA0C057D60FD6863
:10C9D00025EA0C05FD60BD6825EA0C05BD60A5686B
:10C9E00025EA0805A56004685D000AFA05F54FEA26
:10C9F000D30C24EA050400EB8C0C046003F007045C
:10CA0000DCF820E0A40009FA04F42EEA0404CCF8CF
:10CA10002040C46824EA0504C460446824EA020291
:10CA20004260826822EA0502826088E7019D4FF039
:10CA3000020B0BFA05F5C0E7019D4FF0030B0BFA53
:10CA400005F5BAE7384F4FF00F0C4FF0030E02E038
:10CA50000133102BABD006FA03F201EA02058A4338
:10CA6000F6D123F0030202F1804202F59C3203F07A
:10CA70000304D2F80890A4000CFA04F414EA090F95
:10CA80006FEA05081DD1D7F8008028EA0508C7F825
:10CA90000080D7F8048028EA0508C7F80480D7F892
:10CAA0000C8028EA0508C7F80C80D7F8088028EA27
:10CAB0000508C7F808806FEA0508956825EA0404A8
:10CAC000946002685C000EFA04F422EA0402026038
:10CAD000DA08920002F1804202F5003203F0070505
:10CAE000D2F82090AD000CFA05F529EA050515628B
:10CAF000C26822EA0402C260426808EA0202426096
:10CB0000826822EA04028260A2E7019D4FF0040BD2
:10CB10000BFA05F551E7019D4FF0050B0BFA05F5F2
:10CB20004BE700BF00000240003C0140000402400F
:10CB300000080240000C02400010024000140240B5
:10CB40000018024002B9090481617047704700BFB4
:10CB5000044A5169014200D1704708B55061FFF79E
:10CB6000F5FF08BD003C014030B50446481C83B0C9
:10CB700021D1236802E05A69550505D45A69920704
:10CB8000F9D5002003B030BD1A6842F400721A6073
:10CB900000216FF4806020225861216384F83D20D9
:10CBA00084F83E10236C43F004032364002384F8CC
:10CBB0003C300120E6E720684569AD070346E0D434
:10CBC00040694005E0D4CDE90012FEF743F8019A30
:10CBD0000099831A9942206801D30029ECD1436956
:10CBE0009B07E9D400232022236384F83D2084F8A6
:10CBF0003E30236C13432364D8E700BF30B50446AE
:10CC0000481C83B021D1236802E05A69550505D438
:10CC10005A691207F9D5002003B030BD1A6842F4F2
:10CC200000721A6000216FF4806020225861216335
:10CC300084F83D2084F83E10236C43F00403236401
:10CC4000002384F83C300120E6E7206845692D0781
:10CC50000346E0D440694005E0D4CDE90012FDF779
:10CC6000F9FF019A0099831A9942206801D300299B
:10CC7000ECD143691B07E9D400232022236384F805
:10CC80003D2084F83E30236C13432364D8E700BF73
:10CC9000002800F0B88070B590F83D30044603F0ED
:10CCA000FF02002B00F098802368242284F83D20A6
:10CCB0001A6822F001021A601A6842F400421A60EF
:10CCC0001A6822F400421A6001F02AFD4F4B656891
:10CCD0009D424FD84E4B98427CD94E4B6A00A3FBE5
:10CCE0000035431EB3FBF2F32268516821F03F0187
:10CCF00041EA95415160116A4FEA954C0CF1010CE3
:10CD000021F03F0141EA0C011162D16940F6FC704B
:10CD1000013321F44F41034221F0FF0161D104238B
:10CD20000B43D361D4E907301168034321F0C001FC
:10CD30000B4313609168D4E9030321F403410343D7
:10CD400021F0FF010B439360D4E90530D168034320
:10CD500021F0FF010B43D3601168002341F0010172
:10CD600020201160236484F83D00236384F83E3062
:10CD7000184670BD284B98422CD92268254B274E67
:10CD8000A3FB003C431E506820F03F0040EA9C405B
:10CD900050604FEA9C414FF4967000FB01F1A6FBF6
:10CDA0000161106A890920F03F00013101431162DD
:10CDB000D169A06821F44F4121F0FF01A0B905EB32
:10CDC0004505B3FBF5F30133C3F30B03CBB143F4D8
:10CDD0000043A5E7012070BD80F83C20FDF718F85E
:10CDE00062E7C3F30B039BE705EB850505EB8505C0
:10CDF000B3FBF5F30133C3F30B0313B143F4404327
:10CE00008EE701238CE70120704700BFA086010058
:10CE10007F841E0083DE1B43FF083D00D34D62105C
:10CE2000B0B10268242310B580F83D30136823F0B8
:10CE3000010304461360FDF7FBF80023236484F824
:10CE40003C3084F83D30236384F83E30184610BDF2
:10CE5000012070472DE9F047044682B099460A9FA9
:10CE600088469246FDF7F6FE94F83D30202B04D01C
:10CE70000225284602B0BDE8F08725680646AB6962
:10CE80009B0717D5FDF7E6FE801B19282568F6D904
:10CE9000AB69DB4313F00203F1D12022236384F852
:10CEA0003D2084F83E30226C84F83C3042F0200271
:10CEB0002264DDE794F83C30012BD9D0012384F8BB
:10CEC0003C302B68D80765D52B68864A23F400636D
:10CED0002B60212384F83D30102384F83E3000235A
:10CEE0002364A4F82A90638DE2622385E36AC4F880
:10CEF00024A0082B06D0012B04D0934202D0236B30
:10CF0000122B03D12B6843F480732B60791C40F003
:10CF1000C1806B69DA07FCD52369B3F5804F3ED138
:10CF200008F0FE032B61324639462046FFF71CFE0F
:10CF30000546002829D1236801905A6901929A690F
:10CF4000208D0192019A002869D07A1C79D15A6902
:10CF5000110638D45A695205F9D500226FF4806061
:10CF600020215861226384F83D1084F83E20226C11
:10CF700042F004022264226C0021042A84F83C104E
:10CF800003D11A6842F400721A600125284602B0E3
:10CF9000BDE8F0872B6843F001032B6094E74FEA6C
:10CFA000E81303F0060343F0F0032B6132463946E1
:10CFB0002046FFF723FE0028E7D122685FFA88F3B6
:10CFC0001361B0E7208DD4F824C0614611F8012B1D
:10CFD0001A61628D6162013A92B262855969421E9C
:10CFE00092B2490722850CD55AB19CF801201A61EA
:10CFF0000CF102026262628D013A023892B220851F
:10D000006285781C2BD15A69510705D45A6952059B
:10D01000A3D45A695107F9D5208D002897D11A68F1
:10D02000002142F4007220201A6084F83D0084F848
:10D030003C1084F83E101CE71FB95A6912F08002B8
:10D040001ED05A691006BDD45A69520585D4FDF721
:10D0500001FE831B9F422368EFD3EDE767B15A6956
:10D0600051073BD45A6950053FF577AFFDF7F2FD04
:10D07000831B9F422368F1D25A6912F00402EED159
:10D080002021226384F83D1084F83E20226C0A435C
:10D09000226470E76B69D9073FF53EAFFDF7DAFD13
:10D0A000831B9F42256801D3002FF3D16B69DB07F7
:10D0B000F0D400222023226384F83D3084F83E20FF
:10D0C000236C84F83C2043F0200323642B68D805AC
:10D0D0007FF55BAF4FF40073236456E7208D002883
:10D0E000AFD19CE70000FFFF2DE9F043044687B075
:10D0F00098460E9E0F469146FDF7ACFD94F83D30E4
:10D10000202B04D00227384607B0BDE8F08305463F
:10D11000206883699B0717D5FDF79CFD401B1928E4
:10D120002068F6D98369DB4313F00203F1D1202292
:10D13000236384F83D2084F83E30226C84F83C3030
:10D1400042F020022264DDE794F83C30012BD9D074
:10D15000012384F83C300368D90753D503689C4AFF
:10D1600023F400630360222384F83D30102384F805
:10D170003E3000232364A4F82A80638DE262E26AD1
:10D1800023850368C4F8249043F48063082A03606D
:10D1900007D0012A05D012F5803F02D0236B112B56
:10D1A00003D1036843F480730360721C40F0208154
:10D1B0004369DB07FCD52369B3F5804F27D147F0DE
:10D1C0000103DBB203612A4631462046FFF7CCFC5F
:10D1D0000746002833D1228D2368002A34D10190DC
:10D1E0005A6901929A690192019A1A6842F400728E
:10D1F0001A600023202284F83D2084F83C3084F813
:10D200003E3080E7036843F001030360A6E74FEA7E
:10D21000E71808F0060848F0F00303612A46314693
:10D220002046FFF7EBFC50B92368FFB21F612A4686
:10D2300031462046FFF798FC002800F0B380012714
:10D24000384607B0BDE8F083012A196800F07C81F8
:10D25000022A00F0BF8041F480611960049059698E
:10D260000491996904910499032A47D8012A00F08E
:10D270004281022A00F01681711C67D15A69520757
:10D28000FCD51A68616A22F480621A601B690B700F
:10D29000638D616A228D013B9BB2013A0131638546
:10D2A000731C2285616222686CD153695807FCD5D2
:10D2B000136843F40073136013690B70638D228D40
:10D2C000606A2168013B9BB263850969531E00F1C6
:10D2D000010C2385C4F824C04170228D638D616ADE
:10D2E000013A013B013192B29BB2616222856385B2
:10D2F000002A3FF47EAF032A2368B7D95A69520641
:10D3000000F1A780002E00F0A0800CE0FDF7A2FC49
:10D31000401B8642236802D25A69510624D55A69B5
:10D32000520600F196805A69D006EFD500226FF0C0
:10D33000100020215861226384F83D1084F83E20BB
:10D34000236C236484F83C20012779E75A6952074B
:10D3500097D4FDF77FFC431B9E42236801D3002E28
:10D36000F4D15A695107F1D400222023226384F8B2
:10D370003D3084F83E20236C84F83C2043F02003A9
:10D3800023645CE753695B0700F1EC80FDF762FC06
:10D39000431B9E42226801D3002EF3D153695907E3
:10D3A000F0D4E1E7226805905369059393690593EA
:10D3B000059B1368711C43F48073136040F0D480A4
:10D3C0005369DB07FCD548F0F1031361FBE600BFAE
:10D3D0000000FFFF21F480611960196841F40061C9
:10D3E00019600390596903919969039103993BE787
:10D3F0004369DB073FF5DFAEFDF72CFC431B9E4284
:10D40000206801D3002EF3D14369D907F0D400225C
:10D410002023226384F83D3084F83E20236C84F876
:10D420003C2043F0200323640368DA057FF507AF4F
:10D430004FF40073236402E7FDF70CFC23685A697C
:10D44000510691D55A69520603D45A69D006F3D5CC
:10D450006CE7626A1B691370638D2168228D606AB4
:10D46000013B9BB263854B69013A92B200F1010C1A
:10D470005B072285C4F824C07FF53AAF032A03D1A5
:10D480000B6823F480630B600B694370636A228D21
:10D4900001336362638D013A013B92B29BB22285F4
:10D4A000638525E7701C17D15A695107FCD51A68A6
:10D4B00042F400721A601A69636A1A70638D626AB4
:10D4C000013B9BB26385238D013B23852368511C5F
:10D4D0001B6961625370D9E75A695007E7D4FDF7B9
:10D4E000B9FB431B9E42236801D3002EF4D15A6935
:10D4F0005207F1D438E75A69500621D4E6B10CE05E
:10D50000FDF7A8FB401BB042236803D95A695206B5
:10D510007FF52AAF5A69500612D45A69D1063FF5F1
:10D5200005AFEDE7FDF796FB23685A6952067FF5D4
:10D530001BAF5A69500603D45A69D106F2D5F5E6F5
:10D540001A69636A1A70A1E721F480611960029078
:10D5500059690291996902910299196841F400711F
:10D56000196081E6616AA3E65369D9073FF52BAFDD
:10D57000FDF770FB431B9E42226801D3002EF3D1BE
:10D580005369DF07F0D400212023216384F83D3064
:10D5900084F83E10236C84F83C1043F0200323648D
:10D5A0001368D8053FF544AF49E600BF70B582B0B7
:10D5B00005460020019095F83D00202820D14948DB
:10D5C000494C0068C008A4FB0040000A00EB800042
:10D5D00000EB8000019003E02C68A069860712D55B
:10D5E000019C013C019401980028F5D12023286377
:10D5F00085F83D3085F83E002B6C43F020032B640A
:10D60000022002B070BD95F83C000128F8D001203E
:10D6100085F83C002068C00703D4206840F0010072
:10D620002060206820F400602060222085F83D0002
:10D630000026102085F83E002E646B856B8D2B48EC
:10D64000E8629BB26A622B85696423B3A86B0028E9
:10D650003ED004F11001264CC463264C8664C0E918
:10D6600010660665C464FEF765F818BB2B681A6877
:10D6700042F480621A601A6842F480721A6085F877
:10D680003C005A6842F440725A605A6842F40062A0
:10D690005A600020B5E785F83C30636843F4E063E6
:10D6A0006360236843F480632360236843F48073DA
:10D6B0002360EEE7202385F83D3085F83E602B6C33
:10D6C00043F010032B64002385F83C30012098E7D9
:10D6D000202385F83D3085F83E002B6C43F0800315
:10D6E0002B64F0E70000002089B5F8140000FFFF6C
:10D6F0002DD80008E5D70008704700BF704700BF6D
:10D70000704700BF704700BF704700BF704700BF41
:10D71000704700BF90F83D20016D034659B9C26CB7
:10D720000168012A826C1CD0C2F307220A61026DD3
:10D73000013202657047016D01290AD0016D02298D
:10D7400015D003685A69120602D500221A61704783
:10D750007047826C0168D2B20A61026D01320265C3
:10D760007047D2B20A61026D023202657047D2B2CE
:10D77000222A1FD0418D89B2C1B9418D89B20029B9
:10D78000E6D1212AE4D1026810B5546824F4E0649B
:10D790005460146844F4007414602022016380F81B
:10D7A0003D2080F83E10FFF7B3FF10BD212A0AD0BC
:10D7B0005B8D704701680A6842F480720A60026DEE
:10D7C000013202657047416A026811F8010B10616D
:10D7D0005A8D5962013A92B25A857047704700BF1C
:10D7E000704700BF10B5846B636B0BB10022DA6326
:10D7F000A36B0BB10022DA63FEF70EF9022800D109
:10D8000010BD21680B680022202023F480630B6088
:10D81000628584F83D0084F83E20236C43F01003B9
:10D8200020462364FFF7DCFF10BD00BF70B5846B9A
:10D8300094F83D20236894F83E10E56AC8B2596810
:10D8400021F440715960616BD2B209B10026CE63F8
:10D85000A16B09B10026CE6302F0210121293ED03F
:10D8600002F02201222938D094F83E20002A33D039
:10D87000628D92B2012A41D05A6815F5803F22F498
:10D8800040725A6006D0082D04D0B5F12A4F01D05D
:10D89000202D03D11A6842F400721A605A6822F4EB
:10D8A00080525A605A68002122F400625A606185F1
:10D8B000236C43BB202284F83D2094F83E2084F85A
:10D8C0003E30402A3AD0082D21D0202D1FD01223DF
:10D8D00023632046FFF712FF70BD2028C4D159688A
:10D8E000002021F40061292A5960608512D02A2A7B
:10D8F0001AD05A6842F440725A6070BD1A6822F415
:10D9000080621A60B8E72046FFF76AFF70BD002307
:10D910002363DEE7282321222263204684F83D305A
:10D92000FFF7EEFE2368E4E7282322222263204645
:10D9300084F83D30FFF7E6FE2368DAE720462363EC
:10D94000FFF74CFF70BD00BF704700BF70B53A4B8A
:10D950003A4A1B68806B82B0DB080021A2FB0323DC
:10D9600001911B0A90F83D10026803EB8303C3EB9F
:10D97000C303C9B2019305E0019B013B0193136806
:10D980009B0506D5019B002BF6D1036C43F02003C9
:10D990000364D0E90D4344B30025E563F3B1166891
:10D9A000DD6326F4806616604585256500241C65C8
:10D9B000136823F00103136090F83D30602B29D0E9
:10D9C00001F02801282918D02022002380F83D20CA
:10D9D00080F83E30FFF704FF02B070BD156825F4F3
:10D9E0008065156043852365E2E7F3B11568DC6364
:10D9F00025F4806515604485D8E7136843F001037A
:10DA000013601368002443F480631360046380F898
:10DA10003D10DFE70023202280F83D2080F83E30D3
:10DA20000364FFF791FF02B070BD146824F48064B2
:10DA300014604385BCE700BF0000002089B5F814DE
:10DA400010B590F83D2090F83E30102B0446D2B22D
:10DA500039D0D9B2402936D002F0280128292368CC
:10DA60003CD05968080507D4602A05D0202100223F
:10DA700084F83D1084F83E20002222635A6812F494
:10DA8000006233D194F83D10602974D05A69500671
:10DA900005D5626A1B691370636A013363622046AD
:10DAA000FFF79EFE236C190704D02268536823F405
:10DAB000E063536094F83D30226C5207DBB201D52D
:10DAC000282B2ED010BD222AC6D123681A6822F432
:10DAD00000621A605A681205C8D5CDE70022226399
